:100000000C9483000C94E7290C94122A0C943D2A3A
:100010000C94AD000C94AD000C94AD000C94AD00AC
:100020000C94AD000C94AD000C94AD000C94AD009C
:100030000C94AD000C94AD000C94AD000C94AD008C
:100040000C94AD000C94AD000C9402280C94AD00FF
:100050000C9414260C944A260C94AD000C94AD001C
:100060000C94AD000C94AD000C94AD000C94AD005C
:100070000C94AD000C94AD000C94AD000C94AD004C
:100080000C94AD000C94AD000C94AD000000000188
:100090000200090A00000000040308070000000035
:1000A0000000000000000000000000000102040841
:1000B0001020408001020408102040800102040842
:1000C0001020408001020408102040800202020239
:1000D00002020202040404040404040403030303EC
:1000E00003030303010101010101010100002200DA
:1000F000250028002B0000002100240027002A00F2
:10010000B30526247E2611241FBECFEFD0E4DEBF28
:10011000CDBF11E0A0E0B1E0E2ECFDE500E00BBFF7
:1001200002C007900D92AE34B107D9F729E3AEE4CF
:10013000B1E001C01D92A933B207E1F710E0C3E8B6
:10014000D0E004C02197FE010E941A2DC038D107CB
:10015000C9F70E94AC260C94DF2E0C9400001F936C
:10016000CF93DF93EC01162F0E94C12E181739F0A0
:10017000612FCE01DF91CF911F910C94C92EDF9199
:10018000CF911F9108950C94C12EDC01ED91FC914B
:100190000190F081E02D099461E08CE00C947229CB
:1001A00060E08CE00C94722961E08DE00C9472297F
:1001B00060E08DE00C9472290F931F93CF93DF932F
:1001C0008C01EC01892B11F4C1E0D0E01C161D0656
:1001D0000CF561E08CE00E94722960E08DE00E94E5
:1001E000722964E670E080E090E00E947D2860E083
:1001F0008CE00E94722961E08DE00E94722964E621
:1002000070E080E090E00E947D2801151105F1F278
:100210002197DCCF60E08CE00E94722960E08DE0E5
:10022000DF91CF911F910F910C9472290F931F931F
:10023000CF93DF938C01EC01892B11F4C1E0D0E066
:1002400061E08DE00E94722960E08DE01C161D06C1
:10025000BCF40E94722964E670E080E090E00E94A5
:100260007D2861E08DE00E94722964E670E080E004
:1002700090E00E947D280115110531F32197E4CF0C
:10028000DF91CF911F910F910C9472290F931F93BF
:10029000CF93DF938C01EC01892B11F4C1E0D0E006
:1002A00060E08CE01C161D06BCF40E94722964E616
:1002B00070E080E090E00E947D2861E08CE00E9488
:1002C000722964E670E080E090E00E947D280115CC
:1002D000110531F32197E4CFDF91CF911F910F9159
:1002E0000C94722980914E0190914F01A091500180
:1002F000B09151010196A11DB11D80934E019093C3
:100300004F01A0935001B0935101409104015091CD
:1003100005016091060170910701481759076A07A6
:100320007B0720F510924E0110924F011092500160
:10033000109251016091530180910901861780F05C
:1003400081E08093520180915201680F60935301C4
:1003500070E08CE00E94862A60E08DE00C947229A7
:1003600080910801681778F38FEFEBCF08958091A3
:100370004E0190914F01A0915001B0915101019611
:10038000A11DB11D80934E0190934F01A093500188
:10039000B093510140910401509105016091060113
:1003A00070910701481759076A077B0720F51092DB
:1003B0004E0110924F011092500110925101609124
:1003C000530180910901861780F081E080935201EA
:1003D00080915201680F6093530170E08DE00E949C
:1003E000862A60E08CE00C947229809108016817DD
:1003F00078F38FEFEBCF089560EC70E08FE898E32F
:100400000E94C50066E070E08FE898E30E94C50096
:100410006091623870E08FE898E30E94C50060EC5C
:1004200070E08FE898E30C94C50060EC70E08FE812
:1004300098E30E94C50067E070E08FE898E30E94AF
:10044000C5006091190170E08FE898E30E94C50033
:1004500060EC70E08FE898E30C94C50060EC70E00D
:100460008FE898E30E94C5006FE070E08FE898E3A2
:100470000E94C50061E070E08FE898E30E94C5002B
:1004800060EC70E08FE898E30C94C50060EC70E0DD
:100490008FE898E30E94C5006FE070E08FE898E372
:1004A0000E94C50070E060E08FE898E30E94C500FC
:1004B00060EC70E08FE898E30C94C50060EC70E0AD
:1004C0008FE898E30E94C5006EE070E08FE898E343
:1004D0000E94C5008091603861E070E0811102C027
:1004E00070E060E08FE898E30E94C50060EC70E087
:1004F0008FE898E30C94C50060EC70E08FE898E317
:100500000E94C50068E070E08FE898E30E94C50093
:1005100066E470E08FE898E30E94C50060EC70E04C
:100520008FE898E30C94C50060EC70E08FE898E3E6
:100530000E94C50060E570E08FE898E30E94C50066
:1005400061E070E08FE898E30E94C5006CE070E025
:100550008FE898E30E94C50060EC70E08FE898E3B4
:100560000C94C50080916238882341F060916B380B
:1005700070916C388DE698E30C9463220895809115
:100580006238882341F060911C0170911D018DE655
:1005900098E30C943C230895809162388823E1F01D
:1005A00080915F38843A51F460911A0170911B0177
:1005B00050E040E08DE698E30E940A2480915F3885
:1005C000893A51F460911A0170911B0141E050E0A9
:1005D0008DE698E30C940A2408958091623888236C
:1005E00061F08DE698E30E94352060936738709340
:1005F00068388093693890936A380895809162389A
:10060000882371F04091673850916838609169385B
:1006100070916A388DE698E30E94A2220C94ED0254
:10062000089580916238882361F08DE698E30E94F6
:100630000520609363387093643880936538909395
:100640006638089580916238882371F0409163384C
:100650005091643860916538709166388DE698E302
:100660000E9471210C9411030895809162388823AF
:1006700021F08DE698E30C94842080E0089583EDCA
:100680009FE00E94C30091E0833709F090E0892F3A
:100690000895C8E3DFE06FEFCE010E94AF0021961E
:1006A000C11580E1D807B9F70E94D4000E94D0009C
:1006B000FBCF88E39FE00E94C30091E0833009F004
:1006C00090E0892F089589E39FE00E94C300982F4E
:1006D00080935F3881E0943A21F0993A11F080E0FC
:1006E000089508958AE39FE00E94C30080935E38D6
:1006F0009FEF980F81E09E3F08F080E00895BF9241
:10070000CF92DF92EF92FF920F931F93CF93DF93DD
:100710008BE090E00E94DD267C018C01C8E3DFE0E5
:10072000CE010E94C300F80181938F012196C3344A
:10073000FFE0DF07A9F76BE070E0C7010E94A61E8B
:10074000B82EC92E082F192FDD24D394CE010E9474
:10075000C300F80191918F018913D12C2196C335E3
:10076000FFE0DF0799F78B2D9C2D0E947927C701A9
:100770000E9479278D2DDF91CF911F910F91FF90CE
:10078000EF90DF90CF90BF9008958FED9FE00E9493
:10079000C30091E0833709F090E0892F0895CF924C
:1007A000DF92EF92FF92CF930E94C503882309F452
:1007B00061C084ED9FE00E94C30090E090936C388C
:1007C00080936B3885ED9FE00E94C30090E090938A
:1007D0001D0180931C0186ED9FE00E94C30090E004
:1007E00090931B0180931A018BED9FE00E94C30040
:1007F000C82F8CED9FE00E94C30090E0B0E0A0E025
:100800007C01DD24CC24FC2A8DED9FE00E94C300F6
:10081000C82F8EED9FE00E94C300C82ADC2AC09238
:100820006338D0926438E0926538F092663887ED8C
:100830009FE00E94C300C82F88ED9FE00E94C30084
:1008400090E0B0E0A0E07C01DD24CC24FC2A89ED1E
:100850009FE00E94C300C82F8AED9FE00E94C30062
:10086000C82ADC2AC0926738D0926838E09269388A
:10087000F0926A38CF91FF90EF90DF90CF9008957B
:1008800080916138882309F48AC080916238882376
:1008900009F485C060916B3884ED9FE00E94AF0041
:1008A00060911C0185ED9FE00E94AF0060911A01EC
:1008B00086ED9FE00E94AF006091673870916838C4
:1008C0008091693890916A38692F7727882799270E
:1008D00087ED9FE00E94AF006091673870916838A3
:1008E0008091693890916A38BC018827992788EDF2
:1008F0009FE00E94AF0060916738709168388091E6
:10090000693890916A38672F782F892F992789ED58
:100910009FE00E94AF00609167388AED9FE00E94DF
:10092000AF00609163387091643880916538909120
:100930006638692F7727882799278BED9FE00E94DB
:10094000AF00609163387091643880916538909100
:100950006638BC01882799278CED9FE00E94AF0084
:1009600060916338709164388091653890916638F1
:10097000672F782F892F99278DED9FE00E94AF0078
:10098000609163388EED9FE00E94AF0063E78FEDCA
:100990009FE00E94AF008AE090E00C9446018AE05C
:1009A00090E00C94160160E08FED9FE00C94AF0096
:1009B00082E390E00E94DC000E9449038DE698E308
:1009C0000E946D2110926238089580916338909151
:1009D0006438A0916538B0916638892B8A2B8B2BAF
:1009E000E1F08091673890916838A0916938B091B2
:1009F0006A38892B8A2B8B2B81F080911A01909178
:100A00001B018F3F910549F080916B3890916C38B4
:100A1000892B19F010921901089581E08093190132
:100A2000089581E040916B0150916C012091690122
:100A300030916A014217530709F480E008958091CC
:100A40006B0190916C01019669E170E00E94C52CE8
:100A5000AC0181E02091690130916A01421753078E
:100A600009F080E00895CF938DE698E30E947D1F02
:100A7000C82F0E944C2860935D0170935E018093A3
:100A80005F0190936001C0FF2DC081E080936801F9
:100A9000809367018093660180916101909162016A
:100AA00020916801211108C020916701211104C023
:100AB00020916601222319F1209113013091140134
:100AC00082179307B0F401969093620180936101BD
:100AD00081E080936501809164018823E9F0CF91E2
:100AE0000C94CC001092680110926701109266017C
:100AF000D3CF81E08093650180936401ECCF0097B0
:100B000041F0019790936201809361011092650119
:100B1000E2CF10926401FACFCF910C94D0000F93E2
:100B20001F930E944C2800915D0110915E0120915D
:100B30005F0130916001601B710B820B930B009180
:100B40000F011091100120911101309112016017D5
:100B500071078207930720F01F910F910C943305C2
:100B60001F910F9108958091090180935301089579
:100B7000803C61F46BED70E08FE898E30E94C50063
:100B80008CED682F8FE898E30C9465258B3DC9F7B1
:100B90006BED70E08FE898E30E94C5008DEDF1CF1A
:100BA00060EC70E08FE898E30E94C50061E270E0BD
:100BB0008FE898E30E94C500809174010E94B805F7
:100BC000809173010E94B805809172010E94B8055E
:100BD000809171010E94B80560EC70E08FE898E3A5
:100BE0000C94C50060EC70E08FE898E30E94C500AB
:100BF00062E270E08FE898E30E94C5008091700186
:100C00000E94B80580916F010E94B80580916E0125
:100C10000E94B80580916D010E94B80560EC70E0FB
:100C20008FE898E30C94C500CF93C0911601C3568A
:100C300060EC70E08FE898E30E94C50063E270E02A
:100C40008FE898E30E94C5008C2F0E94B80560ECE5
:100C500070E08FE898E3CF910C94C500CF93C091DA
:100C60005D38C05860EC70E08FE898E30E94C500E2
:100C700064E270E08FE898E30E94C5008C2F0E9428
:100C8000B80560EC70E08FE898E3CF910C94C50054
:100C900060EC70E08FE898E30E94C50062E070E0CD
:100CA0008FE898E30E94C50080916A380E94B805D9
:100CB000809169380E94B805809168380E94B80513
:100CC000809167380E94B80560EC70E08FE898E387
:100CD0000C94C50060EC70E08FE898E30E94C500BA
:100CE00061E070E08FE898E30E94C500809166386B
:100CF0000E94B805809165380E94B80580916438DB
:100D00000E94B805809163380E94B80560EC70E0DD
:100D10008FE898E30C94C500CF93DF93C8E3DFE03E
:100D2000CE010E94C3000E94B8052196C11580E142
:100D3000D807B1F7DF91CF91089560EC70E08FE8AC
:100D400098E30E94C50061E570E08FE898E30E9497
:100D5000C5000E948C0660EC70E08FE898E30C946C
:100D6000C500CF93C82F60EC70E08FE898E30E9435
:100D7000C50060E970E08FE898E30E94C5006C2F21
:100D80008FE898E30E94652560EC70E08FE898E3B7
:100D9000CF910C94C500CF93DF93C82FD62F0E941C
:100DA0003F0381110BC0C83C48F48C2F90E06D2F9D
:100DB000885C904FDF91CF910C94AF0083E0DF917E
:100DC000CF910C94B1060E94E504809162388111A4
:100DD0001DC08091190181113CC080916138882328
:100DE000C1F14091633850916438609165387091D9
:100DF00066388DE698E30E94C021892B41F481E09A
:100E00000E94B10690E080E00E94DC00089581E03D
:100E1000809362380E94CC020E94FE020E94B202BD
:100E20000E94BF020E9411038DE698E30E945E2398
:100E300064E27AE08DE698E30E94022170E060E0CF
:100E40008DE698E30E94B02383E090E00E94460183
:100E5000DDCF83E090E00E941601D8CF0E943F03CF
:100E60008823F1F00E9459038823D1F00E94630384
:100E70008823B1F00E947203882391F00E947F03BF
:100E8000882389F081E0809361380E94C50388231C
:100E900051F00E94CF0382E1809318010C94E30685
:100EA000109261380895089580E00E94682A0E9497
:100EB000BB2626E040E052EC61E070E08FE898E36A
:100EC0000E94AC2561E08CE00E94362961E08DE053
:100ED0000E94362984EF91E0E7E6F6E3DF019C010A
:100EE0001D9221503040E1F7E3E7F4E3DF019C017C
:100EF0001D9221503040E1F7EFE6F4E384E0DF019A
:100F00001D928A95E9F7E7EAF1E084ED90E3DF01CD
:100F10009C011D9221503040E1F7E5E7F1E082E3CA
:100F2000DF011D928A95E9F722E030E043E050E0CE
:100F300064E070E08DE698E30E94251F0C942E0774
:100F4000CF93DF93EC0120916B0130916C01C901CB
:100F5000019669E170E00E94C52C409169015091B1
:100F60006A014817590749F1F901EE0FFF1FEB58C5
:100F7000FE4FD183C08344EF51E0249FF001259FB1
:100F8000F00D349FF00D1124E955FE4FA3E7B4E3B3
:100F90009D01235734432C173D0718F42D912193BD
:100FA000F7CF90936C0180936B010E941F05811114
:100FB00009C0DF91CF910C942E0284E0DF91CF9194
:100FC0000C94B106DF91CF91089560EC70E08FE84A
:100FD00098E30E94C50064E070E08FE898E30E9407
:100FE000C50060916B388FE898E30E94652560EC3E
:100FF00070E08FE898E30C94C50060EC70E08FE837
:1010000098E30E94C50065E070E08FE898E30E94D5
:10101000C50060911C018FE898E30E94652560EC93
:1010200070E08FE898E30C94C50060EC70E08FE806
:1010300098E30E94C50063E070E08FE898E30E94A7
:10104000C50060911A018FE898E30E94652560EC65
:1010500070E08FE898E30C94C500CF93C82F60EC44
:1010600070E08FE898E30E94C50060E470E08FE8CC
:1010700098E30E94C5006C2F8FE898E30E946525D5
:1010800060EC70E08FE898E3CF910C94C5009091EC
:101090005A01992309F4B8C1803CB9F480910E013A
:1010A000811108C010925A0180915B0190915C01FE
:1010B0000C94A00781E080935A018EEF80930E017B
:1010C00010925C0110925B01089520915B013091B8
:1010D0005C01243F91E0390708F099C190910E011D
:1010E0002115310529F49E3F19F480930E010895CE
:1010F00091111FC08B3D21F481E080935901089527
:1011000090915901992349F08C3D21F08D3D19F4BE
:101110008BED01C080EC10925901A9014F5F5F4F28
:1011200050935C0140935B012D583B4CF901808347
:101130000895913009F044C08B3DD1F4909359014A
:1011400080915B0190915C01049709F060C160910E
:101150006F347091703480917134909172340E9428
:10116000232D6115710581059105D9F40C946A064A
:1011700090915901992349F08C3D21F08D3D19F44E
:101180008BED01C080EC10925901A9014F5F5F4FB8
:1011900050935C0140935B0121593B4CF9018083E2
:1011A000CFCF6093633870936438809365389093A1
:1011B0006638809118018131C9F60E942203D6CF8A
:1011C000923009F045C08B3DD9F481E080935901FC
:1011D00080915B0190915C01049709F018C16091C6
:1011E0006F347091703480917134909172340E9498
:1011F000232D6115710581059105D9F40C944806DC
:1012000090915901992349F08C3D21F08D3D19F4BD
:101210008BED01C080EC10925901A9014F5F5F4F27
:1012200050935C0140935B0121593B4CF901808351
:10123000CFCF609367387093683880936938909304
:101240006A38809118018131C9F60E94FE02D6CF1A
:10125000933099F48F3F11F40C941508823108F003
:1012600081E190E090931B0180931A018091180115
:10127000813191F70E94CC02EFCF9430D1F48F3FAF
:1012800011F40C94E507863088F090E08D309105DC
:1012900014F08CE090E090936C3880936B388091E0
:1012A0001801813171F70E94B202EBCF86E090E025
:1012B000F2CF9530D1F48F3F11F40C94FD078530B7
:1012C00088F090E08930910514F088E090E09093E8
:1012D0001D0180931C0180911801813171F70E94DA
:1012E000BF02EBCF85E090E0F2CF963079F48F3FEC
:1012F00011F40C94FC01811103C00E94DE04F9CFAB
:10130000813009F084C00E94E306F3CF913211F4DA
:101310000C94D005923211F40C94F205933211F42E
:101320000C941406973021F40E94E5040C941502E5
:10133000903319F490E00C944601903421F40E940B
:1013400035030C942D08983029F4833709F05FC0D9
:101350000C947C029E3059F4813021F480936038E3
:101360000C945E028111FCCF10926038F9CF9F304F
:1013700041F40E941F05811102C00C942E020C94AE
:101380004602993529F4883F09F041C00E94D804EB
:10139000913511F40C949D06923551F58B3D79F4FD
:1013A00081E08093590180915B0190915C010297EB
:1013B00071F56091703480916F340C94CB069091EC
:1013C0005901992349F08C3D21F08D3D19F48BEDA5
:1013D00001C080EC10925901A9014F5F5F4F5093FB
:1013E0005C0140935B0121593B4CF9018083DBCFC9
:1013F000903511F40C949402933511F40C9440043C
:10140000943529F40C94D304803C09F453CE089508
:10141000CF93DF93EC012197A0F08DE698E30E9433
:10142000EA1F20915B3830915C38A9014F5F5F4F14
:1014300050935C3840935B382959394CF9018083CB
:10144000EACFDF91CF910895CF92DF92EF92FF9292
:10145000CF93DF93EC01809160388111CEC08DE68F
:1014600098E30E94EA1F21974091150180FF8DC0EB
:101470009C0154E0359527955A95E1F72F70332755
:101480004F3FF9F410925C3810925B3820931501AD
:101490008DE698E30E94911F9093170180931601A7
:1014A0008DE698E30E94801F0E94702B60935D3848
:1014B000CE01DF91CF91FF90EF90DF90CF900C9411
:1014C000080A4213DFCF8DE698E30E94911F209116
:1014D000160130911701820F931F97FD0196959584
:1014E0008795909317018093160160915D38062EC1
:1014F000000C770B880B990B0E94A82B6B017C01C9
:101500008DE698E30E94801F9B01AC01C701B601E4
:101510000E94FF2A20E030E040E05FE30E94582C68
:101520000E94702B60935D38CE010E94080A8FEFF5
:10153000809315010E9414060E942E0660EC70E054
:101540008FE898E30E94C50070E060E08FE898E3C0
:101550000E94C500C7E6D6E320915B3830915C3825
:10156000CE018756964382179307B0F56991603C88
:1015700049F56BED70E08FE898E30E94C5006CEDD3
:101580008FE898E30E946525E7CF4F3F39F010922E
:101590005C3810925B388FEF809315018DE698E3ED
:1015A0000E94911F90931701809316018DE698E396
:1015B0000E94801F0E94702B60935D38CE010E94B4
:1015C000080AB8CF6B3DE1F66BED70E08FE898E369
:1015D0000E94C5006DEDD4CF60EC70E08FE898E319
:1015E0000E94C50010925C3810925B38DF91CF9159
:1015F000FF90EF90DF90CF90089510925C3810929A
:101600005B388DE698E30E94911F909317018093B9
:101610001601CE010E94080A0E9414060E942E069E
:1016200060EC70E08FE898E30E94C50070E060E035
:101630008FE898E30E94C500C7E6D6E320915B38A7
:1016400030915C38CE01875696438217930720F677
:101650006991603C61F46BED70E08FE898E30E9463
:10166000C5006CED8FE898E30E946525E7CF6B3DE0
:10167000C9F76BED70E08FE898E30E94C5006DED4F
:10168000F1CFCF92DF92EF92FF920F931F93CF9300
:10169000DF93EC0180916238882309F47AC080914D
:1016A0006038811158C00E94D40060E071E080E091
:1016B00090E00E94C326162F107FCF3FD10508F07F
:1016C000116070E060E08DE698E30E948F23612F47
:1016D0008DE698E30E94DF1E9BE7C92E92E3D92E88
:1016E000EE24E394F12CC6018B5792438C179D078F
:1016F000F0F4F60161916F018DE698E30E94DF1E20
:10170000FFEFEF1AFF0A8FEFE816F10461F78DE69D
:1017100098E30E94872070E060E08DE698E30E94E5
:101720008F23612F8DE698E30E94DF1ED9CF8DE6CF
:1017300098E30E9487200E94D80070E060E08DE668
:1017400098E3DF91CF911F910F91FF90EF90DF9081
:10175000CF900C94B0230E94D400CF3FD10519F054
:1017600010F0CFEFD0E070E060E08DE698E30E94EB
:101770008F230BE712E3C8018B5792438C179D0709
:10178000B0F6F80161918F018DE698E30E94DF1EAB
:10179000F2CF82E00E94B10685E090E0DF91CF9128
:1017A0001F910F91FF90EF90DF90CF900C94DC0091
:1017B000CF93DF938091690190916A019C01220F80
:1017C000331FF901EB58FE4FC081D18144EF51E046
:1017D000849FF001859FF00D949FF00D1124BF01AF
:1017E00069557E4FABE7B2E3AD014B5752434C17FF
:1017F0005D0750F4FB014191BF014D93AF01415092
:101800005109FA011082F0CF2B583E4FF901118295
:101810001082019669E170E00E94C52C90936A01E4
:1018200080936901CE010E94410B0E941F05811126
:1018300004C0DF91CF910C942E02DF91CF910895D7
:101840000F931F9380916238882309F44CC00E9443
:101850008F050E941105882331F180915801811173
:1018600022C080916301811102C00E9433058091E2
:101870006501811134C080916401811130C0809173
:101880006301882331F062E370E080E090E00E9421
:101890007D280E94330580916501811104C010925A
:1018A00063010E94D80B8FE898E30E94DB24892B08
:1018B00031F181E0809358018FE898E30E94F5248C
:1018C0000E9447080E944C28609354017093550170
:1018D00080935601909357011F910F91089581E0D5
:1018E00080936301E0CF80916138882319F00E94D2
:1018F0007201D9CF0E94B7010E94DE04D4CF80913B
:101900005801882349F30E944C28009154011091FA
:1019100055012091560130915701601B710B820BCC
:10192000930B00910A0110910B0120910C01309151
:101930000D01601771078207930770F2109258012A
:10194000CBCF2F923F924F925F926F927F928F9266
:101950009F92AF92BF92CF92DF92EF92FF920F933E
:101960001F93CF93DF93CDB7DEB7C857D1090FB61A
:10197000F894DEBF0FBECDBFE9969FAF8EAFE9975B
:101980001A01DC0118960D911D912D913C911B9728
:1019900061960CAF1DAF2EAF3FAF61971C960D91B6
:1019A0001D912D913C911F9709831A832B833C83B2
:1019B00050960D911D912D913C9153970D831E834F
:1019C0002F83388754960D911D912D913C915797F7
:1019D00009871A872B873C87E6966FAFE697E796CD
:1019E0007FAFE797A85ABF4F6396BFAFAEAF63977D
:1019F000FC01E45AFF4F6596FFAFEEAF65978C018F
:101A0000005A1F4F67961FAF0EAF67979C012C5966
:101A10003F4F69963FAF2EAF699788599F4F6B969E
:101A20009FAF8EAF6B97E996AEADBFADE997A45966
:101A3000BF4F6D96BFAFAEAF6D97E996EEADFFAD00
:101A4000E997E059FF4F6F96FFAFEEAF6F97E996BA
:101A50000EAD1FADE9970C581F4FA1961FAF0EAFEB
:101A6000A197E9962EAD3FADE99728583F4FA39631
:101A70003FAF2EAFA397E9968EAD9FADE9978458FF
:101A80009F4FA5969FAF8EAFA597E996AEADBFAD20
:101A9000E997A058BF4FA796BFAFAEAFA797E996FB
:101AA000EEADFFADE997EC57FF4FA996FFAFEEAF54
:101AB000A997E9960EAD1FADE99708571F4FAB9652
:101AC0001FAF0EAFAB97E9962EAD3FADE997245708
:101AD0003F4FAD963FAF2EAFAD97E9968EAD9FAD20
:101AE000E99780579F4FAF969FAF8EAFAF97E9961C
:101AF000AEADBFADE997AC56BF4FE196BFAFAEAF4D
:101B0000E197E796AEADBFADE7970D911D912D9191
:101B10003C910D871E872F87388B6396EEADFFAD06
:101B20006397008311832283338361968CAD9DADCF
:101B3000AEADBFAD619788589B45A549B842800FAF
:101B4000911FA21FB31F4D815E816F81788509852A
:101B50001A852B853C8540275127622773270981E9
:101B60001A812B813C8140235123622373230985F1
:101B70001A852B853C854027512762277327840FC0
:101B8000951FA61FB71F8C019D0147E0000F111F75
:101B9000221F331F4A95D1F7AC01BD01E9E17695CB
:101BA000679557954795EA95D1F7402B512B622BB6
:101BB000732B89819A81AB81BC81480F591F6A1FA1
:101BC0007B1FE796AEADBFADE79714960D911D91C3
:101BD0002D913C911797098B1A8B2B8B3C8B65961B
:101BE000EEADFFAD65970083118322833383898532
:101BF0009A85AB85BC858A5A9844A843B741800F23
:101C0000911FA21FB31FC980DA80EB80FC800D8179
:101C10001E812F813885C026D126E226F326C422D4
:101C2000D522E622F722C026D126E226F3268C0D05
:101C30009D1DAE1DBF1D8C019D01FCE0000F111FFD
:101C4000221F331FFA95D1F76C017D01A4E1F694B0
:101C5000E794D794C794AA95D1F7C02AD12AE22A4B
:101C6000F32AC40ED51EE61EF71EE796AEADBFAD35
:101C7000E79718968D919D910D90BC91A02D8D8B1D
:101C80009E8BAF8BB88F6796EEADFFAD6797808365
:101C90009183A283B3838D819E81AF81B885855264
:101CA0009F48AF4DBB4D0D891E892F89388D800F00
:101CB000911FA21FB31F49805A806B807C804426ED
:101CC0005526662677264C205D206E207F200981D0
:101CD0001A812B813C814026512662267326840D71
:101CE000951DA61DB71D8C019D01EFE0369527952A
:101CF00017950795EA95D1F72C013D01F1E1440CC8
:101D0000551C661C771CFA95D1F7402A512A622A85
:101D1000732A4C0C5D1C6E1C7F1CE796AEADBFADEC
:101D2000E7971C968D919D910D90BC91A02D898F68
:101D30009A8FAB8FBC8F6996EEADFFAD69978083AC
:101D40009183A283B38389819A81AB81BC818251C3
:101D50009143A244BE43098D1A8D2B8D3C8D800F7B
:101D6000911FA21FB31F8A019B010C251D252E2543
:101D70003F25042115212621372104271527262751
:101D80003727800F911FA21FB31F4C015D011AE07E
:101D9000B694A794979487941A95D1F78C019D01D6
:101DA00086E1000F111F221F331F8A95D1F70829E2
:101DB00019292A293B29040D151D261D371DE796D3
:101DC000AEADBFADE79750968D919D910D90BC91B2
:101DD000A02D8D8F9E8FAF8FB8A36B96EEADFFAD0C
:101DE0006B9780839183A283B3838155904FA348DF
:101DF000BA40840F951FA61FB71FB701A60144253F
:101E000055256625772540235123622373234C25CE
:101E10005D256E257F25840F951FA61FB71F4C01DA
:101E20005D0147E0880C991CAA1CBB1C4A95D1F7A0
:101E3000AC01BD01E9E17695679557954795EA951F
:101E4000D1F7482959296A297B29400F511F621F60
:101E5000731FE796AEADBFADE79754968D919D91F8
:101E60000D90BC91A02D89A39AA3ABA3BCA36D96A2
:101E7000EEADFFAD6D9780839183A283B383865DC2
:101E80009943A847B84B8C0D9D1DAE1DBF1D730116
:101E90006201C026D126E226F326C422D522E622FC
:101EA000F722C424D524E624F7248C0D9D1DAE1DF5
:101EB000BF1D4C015D01FCE0880C991CAA1CBB1CD9
:101EC000FA95D1F76C017D01A4E1F694E794D794DB
:101ED000C794AA95D1F7C828D928EA28FB28C40EA8
:101EE000D51EE61EF71EE796AEADBFADE797589636
:101EF0008D919D910D90BC91A02D8DA39EA3AFA31C
:101F0000B8A76F96EEADFFAD6F9780839183A283E4
:101F1000B3838D5E994BAF4CB745840D951DA61DBF
:101F2000B71D2801390144265526662677264C2000
:101F30005D206E207F204026512662267326840D68
:101F4000951DA61DB71D4C015D01EFE0B694A79449
:101F500097948794EA95D1F72C013D01F1E1440C67
:101F6000551C661C771CFA95D1F7482859286A2811
:101F70007B284C0C5D1C6E1C7F1CE796AEADBFAD84
:101F8000E7975C968D919D910D90BC91A02D89A7AE
:101F90009AA7ABA7BCA7A196EEADFFADA197808392
:101FA0009183A283B3838F5F9A46A94BB240800F7F
:101FB000911FA21FB31F8A019B010C251D252E25F1
:101FC0003F250421152126213721042715272627FF
:101FD0003727800F911FA21FB31F4C015D011AE02C
:101FE000B694A794979487941A95D1F78C019D0184
:101FF00086E1000F111F221F331F8A95D1F7082990
:1020000019292A293B29040D151D261D371DE79680
:10201000AEADBFADE79790968D919D910D90BC911F
:10202000A02D8DA79EA7AFA7B8ABA396EEADFFAD31
:10203000A39780839183A283B38388529746AF4747
:10204000B649840F951FA61FB71FB701A6014425E7
:1020500055256625772540235123622373234C257C
:102060005D256E257F25840F951FA61FB71F4C0188
:102070005D0147E0880C991CAA1CBB1C4A95D1F74E
:10208000AC01BD01E9E17695679557954795EA95CD
:10209000D1F7482959296A297B29400F511F621F0E
:1020A000731FE796AEADBFADE79794968D919D9166
:1020B0000D90BC91A02D89AB9AABABABBCABA596F8
:1020C000EEADFFADA59780839183A283B383815545
:1020D0009840AB4BB4478C0D9D1DAE1DBF1D7301C9
:1020E0006201C026D126E226F326C422D522E622AA
:1020F000F722C424D524E624F7248C0D9D1DAE1DA3
:10210000BF1D4C015D01FCE0880C991CAA1CBB1C86
:10211000FA95D1F76C017D01A4E1F694E794D79488
:10212000C794AA95D1F7C828D928EA28FB28C40E55
:10213000D51EE61EF71EE796AEADBFADE7979896A3
:102140008D919D910D90BC91A02D8DAB9EABAFABB1
:10215000B8AFA796EEADFFADA79780839183A2831A
:10216000B3838F54944AA109B109840D951DA61D0E
:10217000B71D2801390144265526662677264C20AE
:102180005D206E207F204026512662267326840D16
:10219000951DA61DB71D4C015D01EFE0B694A794F7
:1021A00097948794EA95D1F72C013D01F1E1440C15
:1021B000551C661C771CFA95D1F7482859286A28BF
:1021C0007B284C0C5D1C6E1C7F1CE796AEADBFAD32
:1021D000E7979C968D919D910D90BC91A02D89AF14
:1021E0009AAFABAFBCAFA996EEADFFADA997808318
:1021F0009183A283B38382549842A34AB647800F47
:10220000911FA21FB31F8A019B010C251D252E259E
:102210003F250421152126213721042715272627AC
:102220003727800F911FA21FB31F4C015D011AE0D9
:10223000B694A794979487941A95D1F78C019D0131
:1022400086E1000F111F221F331F8A95D1F708293D
:1022500019292A293B29040D151D261D371DE7962E
:10226000AEADBFADE797D0968D919D910D90BC918D
:10227000A02D21968CAF9DAFAEAFBFAF2197AB968F
:10228000EEADFFADAB9780839183A283B3834C0106
:102290005D01FEED8F1AFEEE9F0AFFE6AF0AF4E93C
:1022A000BF0A840E951EA61EB71EB701A6014425BF
:1022B00055256625772540235123622373234C251A
:1022C0005D256E257F25480D591D6A1D7B1D4A0120
:1022D0005B0197E0880C991CAA1CBB1C9A95D1F74E
:1022E000E9E17695679557954795EA95D1F748299D
:1022F00059296A297B29400F511F621F731FE796D6
:10230000AEADBFADE797D4968D919D910D90BC91E8
:10231000A02D25968CAF9DAFAEAFBFAF2597AD96E4
:10232000EEADFFADAD9780839183A283B3834C0163
:102330005D01FDE68F1AFEE89F0AF7E6AF0AF2E0BC
:10234000BF0A8C0C9D1CAE1CBF1C73016201C02611
:10235000D126E226F326C422D522E622F722C4247F
:10236000D524E624F724C80CD91CEA1CFB1C460122
:102370005701FCE0880C991CAA1CBB1CFA95D1F7EC
:10238000A4E1F694E794D794C794AA95D1F7C82806
:10239000D928EA28FB28C40ED51EE61EF71EE796AC
:1023A000AEADBFADE797D8968D919D910D90BC9144
:1023B000A02D29968CAF9DAFAEAFBFAF2997AF963A
:1023C000EEADFFADAF9780839183A283B3834C01C1
:1023D0005D01F2E78F1AFCEB9F0AF6E8AF0AF9E518
:1023E000BF0A840C951CA61CB71C28013901442681
:1023F0005526662677264C205D206E207F204026BD
:10240000512662267326480C591C6A1C7B1C5301FA
:102410004201BFE0B694A79497948794BA95D1F7F8
:1024200081E1440C551C661C771C8A95D1F748281D
:1024300059286A287B284C0C5D1C6E1C7F1CE79673
:10244000AEADBFADE797DC968D919D910D90BC919F
:10245000A02D2D968CAF9DAFAEAFBFAF2D97E1965F
:10246000EEADFFADE19780839183A283B3834C01EE
:102470005D01FFED8F1AF7EF9F0AFBE4AF0AF6EB61
:10248000BF0A800E911EA21EB31E8A019B010C255D
:102490001D252E253F25042115212621372104271E
:1024A000152726273727080D191D2A1D3B1D480112
:1024B00059019AE0B694A794979487949A95D1F786
:1024C000E6E1000F111F221F331FEA95D1F70829FB
:1024D00019292A293B29040D151D261D371D898818
:1024E0009A88AB88BC888EE9881A8AED980A81EEB2
:1024F000A80A89E0B80A840E951EA61EB71EB3016D
:10250000A20140275127622773274C215D216E21AC
:102510007F214425552566257725480D591D6A1DBF
:102520007B1D4A015B01F5E0880C991CAA1CBB1CB1
:10253000FA95D1F7ABE17695679557954795AA95AA
:10254000D1F7482959296A297B29400F511F621F59
:10255000731F8DA09EA0AFA0B8A490EC891A9CE434
:10256000990A9FEBA90A9FE3B90A8C0C9D1CAE1C2B
:10257000BF1C68017901C426D526E626F726C420AB
:10258000D520E620F720C026D126E226F326C80C67
:10259000D91CEA1CFB1C46015701B9E0880C991CA8
:1025A000AA1CBB1CBA95D1F787E1F694E794D7949F
:1025B000C7948A95D1F7C828D928EA28FB28C40EE1
:1025C000D51EE61EF71E89AC9AACABACBCACAFEA2C
:1025D0008A1AA5EA9A0AA1EAAA0AA9EDBA0A840CFB
:1025E000951CA61CB71C2A013B014C245D246E24BB
:1025F0007F244022512262227322442655266626D9
:102600007726480C591C6A1C7B1C530142019EE032
:10261000880C991CAA1CBB1C9A95D1F7E2E1769410
:10262000679457944794EA95D1F7482859286A281F
:102630007B284C0C5D1C6E1C7F1C8D849E84AF849B
:10264000B888B6E58B1AB8E39B0AB9E4AB0AB6E1E1
:10265000BB0A800E911EA21EB31E9701860104259F
:1026600015252625372504231523262337230C2556
:102670001D252E253F25080D191D2A1D3B1D48012E
:102680005901FCE0B694A79497948794FA95D1F7F2
:10269000A4E1000F111F221F331FAA95D1F70829AB
:1026A00019292A293B29040D151D261D371D89A02E
:1026B0009AA0ABA0BCA0E3EA8E1AEFEE9E0AE0ED72
:1026C000AE0AE9E2BE0A840E951EA61EB71EB3012D
:1026D000A20140275127622773274C215D216E21DB
:1026E0007F214425552566257725480D591D6A1DEE
:1026F0007B1D4A015B01B5E0880C991CAA1CBB1C20
:10270000BA95D1F78BE176956795579547958A9558
:10271000D1F7482959296A297B29400F511F621F87
:10272000731F8DA89EA8AFA8B8ACFDEA8F1AFBEE68
:102730009F0AFBEBAF0AFDEFBF0A8C0C9D1CAE1C81
:10274000BF1C68017901C426D526E626F726C420D9
:10275000D520E620F720C026D126E226F326C80C95
:10276000D91CEA1CFB1C4601570199E0880C991CF6
:10277000AA1CBB1C9A95D1F7E7E1F694E794D7948D
:10278000C794EA95D1F7C828D928EA28FB28C40EAF
:10279000D51EE61EF71E2D968CAC9DACAEACBFAC24
:1027A0002D978FE7881A89E1980A8EE5A80A87E2B3
:1027B000B80A840C951CA61CB71C2A013B014C24AA
:1027C0005D246E247F2440225122622273224426FB
:1027D000552666267726480C591C6A1C7B1C53011B
:1027E0004201FEE0880C991CAA1CBB1CFA95D1F78B
:1027F000A2E17694679457944794AA95D1F7482814
:1028000059286A287B284C0C5D1C6E1C7F1C8D8C03
:102810009E8CAF8CB8A098E3891A94E0990A9CE248
:10282000A90A98E1B90A800E911EA21EB31E970153
:10283000860104251525262537250423152326235F
:1028400037230C251D252E253F25080D191D2A1D72
:102850003B1D48015901BCE0B694A7949794879416
:10286000BA95D1F784E1000F111F221F331F8A95FB
:10287000D1F7082919292A293B29040D151D261DE0
:10288000371D89A89AA8ABA8BCA8AAE18A1AA2E316
:102890009A0AAEE1AA0AAEEDBA0A840E951EA61EE9
:1028A000B71EB301A20140275127622773274C218D
:1028B0005D216E217F214425552566257725480D0C
:1028C000591D6A1D7B1D4A015B0195E0880C991C0E
:1028D000AA1CBB1C9A95D1F7EBE1769567955795A5
:1028E0004795EA95D1F7482959296A297B29400F4C
:1028F000511F621F731F29968CAC9DACAEACBFAC50
:102900002997BAE28B1AB8EF9B0AB8ECAB0ABCE382
:10291000BB0A8C0C9D1CAE1CBF1C68017901C4262F
:10292000D526E626F726C420D520E620F720C026A7
:10293000D126E226F326C80CD91CEA1CFB1C460152
:102940005701F9E0880C991CAA1CBB1CFA95D1F719
:10295000A7E1F694E794D794C794AA95D1F7C8282D
:10296000D928EA28FB28C40ED51EE61EF71E898C3E
:102970009A8CAB8CBC8CE9E78E1AE2EF9E0AEAE2F5
:10298000AE0AEBE0BE0A840C951CA61CB71C2A01FB
:102990003B014C245D246E247F244022512262227C
:1029A00073224426552666267726480C591C6A1C35
:1029B0007B1C53014201BEE0880C991CAA1CBB1C65
:1029C000BA95D1F782E176946794579447948A95A3
:1029D000D1F7482859286A287B284C0C5D1C6E1CAE
:1029E0007F1C8DA49EA4AFA4B8A8F3E18F1AFBEEC0
:1029F0009F0AF5EAAF0AFAEBBF0A800E911EA21EEB
:102A0000B31E9701860104251525262537250423A5
:102A10001523262337230C251D252E253F25080D9C
:102A2000191D2A1D3B1D480159019CE0B694A7942D
:102A3000979487949A95D1F7E4E1000F111F221F14
:102A4000331FEA95D1F7082919292A293B29040DB2
:102A5000151D261D371D25968CAC9DACAEACBFACAC
:102A600025978BEF881A86E1980A8CE1A80A86E5FB
:102A7000B80A840E951EA61EB71EB301A2014027F8
:102A80005127622773274C215D216E217F21442528
:102A9000552566257725480D591D6A1D7B1D4A0160
:102AA0005B01F5E0880C991CAA1CBB1CFA95D1F7B8
:102AB000ABE17695679557954795AA95D1F7482943
:102AC00059296A297B29400F511F621F731F8D8866
:102AD0009E88AF88B88C98E0891A9CE5990A90E1A5
:102AE000A90A93E0B90A8C0C9D1CAE1CBF1C68019E
:102AF0007901C426D526E626F726C420D520E6206F
:102B0000F720C026D126E226F326C80CD91CEA1CE1
:102B1000FB1C46015701B9E0880C991CAA1CBB1C80
:102B2000BA95D1F787E1F694E794D794C7948A953C
:102B3000D1F7C828D928EA28FB28C40ED51EE61EDE
:102B4000F71E89A49AA4ABA4BCA4A7E28A1AADEF8D
:102B50009A0AA0E9AA0AA8E9BA0A840C951CA61C3C
:102B6000B71C2A013B014C245D246E247F244022A3
:102B70005122622273224426552666267726480C67
:102B8000591C6A1C7B1C530142019EE0880C991C55
:102B9000AA1CBB1C9A95D1F7E2E1769467945794EE
:102BA0004794EA95D1F7482859286A287B284C0C85
:102BB0005D1C6E1C7F1C4601570184249524A624AD
:102BC000B72421968CAD9DADAEADBFAD2197865794
:102BD000934BA54DB247800F911FA21FB31F9501C4
:102BE000840104231523262337230C251D252E2598
:102BF0003F25800F911FA21FB31F8C019D01FCE098
:102C00003695279517950795FA95D1F7E5960CAF68
:102C10001DAF2EAF3FAFE5978C019D01A4E1000FE2
:102C2000111F221F331FAA95D1F7E5968CAD9DADDC
:102C3000AEADBFADE597082B192B2A2B3B2B040D0E
:102C4000151D261D371D89A19AA1ABA1BCA18E5BC4
:102C5000964CA540B109840F951FA61FB71F80266B
:102C60009126A226B326880E991EAA1EBB1ED50148
:102C7000C40144E0880F991FAA1FBB1F4A95D1F7D2
:102C80005CE1B694A794979487945A95D1F7882AD3
:102C9000992AAA2ABB2A800E911EA21EB31E4DA5F8
:102CA0005EA56FA578A94F5759406E4878474C0DDF
:102CB0005D1D6E1D7F1D73016201C026D126E226B7
:102CC000F326C824D924EA24FB24C40ED51EE61E0C
:102CD000F71EB701A601EBE0440F551F661F771FD3
:102CE000EA95D1F7F5E1F694E794D794C794FA956D
:102CF000D1F7C42AD52AE62AF72AC80CD91CEA1C1F
:102D0000FB1C49AD5AAD6BAD7CAD4E5D5E49624674
:102D10007249440E551E661E771EB901A80148254A
:102D200059256A257B254C255D256E257F25440E7A
:102D3000551E661E771ED20123013D014C0C5D1C01
:102D40006E1C7F1C29964CAD5DAD6EAD7FAD299795
:102D5000445F574C6A417240400F511F621F731FFE
:102D6000950184010C251D252E253F2504251525BB
:102D700026253725040F151F261F371FB901A80167
:102D8000A9E07695679557954795AA95D1F7B7E14C
:102D9000000F111F221F331FBA95D1F7042B152BDB
:102DA000262B372B040D151D261D371D49895A89E1
:102DB0006B897C894C5B554161447B45480D591DAD
:102DC0006A1D7B1D4601570184249524A624B7243F
:102DD00080269126A226B326840E951EA61EB71E17
:102DE000B501A40184E0440F551F661F771F8A9523
:102DF000D1F79CE1B694A794979487949A95D1F7CC
:102E0000842A952AA62AB72A800E911EA21EB31ED6
:102E10004D8D5E8D6F8D78A1475550436142744B47
:102E2000C40ED51EE61EF71EB301A201402751278E
:102E300062277327482559256A257B254C0D5D1D82
:102E40006E1D7F1DDB01CA01EBE0880F991FAA1FD1
:102E5000BB1FEA95D1F7F5E17695679557954795AC
:102E6000FA95D1F7482B592B6A2B7B2B480D591D0E
:102E70006A1D7B1DC9A4DAA4EBA4FCA4B0EACB1A9A
:102E8000B4EBDB0AB4E4EB0AB9E0FB0A4C0C5D1CC2
:102E90006E1C7F1C68017901C824D924EA24FB2414
:102EA000C426D526E626F7264C0C5D1C6E1C7F1C1E
:102EB000F20123013F01440E551E661E771ECDA868
:102EC000DEA8EFA8F8ACF0E9CF1AF3E4DF0AF0E4EB
:102ED000EF0AF1E4FF0AC00ED11EE21EF31E9501B7
:102EE000840104271527262737270425152526259D
:102EF00037250C0D1D1D2E1D3F1D68017901A9E010
:102F0000F694E794D794C794AA95D1F7B7E1000F48
:102F1000111F221F331FBA95D1F70C291D292E2905
:102F20003F29040D151D261D371D2596CCACDDACA3
:102F3000EEACFFAC25978AE3C81A81E8D80A84E68C
:102F4000E80A87EDF80AC80CD91CEA1CFB1C4A01E8
:102F50005B0184249524A624B72480269126A226EA
:102F6000B3268C0C9D1CAE1CBF1C7501640184E053
:102F7000CC0CDD1CEE1CFF1C8A95D1F79CE1B694AD
:102F8000A794979487949A95D1F78C289D28AE287A
:102F9000BF28800E911EA21EB31ECD84DE84EF8456
:102FA000F88896E0C91A98EDD90A9EE5E90A95E1F4
:102FB000F90AC40ED51EE61EF71EB301A201402772
:102FC000512762277327482559256A257B254C0DF3
:102FD0005D1D6E1D7F1D6A017B01EBE0CC0CDD1CCD
:102FE000EE1CFF1CEA95D1F7F5E1769567955795AC
:102FF0004795FA95D1F74C295D296E297F29480D0F
:10300000591D6A1D7B1DC98CDA8CEB8CFC8CABE7DF
:10301000CA1AAFECDA0AA0E1EA0AABE2FA0A4C0CEF
:103020005D1C6E1C7F1C68017901C824D924EA2428
:10303000FB24C426D526E626F7264C0C5D1C6E1C08
:103040007F1CF20123013F01440E551E661E771EB0
:10305000CDA0DEA0EFA0F8A4FBEFCF1AF2EEDF0ABE
:10306000F7E7EF0AFBEFFF0AC00ED11EE21EF31EC8
:1030700095018401042715272627372704251525C0
:10308000262537250C0D1D1D2E1D3F1D68017901BC
:10309000A9E0F694E794D794C794AA95D1F7B7E13D
:1030A000000F111F221F331FBA95D1F70C291D29BC
:1030B0002E293F29040D151D261D371DC9A8DAA884
:1030C000EBA8FCA887ECC81A8FE2D80A8BE2E80AC2
:1030D00086E2F80AC80CD91CEA1CFB1C4A015B01F9
:1030E00084249524A624B72480269126A226B326DC
:1030F0008C0C9D1CAE1CBF1C7501640184E0CC0CC3
:10310000DD1CEE1CFF1C8A95D1F79CE1B694A794B8
:10311000979487949A95D1F78C289D28AE28BF283C
:10312000800E911EA21EB31E2196CCACDDACEEAC7F
:10313000FFAC21979BE1C91A96E6D90A94E2E90A05
:1031400099E1F90AC40ED51EE61EF71EB301A201CD
:103150004027512762277327482559256A257B2553
:103160004C0D5D1D6E1D7F1D6A017B01EBE0CC0CDB
:10317000DD1CEE1CFF1CEA95D1F7F5E1769567950D
:1031800057954795FA95D1F74C295D296E297F29E6
:10319000480D591D6A1D7B1D2D96CCACDDACEEACE7
:1031A000FFAC2D97A8E0CA1AA3E8DA0AADE5EA0A4F
:1031B000A0EEFA0A4C0C5D1C6E1C7F1C68017901A4
:1031C000C824D924EA24FB24C426D526E626F726DB
:1031D0004C0C5D1C6E1C7F1CF20123013F01440E50
:1031E000551E661E771ECD88DE88EF88F88CFBE9B9
:1031F000CF1AF9EADF0AF3E5EF0AFBE3FF0AC00E94
:10320000D11EE21EF31E95018401042715272627EF
:10321000372704251525262537250C0D1D1D2E1DA8
:103220003F1D68017901A9E0F694E794D794C7940B
:10323000AA95D1F7B7E1000F111F221F331FBA95CE
:10324000D1F70C291D292E293F29040D151D261DF6
:10325000371DCD84DE84EF84F8888CEBC81A8DEDA1
:10326000D80A86EDE80A8BE0F80AC80CD91CEA1CDB
:10327000FB1C4A015B0180949094A094B094802A36
:10328000912AA22AB32A84249524A624B7248C0C3C
:103290009D1CAE1CBF1C7501640186E0CC0CDD1CBE
:1032A000EE1CFF1C8A95D1F79AE1B694A7949794E7
:1032B00087949A95D1F78C289D28AE28BF28800E38
:1032C000911EA21EB31EC9A4DAA4EBA4FCA499E625
:1032D000C91AD10895EDE90A9CEBF90AC40ED51E6E
:1032E000E61EF71EB301A2014095509560957095BA
:1032F000482959296A297B294027512762277327A2
:103300004C0D5D1D6E1D7F1D6A017B01EAE0CC0C3A
:10331000DD1CEE1CFF1CEA95D1F7F6E1769567956A
:1033200057954795FA95D1F74C295D296E297F2944
:10333000480D591D6A1D7B1D2996CCACDDACEEAC49
:10334000FFAC2997A9E5CA1AACEDDA0AABE6EA0A9E
:10335000A4E5FA0AC40CD51CE61CF71C28013901A7
:103360004094509460947094442A552A662A772A8F
:10337000482459246A247B244C0C5D1C6E1C7F1C41
:1033800073016201AFE0CC0CDD1CEE1CFF1CAA95A2
:10339000D1F7B1E17694679457944794BA95D1F7F1
:1033A0004C285D286E287F28440E551E661E771E09
:1033B000C9A0DAA0EBA0FCA0B7ECCB1ABFE5DB0AF2
:1033C000BCE6EB0AB3E0FB0AC00ED11EE21EF31E00
:1033D00095018401009510952095309504291529B3
:1033E0002629372904271527262737270C0D1D1DC9
:1033F0002E1D3F1D680179018BE0F694E794D79468
:10340000C7948A95D1F795E1000F111F221F331F32
:103410009A95D1F70C291D292E293F29040D151D38
:10342000261D371D2196CCACDDACEEACFFAC219750
:10343000EDE3CE1AE6EADE0AE4EAEE0AEAE9FE0A7B
:10344000C80CD91CEA1CFB1C4A015B0180949094B7
:10345000A094B094802A912AA22AB32A8424952485
:10346000A624B7248C0C9D1CAE1CBF1C75016401E6
:10347000E6E0CC0CDD1CEE1CFF1CEA95D1F7FAE16E
:10348000B694A79497948794FA95D1F78C289D28A1
:10349000AE28BF28800E911EA21EB31EC98CDA8CE6
:1034A000EB8CFC8CFEE6CF1AF3E3DF0AF3EFEF0AB6
:1034B000F0E7FF0AC40ED51EE61EF71EB301A201F7
:1034C0004095509560957095482959296A297B291E
:1034D00040275127622773274C0D5D1D6E1D7F1DF0
:1034E0006A017B01AAE0CC0CDD1CEE1CFF1CAA9536
:1034F000D1F7B6E17695679557954795BA95D1F787
:103500004C295D296E297F29480D591D6A1D7B1D97
:10351000CDA8DEA8EFA8F8AC83E8C81A8BE0D80ADB
:1035200080E1E80AF108C40CD51CE61CF71C280150
:1035300039014094509460947094442A552A662A24
:10354000772A482459246A247B244C0C5D1C6E1C69
:103550007F1C730162018FE0CC0CDD1CEE1CFF1C94
:103560008A95D1F791E176946794579447949A9508
:10357000D1F74C285D286E287F28440E551E661E04
:10358000771EC988DA88EB88FC889FE2C91A92EA1C
:10359000D90A9BE7E90A9AE7F90AC00ED11EE21E92
:1035A000F31E95018401009510952095309504290E
:1035B00015292629372904271527262737270C0DF3
:1035C0001D1D2E1D3F1D68017901EBE0F694E79467
:1035D000D794C794EA95D1F7F5E1000F111F221F88
:1035E000331FFA95D1F70C291D292E293F29040DE7
:1035F000151D261D371DCDA4DEA4EFA4F8A8A1EB50
:10360000CA1AA1E8DA0AA7E5EA0AA0E9FA0AC80C88
:10361000D91CEA1CFB1C4A015B0180949094A09485
:10362000B094802A912AA22AB32A84249524A6241D
:10363000B7248C0C9D1CAE1CBF1C75016401A6E058
:10364000CC0CDD1CEE1CFF1CAA95D1F7BAE1B69498
:10365000A79497948794BA95D1F78C289D28AE2883
:10366000BF28800E911EA21EB31E2D968CAD9DAD5F
:10367000AEADBFAD2D9780529941A34DB140840F9F
:10368000951FA61FB71FB301A201409550956095E5
:103690007095482959296A297B2940275127622793
:1036A0007327840F951FA61FB71F6C017D014AE089
:1036B000CC0CDD1CEE1CFF1C4A95D1F7AC01BD0102
:1036C000E6E17695679557954795EA95D1F74C29A8
:1036D0005D296E297F29480D591D6A1D7B1D8DA10D
:1036E0009EA1AFA1B8A58C5E9C4BAE4FBC45840D8E
:1036F000951DA61DB71D2801390140945094609472
:103700007094442A552A662A772A482459246A2420
:103710007B24840D951DA61DB71D6C017D01FFE066
:10372000CC0CDD1CEE1CFF1CFA95D1F72C013D01E1
:10373000A1E17694679457944794AA95D1F74C28C1
:103740005D286E287F28440E551E661E771E25961E
:103750008CAD9DADAEADBFAD25978F559E4EA74F9D
:10376000B14B800F911FA21FB31F950184010095DB
:1037700010952095309504291529262937290427E5
:10378000152726273727800F911FA21FB31F6C0113
:103790007D011BE0F694E794D794C7941A95D1F76E
:1037A0008C019D0185E1000F111F221F331F8A9597
:1037B000D1F70C291D292E293F29040D151D261D81
:1037C000371D8D8D9E8DAF8DB8A18E579148AC4A17
:1037D000B840880D991DAA1DBB1D4A015B0180944C
:1037E0009094A094B094802A912AA22AB32A842487
:1037F0009524A624B724880D991DAA1DBB1D6C0114
:103800007D01E6E0CC0CDD1CEE1CFF1CEA95D1F737
:103810004C015D01FAE1B694A79497948794FA95C8
:10382000D1F78C289D28AE28BF28800E911EA21E9D
:10383000B31E89AD9AADABADBCAD8B5C9D40A54CC4
:10384000B244840F951FA61FB71FB301A201409574
:10385000509560957095482959296A297B294027F8
:10386000512762277327840F951FA61FB71F6C016E
:103870007D014AE0CC0CDD1CEE1CFF1C4A95D1F703
:10388000AC01BD01E6E17695679557954795EA95B8
:10389000D1F74C295D296E297F29480D591D6A1DD4
:1038A0007B1D8D899E89AF89B88D85549D42A84224
:1038B000B54D840D951DA61DB71D280139014094F5
:1038C000509460947094442A552A662A772A482492
:1038D00059246A247B24840D951DA61DB71D6C01F7
:1038E0007D01FFE0CC0CDD1CEE1CFF1CFA95D1F72E
:1038F0002C013D01A1E17694679457944794AA95D1
:10390000D1F74C285D286E287F28440E551E661E70
:10391000771E89A99AA9ABA9BCA98F569C42A94731
:10392000B441800F911FA21FB31F95018401009520
:103930001095209530950429152926293729042723
:10394000152726273727800F911FA21FB31F6C0151
:103950007D011BE0F694E794D794C7941A95D1F7AC
:103960008C019D0185E1000F111F221F331F8A95D5
:10397000D1F70C291D292E293F29040D151D261DBF
:10398000371D61968CAD9DADAEADBFAD6197880D15
:10399000991DAA1DBB1D61968CAF9DAFAEAFBFAF89
:1039A000619789819A81AB81BC81800F911FA21F91
:1039B000B31F89839A83AB83BC830D811E812F81C2
:1039C0003885040D151D261D371D0D831E832F837D
:1039D000388789859A85AB85BC85840F951FA61F7E
:1039E000B71F89879A87AB87BC87E796AEADBFAD17
:1039F000E797A05CBF4FE796BFAFAEAFE797B0E4E5
:103A00002B1A310811F00C94810D61960CAD1DAD8F
:103A10002EAD3FAD6197E996AEADBFADE997189673
:103A20000D931D932D933C931B9709811A812B8134
:103A30003C811C960D931D932D933C931F970D81F4
:103A40001E812F81388550960D931D932D933C93A5
:103A5000539709851A852B853C8554960D931D93A4
:103A60002D933C935797E7968EAD9FADE797C85837
:103A7000DF4F0FB6F894DEBF0FBECDBFDF91CF9101
:103A80001F910F91FF90EF90DF90CF90BF90AF907C
:103A90009F908F907F906F905F904F903F902F906E
:103AA0000895CF93DF93FC0181E093E2A5E4B7E6AC
:103AB00080879187A287B38789E89BEAADECBFEE48
:103AC00084879587A687B7878EEF9CEDAAEBB8E928
:103AD000808B918BA28BB38B86E794E5A2E3B0E158
:103AE000848B958BA68BB78B1082118212821382E6
:103AF0001482158216821782DF01A85ABF4F80E414
:103B0000ED01982F19929A95E9F77896DF011D92A9
:103B10008A95E9F7DF91CF9108958F929F92AF92A6
:103B2000BF92EF92FF920F931F93CF93DF93EC011D
:103B30007B018A0188819981AA81BB8170E060E064
:103B40004A015B01880E991EAA1EBB1E2FE1B222FC
:103B500088829982AA82BB8288169906AA06BB0629
:103B600068F48C809D80AE80BF802FEF821A920A0D
:103B7000A20AB20A8C829D82AE82BF828F7399277D
:103B8000AA27BB270097A105B10579F120E4822E71
:103B9000912CA12CB12C881A990AAA0ABB0A489622
:103BA0008C0F9D1F481559056A057B0570F4A80107
:103BB000B701DF91CF911F910F91FF90EF90BF90D0
:103BC000AF909F908F900C94B12EA401B7010E94EA
:103BD000B12EE80CF91C0819190940E450E0BE01A7
:103BE000685E7F4FCE010E94A10C0034110548F0A1
:103BF000A801407CB701CE010E94A10C7C010F738B
:103C00001127A801B701CE014896D3CFEF92FF92BA
:103C10000F931F93CF93DF938C01EB014881598160
:103C20006A817B814F73552766277727DB01CA019D
:103C30000196A11DB11D4C0F5D1F20E8FA01208FD8
:103C400040E450E060E070E0481B590B6A0B7B0BCE
:103C50007E01F8E1EF0EF11C483051056105710558
:103C6000A0F4489670E060E08C0F9D1F0E94BA2E71
:103C700040E450E0B701CE010E94A10C40E450E0C6
:103C800060E070E080E090E0DC0148505109489627
:103C900070E060E08C0F9D1F0E94BA2E8881998190
:103CA000AA81BB8123E0880F991FAA1FBB1F2A95F9
:103CB000D1F788839983AA83BB83FE01E05BFF4F22
:103CC0008083319690833196A0833196B0833C8176
:103CD0002D819E818F81319630833196208331965C
:103CE00090833196808340E450E0B701CE010E947A
:103CF000A10C8885F8018083898581838A858283E8
:103D00008B8583838C8584838D8585838E8586834F
:103D10008F85878388898087898981878A89828737
:103D20008B8983878C8984878D8985878E8986870F
:103D30008F89878788E9FE0111928A95E9F7DF91DB
:103D4000CF911F910F91FF90EF900895CF92DF9246
:103D5000EF92FF920F931F93CF93DF93CDB7DEB710
:103D6000C859D1090FB6F894DEBF0FBECDBF7C0194
:103D70006B0180E190E00E94DD268C01CE0101966E
:103D80000E94511DA601B701CE0101960E948D1D12
:103D9000BE016F5F7F4FC8010E94061EC801C85652
:103DA000DF4F0FB6F894DEBF0FBECDBFDF91CF91CE
:103DB0001F910F91FF90EF90DF90CF900895CF93D8
:103DC000DF931F92CDB7DEB76983DC01ED91FC91E3
:103DD0000280F381E02D41E050E0BE016F5F7F4F34
:103DE00009950F90DF91CF9108950895FC011382FA
:103DF000128288EE93E0A0E0B0E084839583A683EE
:103E0000B7838FE291E09183808380E5848781E0AE
:103E100085878AE090E09787868789E090E0918B9C
:103E2000808B82E090E0938B828B148A158A168AAD
:103E3000178A118E108E138E128E158E148E40E0FE
:103E400050E0BA01CF010C940E26FC0177876687FB
:103E5000518B408B338B228B08950F931F93CF93FD
:103E6000DF93EC01062F142F60E08E850E947229EB
:103E70003C852D8580918D38882381F09FB7F894FB
:103E800080918D38813081F58DB380938B384DB31F
:103E900080918C38809584238DBB9FBF3CBD2DBD08
:103EA0000EBD00000DB407FEFDCF8EB51EBD000097
:103EB0000DB407FEFDCF1EB580918D38882351F0DB
:103EC0009FB7F89420918D3880918B38213079F408
:103ED0008DBB9FBF61E08E850E947229812FDF918B
:103EE000CF911F910F91089590938B38D7CF8FBFAB
:103EF000F1CF6F7740E00C942D1F68E10C94791F8F
:103F000069E10E94791F682F880F770B880B990B46
:103F10000E94A82B20E030E040E85EE30E94582C8D
:103F200008958F929F92AF92BF92EF92FF920F935C
:103F30001F93CF93DF938C016AE10E94791FC82FF2
:103F4000D0E0C8010E94801F0E94702B4B017B01B2
:103F5000F80164897589868997890E94A82B24EDC8
:103F600030E843E45EE40E946B2BBE0187FD12C083
:103F70006D597109F7FE11C0680D791DCB01DF91F4
:103F8000CF911F910F91FF90EF90BF90AF909F90B6
:103F90008F900895645A7109EDCF072E000C880B9D
:103FA000990B0E94A82B20EB32E748E85FE30E94C0
:103FB000582C0E94702BE2CFCF93DF93EC0163E18A
:103FC0000E94791F90E0288D398D821B930BDF9121
:103FD000CF910895CF93DF93EC01E881F9810480BC
:103FE000F581E02D0995892B69F0888D998D0196D1
:103FF000998F888F60E0CE010E94791F90E0DF9159
:10400000CF9108958FEF9FEFFACF0F931F93CF9328
:10401000DF938C0166E00E94791FD82F67E0C8010A
:104020000E94791FC82F68E0C8010E94791F4C2F99
:1040300050E070E060E0762F652F542F44276D2B01
:104040008A019B01082BC901B80120E038E448EE41
:1040500051E00E94352D03E10E94DA2DB901CA0119
:10406000DF91CF911F910F9108956DE10E94791F0B
:10407000E82FF0E084E0F595E7958A95E1F7EA30DE
:10408000F10508F036C0E95BFF4D0C941A2D7A203B
:1040900051207F2056205B20602065206A206F2001
:1040A000742060EA78E280E090E0089560E471E5D1
:1040B00080E090E0089562E17AE780E090E0089582
:1040C00064EE72EA80E090E0089564E274EF80E0CC
:1040D00090E0089568E478EE81E090E0089560E96A
:1040E00070ED83E090E0089560E271EA87E090E08F
:1040F0000895089568E77EE180E090E0089560EF1C
:104100007CE380E090E008956CE20C94791FCF93FB
:10411000DF93EC0143E861E80E942D1F62E1CE01CC
:104120000E94791F83FD03C00E94A029F7CF48E0B9
:1041300062E9CE010E942D1F81E090E0DF91CF91D6
:104140000895AF92BF92CF92DF92FF920F931F9389
:10415000CF93DF936C015B01EA0162E20E94791F59
:10416000F82E90E09C012C0F3D1F2F3F310529F0C8
:1041700020F0CFEFD0E0C81BD90B8501AC0EBD1EDF
:104180000A151B0541F0F80141918F0160E8C60155
:104190000E942D1FF5CF4C2F4F0D62EAC6010E94E1
:1041A0002D1FCE01DF91CF911F910F91FF90DF90D6
:1041B000CF90BF90AF9008950F931F93CF93DF934D
:1041C000EC01E881F9810480F581E02D0995892BC6
:1041D000B1F06DE0CE010E94791F082F60E0CE01A2
:1041E0000E94791F182F402F6DE8CE010E942D1FCD
:1041F000812F90E0DF91CF911F910F9108958FEF64
:104200009FEFF8CFCF93DF93EC017D8F6C8F8A897E
:104210009B89672BA1F160E00E94362940E060ECA9
:10422000CE010E942D1F8A899B8982309105D9F089
:104230008A309105D1F00B97D1F481E00E9474246B
:104240008A899B8982309105A1F08A30910599F085
:104250000B9799F481E043E050E066E074E2DF916F
:10426000CF910C94A22982E0E9CF80E0E7CF8FEFD5
:10427000E5CF82E0F0CF80E0EECF8FEFECCF823061
:104280009105B9F08A309105B1F00B97B1F481E056
:104290000E94D1298A899B898230910581F08A30D8
:1042A000910579F00B9779F481E0DF91CF910C942F
:1042B000932482E0EDCF80E0EBCF8FEFE9CF82E077
:1042C000F4CF80E0F2CF8FEFF0CF41E861E80C94BB
:1042D0002D1F40E861E80C942D1F0E9469210C9469
:1042E0006024AF92BF92CF92DF92EF92FF920F9332
:1042F0001F93CF93DF93EC01DB01CA018C8B9D8B65
:10430000AE8BBF8B6A017B01FF0CCC08DC2C7601E5
:104310009A01AB016C2D7C2D8C2D9C2D03E10E940C
:10432000BF2DA12CE8E4BE2EF8EECF2EDD24D394D1
:10433000E12CF12C00E010E00E94622D122FC22E21
:10434000D32E7A01A7016627772766E8CE010E945F
:104350002D1F77276F2D5E2D4D2D67E8CE010E9412
:104360002D1F412F68E8CE01DF91CF911F910F9152
:10437000FF90EF90DF90CF90BF90AF900C942D1FE7
:10438000CF92DF92EF92FF92CF93DF93EC016A011D
:104390007B0161E08E850E94362961E08E850E9456
:1043A0007229888999898F3F9807B9F061E00E9446
:1043B000362960E088890E9472296AE070E080E016
:1043C00090E00E947D2861E088890E9472296AE05D
:1043D00070E080E090E00E947D280E942A2462E440
:1043E000CE010E94791F823191F5CE010E94692190
:1043F000B701A601CE010E94712140E06EE8CE0116
:104400000E942D1F40E06FE8CE010E942D1F6CE03E
:10441000CE010E94791F482F43606CE8CE010E94B4
:104420002D1F44E066EACE010E942D1F40E869E896
:10443000CE010E942D1FCE010E94652181E090E0F7
:10444000DF91CF91FF90EF90DF90CF90089590E0B3
:1044500080E0F6CFCF92DF92EF92FF92CF93DF937F
:10446000EC016EE10E94791FF82ECE010E943520EA
:10447000F2942FE0F222CC24C394D12C02C0CC0CB5
:10448000DD1CFA94E2F70D2C000CEE08FF0828EE74
:1044900033E040E050E00E94FB2CC701B6010E94CF
:1044A000FB2C21313105410551055CF04CE066EAF9
:1044B000CE01DF91CF91FF90EF90DF90CF900C94E1
:1044C0002D1F44E0F4CF0F931F93CF93DF938C0104
:1044D000EB016630710534F06D30710534F56630EE
:1044E000710529F545EC61EBC8010E942D1F4CE0D8
:1044F00067EBC8010E942D1FC6E0D0E06EE1C80145
:104500000E94791F8F7094E0CC0FDD1F9A95E1F720
:104510004C2F482B6EE9C8010E942D1FC801DF9166
:10452000CF911F910F910C942A22CCE0D0E043EC64
:1045300061EBC8010E942D1F4AE067EBC8010E9491
:104540002D1FDCCFCF92DF92EF92FF920F931F933C
:10455000CF93DF938C01CB01BA010E94A82B6B0192
:104560007C0120E030EC43EF55E40E946B2BD0E05F
:10457000C0E018160CF065C020E030E842E256E4D6
:10458000C701B6010E946B2BC1E0D0E018160CF0F9
:1045900058C020E030EC43E756E4C701B6010E9462
:1045A0006B2BC2E0D0E018160CF04BC020E030E8D6
:1045B00042EA56E4C701B6010E946B2BC3E0D0E08B
:1045C00018160CF03EC020E034E244EF56E4C70178
:1045D000B6010E946B2BC4E0D0E0181694F520E0E1
:1045E00034EE42E257E4C701B6010E946B2BC5E0EE
:1045F000D0E0181634F520E034E244E757E4C70170
:10460000B6010E946B2BC6E0D0E01816D4F420E06F
:1046100034E244EF57E4C701B6010E946B2BC7E0B8
:10462000D0E0181674F420E034E244E758E4C701FF
:10463000B6010E946B2BC9E0D0E0181614F0C8E058
:10464000D0E06DE1C8010E94791F8F7094E0CC0F1B
:10465000DD1F9A95E1F74C2F482B6DE9C8010E94A8
:104660002D1FC801DF91CF911F910F91FF90EF9007
:10467000DF90CF900C942A220F931F93CF93DF9358
:104680008C01EB016930710514F0C8E0D0E06DE1F8
:10469000C8010E94791FC530D10514F4C5E0D0E0EF
:1046A0002497CC0FDD1F482F417F4C2B6DE9C801AB
:1046B000DF91CF911F910F910C942D1FCF93DF931A
:1046C000EC016EE10E94791F482F44606EE9CE0133
:1046D000DF91CF910C942D1FCF93DF93EC011B8EB4
:1046E0001A8E6DE10E94791F482F4E7F6DE9CE0131
:1046F000DF91CF910C942D1FCF93DF93EC0181E0DC
:1047000090E09B8F8A8F6DE1CE010E94791F482F28
:1047100041606DE9CE01DF91CF910C942D1F0F9375
:104720001F93CF93DF93EC018B010E946521CE0193
:10473000012B99F00E947C2340E06DE8CE010E949D
:104740002D1F40E062EACE010E942D1F81E090E023
:10475000DF91CF911F910F9108950E946C23ECCFB0
:104760000F931F93CF93DF93EC018B01161617065F
:1047700084F40E947C23402F62EACE010E942D1F08
:1047800045E861E8CE01DF91CF911F910F910C9424
:104790002D1F0E946C23F4CF0F931F93CF93DF93B1
:1047A000EC0162E10E94791F182F482F62E9CE01C7
:1047B0000E942D1F15FD25C0198E188E8A8D9B8D88
:1047C00062E2892B09F463E1CE010E94791F082F70
:1047D00010E060E1CE010E94791F482F6DE8CE0104
:1047E0000E942D1FEC8DFD8D309711F0C8010995A9
:1047F00040E06DE8CE01DF91CF911F910F910C94B5
:104800002D1FDF91CF911F910F9108958DE698E3B1
:104810000C94CC23452B61F4AB016F30710514F07F
:104820004EE050E057FD40E0406769E80C942D1FD2
:10483000AB016231710514F041E150E042305105A5
:1048400014F442E050E042504068EFCF8DE698E328
:104850000C94F61ECF93CFB7F89480918E388111C7
:1048600027C0E0EDF0E08491E0EBF0E09491E82FD8
:10487000F0E0EE0FFF1FEA50FF4FA591B491EC91CD
:10488000E92321F461E084E00E94722961E084E080
:104890000E9436298CB580618CBD8CB580648CBD3E
:1048A00061E087E00E94362961E085E00E943629B8
:1048B00080918E388F5F80938E38CFBFCF910895CF
:1048C0009FB7F89480918E38882319F08150809397
:1048D0008E3880918E38811105C08CB58F7B8CBD50
:1048E00010928D389FBF08952FB7F894813041F012
:1048F000C0F08230A1F082E080938D3880E001C06A
:1049000082E090918C38892B80938C3880918D38FF
:10491000811103C081E080938D382FBF089584E01A
:10492000F0CF81E0EECF90918D389230A1F09FB71B
:10493000F894833088F4E82FF0E0E55CFE4F808146
:10494000809520918C38822380938C38811102C00D
:1049500010928D389FBF089580E0F2CFAF92BF9242
:10496000CF92DF92EF92FF920F931F93CF93DF933B
:104970006C017B018B01040F151FEB015E01AE186A
:10498000BF08C017D10759F06991D601ED91FC918C
:104990000190F081E02DC6010995892B79F7C501B9
:1049A000DF91CF911F910F91FF90EF90DF90CF900B
:1049B000BF90AF900895FC01918D228D892F90E0DA
:1049C000805C9F4F821B91098F7399270895FC018A
:1049D000918D828D981731F0828DE80FF11D858DB4
:1049E00090E008958FEF9FEF0895FC01918D828DE7
:1049F000981761F0A28DAE0FBF2FB11D5D968C91FF
:104A0000928D9F5F9F73928F90E008958FEF9FEF3D
:104A1000089584E796E2892B49F080E090E0892BA5
:104A200029F00E94742681110E94000080E090E02D
:104A3000892B49F080E090E0892B29F00E9400004A
:104A400081110C9400000895FC01A48DA80FB92FCA
:104A5000B11DA35ABF4F2C91848D90E001968F73A6
:104A60009927848FA689B7892C93A089B1898C91C5
:104A700080648C93938D848D981306C00288F3898B
:104A8000E02D80818F7D80830895CF93DF93EC01AB
:104A9000888D8823B9F0AA89BB89E889F9898C9126
:104AA00085FD03C0808186FD0DC00FB607FCF7CFE2
:104AB0008C9185FFF2CF808185FFEDCFCE010E94E2
:104AC0002425E9CFDF91CF910895EF92FF920F93C4
:104AD0001F93CF93DF93EC0181E0888F9B8D8C8DAA
:104AE000981316C0E889F989808185FF11C0EE8985
:104AF000FF896083E889F98980818064808381E00F
:104B000090E0DF91CF911F910F91FF90EF9008956A
:104B1000F62E0B8D10E00F5F1F4F0F731127E02E45
:104B20008C8D8E110CC00FB607FCFACFE889F9897D
:104B3000808185FFF5CFCE010E942425F1CFEB8D3A
:104B4000EC0FFD2FF11DE35AFF4FF0820B8FEA8926
:104B5000FB8980818062D2CFCF92DF92EF92FF9269
:104B60001F93CF93DF93EC016A017B01122FE88939
:104B7000F98982E08083C11481EED806E104F10452
:104B8000A1F060E079E08DE390E0A70196010E943A
:104B9000D92C21503109410951095695479537952E
:104BA0002795211580E1380798F0E889F989108266
:104BB00060E874E88EE190E0A70196010E94D92C8C
:104BC0002150310941095109569547953795279547
:104BD000EC85FD853083EE85FF852083188EEC897A
:104BE000FD891083EA89FB89808180618083EA895D
:104BF000FB89808188608083EA89FB898081806865
:104C00008083EA89FB8980818F7D8083DF91CF91CA
:104C10001F91FF90EF90DF90CF900895FC014483A7
:104C200055836683778308951F920F920FB60F9274
:104C300011240BB60F922F938F939F93EF93FF93B3
:104C4000E0919F38F091A0388081E091A538F091F3
:104C5000A63882FD1DC090818091A8388F5F8F7328
:104C60002091A938821741F0E091A838F0E0E1578F
:104C7000F74C958F8093A838FF91EF919F918F917A
:104C80002F910F900BBE0F900FBE0F901F90189595
:104C90008081F2CF1F920F920FB60F9211240BB6A4
:104CA0000F922F933F934F935F936F937F938F93C5
:104CB0009F93AF93BF93EF93FF938FE898E30E9486
:104CC0002425FF91EF91BF91AF919F918F917F919B
:104CD0006F915F914F913F912F910F900BBE0F906D
:104CE0000FBE0F901F9018958FE898E30E94DB2469
:104CF00021E0892B09F420E0822F0895EFE8F8E302
:104D00001382128288EE93E0A0E0B0E08483958362
:104D1000A683B78382E491E09183808385EC90E061
:104D20009587848784EC90E09787868780EC90E075
:104D3000918B808B81EC90E0938B828B82EC90E066
:104D4000958B848B86EC90E0978B868B118E128EE0
:104D5000138E148E089508950E94B6280E94AB26E3
:104D60000E945407C9E0D5E20E94200C2097E1F38D
:104D70000E940925F9CF009729F0BC0190E080E05E
:104D80000C94A82E0895CF92DF92EF92FF926B01C0
:104D90007C01C114D104E104F10441F00E94592EB8
:104DA000A70196010E94FB2C6B017C01C701B60193
:104DB000FF90EF90DF90CF9008950F931F93CF93C4
:104DC000DF938230910510F482E090E0E091373972
:104DD000F091383930E020E0B0E0A0E0309799F46D
:104DE0002115310509F44AC0281B390B243031053F
:104DF000D8F58A819B816115710589F1FB01938347
:104E00008283FE0111C040815181028113814817C4
:104E10005907E0F04817590799F4109761F0129676
:104E20000C93129713961C933296CF01DF91CF917A
:104E30001F910F9108950093373910933839F4CFAB
:104E40002115310551F04217530738F0A901DB0154
:104E50009A01BD01DF01F801C1CFEF01F9CF9093B5
:104E6000383980933739CDCFFE01E20FF31F81939C
:104E700091932250310939832883D7CF2091353936
:104E800030913639232B41F42091200130912101BA
:104E9000309336392093353920911E0130911F010E
:104EA0002115310541F42DB73EB7409122015091B3
:104EB0002301241B350BE0913539F0913639E21787
:104EC000F307A0F42E1B3F0B2817390778F0AC012D
:104ED0004E5F5F4F2417350748F04E0F5F1F50930A
:104EE000363940933539819391939FCFF0E0E0E0DC
:104EF0009CCFCF93DF930097E9F0FC0132971382A8
:104F00001282A0913739B0913839ED0130E020E0BC
:104F10001097A1F420813181820F931F20913539A0
:104F2000309136392817390709F061C0F0933639C6
:104F3000E0933539DF91CF910895EA01CE17DF076D
:104F4000E8F54A815B819E0141155105B1F7E90100
:104F5000FB83EA8349915991C40FD51FEC17FD07D4
:104F600061F4808191810296840F951FE9019983F4
:104F70008883828193819B838A83F0E0E0E01296AC
:104F80008D919C9113970097B9F52D913C911197B4
:104F9000CD010296820F931F209135393091363919
:104FA0002817390739F6309751F510923839109291
:104FB0003739B0933639A0933539BCCFD383C28308
:104FC00040815181840F951FC817D90761F44E5F46
:104FD0005F4F88819981480F591F518340838A818F
:104FE0009B81938382832115310509F0B0CFF09323
:104FF0003839E09337399ECFFD01DC01C0CF1382F1
:105000001282D7CF1F920F920FB60F9211242F93B7
:105010003F938F939F93AF93BF9380912D3990913E
:105020002E39A0912F39B091303930912C3923E0AD
:10503000230F2D3758F50196A11DB11D20932C3952
:1050400080932D3990932E39A0932F39B093303916
:105050008091313990913239A0913339B0913439FE
:105060000196A11DB11D8093313990933239A093DF
:105070003339B0933439BF91AF919F918F913F9164
:105080002F910F900FBE0F901F90189526E8230FB9
:105090000296A11DB11DD2CF2FB7F89460912D3982
:1050A00070912E3980912F39909130392FBF08950A
:1050B0003FB7F8948091313990913239A0913339CA
:1050C000B091343926B5A89B05C02F3F19F0019641
:1050D000A11DB11D3FBFBA2FA92F982F8827BC0152
:1050E000CD01620F711D811D911D42E0660F771F7A
:1050F000881F991F4A95D1F708958F929F92AF927A
:10510000BF92CF92DF92EF92FF926B017C010E94DF
:1051100058284B015C01C114D104E104F104E9F009
:105120000E94A0290E945828681979098A099B09B8
:10513000683E73408105910570F321E0C21AD108E1
:10514000E108F10888EE880E83E0981EA11CB11CCE
:10515000C114D104E104F10429F7FF90EF90DF902E
:10516000CF90BF90AF909F908F900895789484B522
:10517000826084BD84B5816084BD85B5826085BD53
:1051800085B5816085BDEEE6F0E080818160808339
:10519000E1E8F0E01082808182608083808181601C
:1051A0008083E0E8F0E0808181608083E1EBF0E0E3
:1051B000808184608083E0EBF0E080818160808387
:1051C000E1E9F0E08081826080838081816080837A
:1051D000E0E9F0E0808181608083EAE7F0E08081AF
:1051E000846080838081826080838081816080830D
:1051F0008081806880831092C100089581508A3038
:1052000080F5E82FF0E0E95FF64D0C941A2D1B298C
:105210001F291129172931293129222928292C2927
:105220003229809180008F7780938000089580914B
:1052300080008F7DF9CF84B58F7784BD089584B5C4
:105240008F7DFBCF8091B0008F778093B000089561
:105250008091B0008F7DF9CF809190008F778093FF
:1052600090000895809190008F7DF9CFCF93DF93C8
:1052700090E0FC01E455FF4F249184539F4FFC01C3
:1052800084918823C9F090E0880F991FFC01EA50AF
:10529000FF4FA591B491FC01E451FF4FC591D4910A
:1052A00061110DC09FB7F8948C91209582238C9347
:1052B0008881282328839FBFDF91CF910895623092
:1052C00051F49FB7F8943C91822F809583238C935F
:1052D000E8812E2BEFCF8FB7F894EC912E2B2C93E7
:1052E0008FBFEACF1F93CF93DF93282F30E0F901D0
:1052F000E457FF4F8491F901E455FF4FD491F90130
:10530000E453FF4FC491CC23A9F0162F81110E94C2
:10531000FE28EC2FF0E0EE0FFF1FE451FF4FA591A8
:10532000B4918FB7F894EC91111108C0D095DE2399
:10533000DC938FBFDF91CF911F910895DE2BF8CFC3
:1053400008950895833060F5E82FF0E0EE0FFF1F19
:10535000EC5DFE4F71836083813051F08230A1F0AB
:10536000809169008C7F482B40936900E89A0895EA
:1053700080916900837F440F551F440F551F482BB0
:1053800040936900E99A0895809169008F7C94E0C8
:10539000440F551F9A95E1F7482B40936900EA9A0C
:1053A0000895833078F4E82FF0E0813061F08230A6
:1053B00061F0E898EE0FFF1FEC5DFE4F81EA99E285
:1053C000918380830895E998F5CFEA98F3CF1F92EF
:1053D0000F920FB60F9211240BB60F922F933F939B
:1053E0004F935F936F937F938F939F93AF93BF93ED
:1053F000EF93FF93E0912401F09125010995FF912E
:10540000EF91BF91AF919F918F917F916F915F913C
:105410004F913F912F910F900BBE0F900FBE0F90A9
:105420001F9018951F920F920FB60F9211240BB672
:105430000F922F933F934F935F936F937F938F932D
:105440009F93AF93BF93EF93FF93E0912601F09169
:1054500027010995FF91EF91BF91AF919F918F9196
:105460007F916F915F914F913F912F910F900BBE64
:105470000F900FBE0F901F9018951F920F920FB6AE
:105480000F9211240BB60F922F933F934F935F937C
:105490006F937F938F939F93AF93BF93EF93FF93FC
:1054A000E0912801F09129010995FF91EF91BF91B9
:1054B000AF919F918F917F916F915F914F913F91AC
:1054C0002F910F900BBE0F900FBE0F901F9018954D
:1054D000883020F0873108F487E1885120912A0133
:1054E00090E4299F900111248770822B80937C0087
:1054F00080917A00806480937A0080917A0086FDA2
:10550000FCCF809178009091790008951F93CF93FC
:10551000DF93182FEB0161E00E943629209739F4C0
:1055200060E0812FDF91CF911F910C947229CF3FC2
:10553000D10511F461E0F5CFE12FF0E0E457FF4F22
:10554000E491E150EA3008F054C0F0E0E655F54D42
:105550000C941A2DB42ABC2AC12ACB2AF92AF92A7A
:10556000D52ADD2AE52AEF2A84B5806884BDC7BD27
:10557000DF91CF911F91089584B5806284BDC8BD2D
:10558000F7CF80918000806880938000D09389005D
:10559000C0938800EDCF809180008062809380006E
:1055A000D0938B00C0938A00E3CF8091B0008068D5
:1055B0008093B000C093B300DBCF8091B0008062D5
:1055C0008093B000C093B400D3CF809190008068E6
:1055D00080939000D0939900C0939800C9CF809198
:1055E0009000806280939000D0939B00C0939A00BB
:1055F000BFCFC038D1050CF09DCF92CF5058BB27FC
:10560000AA270E94162B0C941E2C0E94102C38F0F6
:105610000E94172C20F039F49F3F19F426F40C94C3
:105620000D2C0EF4E095E7FB0C94072CE92F0E945B
:105630002F2C58F3BA17620773078407950720F0D9
:1056400079F4A6F50C94512C0EF4E0950B2EBA2F9C
:10565000A02D0B01B90190010C01CA01A001112478
:10566000FF27591B99F0593F50F4503E68F11A1624
:10567000F040A22F232F342F4427585FF3CF4695B5
:1056800037952795A795F0405395C9F77EF41F16D7
:10569000BA0B620B730B840BBAF09150A1F0FF0FA1
:1056A000BB1F661F771F881FC2F70EC0BA0F621F8D
:1056B000731F841F48F4879577956795B795F7957D
:1056C0009E3F08F0B0CF9395880F08F09927EE0F12
:1056D0009795879508950E94E32B08F481E008953B
:1056E0000E94772B6894B1110C94522C08950E945B
:1056F000372C88F09F5798F0B92F9927B751B0F001
:10570000E1F0660F771F881F991F1AF0BA95C9F745
:1057100014C0B13091F00E94512CB1E008950C9466
:10572000512C672F782F8827B85F39F0B93FCCF319
:10573000869577956795B395D9F73EF490958095C2
:10574000709561957F4F8F4F9F4F0895E89409C0E2
:1057500097FB3EF490958095709561957F4F8F4FA4
:105760009F4F9923A9F0F92F96E9BB279395F695BA
:10577000879577956795B795F111F8CFFAF4BB0F38
:1057800011F460FF1BC06F5F7F4F8F4F9F4F16C09C
:10579000882311F096E911C0772321F09EE8872F26
:1057A000762F05C0662371F096E8862F70E060E0E2
:1057B0002AF09A95660F771F881FDAF7880F96955B
:1057C000879597F90895990F0008550FAA0BE0E8FF
:1057D000FEEF16161706E807F907C0F012161306B3
:1057E000E407F50798F0621B730B840B950B39F4F3
:1057F0000A2661F0232B242B252B21F408950A2659
:1058000009F4A140A6958FEF811D811D089597F998
:105810009F6780E870E060E008959FEF80EC089556
:1058200000240A941616170618060906089500247F
:105830000A9412161306140605060895092E0394F9
:10584000000C11F4882352F0BB0F40F4BF2B11F46D
:1058500060FF04C06F5F7F4F8F4F9F4F089557FDCC
:105860009058440F551F59F05F3F71F04795880FCE
:1058700097FB991F61F09F3F79F087950895121665
:1058800013061406551FF2CF4695F1DF08C0161611
:1058900017061806991FF1CF8695710561050894C2
:1058A0000895E894BB2766277727CB0197F90895D9
:1058B0000E946B2C0C941E2C0E94102C38F00E941D
:1058C000172C20F0952311F00C94072C0C940D2C20
:1058D00011240C94522C0E942F2C70F3959FC1F32D
:1058E000950F50E0551F629FF001729FBB27F00D8E
:1058F000B11D639FAA27F00DB11DAA1F649F6627E3
:10590000B00DA11D661F829F2227B00DA11D621F31
:10591000739FB00DA11D621F839FA00D611D221FEB
:10592000749F3327A00D611D231F849F600D211DCF
:10593000822F762F6A2F11249F5750409AF0F1F052
:1059400088234AF0EE0FFF1FBB1F661F771F881FBB
:1059500091505040A9F79E3F510580F00C94072CC0
:105960000C94522C5F3FE4F3983ED4F386957795E0
:105970006795B795F795E7959F5FC1F7FE2B880F61
:10598000911D9695879597F90895AA1BBB1B51E128
:1059900007C0AA1FBB1FA617B70710F0A61BB70B9F
:1059A000881F991F5A95A9F780959095BC01CD0144
:1059B0000895A1E21A2EAA1BBB1BFD010DC0AA1F50
:1059C000BB1FEE1FFF1FA217B307E407F50720F068
:1059D000A21BB30BE40BF50B661F771F881F991FE3
:1059E0001A9469F760957095809590959B01AC012C
:1059F000BD01CF010895052E97FB1EF400940E946F
:105A0000122D57FD07D00E94D92C07FC03D04EF46D
:105A10000C94122D50954095309521953F4F4F4F46
:105A20005F4F089590958095709561957F4F8F4F4A
:105A30009F4F0895EE0FFF1F0024001C0BBE079020
:105A4000F691E02D099469279627692778278727FB
:105A5000782708950E94F52DA59F900DB49F900D75
:105A6000A49F800D911D11240895E894DF93CF9396
:105A7000FC01DB010E94F52D7F936F93E9019A01F0
:105A8000AC01BF93AF933F932F93DF010E94F52D9D
:105A900026F46C1B7D0B820B930B9E01EB01FC012A
:105AA0000E94042EAF91BF912F913F910E94042E2E
:105AB000BE01CF01F9012F913F91CF91DF91089560
:105AC000689401C0E8948F929F92CF93DF930E94D5
:105AD0006E2DDF91CF919F908F9008958824992407
