:100000000C9483000C947C260C94A7260C94D22686
:100010000C94AD000C94AD000C94AD000C94AD00AC
:100020000C94AD000C94AD000C94AD000C94AD009C
:100030000C94AD000C94AD000C94AD000C94AD008C
:100040000C94AD000C94AD000C9423280C94AD00DE
:100050000C948A2B0C94C02B0C94AD000C94AD0026
:100060000C94AD000C94AD000C94AD000C94AD005C
:100070000C94AD000C94AD000C94AD000C948A254A
:100080000C94AD000C94AD000C94AD000000000188
:100090000200090A00000000040308070000000035
:1000A0000000000000000000000000000102040841
:1000B0001020408001020408102040800102040842
:1000C0001020408001020408102040800202020239
:1000D00002020202040404040404040403030303EC
:1000E00003030303010101010101010100002200DA
:1000F000250028002B0000002100240027002A00F2
:10010000F905541DF42B11241FBECFEFD0E4DEBF40
:10011000CDBF11E0A0E0B1E0E8EFFFE500E00BBFEC
:1001200002C007900D92AA34B107D9F72AE3AAE4D6
:10013000B1E001C01D92A334B207E1F710E0C3E8BB
:10014000D0E004C02197FE010E94352EC038D107AF
:10015000C9F70E94772C0C94FA2F0C940000CF93CF
:10016000DF931F92CDB7DEB76983DC01ED91FC917F
:100170000280F381E02D41E050E0BE016F5F7F4FD0
:1001800009950F90DF91CF9108950895FC01138296
:10019000128288EE93E0A0E0B0E084839583A6838A
:1001A000B7838BE291E09183808380E5848781E04F
:1001B00085878AE090E09787868789E090E0918B39
:1001C000808B82E090E0938B828B148A158A168A4A
:1001D000178A118E108E138E128E158E148E40E09B
:1001E00050E0BA01CF010C944E2CFC017787668752
:1001F000518B408B338B228B08950F931F93CF939A
:10020000DF93EC01062F142F60E08E850E94292ACF
:100210003C852D8580919739882381F09FB7F8948C
:1002200080919739813081F58DB3809395394DB3A5
:1002300080919639809584238DBB9FBF3CBD2DBD99
:100240000EBD00000DB407FEFDCF8EB51EBD000033
:100250000DB407FEFDCF1EB580919739882351F06C
:100260009FB7F8942091973980919539213079F48E
:100270008DBB9FBF61E08E850E94292A812FDF916F
:10028000CF911F910F91089590939539D7CF8FBF3C
:10029000F1CF6F7740E00C94FD0068E10C944901C8
:1002A00069E10C94490169E10E944901682F880FB6
:1002B000770B880B990B0E94C32C20E030E040E8BC
:1002C0005EE30E94732D08958F929F92AF92BF922A
:1002D000EF92FF920F931F93CF93DF938C016AE10C
:1002E0000E944901C82FD0E0C8010E9453010E941A
:1002F0008B2C4B017B01F80164897589868997896C
:100300000E94C32C24ED30E843E45EE40E94862C76
:10031000BE0187FD12C06D597109F7FE11C0680D4D
:10032000791DCB01DF91CF911F910F91FF90EF903D
:10033000BF90AF909F908F900895645A7109EDCF50
:10034000072E000C880B990B0E94C32C20EB32E780
:1003500048E85FE30E94732D0E948B2CE2CFCF937D
:10036000DF93EC0163E10E94490190E0288D398D13
:10037000821B930BDF91CF910895CF93DF93EC0114
:10038000E881F9810480F581E02D0995892B69F0D8
:10039000888D998D0196998F888F60E0CE010E949B
:1003A000490190E0DF91CF9108958FEF9FEFFACF51
:1003B0000F931F93CF93DF938C0166E00E94490156
:1003C000D82F67E0C8010E944901C82F68E0C80122
:1003D0000E9449014C2F50E070E060E0762F652FBD
:1003E000542F44276D2B8A019B01082BC901B801AA
:1003F00020E038E448EE51E00E94502E03E10E94D4
:10040000F52EB901CA01DF91CF911F910F91089587
:100410006DE10E944901E82FF0E084E0F595E79551
:100420008A95E1F7EA30F10508F036C0E65EFD4F47
:100430000C94352E4D022402520229022E02330260
:1004400038023D024202470260EA78E280E090E032
:10045000089560E471E580E090E0089562E17AE754
:1004600080E090E0089564EE72EA80E090E0089504
:1004700064E274EF80E090E0089568E478EE81E053
:1004800090E0089560E970ED83E090E0089560E207
:1004900071EA87E090E00895089568E77EE180E0E2
:1004A00090E0089560EF7CE380E090E008956CE2D6
:1004B0000C944901CF93DF93EC0143E861E80E947B
:1004C000FD0062E1CE010E94490183FD03C00E944C
:1004D0002228F7CF48E062E9CE010E94FD0081E0CA
:1004E00090E0DF91CF910895AF92BF92CF92DF92CB
:1004F000FF920F931F93CF93DF936C015B01EA018F
:1005000062E20E944901F82E90E09C012C0F3D1FF1
:100510002F3F310529F020F0CFEFD0E0C81BD90BD9
:100520008501AC0EBD1E0A151B0541F0F801419175
:100530008F0160E8C6010E94FD00F5CF4C2F4F0DE2
:1005400062EAC6010E94FD00CE01DF91CF911F91AA
:100550000F91FF90DF90CF90BF90AF9008950F93D1
:100560001F93CF93DF93EC01E881F9810480F5813B
:10057000E02D0995892BB1F06DE0CE010E94490173
:10058000082F60E0CE010E944901182F402F6DE82E
:10059000CE010E94FD00812F90E0DF91CF911F914D
:1005A0000F9108958FEF9FEFF8CFCF93DF93EC017A
:1005B0007D8F6C8F8A899B89672BA1F160E00E94F7
:1005C000ED2940E060ECCE010E94FD008A899B8904
:1005D00082309105D9F08A309105D1F00B97D1F492
:1005E00081E00E94FC258A899B8982309105A1F0D7
:1005F0008A30910599F00B9799F481E043E050E03F
:1006000069ED75E0DF91CF910C94372682E0E9CF58
:1006100080E0E7CF8FEFE5CF82E0F0CF80E0EECF54
:100620008FEFECCF82309105B9F08A309105B1F0AF
:100630000B97B1F481E00E9466268A899B898230FB
:10064000910581F08A30910579F00B9779F481E07A
:10065000DF91CF910C941B2682E0EDCF80E0EBCFB1
:100660008FEFE9CF82E0F4CF80E0F2CF8FEFF0CFD1
:1006700041E861E80C94FD0040E861E80C94FD005D
:100680000E943C030C94E825AF92BF92CF92DF9278
:10069000EF92FF920F931F93CF93DF93EC01DB0157
:1006A000CA018C8B9D8BAE8BBF8B6A017B01FF0CCB
:1006B000CC08DC2C76019A01AB016C2D7C2D8C2DA5
:1006C0009C2D03E10E94DA2EA12CE8E4BE2EF8EE68
:1006D000CF2EDD24D394E12CF12C00E010E00E9419
:1006E0007D2E122FC22ED32E7A01A70166277727DF
:1006F00066E8CE010E94FD0077276F2D5E2D4D2DFF
:1007000067E8CE010E94FD00412F68E8CE01DF912D
:10071000CF911F910F91FF90EF90DF90CF90BF90FE
:10072000AF900C94FD00CF92DF92EF92FF92CF93A7
:10073000DF93EC016A017B0161E08E850E94ED2967
:1007400061E08E850E94292A888999898F3F9807C0
:10075000B9F061E00E94ED2960E088890E94292AB1
:100760006AE070E080E090E00E949E2861E0888965
:100770000E94292A6AE070E080E090E00E949E28B2
:100780000E94B22562E4CE010E944901823191F5B6
:10079000CE010E943C03B701A601CE010E94440392
:1007A00040E06EE8CE010E94FD0040E06FE8CE011F
:1007B0000E94FD006CE0CE010E944901482F436079
:1007C0006CE8CE010E94FD0044E066EACE010E9482
:1007D000FD0040E869E8CE010E94FD00CE010E94C4
:1007E000380381E090E0DF91CF91FF90EF90DF90B0
:1007F000CF90089590E080E0F6CFCF92DF92EF9215
:10080000FF92CF93DF93EC016EE10E944901F82E35
:10081000CE010E940802F2942FE0F222CC24C3946D
:10082000D12C02C0CC0CDD1CFA94E2F70D2C000C8C
:10083000EE08FF0828EE33E040E050E00E94162E5C
:10084000C701B6010E94162E21313105410551051F
:100850005CF04CE066EACE01DF91CF91FF90EF9023
:10086000DF90CF900C94FD0044E0F4CF0F931F93E2
:10087000CF93DF938C01EB016630710534F06D305E
:10088000710534F56630710529F545EC61EBC80159
:100890000E94FD004CE067EBC8010E94FD00C6E02D
:1008A000D0E06EE1C8010E9449018F7094E0CC0F46
:1008B000DD1F9A95E1F74C2F482B6EE9C8010E9485
:1008C000FD00C801DF91CF911F910F910C94FD03A2
:1008D000CCE0D0E043EC61EBC8010E94FD004AE0AF
:1008E00067EBC8010E94FD00DCCFCF92DF92EF9250
:1008F000FF920F931F93CF93DF938C01CB01BA012B
:100900000E94C32C6B017C0120E030EC43EF55E4E6
:100910000E94862CD0E0C0E018160CF065C020E0E4
:1009200030E842E256E4C701B6010E94862CC1E0DD
:10093000D0E018160CF058C020E030EC43E756E445
:10094000C701B6010E94862CC2E0D0E018160CF058
:100950004BC020E030E842EA56E4C701B6010E94ED
:10096000862CC3E0D0E018160CF03EC020E034E244
:1009700044EF56E4C701B6010E94862CC4E0D0E0E3
:10098000181694F520E034EE42E257E4C701B601B0
:100990000E94862CC5E0D0E0181634F520E034E241
:1009A00044E757E4C701B6010E94862CC6E0D0E0B8
:1009B0001816D4F420E034E244EF57E4C701B6013E
:1009C0000E94862CC7E0D0E0181674F420E034E2D0
:1009D00044E758E4C701B6010E94862CC9E0D0E084
:1009E000181614F0C8E0D0E06DE1C8010E9449017A
:1009F0008F7094E0CC0FDD1F9A95E1F74C2F482BB8
:100A00006DE9C8010E94FD00C801DF91CF911F91DF
:100A10000F91FF90EF90DF90CF900C94FD030F9318
:100A20001F93CF93DF938C01EB016930710514F0B4
:100A3000C8E0D0E06DE1C8010E944901C530D10590
:100A400014F4C5E0D0E02497CC0FDD1F482F417F80
:100A50004C2B6DE9C801DF91CF911F910F910C9440
:100A6000FD00CF93DF93EC016EE10E944901482F16
:100A700044606EE9CE01DF91CF910C94FD00CF93DD
:100A8000DF93EC011B8E1A8E6DE10E944901482F05
:100A90004E7F6DE9CE01DF91CF910C94FD00CF9395
:100AA000DF93EC0181E090E09B8F8A8F6DE1CE01B6
:100AB0000E944901482F41606DE9CE01DF91CF913D
:100AC0000C94FD000F931F93CF93DF93EC018B01E8
:100AD0000E943803CE01012B99F00E944F0540E09F
:100AE0006DE8CE010E94FD0040E062EACE010E9466
:100AF000FD0081E090E0DF91CF911F910F9108956B
:100B00000E943F05ECCF0F931F93CF93DF93EC012F
:100B10008B011616170684F40E944F05402F62EAD7
:100B2000CE010E94FD0045E861E8CE01DF91CF9142
:100B30001F910F910C94FD000E943F05F4CF0F937D
:100B40001F93CF93DF93EC0162E10E944901182FBC
:100B5000482F62E9CE010E94FD0015FD25C0198EC7
:100B6000188E8A8D9B8D62E2892B09F463E1CE0198
:100B70000E944901082F10E060E1CE010E94490166
:100B8000482F6DE8CE010E94FD00EC8DFD8D309761
:100B900011F0C801099540E06DE8CE01DF91CF91D9
:100BA0001F910F910C94FD00DF91CF911F910F9138
:100BB00008958AE491E00C949F05452B61F4AB0104
:100BC0006F30710514F04EE050E057FD40E0406793
:100BD00069E80C94FD00AB016231710514F041E14C
:100BE00050E04230510514F442E050E04250406879
:100BF000EFCF8AE491E00C94C6002F923F924F927F
:100C00005F926F927F928F929F92AF92BF92CF929C
:100C1000DF92EF92FF920F931F93CF93DF93CDB7A5
:100C2000DEB7C857D1090FB6F894DEBF0FBECDBFEF
:100C3000E9969FAF8EAFE9971A01DC0118960D91E6
:100C40001D912D913C911B9761960CAF1DAF2EAF5E
:100C50003FAF61971C960D911D912D913C911F976F
:100C600009831A832B833C8350960D911D912D91FE
:100C70003C9153970D831E832F83388754960D9193
:100C80001D912D913C91579709871A872B873C8797
:100C9000E6966FAFE697E7967FAFE797A85ABF4F04
:100CA0006396BFAFAEAF6397FC01E45AFF4F659602
:100CB000FFAFEEAF65978C01005A1F4F67961FAFCD
:100CC0000EAF67979C012C593F4F69963FAF2EAFEF
:100CD000699788599F4F6B969FAF8EAF6B97E99638
:100CE000AEADBFADE997A459BF4F6D96BFAFAEAFE4
:100CF0006D97E996EEADFFADE997E059FF4F6F961E
:100D0000FFAFEEAF6F97E9960EAD1FADE9970C58A8
:100D10001F4FA1961FAF0EAFA197E9962EAD3FAD25
:100D2000E99728583F4FA3963FAF2EAFA397E99678
:100D30008EAD9FADE99784589F4FA5969FAF8EAF1C
:100D4000A597E996AEADBFADE997A058BF4FA7965E
:100D5000BFAFAEAFA797E996EEADFFADE997EC5701
:100D6000FF4FA996FFAFEEAFA997E9960EAD1FAD65
:100D7000E99708571F4FAB961FAF0EAFAB97E99699
:100D80002EAD3FADE99724573F4FAD963FAF2EAF05
:100D9000AD97E9968EAD9FADE99780579F4FAF967F
:100DA0009FAF8EAFAF97E996AEADBFADE997AC56AA
:100DB000BF4FE196BFAFAEAFE197E796AEADBFAD27
:100DC000E7970D911D912D913C910D871E872F87DF
:100DD000388B6396EEADFFAD63970083118322835A
:100DE000338361968CAD9DADAEADBFAD6197885834
:100DF0009B45A549B842800F911FA21FB31F4D818B
:100E00005E816F81788509851A852B853C85402711
:100E100051276227732709811A812B813C81402346
:100E200051236223732309851A852B853C8540272E
:100E3000512762277327840F951FA61FB71F8C01A8
:100E40009D0147E0000F111F221F331F4A95D1F764
:100E5000AC01BD01E9E17695679557954795EA950F
:100E6000D1F7402B512B622B732B89819A81AB8157
:100E7000BC81480F591F6A1F7B1FE796AEADBFADFF
:100E8000E79714960D911D912D913C911797098B21
:100E90001A8B2B8B3C8B6596EEADFFAD659700836F
:100EA00011832283338389859A85AB85BC858A5AD1
:100EB0009844A843B741800F911FA21FB31FC98058
:100EC000DA80EB80FC800D811E812F813885C02661
:100ED000D126E226F326C422D522E622F722C02616
:100EE000D126E226F3268C0D9D1DAE1DBF1D8C0163
:100EF0009D01FCE0000F111F221F331FFA95D1F74F
:100F00006C017D01A4E1F694E794D794C794AA9567
:100F1000D1F7C02AD12AE22AF32AC40ED51EE61E32
:100F2000F71EE796AEADBFADE79718968D919D91F0
:100F30000D90BC91A02D8D8B9E8BAF8BB88F67963B
:100F4000EEADFFAD679780839183A283B3838D81DC
:100F50009E81AF81B88585529F48AF4DBB4D0D89AD
:100F60001E892F89388D800F911FA21FB31F4980C2
:100F70005A806B807C8044265526662677264C2036
:100F80005D206E207F2009811A812B813C814026C3
:100F9000512662267326840D951DA61DB71D8C0152
:100FA0009D01EFE03695279517950795EA95D1F7BE
:100FB0002C013D01F1E1440C551C661C771CFA958F
:100FC000D1F7402A512A622A732A4C0C5D1C6E1CF0
:100FD0007F1CE796AEADBFADE7971C968D919D91B6
:100FE0000D90BC91A02D898F9A8FAB8FBC8F699685
:100FF000EEADFFAD699780839183A283B38389812E
:101000009A81AB81BC8182519143A244BE43098D38
:101010001A8D2B8D3C8D800F911FA21FB31F8A014B
:101020009B010C251D252E253F2504211521262158
:1010300037210427152726273727800F911FA21F46
:10104000B31F4C015D011AE0B694A794979487945E
:101050001A95D1F78C019D0186E1000F111F221F07
:10106000331F8A95D1F7082919292A293B29040D0C
:10107000151D261D371DE796AEADBFADE7975096FF
:101080008D919D910D90BC91A02D8D8F9E8FAF8FD6
:10109000B8A36B96EEADFFAD6B9780839183A2836F
:1010A000B3838155904FA348BA40840F951FA61F64
:1010B000B71FB701A601442555256625772540238E
:1010C0005123622373234C255D256E257F25840FD4
:1010D000951FA61FB71F4C015D0147E0880C991CA6
:1010E000AA1CBB1C4A95D1F7AC01BD01E9E176957C
:1010F000679557954795EA95D1F7482959296A295F
:101100007B29400F511F621F731FE796AEADBFAD25
:10111000E79754968D919D910D90BC91A02D89A338
:101120009AA3ABA3BCA36D96EEADFFAD6D97808384
:101130009183A283B383865D9943A847B84B8C0DF6
:101140009D1DAE1DBF1D73016201C026D126E22682
:10115000F326C422D522E622F722C424D524E6248D
:10116000F7248C0D9D1DAE1DBF1D4C015D01FCE0E3
:10117000880C991CAA1CBB1CFA95D1F76C017D0147
:10118000A4E1F694E794D794C794AA95D1F7C82818
:10119000D928EA28FB28C40ED51EE61EF71EE796BE
:1011A000AEADBFADE79758968D919D910D90BC91D6
:1011B000A02D8DA39EA3AFA3B8A76F96EEADFFADF4
:1011C0006F9780839183A283B3838D5E994BAF4CDD
:1011D000B745840D951DA61DB71D2801390144266C
:1011E0005526662677264C205D206E207F204026DF
:1011F000512662267326840D951DA61DB71D4C0130
:101200005D01EFE0B694A79497948794EA95D1F79F
:101210002C013D01F1E1440C551C661C771CFA952C
:10122000D1F7482859286A287B284C0C5D1C6E1C75
:101230007F1CE796AEADBFADE7975C968D919D9113
:101240000D90BC91A02D89A79AA7ABA7BCA7A1968A
:10125000EEADFFADA19780839183A283B3838F5FAF
:101260009A46A94BB240800F911FA21FB31F8A015B
:101270009B010C251D252E253F2504211521262106
:1012800037210427152726273727800F911FA21FF4
:10129000B31F4C015D011AE0B694A794979487940C
:1012A0001A95D1F78C019D0186E1000F111F221FB5
:1012B000331F8A95D1F7082919292A293B29040DBA
:1012C000151D261D371DE796AEADBFADE79790966D
:1012D0008D919D910D90BC91A02D8DA79EA7AFA73C
:1012E000B8ABA396EEADFFADA39780839183A283A5
:1012F000B38388529746AF47B649840F951FA61F00
:10130000B71FB701A601442555256625772540233B
:101310005123622373234C255D256E257F25840F81
:10132000951FA61FB71F4C015D0147E0880C991C53
:10133000AA1CBB1C4A95D1F7AC01BD01E9E1769529
:10134000679557954795EA95D1F7482959296A290C
:101350007B29400F511F621F731FE796AEADBFADD3
:10136000E79794968D919D910D90BC91A02D89AB9E
:101370009AABABABBCABA596EEADFFADA5978083AA
:101380009183A283B38381559840AB4BB4478C0DB6
:101390009D1DAE1DBF1D73016201C026D126E22630
:1013A000F326C422D522E622F722C424D524E6243B
:1013B000F7248C0D9D1DAE1DBF1D4C015D01FCE091
:1013C000880C991CAA1CBB1CFA95D1F76C017D01F5
:1013D000A4E1F694E794D794C794AA95D1F7C828C6
:1013E000D928EA28FB28C40ED51EE61EF71EE7966C
:1013F000AEADBFADE79798968D919D910D90BC9144
:10140000A02D8DAB9EABAFABB8AFA796EEADFFAD49
:10141000A79780839183A283B3838F54944AA109B1
:10142000B109840D951DA61DB71D2801390144265B
:101430005526662677264C205D206E207F2040268C
:10144000512662267326840D951DA61DB71D4C01DD
:101450005D01EFE0B694A79497948794EA95D1F74D
:101460002C013D01F1E1440C551C661C771CFA95DA
:10147000D1F7482859286A287B284C0C5D1C6E1C23
:101480007F1CE796AEADBFADE7979C968D919D9181
:101490000D90BC91A02D89AF9AAFABAFBCAFA99610
:1014A000EEADFFADA99780839183A283B38382546D
:1014B0009842A34AB647800F911FA21FB31F8A010B
:1014C0009B010C251D252E253F25042115212621B4
:1014D00037210427152726273727800F911FA21FA2
:1014E000B31F4C015D011AE0B694A79497948794BA
:1014F0001A95D1F78C019D0186E1000F111F221F63
:10150000331F8A95D1F7082919292A293B29040D67
:10151000151D261D371DE796AEADBFADE797D096DA
:101520008D919D910D90BC91A02D21968CAF9DAF7A
:10153000AEAFBFAF2197AB96EEADFFADAB9780835B
:101540009183A283B3834C015D01FEED8F1AFEEE01
:101550009F0AFFE6AF0AF4E9BF0A840E951EA61E95
:10156000B71EB701A60144255525662577254023DA
:101570005123622373234C255D256E257F25480D5D
:10158000591D6A1D7B1D4A015B0197E0880C991C5F
:10159000AA1CBB1C9A95D1F7E9E1769567955795FA
:1015A0004795EA95D1F7482959296A297B29400F9F
:1015B000511F621F731FE796AEADBFADE797D4967C
:1015C0008D919D910D90BC91A02D25968CAF9DAFD6
:1015D000AEAFBFAF2597AD96EEADFFADAD978083B3
:1015E0009183A283B3834C015D01FDE68F1AFEE86F
:1015F0009F0AF7E6AF0AF2E0BF0A8C0C9D1CAE1CF6
:10160000BF1C73016201C026D126E226F326C42244
:10161000D522E622F722C424D524E624F724C80CD8
:10162000D91CEA1CFB1C46015701FCE0880C991CE4
:10163000AA1CBB1CFA95D1F7A4E1F694E794D794C1
:10164000C794AA95D1F7C828D928EA28FB28C40E40
:10165000D51EE61EF71EE796AEADBFADE797D8964E
:101660008D919D910D90BC91A02D29968CAF9DAF31
:10167000AEAFBFAF2997AF96EEADFFADAF9780830A
:101680009183A283B3834C015D01F2E78F1AFCEBD7
:101690009F0AF6E8AF0AF9E5BF0A840C951CA61C60
:1016A000B71C2801390144265526662677264C208A
:1016B0005D206E207F204026512662267326480C2E
:1016C000591C6A1C7B1C53014201BFE0B694A794CD
:1016D00097948794BA95D1F781E1440C551C661C08
:1016E000771C8A95D1F7482859286A287B284C0C02
:1016F0005D1C6E1C7F1CE796AEADBFADE797DC9618
:101700008D919D910D90BC91A02D2D968CAF9DAF8C
:10171000AEAFBFAF2D97E196EEADFFADE197808301
:101720009183A283B3834C015D01FFED8F1AF7EF24
:101730009F0AFBE4AF0AF6EBBF0A800E911EA21EC1
:10174000B31E8A019B010C251D252E253F25042152
:101750001521262137210427152726273727080D8D
:10176000191D2A1D3B1D480159019AE0B694A79402
:10177000979487949A95D1F7E6E1000F111F221FE5
:10178000331FEA95D1F7082919292A293B29040D85
:10179000151D261D371D89889A88AB88BC888EE95F
:1017A000881A8AED980A81EEA80A89E0B80A840EA0
:1017B000951EA61EB71EB301A2014027512762271E
:1017C00073274C215D216E217F21442555256625F7
:1017D0007725480D591D6A1D7B1D4A015B01F5E007
:1017E000880C991CAA1CBB1CFA95D1F7ABE1769525
:1017F000679557954795AA95D1F7482959296A2998
:101800007B29400F511F621F731F8DA09EA0AFA0A8
:10181000B8A490EC891A9CE4990A9FEBA90A9FE36B
:10182000B90A8C0C9D1CAE1CBF1C68017901C42632
:10183000D526E626F726C420D520E620F720C026A8
:10184000D126E226F326C80CD91CEA1CFB1C460153
:101850005701B9E0880C991CAA1CBB1CBA95D1F79A
:1018600087E1F694E794D794C7948A95D1F7C8286E
:10187000D928EA28FB28C40ED51EE61EF71E89AC1F
:101880009AACABACBCACAFEA8A1AA5EA9A0AA1EA58
:10189000AA0AA9EDBA0A840C951CA61CB71C2A0139
:1018A0003B014C245D246E247F244022512262227D
:1018B00073224426552666267726480C591C6A1C36
:1018C0007B1C530142019EE0880C991CAA1CBB1C86
:1018D0009A95D1F7E2E17694679457944794EA9504
:1018E000D1F7482859286A287B284C0C5D1C6E1CAF
:1018F0007F1C8D849E84AF84B888B6E58B1AB8E3CC
:101900009B0AB9E4AB0AB6E1BB0A800E911EA21E87
:10191000B31E9701860104251525262537250423A6
:101920001523262337230C251D252E253F25080D9D
:10193000191D2A1D3B1D48015901FCE0B694A794CE
:1019400097948794FA95D1F7A4E1000F111F221FF5
:10195000331FAA95D1F7082919292A293B29040DF3
:10196000151D261D371D89A09AA0ABA0BCA0E3EAD7
:101970008E1AEFEE9E0AE0EDAE0AE9E2BE0A840E90
:10198000951EA61EB71EB301A2014027512762274C
:1019900073274C215D216E217F2144255525662525
:1019A0007725480D591D6A1D7B1D4A015B01B5E075
:1019B000880C991CAA1CBB1CBA95D1F78BE17695B3
:1019C0006795579547958A95D1F7482959296A29E6
:1019D0007B29400F511F621F731F8DA89EA8AFA8BF
:1019E000B8ACFDEA8F1AFBEE9F0AFBEBAF0AFDEFE6
:1019F000BF0A8C0C9D1CAE1CBF1C68017901C4265B
:101A0000D526E626F726C420D520E620F720C026D6
:101A1000D126E226F326C80CD91CEA1CFB1C460181
:101A2000570199E0880C991CAA1CBB1C9A95D1F708
:101A3000E7E1F694E794D794C794EA95D1F7C828DC
:101A4000D928EA28FB28C40ED51EE61EF71E2D96BF
:101A50008CAC9DACAEACBFAC2D978FE7881A89E1FA
:101A6000980A8EE5A80A87E2B80A840C951CA61C81
:101A7000B71C2A013B014C245D246E247F244022A4
:101A80005122622273224426552666267726480C68
:101A9000591C6A1C7B1C53014201FEE0880C991CF6
:101AA000AA1CBB1CFA95D1F7A2E1769467945794CF
:101AB0004794AA95D1F7482859286A287B284C0CC6
:101AC0005D1C6E1C7F1C8D8C9E8CAF8CB8A098E327
:101AD000891A94E0990A9CE2A90A98E1B90A800E51
:101AE000911EA21EB31E97018601042515252625E9
:101AF000372504231523262337230C251D252E25C2
:101B00003F25080D191D2A1D3B1D48015901BCE048
:101B1000B694A79497948794BA95D1F784E1000F6F
:101B2000111F221F331F8A95D1F7082919292A2945
:101B30003B29040D151D261D371D89A89AA8ABA8A1
:101B4000BCA8AAE18A1AA2E39A0AAEE1AA0AAEEDFB
:101B5000BA0A840E951EA61EB71EB301A201402725
:101B60005127622773274C215D216E217F21442557
:101B7000552566257725480D591D6A1D7B1D4A018F
:101B80005B0195E0880C991CAA1CBB1C9A95D1F7A7
:101B9000EBE17695679557954795EA95D1F74829F2
:101BA00059296A297B29400F511F621F731F2996EB
:101BB0008CAC9DACAEACBFAC2997BAE28B1AB8EF37
:101BC0009B0AB8ECAB0ABCE3BB0A8C0C9D1CAE1C98
:101BD000BF1C68017901C426D526E626F726C42055
:101BE000D520E620F720C026D126E226F326C80C11
:101BF000D91CEA1CFB1C46015701F9E0880C991C12
:101C0000AA1CBB1CFA95D1F7A7E1F694E794D794E8
:101C1000C794AA95D1F7C828D928EA28FB28C40E6A
:101C2000D51EE61EF71E898C9A8CAB8CBC8CE9E71E
:101C30008E1AE2EF9E0AEAE2AE0AEBE0BE0A840CDC
:101C4000951CA61CB71C2A013B014C245D246E2464
:101C50007F24402251226222732244265526662682
:101C60007726480C591C6A1C7B1C53014201BEE0BC
:101C7000880C991CAA1CBB1CBA95D1F782E17694FA
:101C80006794579447948A95D1F7482859286A2829
:101C90007B284C0C5D1C6E1C7F1C8DA49EA4AFA4E5
:101CA000B8A8F3E18F1AFBEE9F0AF5EAAF0AFAEB48
:101CB000BF0A800E911EA21EB31E97018601042545
:101CC00015252625372504231523262337230C2500
:101CD0001D252E253F25080D191D2A1D3B1D4801D8
:101CE00059019CE0B694A794979487949A95D1F75C
:101CF000E4E1000F111F221F331FEA95D1F70829D5
:101D000019292A293B29040D151D261D371D259645
:101D10008CAC9DACAEACBFAC25978BEF881A86E13E
:101D2000980A8CE1A80A86E5B80A840E951EA61EBC
:101D3000B71EB301A20140275127622773274C2108
:101D40005D216E217F214425552566257725480D87
:101D5000591D6A1D7B1D4A015B01F5E0880C991C29
:101D6000AA1CBB1CFA95D1F7ABE176956795579500
:101D70004795AA95D1F7482959296A297B29400F07
:101D8000511F621F731F8D889E88AF88B88C98E0A2
:101D9000891A9CE5990A90E1A90A93E0B90A8C0C8A
:101DA0009D1CAE1CBF1C68017901C426D526E62601
:101DB000F726C420D520E620F720C026D126E2262B
:101DC000F326C80CD91CEA1CFB1C46015701B9E0DC
:101DD000880C991CAA1CBB1CBA95D1F787E1F69414
:101DE000E794D794C7948A95D1F7C828D928EA28C8
:101DF000FB28C40ED51EE61EF71E89A49AA4ABA428
:101E0000BCA4A7E28A1AADEF9A0AA0E9AA0AA8E937
:101E1000BA0A840C951CA61CB71C2A013B014C2451
:101E20005D246E247F2440225122622273224426A4
:101E3000552666267726480C591C6A1C7B1C5301C4
:101E400042019EE0880C991CAA1CBB1C9A95D1F7F4
:101E5000E2E17694679457944794EA95D1F748283D
:101E600059286A287B284C0C5D1C6E1C7F1C46017F
:101E7000570184249524A624B72421968CAD9DADCA
:101E8000AEADBFAD21978657934BA54DB247800F9E
:101E9000911FA21FB31F950184010423152326233C
:101EA00037230C251D252E253F25800F911FA21FAE
:101EB000B31F8C019D01FCE036952795179507957A
:101EC000FA95D1F7E5960CAF1DAF2EAF3FAFE59772
:101ED0008C019D01A4E1000F111F221F331FAA9541
:101EE000D1F7E5968CAD9DADAEADBFADE597082BB6
:101EF000192B2A2B3B2B040D151D261D371D89A1DF
:101F00009AA1ABA1BCA18E5B964CA540B109840FF0
:101F1000951FA61FB71F80269126A226B326880EDE
:101F2000991EAA1EBB1ED501C40144E0880F991F4B
:101F3000AA1FBB1F4A95D1F75CE1B694A79497946A
:101F400087945A95D1F7882A992AAA2ABB2A800E03
:101F5000911EA21EB31E4DA55EA56FA578A94F5771
:101F600059406E4878474C0D5D1D6E1D7F1D7301F5
:101F70006201C026D126E226F326C824D924EA2409
:101F8000FB24C40ED51EE61EF71EB701A601EBE02A
:101F9000440F551F661F771FEA95D1F7F5E1F694B8
:101FA000E794D794C794FA95D1F7C42AD52AE62A9C
:101FB000F72AC80CD91CEA1CFB1C49AD5AAD6BAD05
:101FC0007CAD4E5D5E4962467249440E551E661EEA
:101FD000771EB901A801482559256A257B254C257E
:101FE0005D256E257F25440E551E661E771ED20187
:101FF00023013D014C0C5D1C6E1C7F1C29964CADD1
:102000005DAD6EAD7FAD2997445F574C6A4172401C
:10201000400F511F621F731F950184010C251D2560
:102020002E253F250425152526253725040F151FA8
:10203000261F371FB901A801A9E076956795579526
:102040004795AA95D1F7B7E1000F111F221F331F43
:10205000BA95D1F7042B152B262B372B040D151D04
:10206000261D371D49895A896B897C894C5B5541EE
:1020700061447B45480D591D6A1D7B1D4601570172
:1020800084249524A624B72480269126A226B3264C
:10209000840E951EA61EB71EB501A40184E0440F50
:1020A000551F661F771F8A95D1F79CE1B694A794B8
:1020B000979487949A95D1F7842A952AA62AB72AC5
:1020C000800E911EA21EB31E4D8D5E8D6F8D78A168
:1020D000475550436142744BC40ED51EE61EF71E91
:1020E000B301A201402751276227732748255925AC
:1020F0006A257B254C0D5D1D6E1D7F1DDB01CA0110
:10210000EBE0880F991FAA1FBB1FEA95D1F7F5E1F5
:102110007695679557954795FA95D1F7482B592BA2
:102120006A2B7B2B480D591D6A1D7B1DC9A4DAA49F
:10213000EBA4FCA4B0EACB1AB4EBDB0AB4E4EB0AE0
:10214000B9E0FB0A4C0C5D1C6E1C7F1C6801790118
:10215000C824D924EA24FB24C426D526E626F7265B
:102160004C0C5D1C6E1C7F1CF20123013F01440ED0
:10217000551E661E771ECDA8DEA8EFA8F8ACF0E9C4
:10218000CF1AF3E4DF0AF0E4EF0AF1E4FF0AC00E2D
:10219000D11EE21EF31E9501840104271527262770
:1021A000372704251525262537250C0D1D1D2E1D29
:1021B0003F1D68017901A9E0F694E794D794C7948C
:1021C000AA95D1F7B7E1000F111F221F331FBA954F
:1021D000D1F70C291D292E293F29040D151D261D77
:1021E000371D2596CCACDDACEEACFFAC25978AE371
:1021F000C81A81E8D80A84E6E80A87EDF80AC80C0C
:10220000D91CEA1CFB1C4A015B0184249524A624EA
:10221000B72480269126A226B3268C0C9D1CAE1CCA
:10222000BF1C7501640184E0CC0CDD1CEE1CFF1C9E
:102230008A95D1F79CE1B694A794979487949A9540
:10224000D1F78C289D28AE28BF28800E911EA21E93
:10225000B31ECD84DE84EF84F88896E0C91A98ED29
:10226000D90A9EE5E90A95E1F90AC40ED51EE61ED3
:10227000F71EB301A2014027512762277327482583
:1022800059256A257B254C0D5D1D6E1D7F1D6A013C
:102290007B01EBE0CC0CDD1CEE1CFF1CEA95D1F7BA
:1022A000F5E17695679557954795FA95D1F74C29BD
:1022B0005D296E297F29480D591D6A1D7B1DC98C1A
:1022C000DA8CEB8CFC8CABE7CA1AAFECDA0AA0E133
:1022D000EA0AABE2FA0A4C0C5D1C6E1C7F1C68011A
:1022E0007901C824D924EA24FB24C426D526E6266D
:1022F000F7264C0C5D1C6E1C7F1CF20123013F0174
:10230000440E551E661E771ECDA0DEA0EFA0F8A4D9
:10231000FBEFCF1AF2EEDF0AF7E7EF0AFBEFFF0A57
:10232000C00ED11EE21EF31E95018401042715275D
:102330002627372704251525262537250C0D1D1D95
:102340002E1D3F1D68017901A9E0F694E794D7940A
:10235000C794AA95D1F7B7E1000F111F221F331FB1
:10236000BA95D1F70C291D292E293F29040D151DD9
:10237000261D371DC9A8DAA8EBA8FCA887ECC81A47
:102380008FE2D80A8BE2E80A86E2F80AC80CD91C68
:10239000EA1CFB1C4A015B0184249524A624B72473
:1023A00080269126A226B3268C0C9D1CAE1CBF1C39
:1023B0007501640184E0CC0CDD1CEE1CFF1C8A95C9
:1023C000D1F79CE1B694A794979487949A95D1F706
:1023D0008C289D28AE28BF28800E911EA21EB31EF9
:1023E0002196CCACDDACEEACFFAC21979BE1C91AD9
:1023F00096E6D90A94E2E90A99E1F90AC40ED51ED3
:10240000E61EF71EB301A20140275127622773275A
:10241000482559256A257B254C0D5D1D6E1D7F1DA8
:102420006A017B01EBE0CC0CDD1CEE1CFF1CEA9585
:10243000D1F7F5E17695679557954795FA95D1F7D8
:102440004C295D296E297F29480D591D6A1D7B1D68
:102450002D96CCACDDACEEACFFAC2D97A8E0CA1A43
:10246000A3E8DA0AADE5EA0AA0EEFA0A4C0C5D1C14
:102470006E1C7F1C68017901C824D924EA24FB243E
:10248000C426D526E626F7264C0C5D1C6E1C7F1C48
:10249000F20123013F01440E551E661E771ECD88B2
:1024A000DE88EF88F88CFBE9CF1AF9EADF0AF3E55A
:1024B000EF0AFBE3FF0AC00ED11EE21EF31E9501D8
:1024C00084010427152726273727042515252625C7
:1024D00037250C0D1D1D2E1D3F1D68017901A9E03A
:1024E000F694E794D794C794AA95D1F7B7E1000F73
:1024F000111F221F331FBA95D1F70C291D292E2930
:102500003F29040D151D261D371DCD84DE84EF8463
:10251000F8888CEBC81A8DEDD80A86EDE80A8BE0B6
:10252000F80AC80CD91CEA1CFB1C4A015B01809408
:102530009094A094B094802A912AA22AB32A842449
:102540009524A624B7248C0C9D1CAE1CBF1C7501C1
:10255000640186E0CC0CDD1CEE1CFF1C8A95D1F7D3
:102560009AE1B694A794979487949A95D1F78C287A
:102570009D28AE28BF28800E911EA21EB31EC9A49E
:10258000DAA4EBA4FCA499E6C91AD10895EDE90AEE
:102590009CEBF90AC40ED51EE61EF71EB301A2017C
:1025A0004095509560957095482959296A297B294D
:1025B00040275127622773274C0D5D1D6E1D7F1D1F
:1025C0006A017B01EAE0CC0CDD1CEE1CFF1CEA95E5
:1025D000D1F7F6E17695679557954795FA95D1F736
:1025E0004C295D296E297F29480D591D6A1D7B1DC7
:1025F0002996CCACDDACEEACFFAC2997A9E5CA1AA4
:10260000ACEDDA0AABE6EA0AA4E5FA0AC40CD51C7A
:10261000E61CF71C28013901409450946094709492
:10262000442A552A662A772A482459246A247B2476
:102630004C0C5D1C6E1C7F1C73016201AFE0CC0C66
:10264000DD1CEE1CFF1CAA95D1F7B1E176946794CE
:1026500057944794BA95D1F74C285D286E287F2867
:10266000440E551E661E771EC9A0DAA0EBA0FCA082
:10267000B7ECCB1ABFE5DB0ABCE6EB0AB3E0FB0A1A
:10268000C00ED11EE21EF31E950184010095109527
:10269000209530950429152926293729042715273F
:1026A000262737270C0D1D1D2E1D3F1D68017901A2
:1026B0008BE0F694E794D794C7948A95D1F795E187
:1026C000000F111F221F331F9A95D1F70C291D29C6
:1026D0002E293F29040D151D261D371D2196CCAC32
:1026E000DDACEEACFFAC2197EDE3CE1AE6EADE0AF4
:1026F000E4EAEE0AEAE9FE0AC80CD91CEA1CFB1C53
:102700004A015B0180949094A094B094802A912A0D
:10271000A22AB32A84249524A624B7248C0C9D1CB9
:10272000AE1CBF1C75016401E6E0CC0CDD1CEE1C88
:10273000FF1CEA95D1F7FAE1B694A7949794879491
:10274000FA95D1F78C289D28AE28BF28800E911EBF
:10275000A21EB31EC98CDA8CEB8CFC8CFEE6CF1A61
:10276000F3E3DF0AF3EFEF0AF0E7FF0AC40ED51E2A
:10277000E61EF71EB301A201409550956095709535
:10278000482959296A297B2940275127622773271D
:102790004C0D5D1D6E1D7F1D6A017B01AAE0CC0CF6
:1027A000DD1CEE1CFF1CAA95D1F7B6E17695679566
:1027B00057954795BA95D1F74C295D296E297F2900
:1027C000480D591D6A1D7B1DCDA8DEA8EFA8F8ACE9
:1027D00083E8C81A8BE0D80A80E1E80AF108C40C43
:1027E000D51CE61CF71C28013901409450946094D4
:1027F0007094442A552A662A772A482459246A2440
:102800007B244C0C5D1C6E1C7F1C730162018FE0ED
:10281000CC0CDD1CEE1CFF1C8A95D1F791E176945F
:102820006794579447949A95D1F74C285D286E2861
:102830007F28440E551E661E771EC988DA88EB88ED
:10284000FC889FE2C91A92EAD90A9BE7E90A9AE74B
:10285000F90AC00ED11EE21EF31E950184010095F7
:102860001095209530950429152926293729042704
:102870001527262737270C0D1D1D2E1D3F1D68010E
:102880007901EBE0F694E794D794C794EA95D1F7F1
:10289000F5E1000F111F221F331FFA95D1F70C2904
:1028A0001D292E293F29040D151D261D371DCDA4D8
:1028B000DEA4EFA4F8A8A1EBCA1AA1E8DA0AA7E5FA
:1028C000EA0AA0E9FA0AC80CD91CEA1CFB1C4A0156
:1028D0005B0180949094A094B094802A912AA22ABB
:1028E000B32A84249524A624B7248C0C9D1CAE1CEA
:1028F000BF1C75016401A6E0CC0CDD1CEE1CFF1CA6
:10290000AA95D1F7BAE1B694A79497948794BA950B
:10291000D1F78C289D28AE28BF28800E911EA21EBC
:10292000B31E2D968CAD9DADAEADBFAD2D97805233
:102930009941A34DB140840F951FA61FB71FB30146
:10294000A2014095509560957095482959296A29AA
:102950007B294027512762277327840F951FA61FC5
:10296000B71F6C017D014AE0CC0CDD1CEE1CFF1C86
:102970004A95D1F7AC01BD01E6E17695679557958B
:102980004795EA95D1F74C295D296E297F29480D95
:10299000591D6A1D7B1D8DA19EA1AFA1B8A58C5E9E
:1029A0009C4BAE4FBC45840D951DA61DB71D28013F
:1029B00039014094509460947094442A552A662AB0
:1029C000772A482459246A247B24840D951DA61D4A
:1029D000B71D6C017D01FFE0CC0CDD1CEE1CFF1C63
:1029E000FA95D1F72C013D01A1E1769467945794B3
:1029F0004794AA95D1F74C285D286E287F28440E6D
:102A0000551E661E771E25968CAD9DADAEADBFAD35
:102A100025978F559E4EA74FB14B800F911FA21F38
:102A2000B31F9501840100951095209530950429D8
:102A30001529262937290427152726273727800F08
:102A4000911FA21FB31F6C017D011BE0F694E79458
:102A5000D794C7941A95D1F78C019D0185E1000F99
:102A6000111F221F331F8A95D1F70C291D292E29EA
:102A70003F29040D151D261D371D8D8D9E8DAF8D93
:102A8000B8A18E579148AC4AB840880D991DAA1D2F
:102A9000BB1D4A015B0180949094A094B094802A5D
:102AA000912AA22AB32A84249524A624B724880D27
:102AB000991DAA1DBB1D6C017D01E6E0CC0CDD1C3F
:102AC000EE1CFF1CEA95D1F74C015D01FAE1B694CA
:102AD000A79497948794FA95D1F78C289D28AE28CF
:102AE000BF28800E911EA21EB31E89AD9AADABAD5C
:102AF000BCAD8B5C9D40A54CB244840F951FA61FB6
:102B0000B71FB301A2014095509560957095482973
:102B100059296A297B294027512762277327840F67
:102B2000951FA61FB71F6C017D014AE0CC0CDD1C70
:102B3000EE1CFF1C4A95D1F7AC01BD01E6E176958C
:102B4000679557954795EA95D1F74C295D296E29E8
:102B50007F29480D591D6A1D7B1D8D899E89AF896E
:102B6000B88D85549D42A842B54D840D951DA61D76
:102B7000B71D280139014094509460947094442A00
:102B8000552A662A772A482459246A247B24840DEE
:102B9000951DA61DB71D6C017D01FFE0CC0CDD1C51
:102BA000EE1CFF1CFA95D1F72C013D01A1E17694B2
:102BB000679457944794AA95D1F74C285D286E28BE
:102BC0007F28440E551E661E771E89A99AA9ABA9B7
:102BD000BCA98F569C42A947B441800F911FA21FE8
:102BE000B31F950184010095109520953095042917
:102BF0001529262937290427152726273727800F47
:102C0000911FA21FB31F6C017D011BE0F694E79496
:102C1000D794C7941A95D1F78C019D0185E1000FD7
:102C2000111F221F331F8A95D1F70C291D292E2928
:102C30003F29040D151D261D371D61968CAD9DADD8
:102C4000AEADBFAD6197880D991DAA1DBB1D6196E4
:102C50008CAF9DAFAEAFBFAF619789819A81AB81D9
:102C6000BC81800F911FA21FB31F89839A83AB83FE
:102C7000BC830D811E812F813885040D151D261DF5
:102C8000371D0D831E832F83388789859A85AB85F1
:102C9000BC85840F951FA61FB71F89879A87AB87AE
:102CA000BC87E796AEADBFADE797A05CBF4FE79698
:102CB000BFAFAEAFE797B0E42B1A310811F00C9418
:102CC000DD0661960CAD1DAD2EAD3FAD6197E99669
:102CD000AEADBFADE99718960D931D932D933C9320
:102CE0001B9709811A812B813C811C960D931D93A2
:102CF0002D933C931F970D811E812F81388550960F
:102D00000D931D932D933C93539709851A852B851D
:102D10003C8554960D931D932D933C935797E796BE
:102D20008EAD9FADE797C858DF4F0FB6F894DEBF62
:102D30000FBECDBFDF91CF911F910F91FF90EF900C
:102D4000DF90CF90BF90AF909F908F907F906F90CB
:102D50005F904F903F902F900895CF93DF93FC01A9
:102D600081E093E2A5E4B7E680879187A287B387E5
:102D700089E89BEAADECBFEE84879587A687B78785
:102D80008EEF9CEDAAEBB8E9808B918BA28BB38B75
:102D900086E794E5A2E3B0E1848B958BA68BB78B95
:102DA0001082118212821382148215821682178277
:102DB000DF01A85ABF4F80E4ED01982F19929A9530
:102DC000E9F77896DF011D928A95E9F7DF91CF91B7
:102DD00008958F929F92AF92BF92EF92FF920F93BE
:102DE0001F93CF93DF93EC017B018A018881998146
:102DF000AA81BB8170E060E04A015B01880E991EE8
:102E0000AA1EBB1E2FE1B22288829982AA82BB82AF
:102E100088169906AA06BB0668F48C809D80AE8051
:102E2000BF802FEF821A920AA20AB20A8C829D8278
:102E3000AE82BF828F739927AA27BB270097A1056F
:102E4000B10579F120E4822E912CA12CB12C881AA5
:102E5000990AAA0ABB0A48968C0F9D1F4815590566
:102E60006A057B0570F4A801B701DF91CF911F912E
:102E70000F91FF90EF90BF90AF909F908F900C9428
:102E8000CC2FA401B7010E94CC2FE80CF91C081923
:102E9000190940E450E0BE01685E7F4FCE010E94F8
:102EA000FD050034110548F0A801407CB701CE01B2
:102EB0000E94FD057C010F731127A801B701CE0107
:102EC0004896D3CFEF92FF920F931F93CF93DF9348
:102ED0008C01EB01488159816A817B814F735527B1
:102EE00066277727DB01CA010196A11DB11D4C0F92
:102EF0005D1F20E8FA01208F40E450E060E070E0C0
:102F0000481B590B6A0B7B0B7E01F8E1EF0EF11C9D
:102F10004830510561057105A0F4489670E060E005
:102F20008C0F9D1F0E94D52F40E450E0B701CE01C9
:102F30000E94FD0540E450E060E070E080E090E039
:102F4000DC0148505109489670E060E08C0F9D1FED
:102F50000E94D52F88819981AA81BB8123E0880FA7
:102F6000991FAA1FBB1F2A95D1F788839983AA832B
:102F7000BB83FE01E05BFF4F8083319690833196E7
:102F8000A0833196B0833C812D819E818F813196C3
:102F9000308331962083319690833196808340E44C
:102FA00050E0B701CE010E94FD058885F8018083BD
:102FB000898581838A8582838B8583838C858483BD
:102FC0008D8585838E8586838F8587838889808795
:102FD000898981878A8982878B8983878C8984877D
:102FE0008D8985878E8986878F89878788E9FE0105
:102FF00011928A95E9F7DF91CF911F910F91FF9080
:10300000EF900895CF92DF92EF92FF920F931F936C
:10301000CF93DF93CDB7DEB7C859D1090FB6F89477
:10302000DEBF0FBECDBF7C016B0180E190E00E944E
:10303000FD268C01CE0101960E94AD16A601B701B6
:10304000CE0101960E94E916BE016F5F7F4FC80155
:103050000E946217C801C856DF4F0FB6F894DEBF52
:103060000FBECDBFDF91CF911F910F91FF90EF90D9
:10307000DF90CF9008951F93CF93DF93EC01162F2D
:103080000E94DC2F181739F0612FCE01DF91CF910C
:103090001F910C94E42FDF91CF911F9108950C9410
:1030A000DC2FDC01ED91FC910190F081E02D099481
:1030B00061E08CE00C94292A60E08CE00C94292AD1
:1030C00061E08DE00C94292A60E08DE00C94292ABF
:1030D0000F931F93CF93DF938C01EC01892B11F495
:1030E000C1E0D0E01C161D060CF561E08CE00E94EA
:1030F000292A60E08DE00E94292A64E670E080E0E1
:1031000090E00E949E2860E08CE00E94292A61E005
:103110008DE00E94292A64E670E080E090E00E9441
:103120009E2801151105F1F22197DCCF60E08CE0BB
:103130000E94292A60E08DE0DF91CF911F910F91CD
:103140000C94292A0F931F93CF93DF938C01EC01EA
:10315000892B11F4C1E0D0E061E08DE00E94292AC2
:1031600060E08DE01C161D06BCF40E94292A64E66E
:1031700070E080E090E00E949E2861E08DE00E9477
:10318000292A64E670E080E090E00E949E28011504
:10319000110531F32197E4CFDF91CF911F910F916A
:1031A0000C94292A0F931F93CF93DF938C01EC018A
:1031B000892B11F4C1E0D0E060E08CE01C161D0604
:1031C000BCF40E94292A64E670E080E090E00E944E
:1031D0009E2861E08CE00E94292A64E670E080E08D
:1031E00090E00E949E280115110531F32197E4CF4C
:1031F000DF91CF911F910F910C94292A80917735FF
:1032000090917835A0917935B0917A350196A11DCC
:10321000B11D8093773590937835A0937935B0932D
:103220007A35409104015091050160910601709139
:103230000701481759076A077B0720F51092773571
:10324000109278351092793510927A3560917C35EC
:1032500080910901861780F081E080937B35809111
:103260007B35680F60937C3570E08CE00E943D29CF
:1032700060E08DE00C94292A80910801681778F3AA
:103280008FEFEBCF08958091773590917835A091AD
:103290007935B0917A350196A11DB11D80937735AE
:1032A00090937835A0937935B0937A3540910401A5
:1032B0005091050160910601709107014817590767
:1032C0006A077B0720F510927735109278351092B7
:1032D000793510927A3560917C3580910901861795
:1032E00080F081E080937B3580917B35680F60931F
:1032F0007C3570E08DE00E943D2960E08CE00C940C
:10330000292A80910801681778F38FEFEBCF089591
:1033100060EC70E082EA99E30E94511866E070E088
:1033200082EA99E30E94511860918A3970E082EA3A
:1033300099E30E94511860EC70E082EA99E30C94E2
:10334000511860EC70E082EA99E30E94511867E03E
:1033500070E082EA99E30E9451186091150170E0D3
:1033600082EA99E30E94511860EC70E082EA99E3E6
:103370000C94511860EC70E082EA99E30E945118B5
:103380006FE070E082EA99E30E94511861E070E01A
:1033900082EA99E30E94511860EC70E082EA99E3B6
:1033A0000C94511860EC70E082EA99E30E94511885
:1033B0006FE070E082EA99E30E94511870E060E0EB
:1033C00082EA99E30E94511860EC70E082EA99E386
:1033D0000C94511860EC70E082EA99E30E94511855
:1033E0006EE070E082EA99E30E945118809188397A
:1033F00061E070E0811102C070E060E082EA99E370
:103400000E94511860EC70E082EA99E30C94511824
:1034100060EC70E082EA99E30E94511868E070E085
:1034200082EA99E30E94511866E470E082EA99E327
:103430000E94511860EC70E082EA99E30C945118F4
:1034400060EC70E082EA99E30E94511860E570E058
:1034500082EA99E30E94511861E070E082EA99E300
:103460000E94511861E170E082EA99E30E945118CC
:1034700060EC70E082EA99E30C94511880918A39EB
:10348000882341F060919339709194398AE491E0F6
:103490000C943604089580918A39882341F0609114
:1034A0001801709119018AE491E00C940F050895B8
:1034B00080938639882321F081E0809387390895AD
:1034C00010928739089580918A398823E1F080919C
:1034D0008539843A51F4609116017091170150E0DA
:1034E00040E08AE491E00E94DD0580918539893AC7
:1034F00051F4609116017091170141E050E08AE4A7
:1035000091E00C94DD05089580918A39882361F05B
:103510008AE491E00E94080260938F397093903999
:103520008093913990939239089580918A398823B4
:1035300071F040918F39509190396091913970912B
:1035400092398AE491E00E9475040C94841A0895DB
:1035500080918A39882361F08AE491E00E94D80141
:1035600060938B3970938C3980938D3990938E3919
:10357000089580918A39882371F040918B39509158
:103580008C3960918D3970918E398AE491E00E9476
:1035900044030C94A81A089580918A39882321F055
:1035A0008AE491E00C94570280E0089583ED9FE057
:1035B0000E944F1891E0833709F090E0892F089519
:1035C000C8E3DFE06FEFCE010E943B182196C115E2
:1035D00080E1D807B9F70E9460180E945C18FBCF01
:1035E00088E39FE00E944F1891E0833009F090E05B
:1035F000892F089589E39FE00E944F18982F8093A8
:10360000853981E0943A21F0993A11F080E00895EB
:1036100008958AE39FE00E944F18809384399FEFBA
:10362000980F81E09E3F08F080E00895BF92CF920E
:10363000DF92EF92FF920F931F93CF93DF938BE074
:1036400090E00E94FD267C018C01C8E3DFE0CE0102
:103650000E944F18F80181938F012196C334FFE037
:10366000DF07A9F76BE070E0C7010E940218B82ECF
:10367000C92E082F192FDD24D394CE010E944F1894
:10368000F80191918F018913D12C2196C335FFE068
:10369000DF0799F78B2D9C2D0E949927C7010E9467
:1036A00099278D2DDF91CF911F910F91FF90EF9072
:1036B000DF90CF90BF9008958FED9FE00E944F184C
:1036C00091E0833709F090E0892F0895CF92DF923F
:1036D000EF92FF92CF930E945C1B882309F461C094
:1036E00084ED9FE00E944F1890E09093943980936E
:1036F000933985ED9FE00E944F1890E09093190157
:103700008093180186ED9FE00E944F1890E09093FF
:103710001701809316018BED9FE00E944F18C82F70
:103720008CED9FE00E944F1890E0B0E0A0E07C019B
:10373000DD24CC24FC2A8DED9FE00E944F18C82F79
:103740008EED9FE00E944F18C82ADC2AC0928B3968
:10375000D0928C39E0928D39F0928E3987ED9FE0CE
:103760000E944F18C82F88ED9FE00E944F1890E0EC
:10377000B0E0A0E07C01DD24CC24FC2A89ED9FE0B0
:103780000E944F18C82F8AED9FE00E944F18C82A48
:10379000DC2AC0928F39D0929039E0929139F09220
:1037A0009239CF91FF90EF90DF90CF900895809164
:1037B0008939882309F48AC080918A39882309F4D9
:1037C00085C06091933984ED9FE00E943B18609121
:1037D000180185ED9FE00E943B186091160186ED6F
:1037E0009FE00E943B1860918F39709190398091D1
:1037F000913990919239692F77278827992787EDFA
:103800009FE00E943B1860918F39709190398091B0
:10381000913990919239BC018827992788ED9FE0D2
:103820000E943B1860918F39709190398091913945
:1038300090919239672F782F892F992789ED9FE0F2
:103840000E943B1860918F398AED9FE00E943B18DF
:1038500060918B3970918C3980918D3990918E392E
:10386000692F7727882799278BED9FE00E943B18C7
:1038700060918B3970918C3980918D3990918E390E
:10388000BC01882799278CED9FE00E943B1860912E
:103890008B3970918C3980918D3990918E39672F49
:1038A000782F892F99278DED9FE00E943B1860911A
:1038B0008B398EED9FE00E943B1863E78FED9FE010
:1038C0000E943B188AE090E00C94D2188AE090E0C5
:1038D0000C94A21860E08FED9FE00C943B1882E3FB
:1038E00090E00E9468180E94E01A8091873970E089
:1038F00060E0882319F06091863970E08AE491E0F5
:103900000C9483058AE491E00E94400310928A3966
:10391000089580918B3990918C39A0918D39B09117
:103920008E39892B8A2B8B2BE1F080918F399091E6
:103930009039A0919139B0919239892B8A2B8B2B98
:1039400081F080911601909117018F3F910549F008
:103950008091933990919439892B19F01092150127
:10396000089581E0809315010895809171018A3F47
:1039700050F420916F013091700181E021153841A0
:1039800018F480E0089581E00895CF938AE491E0EF
:103990000E944D01C82F0E946D286093813570935D
:1039A00082358093833590938435C0FF2DC081E0AC
:1039B00080938C3580938B3580938A3580918535C3
:1039C0009091863520918C35211108C020918B353E
:1039D000211104C020918A35222319F120910F0171
:1039E0003091100182179307B0F4019690938635B9
:1039F0008093853581E0809389358091883588234F
:103A0000E9F0CF910C94581810928C3510928B35A8
:103A100010928A35D3CF81E08093893580938835A1
:103A2000ECCF009741F001979093863580938535D0
:103A300010928935E2CF10928835FACFCF910C944D
:103A40005C180F931F930E946D280091813510918F
:103A500082352091833530918435601B710B820B48
:103A6000930B00910B0110910C0120910D013091ED
:103A70000E01601771078207930720F01F910F91C5
:103A80000C94C51C1F910F9108951092900089E12C
:103A90008093910080E89EE3909397008093960036
:103AA00080E28093710008958091090180937C35B4
:103AB0000895803C61F46BED70E082EA99E30E9426
:103AC00051188CED682F82EA99E30C94E12A8B3D22
:103AD000C9F76BED70E082EA99E30E9451188DED11
:103AE000F1CF60EC70E082EA99E30E94511861E244
:103AF00070E082EA99E30E945118809194350E9407
:103B0000591D809193350E94591D809192350E94D4
:103B1000591D809191350E94591D60EC70E082EA38
:103B200099E30C94511860EC70E082EA99E30E94EA
:103B3000511862E270E082EA99E30E945118809184
:103B400090350E94591D80918F350E94591D80919A
:103B50008E350E94591D80918D350E94591D60EC53
:103B600070E082EA99E30C945118CF93C09112014E
:103B7000C35660EC70E082EA99E30E94511863E258
:103B800070E082EA99E30E9451188C2F0E94591D1F
:103B900060EC70E082EA99E3CF910C94511860ECEC
:103BA00070E082EA99E30E94511864E270E082EAD0
:103BB00099E30E945118809183390E94591D60EC4D
:103BC00070E082EA99E30C94511860EC70E082EAAC
:103BD00099E30E94511862E070E082EA99E30E9442
:103BE0005118809192390E94591D809191390E94FB
:103BF000591D809190390E94591D80918F390E94E2
:103C0000591D60EC70E082EA99E30C94511860EC65
:103C100070E082EA99E30E94511861E070E082EA64
:103C200099E30E94511880918E390E94591D80910C
:103C30008D390E94591D80918C390E94591D8091A7
:103C40008B390E94591D60EC70E082EA99E30C9474
:103C50005118CF93DF93C8E3DFE0CE010E944F18E5
:103C60000E94591D2196C11580E1D807B1F7DF9157
:103C7000CF91089560EC70E082EA99E30E945118B8
:103C800061E570E082EA99E30E9451180E94291EC2
:103C900060EC70E082EA99E30C945118CF93C82F3E
:103CA00060EC70E082EA99E30E94511860E970E0EC
:103CB00082EA99E30E9451186C2F82EA99E30E94EC
:103CC000E12A60EC70E082EA99E3CF910C945118FC
:103CD000CF93DF93C82FD62F0E94D61A81110BC025
:103CE000C83C48F48C2F90E06D2F885C904FDF919A
:103CF000CF910C943B1883E0DF91CF910C944E1E32
:103D00000E94891C80918A3981111DC08091150102
:103D1000811138C0809189398823A1F140918B3974
:103D200050918C3960918D3970918E398AE491E08F
:103D30000E949303892B41F481E00E944E1E90E083
:103D400080E00E946818089581E080938A390E947B
:103D5000631A0E94951A0E943E1A0E944B1A0E94F2
:103D6000A81A8AE491E00E94310568EB72E28AE4C5
:103D700091E00E94D5020E94751C83E090E00E94B1
:103D8000D218E1CF83E090E00E94A218DCCF0E941D
:103D9000D61A8823F1F00E94F01A8823D1F00E94ED
:103DA000FA1A8823B1F00E94091B882391F00E941F
:103DB000161B882389F081E0809389390E945C1B5F
:103DC000882351F00E94661B82E1809314010C94B9
:103DD000801E109289390895089580E00E941F295D
:103DE0000E94542CAEE6BDE181E098E1FD019C010A
:103DF000119221503040E1F7EFE6F5E3B183A08363
:103E0000B783A683B583A4838EE695E393838283E9
:103E100026E040E052EC61E070E082EA99E30E9423
:103E2000282B0E94451D61E08CE00E94ED2961E095
:103E30008DE00E94ED29EDE8F7E384EF91E0DF01EA
:103E40009C011D9221503040E1F7E9E8F7E384E05E
:103E5000DF011D928A95E9F7E2E7F1E080E098E161
:103E6000DF019C011D9221503040E1F7A0E7BBE14A
:103E700086EF91E0FD019C01119221503040E1F765
:103E8000E6E6FDE1B183A083B783A683B583A4836F
:103E900024E63DE133832283A2E7B9E1FD019C01E1
:103EA000119221503040E1F7E8E6FBE1B183A083B5
:103EB000B783A683B583A48386E69BE1938382833D
:103EC00022E030E043E050E064E070E08AE491E01A
:103ED0000E94F5000C94C71E60EC70E082EA99E342
:103EE0000E94511864E070E082EA99E30E94511840
:103EF0006091933982EA99E30E94E12A60EC70E0D4
:103F000082EA99E30C94511860EC70E082EA99E33C
:103F10000E94511865E070E082EA99E30E9451180E
:103F20006091180182EA99E30E94E12A60EC70E056
:103F300082EA99E30C94511860EC70E082EA99E30C
:103F40000E94511869E070E082EA99E30E945118DA
:103F50006091863982EA99E30E94E12A60EC70E080
:103F600082EA99E30C94511860EC70E082EA99E3DC
:103F70000E94511863E070E082EA99E30E945118B0
:103F80006091160182EA99E30E94E12A60EC70E0F8
:103F900082EA99E30C945118CF93C82F60EC70E03B
:103FA00082EA99E30E94511860E470E082EA99E3A2
:103FB0000E9451186C2F82EA99E30E94E12A60EC7A
:103FC00070E082EA99E3CF910C94511890917E357C
:103FD000992309F47BC2803C09F0ACC080910A01AE
:103FE00081119DC010927E3580916A1D90916B1D4C
:103FF0006091661D7091671D8617970761F4209187
:104000006C1D30916D1D8091681D9091691D281760
:10401000390709F45EC220916C1D30916D1D8091AD
:104020006A1D90916B1D02972817390709F451C238
:1040300080916F01909170018115984108F049C2FB
:1040400020916B0130916C0180916D0190916E0116
:10405000019710F48FEF97E18217930709F44BC093
:104060002817390708F042C0821B930B019600976E
:1040700009F42FC2409171014F5F40937101E091AB
:104080006C1DF0916D1D3183208340916C1D50910A
:104090006D1D2091681D3091691D4217530771F500
:1040A00070936D1D60936C1DE0916E1BF0916F1B02
:1040B0009183808320916E1B30916F1B80916A1BCE
:1040C00090916B1B2817390721F58091681B9091FF
:1040D000691B90936F1B80936E1B80916D01909173
:1040E0006E0190936C0180936B010895821B930B7A
:1040F0008F5F974EBCCF81E090E0BCCF20916C1DCC
:1041000030916D1D2E5F3F4F30936D1D20936C1DC0
:10411000CBCF80916E1B90916F1B0296DACF81E01E
:1041200080937E358EEF80930A0110928035109235
:104130007F35089520917F3530918035243F91E07F
:10414000390708F0C6C190910A012115310529F4FB
:104150009E3F19F480930A010895911146C08B3D4A
:1041600021F481E080937D35089590917D359923E8
:1041700049F08C3D21F08D3D19F48BED01C080ECB0
:1041800010927D35909171019A3F08F0A2C1209163
:104190006F01309170012115384108F09AC12091CA
:1041A0006F01309170012F5F3F4F3093700120936A
:1041B0006F0120916D0130916E01A9014F5F5F4F3A
:1041C00050936E0140936D012E583E4FF90180834C
:1041D00080916D0190916E018115984109F079C12E
:1041E00010926E0110926D010895913009F044C053
:1041F0008B3DD1F490937D3580917F3590918035C2
:10420000049709F066C16091893770918A3780916F
:104210008B3790918C370E943E2E61157105810578
:104220009105D9F40C94071E90917D35992349F09E
:104230008C3D21F08D3D19F48BED01C080EC109286
:104240007D35A9014F5F5F4F5093803540937F3597
:104250002757384CF9018083CFCF60938B39709307
:104260008C3980938D3990938E39809114018131EE
:10427000C9F60E94B91AD6CF923009F045C08B3DDD
:10428000D9F481E080937D3580917F3590918035A0
:10429000049709F01EC16091893770918A37809127
:1042A0008B3790918C370E943E2E611571058105E8
:1042B0009105D9F40C94E51D90917D35992349F031
:1042C0008C3D21F08D3D19F48BED01C080EC1092F6
:1042D0007D35A9014F5F5F4F5093803540937F3507
:1042E0002757384CF9018083CFCF60938F39709373
:1042F0009039809391399093923980911401813152
:10430000C9F60E94951AD6CF933099F48F3F11F4D5
:104310000C94B41F823108F081E190E09093170172
:104320008093160180911401813191F70E94631AE4
:10433000EFCF9430D1F48F3F11F40C946C1F863082
:1043400088F090E08D30910514F08CE090E090932F
:1043500094398093933980911401813171F70E94CF
:104360003E1AEBCF86E090E0F2CF9530D1F48F3F4C
:1043700011F40C94841F853088F090E08930910509
:1043800014F088E090E090931901809318018091D7
:104390001401813171F70E944B1AEBCF85E090E058
:1043A000F2CF993021F40E94581A0C949C1F963039
:1043B00079F48F3F11F40C948819811103C00E9485
:1043C000821CF9CF813009F084C00E94801EF3CF97
:1043D000913211F40C94711D923211F40C94931DCE
:1043E000933211F40C94B51D973021F40E94891C6E
:1043F0000C94A119903319F490E00C94D2189034D5
:1044000021F40E94CC1A0C94CC1F983029F48337E5
:1044100009F05FC00C94081A9E3059F4813021F4E1
:10442000809388390C94EA198111FCCF1092883955
:10443000F9CF9F3041F40E94B51C811102C00C9449
:10444000BA190C94D219993529F4883F09F041C062
:104450000E946F1C913511F40C943A1E923551F55F
:104460008B3D79F481E080937D3580917F3590910B
:104470008035029771F560918A37809189370C9465
:10448000681E90917D35992349F08C3D21F08D3D3A
:1044900019F48BED01C080EC10927D35A9014F5FBE
:1044A0005F4F5093803540937F352757384CF90143
:1044B0008083DBCF903511F40C94201A933511F4DE
:1044C0000C94D71B943529F40C946A1C803C09F495
:1044D00026CE089581E0809368014FB7F89420912B
:1044E00073353091743580917535909176354FBF25
:1044F00028173907F1F0E0917335F0917435809108
:10450000713590917235E817F90761F480916F3534
:1045100090917035909374358093733580810E94AB
:10452000E61FDBCFE0917335F0917435CF01019632
:10453000F1CF109268010895CF93DF93EC0121979A
:10454000A0F08AE491E00E94BD0120918139309170
:104550008239A9014F5F5F4F50938239409381396F
:104560002357384CF9018083EACFDF91CF9108952A
:104570000F931F93CF93DF93EC01809188398111C2
:10458000B5C08AE491E00E94BD01219740911101DC
:1045900080FF78C09C0154E0359527955A95E1F746
:1045A0002F7033274F3FD9F41092823910928139FE
:1045B000209311018AE491E00E9464019093130119
:1045C000809312018AE491E00E9450018093833924
:1045D000CE01DF91CF911F910F910C949C22421339
:1045E000E3CF8AE491E00E946401209112013091AE
:1045F0001301820F931F97FD0196959587959093D0
:104600001301809312010091833910E08AE491E054
:104610000E945001800F912F911D95958795809351
:104620008339CE010E949C228FEF809311010E945A
:10463000B51D0E94CF1D60EC70E082EA99E30E94F4
:10464000511870E060E082EA99E30E945118CDE8C9
:10465000D7E32091813930918239CE018D5897432B
:1046600082179307A0F56991603C39F56BED70E016
:1046700082EA99E30E9451186CED82EA99E30E9464
:10468000E12AE7CF4F3F39F01092823910928139F9
:104690008FEF809311018AE491E00E94640190936E
:1046A0001301809312018AE491E00E9450018093EB
:1046B0008339CE010E949C22BACF6B3DF1F66BED9F
:1046C00070E082EA99E30E9451186DEDD6CF60EC5C
:1046D00070E082EA99E30E94511810928239109298
:1046E0008139DF91CF911F910F91089510928239F6
:1046F000109281398AE491E00E9464019093130141
:10470000809312018AE491E00E94500180938339E2
:10471000CE010E949C220E94B51D0E94CF1D60EC1C
:1047200070E082EA99E30E94511870E060E082EA4A
:1047300099E30E945118CDE8D7E320918139309157
:104740008239CE018D5897438217930708F0BFCF67
:104750006991603C61F46BED70E082EA99E30E943C
:1047600051186CED82EA99E30E94E12AE6CF6B3D95
:10477000C9F76BED70E082EA99E30E9451186DED84
:10478000F1CFCF92DF92EF92FF920F931F93CF93CF
:10479000DF93EC0180918A39882309F47AC08091F3
:1047A0008839811154C00E94601860E071E080E097
:1047B00090E00E945C2C162F107FCF3FD10508F0AF
:1047C000116070E060E08AE491E00E946205612F70
:1047D0008AE491E00E94AF0095E9C92E95E3D92EB5
:1047E000EE24E394F12CC601855995438C179D075F
:1047F000F0F4F60161916F018AE491E00E94AF004C
:10480000FFEFEF1AFF0A8FEFE816F10461F78AE471
:1048100091E00E945A0270E060E08AE491E00E9418
:104820006205612F8AE491E00E94AF00D9CF8AE44B
:1048300091E00E945A020E946418DF91CF911F916B
:104840000F91FF90EF90DF90CF900C94751C0E9419
:104850006018CF3FD10519F010F0CFEFD0E0809174
:10486000873970E060E08111BE018AE491E00E9426
:10487000620505E915E3C801855995438C179D0725
:10488000B0F6F80161918F018AE491E00E94AF00D7
:10489000F2CF82E00E944E1E85E090E0DF91CF9142
:1048A0001F910F91FF90EF90DF90CF900C946818BC
:1048B0000F931F93CF93DF938091690181116EC095
:1048C00081E080936901C0E0D8E14FB7F89420916E
:1048D0006A1D30916B1D80916C1D90916D1D4FBFB5
:1048E0002817390709F45AC0E0916A1DF0916B1D31
:1048F0008091681D9091691DE817F90709F03FC084
:104900008091661D9091671D90936B1D80936A1D29
:1049100000811181E0916C1BF0916D1B20916A1B4D
:1049200030916B1BE217F30789F52091681B3091DA
:10493000691B30936D1B20936C1B20813181A90171
:1049400041505109443F514008F0BFCFE5E9F5E33C
:1049500005591543C8018E0F9F1FBE010E94E02D0F
:10496000DC01AE58BE4F8C918193CF0185599543A0
:104970008217930778F3C9010E94C123A6CFE09163
:104980006A1DF0916B1DCF010296BECFE0916C1BAA
:10499000F0916D1B9F012E5F3F4FCBCF10927101A5
:1049A0001092700110926F0110926901DF91CF9106
:1049B0001F910F91089580918A398823E1F10E9417
:1049C000211D80917101882311F18091873581111A
:1049D00002C00E94C51C80918935811128C0809138
:1049E0008835811124C080918735882331F062E3B6
:1049F00070E080E090E00E949E280E94C51C80919B
:104A00008935811104C0109287350E9458244FB710
:104A1000F89420917335309174358091753590916B
:104A200076354FBF2817390791F00C946A2281E040
:104A300080938735ECCF80918939882319F00E94C3
:104A4000FE18E5CF0E9443190E94821CE0CF089512
:104A5000CF9380916A01811127C081E080936A0120
:104A6000C4E182EA99E30E94572A892BD9F08FB7D3
:104A7000F894409173355091743520916F35309191
:104A800070354217530791F4409175355091763542
:104A900020917135309172354217530739F48FBF29
:104AA000C150F9F610926A01CF9108954091753581
:104AB00050917635209173353091743521503109FC
:104AC0004217530761F38FBF82EA99E30E94712A6C
:104AD0002FB7F894E0917535F09176358083409149
:104AE00075355091763580917135909172354817B2
:104AF000590751F480916F359091703590937635C8
:104B0000809375352FBFCCCF8091753590917635D8
:104B10000196F4CF1F920F920FB60F9211240BB68D
:104B20000F922F933F934F935F936F937F938F9346
:104B30009F93AF93BF93EF93FF930E942825FF911C
:104B4000EF91BF91AF919F918F917F916F915F9105
:104B50004F913F912F910F900BBE0F900FBE0F9072
:104B60001F901895CF93CFB7F89480919839811101
:104B700027C0E0EDF0E08491E0EBF0E09491E82FC5
:104B8000F0E0EE0FFF1FEA50FF4FA591B491EC91BA
:104B9000E92321F461E084E00E94292A61E084E0B5
:104BA0000E94ED298CB580618CBD8CB580648CBD74
:104BB00061E087E00E94ED2961E085E00E94ED2937
:104BC000809198398F5F80939839CFBFCF910895A6
:104BD0009FB7F89480919839882319F08150809379
:104BE000983980919839811105C08CB58F7B8CBD27
:104BF000109297399FBF08952FB7F894813041F0F4
:104C0000C0F08230A1F082E08093973980E001C04B
:104C100082E090919639892B8093963980919739CB
:104C2000811103C081E0809397392FBF089584E0FC
:104C3000F0CF81E0EECF909197399230A1F09FB7FD
:104C4000F894833088F4E82FF0E0E95CFE4F80812F
:104C5000809520919639822380939639811102C0E4
:104C6000109297399FBF089580E0F2CF0895833066
:104C700060F5E82FF0E0EE0FFF1FE65EFE4F718358
:104C80006083813051F08230A1F0809169008C7F87
:104C9000482B40936900E89A089580916900837FCA
:104CA000440F551F440F551F482B40936900E99A44
:104CB0000895809169008F7C94E0440F551F9A9568
:104CC000E1F7482B40936900EA9A0895833078F41D
:104CD000E82FF0E0813061F0823061F0E898EE0F6B
:104CE000FF1FE65EFE4F86E396E291838083089580
:104CF000E998F5CFEA98F3CF1F920F920FB60F9273
:104D000011240BB60F922F933F934F935F936F93A2
:104D10007F938F939F93AF93BF93EF93FF93E09114
:104D20001A01F0911B010995FF91EF91BF91AF918D
:104D30009F918F917F916F915F914F913F912F91B3
:104D40000F900BBE0F900FBE0F901F9018951F92E3
:104D50000F920FB60F9211240BB60F922F933F9321
:104D60004F935F936F937F938F939F93AF93BF9373
:104D7000EF93FF93E0911C01F0911D010995FF91C4
:104D8000EF91BF91AF919F918F917F916F915F91C3
:104D90004F913F912F910F900BBE0F900FBE0F9030
:104DA0001F9018951F920F920FB60F9211240BB6F9
:104DB0000F922F933F934F935F936F937F938F93B4
:104DC0009F93AF93BF93EF93FF93E0911E01F091F8
:104DD0001F010995FF91EF91BF91AF919F918F9125
:104DE0007F916F915F914F913F912F910F900BBEEB
:104DF0000F900FBE0F901F9018950F931F93CF9396
:104E0000DF938230910510F482E090E0E091413A26
:104E1000F091423A30E020E0B0E0A0E0309799F421
:104E20002115310509F44AC0281B390B24303105FE
:104E3000D8F58A819B816115710589F1FB01938306
:104E40008283FE0111C04081518102811381481784
:104E50005907E0F04817590799F4109761F0129636
:104E60000C93129713961C933296CF01DF91CF913A
:104E70001F910F9108950093413A1093423AF4CF55
:104E80002115310551F04217530738F0A901DB0114
:104E90009A01BD01DF01F801C1CFEF01F9CF909375
:104EA000423A8093413ACDCFFE01E20FF31F819346
:104EB00091932250310939832883D7CF20913F3AEB
:104EC0003091403A232B41F420912201309123016B
:104ED0003093403A20933F3A2091200130912101B4
:104EE0002115310541F42DB73EB740912401509171
:104EF0002501241B350BE0913F3AF091403AE2172F
:104F0000F307A0F42E1B3F0B2817390778F0AC01EC
:104F10004E5F5F4F2417350748F04E0F5F1F5093C9
:104F2000403A40933F3A819391939FCFF0E0E0E085
:104F30009CCFCF93DF930097E9F0FC013297138267
:104F40001282A091413AB091423AED0130E020E066
:104F50001097A1F420813181820F931F20913F3A55
:104F60003091403A2817390709F061C0F093403A70
:104F7000E0933F3ADF91CF910895EA01CE17DF0722
:104F8000E8F54A815B819E0141155105B1F7E901C0
:104F9000FB83EA8349915991C40FD51FEC17FD0794
:104FA00061F4808191810296840F951FE9019983B4
:104FB0008883828193819B838A83F0E0E0E012966C
:104FC0008D919C9113970097B9F52D913C91119774
:104FD000CD010296820F931F20913F3A3091403AC3
:104FE0002817390739F6309751F51092423A109246
:104FF000413AB093403AA0933F3ABCCFD383C283A7
:1050000040815181840F951FC817D90761F44E5F05
:105010005F4F88819981480F591F518340838A814E
:105020009B81938382832115310509F0B0CFF093E2
:10503000423AE093413A9ECFFD01DC01C0CF13829A
:105040001282D7CF08951F920F920FB60F9211249C
:105050002F933F938F939F93AF93BF9380919A39F0
:1050600090919B39A0919C39B0919D39309199399B
:1050700023E0230F2D3758F50196A11DB11D209374
:10508000993980939A3990939B39A0939C39B09326
:105090009D3980919E3990919F39A091A039B0910E
:1050A000A1390196A11DB11D80939E3990939F391E
:1050B000A093A039B093A139BF91AF919F918F91E7
:1050C0003F912F910F900FBE0F901F90189526E8DB
:1050D000230F0296A11DB11DD2CF2FB7F894609176
:1050E0009A3970919B3980919C3990919D392FBF4D
:1050F00008953FB7F89480919E3990919F39A0917F
:10510000A039B091A13926B5A89B05C02F3F19F051
:105110000196A11DB11D3FBFBA2FA92F982F882737
:10512000BC01CD01620F711D811D911D42E0660F12
:10513000771F881F991F4A95D1F708958F929F92E4
:10514000AF92BF92CF92DF92EF92FF926B017C0100
:105150000E9479284B015C01C114D104E104F104DF
:10516000E9F00E9422280E947928681979098A09A1
:105170009B09683E73408105910570F321E0C21AD6
:10518000D108E108F10888EE880E83E0981EA11C82
:10519000B11CC114D104E104F10429F7FF90EF9090
:1051A000DF90CF90BF90AF909F908F9008957894AC
:1051B00084B5826084BD84B5816084BD85B582601C
:1051C00085BD85B5816085BDEEE6F0E080818160BA
:1051D0008083E1E8F0E010828081826080838081BA
:1051E00081608083E0E8F0E0808181608083E1EB92
:1051F000F0E0808184608083E0EBF0E0808181607A
:105200008083E1E9F0E08081826080838081816039
:105210008083E0E9F0E0808181608083EAE7F0E06C
:1052200080818460808380818260808380818160CE
:1052300080838081806880831092C10008958830C7
:1052400020F0873108F487E188512091260190E40D
:10525000299F900111248770822B80937C0080917C
:105260007A00806480937A0080917A0086FDFCCF7A
:10527000809178009091790008951F93CF93DF93E8
:10528000182FEB0161E00E94ED29209739F460E0CE
:10529000812FDF91CF911F910C94292ACF3FD10507
:1052A00011F461E0F5CFE12FF0E0E457FF4FE49116
:1052B000E150EA3008F054C0F0E0EF59F64D0C949C
:1052C000352E6B29732978298229B029B0298C2998
:1052D00094299C29A62984B5806884BDC7BDDF9127
:1052E000CF911F91089584B5806284BDC8BDF7CF6A
:1052F00080918000806880938000D0938900C09363
:105300008800EDCF80918000806280938000D093F0
:105310008B00C0938A00E3CF8091B00080688093B7
:10532000B000C093B300DBCF8091B0008062809367
:10533000B000C093B400D3CF809190008068809378
:105340009000D0939900C0939800C9CF80919000AD
:10535000806280939000D0939B00C0939A00BFCF4F
:10536000C038D1050CF09DCF92CF81508A3080F5A6
:10537000E82FF0E0E254F64D0C94352ED229D629D0
:10538000C829CE29E829E829D929DF29E329E929EB
:10539000809180008F7780938000089580918000B5
:1053A0008F7DF9CF84B58F7784BD089584B58F7DC7
:1053B000FBCF8091B0008F778093B00008958091EB
:1053C000B0008F7DF9CF809190008F77809390000F
:1053D0000895809190008F7DF9CFCF93DF9390E077
:1053E000FC01E455FF4F249184539F4FFC018491AD
:1053F0008823C9F090E0880F991FFC01EA50FF4F05
:10540000A591B491FC01E451FF4FC591D491611174
:105410000DC09FB7F8948C91209582238C9388813E
:10542000282328839FBFDF91CF910895623051F4E4
:105430009FB7F8943C91822F809583238C93E881C9
:105440002E2BEFCF8FB7F894EC912E2B2C938FBF90
:10545000EACF1F93CF93DF93282F30E0F901E45771
:10546000FF4F8491F901E455FF4FD491F901E453C2
:10547000FF4FC491CC23A9F0162F81110E94B529AA
:10548000EC2FF0E0EE0FFF1FE451FF4FA591B49118
:105490008FB7F894EC91111108C0D095DE23DC93FE
:1054A0008FBFDF91CF911F910895DE2BF8CFFC01C4
:1054B000918D228D892F90E0805C9F4F821B9109F6
:1054C0008F7399270895FC01918D828D981731F083
:1054D000828DE80FF11D858D90E008958FEF9FEF8D
:1054E0000895FC01918D828D981761F0A28DAE0F09
:1054F000BF2FB11D5D968C91928D9F5F9F73928F90
:1055000090E008958FEF9FEF08958AEE9BE2892B3C
:1055100049F080E090E0892B29F00E94EA2B81116C
:105520000E94000080E090E0892B49F080E090E04C
:10553000892B29F00E94000081110C94000008952D
:10554000FC01A48DA80FB92FB11DA35ABF4F2C91F8
:10555000848D90E001968F739927848FA689B789EF
:105560002C93A089B1898C9180648C93938D848DC8
:10557000981306C00288F389E02D80818F7D808397
:105580000895CF93DF93EC01888D8823B9F0AA8921
:10559000BB89E889F9898C9185FD03C0808186FDEE
:1055A0000DC00FB607FCF7CF8C9185FFF2CF80813D
:1055B00085FFEDCFCE010E94A02AE9CFDF91CF91E8
:1055C0000895EF92FF920F931F93CF93DF93EC0117
:1055D00081E0888F9B8D8C8D981316C0E889F9899E
:1055E000808185FF11C0EE89FF896083E889F98990
:1055F00080818064808381E090E0DF91CF911F9172
:105600000F91FF90EF900895F62E0B8D10E00F5F35
:105610001F4F0F731127E02E8C8D8E110CC00FB60B
:1056200007FCFACFE889F989808185FFF5CFCE01A3
:105630000E94A02AF1CFEB8DEC0FFD2FF11DE35A54
:10564000FF4FF0820B8FEA89FB8980818062D2CF85
:10565000CF92DF92EF92FF921F93CF93DF93EC01F3
:105660006A017B01122FE889F98982E08083C114E5
:1056700081EED806E104F104A1F060E079E08DE369
:1056800090E0A70196010E94F42D215031094109B3
:1056900051095695479537952795211580E138078B
:1056A00098F0E889F989108260E874E88EE190E06A
:1056B000A70196010E94F42D215031094109510999
:1056C0005695479537952795EC85FD853083EE8572
:1056D000FF852083188EEC89FD891083EA89FB8978
:1056E000808180618083EA89FB89808188608083F2
:1056F000EA89FB89808180688083EA89FB898081CF
:105700008F7D8083DF91CF911F91FF90EF90DF908D
:10571000CF9008951F920F920FB60F9211240BB6DF
:105720000F922F938F939F93EF93FF93E091B23952
:10573000F091B3398081E091B839F091B93982FDA7
:105740001DC090818091BB398F5F8F732091BC39D0
:10575000821741F0E091BB39F0E0EE55F64C958FA1
:105760008093BB39FF91EF919F918F912F910F9073
:105770000BBE0F900FBE0F901F9018958081F2CF37
:105780001F920F920FB60F9211240BB60F922F9308
:105790003F934F935F936F937F938F939F93AF93B9
:1057A000BF93EF93FF9382EA99E30E94A02AFF91AF
:1057B000EF91BF91AF919F918F917F916F915F9189
:1057C0004F913F912F910F900BBE0F900FBE0F90F6
:1057D0001F90189582EA99E30E94572A21E0892BAD
:1057E00009F420E0822F0895E2EAF9E3138212829D
:1057F00088EE93E0A0E0B0E084839583A683B7832E
:105800008EE391E09183808385EC90E09587848797
:1058100084EC90E09787868780EC90E0918B808B7A
:1058200081EC90E0938B828B82EC90E0958B848B63
:1058300086EC90E0978B868B118E128E138E148ED1
:105840000895AF92BF92CF92DF92EF92FF920F93A3
:105850001F93CF93DF936C017B018B01040F151F06
:10586000EB015E01AE18BF08C017D10759F069916E
:10587000D601ED91FC910190F081E02DC6010995D2
:10588000892B79F7C501DF91CF911F910F91FF907F
:10589000EF90DF90CF90BF90AF900895FC014483CC
:1058A0005583668377830895009729F0BC0190E0C3
:1058B00080E00C94C32F0895CF92DF92EF92FF9275
:1058C0006B017C01C114D104E104F10441F00E9498
:1058D000742FA70196010E94162E6B017C01C7014F
:1058E000B601FF90EF90DF90CF90089508950E9449
:1058F000D7280E94762C0E94ED1EC5E8DAE20E94AD
:10590000DB242097E1F30E94852AF9CF0E94FE2C28
:1059100008F481E008950E94922C6894B1110C94CF
:105920006D2D08950E94522D88F09F5798F0B92F41
:105930009927B751B0F0E1F0660F771F881F991FC4
:105940001AF0BA95C9F714C0B13091F00E946C2DCD
:10595000B1E008950C946C2D672F782F8827B85FDD
:1059600039F0B93FCCF3869577956795B395D9F71C
:105970003EF490958095709561957F4F8F4F9F4F26
:105980000895E89409C097FB3EF490958095709532
:1059900061957F4F8F4F9F4F9923A9F0F92F96E97B
:1059A000BB279395F695879577956795B795F111F0
:1059B000F8CFFAF4BB0F11F460FF1BC06F5F7F4F8D
:1059C0008F4F9F4F16C0882311F096E911C077239F
:1059D00021F09EE8872F762F05C0662371F096E8A8
:1059E000862F70E060E02AF09A95660F771F881F77
:1059F000DAF7880F9695879597F90895990F00081B
:105A0000550FAA0BE0E8FEEF16161706E807F90790
:105A1000C0F012161306E407F50798F0621B730B2B
:105A2000840B950B39F40A2661F0232B242B252BAC
:105A300021F408950A2609F4A140A6958FEF811D4F
:105A4000811D089597F99F6780E870E060E00895F0
:105A50009FEF80EC089500240A9416161706180686
:105A60000906089500240A94121613061406050662
:105A70000895092E0394000C11F4882352F0BB0FF3
:105A800040F4BF2B11F460FF04C06F5F7F4F8F4F56
:105A90009F4F089557FD9058440F551F59F05F3F91
:105AA00071F04795880F97FB991F61F09F3F79F040
:105AB00087950895121613061406551FF2CF4695C2
:105AC000F1DF08C0161617061806991FF1CF869544
:105AD0007105610508940895E894BB276627772728
