:100000000C94A1000C94CD2A0C94F82A0C94232B68
:100010000C94CB000C94CB000C94CB000C94CB0034
:100020000C94CB000C94CB000C94CB000C94CB0024
:100030000C94CB000C94CB000C94CB000C94CB0014
:100040000C94CB000C94CB000C94EC280C94CB00BB
:100050000C94EC260C9422270C94CB000C94CB002F
:100060000C94CB000C94CB000C94CB000C94CB00E4
:100070000C94CB000C94CB000C94CB000C94CB00D4
:100080000C94CB000C94CB000C94CB006121452147
:10009000642148214B214E215121542158215C21BA
:1000A000FF29022AF529F929192A192A062A0A2AD2
:1000B000102A142A962B9B2BA02BAA2BD82BD82B9B
:1000C000B42BBC2BC42BCE2B000000010200090A6C
:1000D000000000000403080700000000000000000A
:1000E0000000000000000000010204081020408011
:1000F0000102040810204080010204081020408002
:1001000001020408102040800202020202020202E0
:1001100004040404040404040303030303030303A7
:100120000101010101010101000022002500280058
:100130002B0000002100240027002A00C505F72419
:10014000562711241FBECFEFD0E4DEBFCDBF11E094
:10015000A0E0B1E0E6E2FCE500E00BBF02C00790E2
:100160000D92AE34B107D9F729E3AEE4B1E001C096
:100170001D92A833B207E1F710E0C1EAD0E004C055
:100180002197FE010E949C2CCE39D107C9F70E940D
:1001900084270C94112E0C9400000F931F93CF937F
:1001A000DF931F92CDB7DEB78C0169830E94F32DD8
:1001B0006981681741F0C8010F90DF91CF911F91BD
:1001C0000F910C94FB2D0F90DF91CF911F910F9108
:1001D00008950C94F32DDC01ED91FC910190F081D8
:1001E000E02D099461E08CE00C94562A60E08CE0EC
:1001F0000C94562A61E08DE00C94562A60E08DE064
:100200000C94562A1F93CF93DF93EC0111E0892BB6
:1002100011F010E022C0C1E0D0E01FC061E08CE02E
:100220000E94562A60E08DE00E94562A64E670E043
:1002300080E090E00E94672960E08CE00E94562AEE
:1002400061E08DE00E94562A64E670E080E090E074
:100250000E946729111101C021971C161D06F4F296
:1002600060E08CE00E94562A60E08DE0DF91CF9143
:100270001F910C94562A1F93CF93DF93EC0111E04A
:10028000892B11F010E002C0C1E0D0E061E08DE008
:100290000E94562A60E08DE01C161D06B4F40E94F0
:1002A000562A64E670E080E090E00E94672961E0F1
:1002B0008DE00E94562A64E670E080E090E00E94A3
:1002C00067291111E7CF2197E5CFDF91CF911F91DA
:1002D0000C94562A1F93CF93DF93EC0111E0892BE6
:1002E00011F010E018C0C1E0D0E015C00E94562AFD
:1002F00064E670E080E090E00E94672961E08CE0B5
:100300000E94562A64E670E080E090E00E9467292F
:10031000111101C0219760E08CE01C161D0634F31A
:10032000DF91CF911F910C94562A80914E019091AC
:100330004F01A0915001B09151010196A11DB11D35
:1003400080934E0190934F01A0935001B0935101BF
:1003500040910401509105016091060170910701DF
:10036000481759076A077B0720F510924E01109233
:100370004F011092500110925101609153018091F0
:100380000901861710F081E005C080910801681707
:1003900018F08FEF8093520180915201680F6093A3
:1003A000530170E08CE00E946F2B60E08DE00C94B4
:1003B000562A089580914E0190914F01A0915001CD
:1003C000B09151010196A11DB11D80934E019093F2
:1003D0004F01A0935001B0935101409104015091FD
:1003E00005016091060170910701481759076A07D6
:1003F0007B0720F510924E0110924F011092500190
:10040000109251016091530180910901861710F0FB
:1004100081E005C080910801681718F08FEF809384
:10042000520180915201680F6093530170E08DE09A
:100430000E946F2B60E08CE00C94562A089560ECCB
:1004400070E08EE898E30E94EB0066E070E08EE8D2
:1004500098E30E94EB006091613870E08EE898E3C9
:100460000E94EB0060EC70E08EE898E30C94EB00E7
:1004700060EC70E08EE898E30E94EB0067E070E0CB
:100480008EE898E30E94EB006091190170E08EE81D
:1004900098E30E94EB0060EC70E08EE898E30C9427
:1004A000EB0060EC70E08EE898E30E94EB006FE0F8
:1004B00070E08EE898E30E94EB0061E070E08EE867
:1004C00098E30E94EB0060EC70E08EE898E30C94F7
:1004D000EB0060EC70E08EE898E30E94EB006EE0C9
:1004E00070E08EE898E30E94EB0080915F388823EB
:1004F00019F061E070E002C060E070E08EE898E31F
:100500000E94EB0060EC70E08EE898E30C94EB0046
:1005100060EC70E08EE898E30E94EB0068E070E029
:100520008EE898E30E94EB0066E470E08EE898E3C2
:100530000E94EB0060EC70E08EE898E30C94EB0016
:1005400060EC70E08EE898E30E94EB0060E570E0FC
:100550008EE898E30E94EB0061E070E08EE898E39B
:100560000E94EB0068E070E08EE898E30E94EB00E8
:1005700060EC70E08EE898E30C94EB0080916138B9
:10058000882341F060916A3870916B388CE698E36B
:100590000C942F23089580916138882341F0609155
:1005A0001C0170911D018CE698E30C940B240895B6
:1005B000809161388823E1F080915E38843A51F46B
:1005C00060911A0170911B0140E050E08CE698E3C5
:1005D0000E94D82480915E38893A51F460911A01C2
:1005E00070911B0141E050E08CE698E30C94D82414
:1005F000089580916138882361F08CE698E30E9429
:10060000342160936638709367388093683890938C
:100610006938089580916138882371F04091663877
:100620005091673860916838709169388CE698E32A
:100630000E946B230C94F9020895809161388823FD
:1006400061F08CE698E30E94042160936238709315
:100650006338809364389093653808958091613849
:10066000882371F04091623850916338609164380A
:10067000709165388CE698E30E946C220C941D03FF
:10068000089580916138882321F08CE698E30C94DA
:10069000692180E0089583ED9FE00E94E90091E0E8
:1006A000833709F090E0892F0895C8E3DFE06FEF0A
:1006B000CE010E94CD002196C11580E1D807B9F77F
:1006C0000E94FA000E94F600FBCF83ED9FE00E949B
:1006D000E90091E0833709F090E0892F089588E3DD
:1006E0009FE00E94E90091E0833009F090E0892FBB
:1006F000089589E39FE00E94E900982F80935E3877
:1007000081E0943A21F0993A11F080E0089508953B
:100710008AE39FE00E94E90080935D389FEF980F85
:1007200081E09E3F08F080E00895BF92CF92DF9273
:10073000EF92FF920F931F93CF93DF938BE090E0A4
:100740000E94BF277C018C01C0E0D0E0CE01885C14
:10075000904F0E94E900F80181938F012196CB30E0
:10076000D105A1F76BE070E0C7010E94D31FB82E3E
:10077000C92E082F192FC0E0D0E0DD24D394CE017C
:100780008D5B904F0E94E900F80191918F018913D0
:10079000D12C2196C031D10591F78B2D9C2D0E9433
:1007A0005428C7010E9454288D2DDF91CF911F91AD
:1007B0000F91FF90EF90DF90CF90BF9008958FED55
:1007C0009FE00E94E90091E0833709F090E0892FD3
:1007D0000895CF92DF92EF92FF92CF930E94DF03B2
:1007E000882309F463C084ED9FE00E94E90090E053
:1007F00090936B3880936A3885ED9FE00E94E90002
:1008000090E090931D0180931C0186ED9FE00E9473
:10081000E90090E090931B0180931A018BED9FE01B
:100820000E94E900C82F8CED9FE00E94E900C82ECD
:10083000D12CE12CF12C7601DD24CC24FC2A8DED89
:100840009FE00E94E900C82F8EED9FE00E94E90022
:10085000C82ADC2AC0926238D0926338E0926438A9
:10086000F092653887ED9FE00E94E900C82F88ED7F
:100870009FE00E94E900C82ED12CE12CF12C7601DA
:10088000DD24CC24FC2A89ED9FE00E94E900C82FDA
:100890008AED9FE00E94E900C82ADC2AC0926638EF
:1008A000D0926738E0926838F0926938CF91FF9023
:1008B000EF90DF90CF90089580916038882309F4FD
:1008C0008AC080916138882309F485C060916A38B4
:1008D00084ED9FE00E94CD0060911C0185ED9FE0BA
:1008E0000E94CD0060911A0186ED9FE00E94CD002C
:1008F0008091663890916738A0916838B0916938D6
:100900006B2F77278827992787ED9FE00E94CD00DE
:100910008091663890916738A0916838B0916938B5
:10092000BD018827992788ED9FE00E94CD00809126
:10093000663890916738A0916838B0916938692F0E
:100940007A2F8B2F992789ED9FE00E94CD0060912F
:1009500066388AED9FE00E94CD00809162389091C8
:100960006338A0916438B09165386B2F772788275A
:1009700099278BED9FE00E94CD0080916238909185
:100980006338A0916438B0916538BD0188279927F4
:100990008CED9FE00E94CD00809162389091633889
:1009A000A0916438B0916538692F7A2F8B2F9927E1
:1009B0008DED9FE00E94CD00609162388EED9FE04A
:1009C0000E94CD0063E78FED9FE00E94CD008AE09A
:1009D00090E00C946A018AE090E00C943B0160E0A6
:1009E0008FED9FE00C94CD0082E390E00E94020125
:1009F0000E9455038CE698E30E94682210926138A9
:100A000008958091623890916338A0916438B091D4
:100A10006538892B8A2B8B2BE1F080916638909179
:100A20006738A0916838B0916938892B8A2B8B2B55
:100A300081F080911A0190911B018F3F910549F03F
:100A400080916A3890916B38892B19F010921901B6
:100A5000089581E080931901089581E040916B0130
:100A600050916C012091690130916A01421753073E
:100A700009F480E0089580916B0190916C010196DA
:100A800069E170E00E94472CAC0181E0209169018E
:100A900030916A014217530709F080E00895CF931F
:100AA0008CE698E30E94B420C82F0E9436296093F8
:100AB0005D0170935E0180935F0190936001C0FFC0
:100AC00004C081E08093680102C010926801109216
:100AD00067011092660120916801809161019091F7
:100AE0006201211108C00097E1F001979093620123
:100AF0008093610118C02091130130911401821775
:100B0000930748F40196909362018093610181E01C
:100B1000809365010AC081E0809365018093640140
:100B200004C01092640110926501809164018823D1
:100B300019F0CF910C94F200CF910C94F6000F9322
:100B40001F930E94362900915D0110915E01209152
:100B50005F0130916001DC01CB01801B910BA20B86
:100B6000B30B00910F0110911001209111013091F0
:100B7000120180179107A207B30720F01F910F9170
:100B80000C944F051F910F91089580910901809356
:100B900053010895803C41F46BED70E08EE898E3DA
:100BA0000E94EB008CED09C08B3D39F46BED70E0D9
:100BB0008EE898E30E94EB008DED682F8EE898E3B5
:100BC0000C943A2660EC70E08EE898E30E94EB000B
:100BD00061E270E08EE898E30E94EB00809174017E
:100BE0000E94CA05809173010E94CA05809172011A
:100BF0000E94CA05809171010E94CA0560EC70E0F4
:100C00008EE898E30C94EB0060EC70E08EE898E3DB
:100C10000E94EB0062E270E08EE898E30E94EB0035
:100C2000809170010E94CA0580916F010E94CA05DF
:100C300080916E010E94CA0580916D010E94CA05D3
:100C400060EC70E08EE898E30C94EB0060EC70E0F0
:100C50008EE898E30E94EB0062E070E08EE898E393
:100C60000E94EB00809169380E94CA058091683823
:100C70000E94CA05809167380E94CA058091663833
:100C80000E94CA0560EC70E08EE898E30C94EB00DB
:100C900060EC70E08EE898E30E94EB0061E070E0A9
:100CA0008EE898E30E94EB00809165380E94CA05A7
:100CB000809164380E94CA05809163380E94CA05F9
:100CC000809162380E94CA0560EC70E08EE898E37B
:100CD0000C94EB00CF93DF93C8E3DFE0CE010E94DA
:100CE000E9000E94CA052196C11580E1D807B1F735
:100CF000DF91CF91089560EC70E08EE898E30E9458
:100D0000EB0061E570E08EE898E30E94EB000E9442
:100D10006A0660EC70E08EE898E30C94EB00CF93E9
:100D2000C82F60EC70E08EE898E30E94EB0060E969
:100D300070E08EE898E30E94EB006C2F8EE898E359
:100D40000E943A2660EC70E08EE898E3CF910C9414
:100D5000EB001F93CF93DF931F92CDB7DEB7182F11
:100D600069830E944B036981811102C0183C38F0ED
:100D700083E00F90DF91CF911F910C948F06812F0C
:100D800090E0885C904F0F90DF91CF911F910C9471
:100D9000CD000E94010580916138811144C080918D
:100DA000190181113CC0809160388823C1F14091C4
:100DB00062385091633860916438709165388CE680
:100DC00098E30E94C422892B41F481E00E948F069F
:100DD00080E090E00E940201089581E080936138F4
:100DE0000E94D8020E940A030E94BE020E94CB0207
:100DF0000E941D038CE698E30E942E246DE27AE0A7
:100E00008CE698E30E94FC2160E070E08CE698E3B9
:100E10000E94802483E090E00E946A01089583E0AC
:100E200090E00E943B0108950E946503882361F0D1
:100E30000E946F03882341F00E947903882321F0E8
:100E40000E948803811103C01092603808950E94A7
:100E50009503882371F081E0809360380E94DF035E
:100E6000882339F00E94E90382E1809318010C94F1
:100E7000C906089580E00E944E2B0E94932726E029
:100E800040E052EC61E070E08EE898E30E94812639
:100E900061E08CE00E941A2A61E08DE00E941A2A2B
:100EA00084EF91E0E7E6F6E3DF019C011D9221501B
:100EB0003040E1F7E3E7F4E3DF019C011D922150AC
:100EC0003040E1F710926F34109270341092713408
:100ED0001092723484ED90E3E7EAF1E0DF019C01C7
:100EE0001D9221503040E1F782E3E5E7F1E0DF01B8
:100EF0001D928A95E9F722E030E043E050E064E09B
:100F000070E08CE698E30E9452200C941407CF9373
:100F1000DF93EC0120916B0130916C01C9010196C6
:100F200069E170E00E94472C4091690150916A018B
:100F30008417950749F1F901EE0FFF1FEB58FE4F9B
:100F4000D183C08344EF51E0249FF001259FF00D31
:100F5000349FF00D1124E955FE4FA3E7B4E39D0142
:100F6000235734432C173D0718F42D912193F7CFC5
:100F700090936C0180936B010E943B05811109C025
:100F8000DF91CF910C94510284E0DF91CF910C94CA
:100F90008F06DF91CF910895CF93C0911601CC5D5C
:100FA00060EC70E08EE898E30E94EB0063E270E092
:100FB0008EE898E30E94EB006C2F8EE898E30E9485
:100FC0003A2660EC70E08EE898E3CF910C94EB0049
:100FD00060EC70E08EE898E30E94EB0064E070E063
:100FE0008EE898E30E94EB0060916A388EE898E3FF
:100FF0000E943A2660EC70E08EE898E30C94EB00D7
:1010000060EC70E08EE898E30E94EB0065E070E031
:101010008EE898E30E94EB0060911C018EE898E353
:101020000E943A2660EC70E08EE898E30C94EB00A6
:1010300060EC70E08EE898E30E94EB0063E070E003
:101040008EE898E30E94EB0060911A018EE898E325
:101050000E943A2660EC70E08EE898E30C94EB0076
:10106000CF93C82F60EC70E08EE898E30E94EB000D
:1010700060E470E08EE898E30E94EB006C2F8EE84D
:1010800098E30E943A2660EC70E08EE898E3CF91F6
:101090000C94EB0090915A01992371F0803CD1F4AB
:1010A00080910E0181110BC010925A0180915B0159
:1010B00090915C010C948707803C09F0ACC181E001
:1010C00080935A018EEF80930E0110925C01109272
:1010D0005B01089520915B0130915C01243F91E018
:1010E000390708F098C190910E012115310529F4B6
:1010F0009E3F19F480930E01089591111FC08B3DFE
:1011000021F481E080935901089590915901992328
:1011100049F08C3D21F08D3D19F48BED01C080EC40
:1011200010925901A9014F5F5F4F50935C014093AA
:101130005B01F901ED58FB4C80830895913009F073
:101140004AC08B3D19F49093590118C090915901F0
:10115000992349F08C3D21F08D3D19F48BED01C0B0
:1011600080EC10925901A9014F5F5F4F50935C01D1
:1011700040935B01F901E159FB4C808380915B0155
:1011800090915C01049709F046C120916F348091E1
:10119000703490E0A0E0B0E0DC0199278827B22B02
:1011A00020917234822B20917134922B0097A105EB
:1011B000B10511F40C94480680936238909363381B
:1011C000A0936438B093653880911801813191F70C
:1011D0000E942E03EFCF923009F04BC08B3D21F4DB
:1011E00081E08093590118C090915901992349F0E9
:1011F0008C3D21F08D3D19F48BED01C080EC1092F7
:101200005901A9014F5F5F4F50935C0140935B010F
:10121000F901E159FB4C808380915B0190915C0165
:10122000049709F0F8C020916F348091703490E0F9
:10123000A0E0B0E0DC0199278827B22B209172341E
:10124000822B20917134922B0097A105B10511F4E6
:101250000C9426068093663890936738A09368387C
:10126000B093693880911801813191F70E940A0387
:10127000EFCF9330A9F48F3F11F40C94180882310A
:1012800010F490E002C081E190E090931B01809304
:101290001A0180911801813181F70E94D802EDCFA7
:1012A0009430D1F48F3F11F40C94E807863038F075
:1012B000282F30E08D3028F02CE030E002C026E00E
:1012C00030E030936B3820936A3880911801813177
:1012D00059F70E94BE02E8CF9530D1F48F3F11F448
:1012E0000C940008853038F0282F30E0893028F041
:1012F00028E030E002C025E030E030931D0120936B
:101300001C0180911801813159F70E94CB02E8CF6E
:10131000963071F48F3F21F0811104C00E94FA04CD
:101320000C941F02813009F076C00E94C906F8CFE4
:10133000913211F40C94E205923211F40C940406EB
:10134000933211F40C94CC07973021F40E940105DC
:101350000C943802903319F490E00C946A019034A4
:1013600021F40E9441030C943008983029F483370B
:1013700009F051C00C9488029E3059F4813019F460
:1013800080935F3804C0811102C010925F380C94C2
:101390006902993521F4883FF1F50E94F4049135F2
:1013A00011F40C947B06923551F58B3D21F481E0CC
:1013B0008093590118C090915901992349F08C3DAF
:1013C00021F08D3D19F48BED01C080EC1092590194
:1013D000A9014F5F5F4F50935C0140935B01F9019E
:1013E000E159FB4C808380915B0190915C010297F5
:1013F00091F46091703480916F340C94A90690350B
:1014000011F40C94A002933511F40C945C049435FF
:1014100011F40C94EF0408950F931F93CF93DF936F
:101420008C0101151105A1F0C0915B38D0915C3899
:10143000CE01019690935C3880935B388CE698E3FC
:101440000E94E920C959D94C888301501109E9CF7C
:10145000DF91CF911F910F9108950F931F93CF9319
:10146000DF938C0180915F3881112CC08CE698E36A
:101470000E94E9209C01015011098091150120FF73
:101480000CC0332794E0359527959A95E1F78F3F67
:1014900009F49AC0821398C07DC08F3F39F0109232
:1014A0005C3810925B388FEF809315018CE698E3DF
:1014B0000E94B7209093170180931601C8010E94E3
:1014C0000C0A97C010925C3810925B388CE698E357
:1014D0000E94B7209093170180931601C8010E94C3
:1014E0000C0A60EC70E08EE898E30E94EB0063E287
:1014F00070E08EE898E30E94EB0060911601645260
:101500008EE898E30E943A2660EC70E08EE898E35B
:101510000E94EB0060EC70E08EE898E30E94EB0024
:1015200060E070E08EE898E30E94EB00C7E6D6E347
:1015300020915B3830915C38CE01875696438217F4
:10154000930778F060EC70E08EE898E30E94EB007F
:1015500010925C3810925B38DF91CF911F910F9100
:1015600008956991603C41F46BED70E08EE898E37A
:101570000E94EB006CED09C06B3D39F46BED70E03F
:101580008EE898E30E94EB006DED8EE898E30E94F0
:101590003A26CECFC0911601D09117018CE698E380
:1015A0000E94B7208C0F9D1F97FD01969C013595D9
:1015B00027953093170120931601C8010E940C0A49
:1015C0008FEF8093150115C010925C3810925B3834
:1015D000209315018CE698E30E94B72090931701A1
:1015E00080931601C801DF91CF911F910F910C9448
:1015F0000C0A60EC70E08EE898E30E94EB0063E276
:1016000070E08EE898E30E94EB006091160164524E
:101610008EE898E30E943A2660EC70E08EE898E34A
:101620000E94EB0060EC70E08EE898E30E94EB0013
:1016300060E070E08EE898E30E94EB00C7E6D6E336
:1016400020915B3830915C38CE01875696438217E3
:10165000930708F077CF6991603C41F46BED70E03F
:101660008EE898E30E94EB006CED09C06B3D39F405
:101670006BED70E08EE898E30E94EB006DED8EE874
:1016800098E30E943A26DCCFCF92DF92EF92FF924E
:101690000F931F93CF93DF93EC01809161388823E0
:1016A00009F47AC080915F38811158C00E94FA0015
:1016B00060E071E080E090E00E949B27162F107F91
:1016C000CF3FD10508F0116060E070E08CE698E350
:1016D0000E945F24612F8CE698E30E940C209BE718
:1016E000C92E92E3D92EEE24E394F12CC6018B5738
:1016F00092438C179D07F0F4F60161916F018CE61F
:1017000098E30E940C20FFEFEF1AFF0A8FEFE81614
:10171000F10461F78CE698E30E946C2160E070E0D0
:101720008CE698E30E945F24612F8CE698E30E9488
:101730000C20D9CF8CE698E30E946C210E94FE0019
:1017400060E070E08CE698E3DF91CF911F910F91FC
:10175000FF90EF90DF90CF900C9480240E94FA00CD
:10176000CF3FD10519F010F0CFEFD0E060E070E08E
:101770008CE698E30E945F240BE712E3C8018B57C5
:1017800092438C179D07B0F6F80161918F018CE6AA
:1017900098E30E940C20F2CF82E00E948F0685E041
:1017A00090E0DF91CF911F910F91FF90EF90DF902C
:1017B000CF900C940201CF93DF9320916901309177
:1017C0006A0184EF91E0289FF001299FF00D389F76
:1017D000F00D1124A901440F551FDA01AB58BE4F7B
:1017E000CD91DC91ABE7B2E3E955FE4FBF01CF01EC
:1017F000861B970B8C179D0720F480818D93119287
:10180000F6CFFA01EB58FE4F11821082C901019602
:1018100069E170E00E94472C90936A01809369010E
:10182000CE010E94440B0E943B05811104C0DF9150
:10183000CF910C945102DF91CF9108950F931F9394
:1018400080916138882359F00E949F050E942D05E0
:10185000882381F08091580181110CC04AC0809189
:101860006038882319F00E94950104C00E94DA01B3
:101870000E94FA048EE898E30E94AA25892BA1F021
:1018800081E0809358018EE898E30E94C4250E946D
:101890004A080E9436296093540170935501809341
:1018A0005601909357014CC080915801882309F448
:1018B00047C00E9436290091540110915501209192
:1018C000560130915701DC01CB01801B910BA20B1B
:1018D000B30B00910A0110910B0120910C01309182
:1018E0000D0180179107A207B30750F1109258011C
:1018F00027C080916301811102C00E944F05809131
:101900006501811119C080916401811115C0809118
:101910006301882331F062E370E080E090E00E9490
:1019200067290E944F05809165018111A3CF109214
:1019300063010E94DB0B9ECF81E0809363019ACF0D
:101940001F910F9108952F923F924F925F926F9245
:101950007F928F929F92AF92BF92CF92DF92EF923F
:10196000FF920F931F93CF93DF93CDB7DEB7C0588D
:10197000D1090FB6F894DEBF0FBECDBFC158DF4FFF
:1019800099838883CF57D04067965FAF4EAF6797F4
:10199000DC0118964D905D906D907C901B9765963C
:1019A0004CAE5DAE6EAE7FAE65971C964D905D9071
:1019B0006D907C901F9749825A826B827C825096F0
:1019C0004D905D906D907C9053974D825E826F82BA
:1019D000788654964D905D906D907C9057974D868B
:1019E0005E866F86788A605C7F4FA85ABF4F699683
:1019F000BFAFAEAF6997FC01E45AFF4F6B96FFAFE4
:101A0000EEAF6B979C01205A3F4F6D963FAF2EAFC4
:101A10006D978C599F4F6F969FAF8EAF6F97C15840
:101A2000DF4FA881B981CF57D040A859BF4FA196A9
:101A3000BFAFAEAFA197C158DF4FE881F981CF5753
:101A4000D040E459FF4FA396FFAFEEAFA397C15824
:101A5000DF4F28813981CF57D04020593F4FA5967D
:101A60003FAF2EAFA597C158DF4F88819981CF57DF
:101A7000D0408C589F4FA7969FAF8EAFA797C15865
:101A8000DF4FA881B981CF57D040A858BF4FA99642
:101A9000BFAFAEAFA997C158DF4F28803980CF576D
:101AA000D040BCE72B0E311CC158DF4FE881F981D3
:101AB000CF57D040E058FF4FAB96FFAFEEAFAB979C
:101AC000C158DF4F28813981CF57D0402C573F4F25
:101AD000AD963FAF2EAFAD97C158DF4F888199814A
:101AE000CF57D04088579F4FAF969FAF8EAFAF97DD
:101AF000C158DF4FA881B981CF57D040A457BF4FFD
:101B0000E196BFAFAEAFE197C158DF4FE881F981F1
:101B1000CF57D040E057FF4FE396FFAFEEAFE397CC
:101B2000C158DF4F28813981CF57D0402C563F4FC5
:101B3000E5963FAF2EAFE597E6966FAFE697E7964F
:101B40007FAFE797FB01FF97808131968080912CD2
:101B5000A12CB12C540199248824982A3297808191
:101B6000882A3396808124013501782A498A5A8A45
:101B70006B8A7C8A6996AEADBFAD69974D925D92D6
:101B80006D927C92139765968CAD9DADAEADBFAD59
:101B9000659788589B45A549B8428D849E84AF843B
:101BA000B8884D805E806F80788484249524A62434
:101BB000B724C980DA80EB80FC808C209D20AE2089
:101BC000BF202D853E854F85588982269326A426E1
:101BD000B526880E991EAA1EBB1E89899A89AB89D3
:101BE000BC89880E991EAA1EBB1ED501C40127E020
:101BF000880F991FAA1FBB1F2A95D1F739E1B69408
:101C0000A794979487943A95D1F7882A992AAA2A73
:101C1000BB2A8C0C9D1CAE1CBF1C32968081319659
:101C2000008110E020E030E0980111270027182BF8
:101C300032978081082B3396808128013901782AD8
:101C40004D8A5E8A6F8A788E6B96AEADBFAD6B970C
:101C50004D925D926D927C9213974D845E846F8459
:101C60007888BAEA4B1AB8E45B0AB8E36B0AB7E1C2
:101C70007B0A8D899E89AF89B88D840D951DA61D1F
:101C8000B71D4D805E806F8078844C245D246E2467
:101C90007F24482059206A207B20CD80DE80EF8081
:101CA000F8844C245D246E247F24480E591E6A1E3D
:101CB0007B1ED301C2015CE0880F991FAA1FBB1FC6
:101CC0005A95D1F714E176946794579447941A95EE
:101CD000D1F7482A592A6A2A7B2A480C591C6A1CBF
:101CE0007B1C329680813196C080D12CE12CF12C66
:101CF0007601DD24CC24D82A32978081C82A3396F5
:101D00008081A7019601582B298F3A8F4B8F5C8FCA
:101D10006D96AEADBFAD6D972D933D934D935C9396
:101D20001397CD80DE80EF80F884B5E2CB1ABFE850
:101D3000DB0ABFEDEB0ABBEDFB0ADA01C9018C0D32
:101D40009D1DAE1DBF1DC980DA80EB80FC80C824BC
:101D5000D924EA24FB24C420D520E620F7202981B9
:101D60003A814B815C81C226D326E426F526C80E33
:101D7000D91EEA1EFB1ED701C6012FE0B695A79516
:101D8000979587952A95D1F731E1CC0CDD1CEE1C97
:101D9000FF1C3A95D1F7C82AD92AEA2AFB2AC40C93
:101DA000D51CE61CF71C329620813196808190E08C
:101DB000A0E0B0E0DC0199278827922B32972081A0
:101DC000822B3396E0819C01AD015E2B2D8F3E8FDF
:101DD0004F8F58A36F96AEADBFAD6F972D933D93C8
:101DE0004D935C93139709811A812B813C81025199
:101DF000114322443E438D8D9E8DAF8DB8A1800F3F
:101E0000911FA21FB31F93018201082519252A25BE
:101E10003B250C211D212E213F21082519252A258E
:101E20003B25080F191F2A1F3B1FD901C8015AE083
:101E3000B695A795979587955A95D1F7E6E1000F46
:101E4000111F221F331FEA95D1F7082B192B2A2BBC
:101E50003B2B0C0D1D1D2E1D3F1DFB01BF9740810F
:101E600031965081852F90E0A0E0B0E0DC01992709
:101E70008827942B32974081842B33964081B42B52
:101E800089A39AA3ABA3BCA3A196EEADFFADA19786
:101E900080839183A283B3838155904FA348BA4036
:101EA000880E991EAA1EBB1ED701C6018425952542
:101EB000A625B72580239123A223B3238425952526
:101EC000A625B725880E991EAA1EBB1ED501C401E2
:101ED000E7E0880F991FAA1FBB1FEA95D1F7F9E128
:101EE000B694A79497948794FA95D1F7882A992A5B
:101EF000AA2ABB2A800E911EA21EB31EFB01BB970D
:101F0000408131965081852F90E0A0E0B0E0DC0167
:101F100099278827942B32974081842B33964081D0
:101F2000B42B8DA39EA3AFA3B8A7A396EEADFFAD30
:101F3000A39780839183A283B383865D9943A84747
:101F4000B84B480E591E6A1E7B1ED901C8018C254C
:101F50009D25AE25BF2588219921AA21BB218C254D
:101F60009D25AE25BF25480E591E6A1E7B1ED30136
:101F7000C201ECE0880F991FAA1FBB1FEA95D1F799
:101F8000F4E17694679457944794FA95D1F7482AE8
:101F9000592A6A2A7B2A480C591C6A1C7B1CFB01A3
:101FA000B797408131965081852F90E0A0E0B0E056
:101FB000DC0199278827942B32974081842B339614
:101FC0004081B42B89A79AA7ABA7BCA7A596EEAD75
:101FD000FFADA59780839183A283B3838D5E994BD8
:101FE000AF4CB745C80ED91EEA1EFB1ED501C40171
:101FF00080279127A227B32784219521A621B721E5
:1020000080279127A227B327C80ED91EEA1EFB1EE0
:10201000D701C601EFE0B695A79597958795EA9504
:10202000D1F7F1E1CC0CDD1CEE1CFF1CFA95D1F7C9
:10203000C82AD92AEA2AFB2AC40CD51CE61CF71C9C
:10204000FB01B397408131965081852F90E0A0E04D
:10205000B0E0DC0199278827942B32974081842BAC
:1020600033964081B42B8DA79EA7AFA7B8ABA79698
:10207000EEADFFADA79780839183A283B3838F5F7B
:102080009A46A94BB240080F191F2A1F3B1FD301C4
:10209000C20188259925AA25BB258C219D21AE2129
:1020A000BF2188259925AA25BB25080F191F2A1F9E
:1020B0003B1FD901C801EAE0B695A795979587958A
:1020C000EA95D1F7F6E1000F111F221F331FFA9591
:1020D000D1F7082B192B2A2B3B2B0C0D1D1D2E1D68
:1020E0003F1DFB017F97408131965081852F90E005
:1020F000A0E0B0E0DC0199278827942B329740813B
:10210000842B33964081B42B89AB9AABABABBCAB81
:10211000A996EEADFFADA99780839183A283B38387
:1021200088529746AF47B649880E991EAA1EBB1E15
:10213000D701C60184259525A625B725802391239F
:10214000A223B32384259525A625B725880D991D9F
:10215000AA1DBB1D4C015D01E7E0880C991CAA1C5F
:10216000BB1CEA95D1F7F9E1B695A79597958795A8
:10217000FA95D1F788299929AA29BB29800F911F9F
:10218000A21FB31FFB017B97408131965081852EA2
:10219000912CA12CB12C540199248824942A329793
:1021A0004081842A33964081B42A8DAA9EAAAFAA80
:1021B000B8AEF10180829182A282B382F1E58F1ADA
:1021C000F8E09F0AFBEBAF0AF4E7BF0A480C591C82
:1021D0006A1C7B1C480159018C249D24AE24BF2419
:1021E00088229922AA22BB228C249D24AE24BF24BB
:1021F000840C951CA61CB71C24013501ECE0440C92
:10220000551C661C771CEA95D1F7F4E1B694A794A7
:1022100097948794FA95D1F784289528A628B7280B
:10222000880E991EAA1EBB1EFB017797408131962E
:102230005081452E512C612C712C3201552444249F
:10224000542A32974081442A33964081742A49AEF9
:102250005AAE6BAE7CAEAB96EEADFFADAB974082A7
:10226000518262827382FFE44F1AF4EA5F0A6108C6
:102270007108C40CD51CE61CF71C2C013D0140263E
:10228000512662267326482059206A207B2040264A
:10229000512662267326C40CD51CE61CF71C2601A9
:1022A0003701EFE07694679457944794EA95D1F715
:1022B000F1E1CC0CDD1CEE1CFF1CFA95D1F7C42813
:1022C000D528E628F728C80CD91CEA1CFB1CFB0102
:1022D0007397408131965081452E512C612C712C81
:1022E000320155244424542A32974081442A33969B
:1022F0004081742A21964CAE5DAE6EAE7FAE2197C2
:10230000AD96EEADFFADAD97408251826282738291
:10231000F2E44F1AF8E25F0AF3EA6F0AF6E77F0A7F
:10232000040D151D261D371D24013501482659268B
:102330006A267B264C205D206E207F204826592669
:102340006A267B26040D151D261D371D280139011F
:10235000EAE07694679457944794EA95D1F7F6E1CA
:10236000000F111F221F331FFA95D1F704291529D9
:10237000262937290C0D1D1D2E1D3F1DFB013F97E2
:10238000408131965081452E512C612C712C3201A7
:1023900055244424542A32974081442A339640815C
:1023A000742A25964CAE5DAE6EAE7FAE2597AF9685
:1023B000EEADFFADAF974082518262827382FEED37
:1023C0004F1AFEEE5F0AFFE66F0AF4E97F0A840DFA
:1023D000951DA61DB71D26013701482459246A24DE
:1023E0007B244022512262227322482459246A24E9
:1023F0007B24840D951DA61DB71D2C013D01E7E032
:10240000440C551C661C771CEA95D1F7F9E1B6958A
:10241000A79597958795FA95D1F784299529A629A7
:10242000B729800F911FA21FB31FFB013B9740816B
:1024300031965081452E512C612C712C320155243E
:102440004424542A32974081442A33964081742A86
:1024500029964CAE5DAE6EAE7FAE2997E196EEAD9D
:10246000FFADE1974082518262827382FDE64F1A8E
:10247000FEE85F0AF7E66F0AF2E07F0A840C951C1B
:10248000A61CB71C280139014C245D246E247F242E
:10249000482259226A227B224C245D246E247F2408
:1024A000840C951CA61CB71C24013501ECE0440CDF
:1024B000551C661C771CEA95D1F7F4E1B694A794F5
:1024C00097948794FA95D1F784289528A628B72859
:1024D000880E991EAA1EBB1EFB01379740813196BC
:1024E0005081452E512C612C712C320155244424ED
:1024F000542A32974081442A33964081742A2D967B
:102500004CAE5DAE6EAE7FAE2D97E396EEADFFADF9
:10251000E3974082518262827382F2E74F1AFCEBAA
:102520005F0AF6E86F0AF9E57F0AC40CD51CE61CC1
:10253000F71C2C013D0140265126622673264820B7
:1025400059206A207B204026512662267326C40C1F
:10255000D51CE61CF71C26013701EFE07694679442
:1025600057944794EA95D1F7F1E1CC0CDD1CEE1CB1
:10257000FF1CFA95D1F7C428D528E628F728C80CFF
:10258000D91CEA1CFB1CFB0133974081319650811A
:10259000452E512C612C712C320155244424542A8F
:1025A00032974081442A33964081742A61964CAE1A
:1025B0005DAE6EAE7FAE6197E596EEADFFADE59791
:1025C0004082518262827382FFED4F1AF7EF5F0AF9
:1025D000FBE46F0AF6EB7F0A040D151D261D371D5F
:1025E00024013501482659266A267B264C205D2089
:1025F0006E207F20482659266A267B26040D151D4D
:10260000261D371D28013901EAE076946794579416
:102610004794EA95D1F7F6E1000F111F221F331FEF
:10262000FA95D1F704291529262937290C0D1D1DE6
:102630002E1D3F1D4D885E886F88788C4EE9441AA8
:102640004AED540A41EE640A49E0740A840D951D6E
:10265000A61DB71D280139014C245D246E247F245A
:10266000482059206A207B204C245D246E247F243E
:10267000840D951DA61DB71D2C013D0145E0440CA0
:10268000551C661C771C4A95D1F75BE1B695A7955A
:10269000979587955A95D1F784299529A629B72921
:1026A000800F911FA21FB31F49A45AA46BA47CA43E
:1026B00050EC451A5CE4550A5FEB650A5FE3750A66
:1026C000840C951CA61CB71C2C013D0140265126EC
:1026D000622673264C205D206E207F2040265126E6
:1026E00062267326840C951CA61CB71C2401350198
:1026F000E9E0440C551C661C771CEA95D1F7F7E11C
:10270000B694A79497948794FA95D1F7842895283E
:10271000A628B728880E991EAA1EBB1E21964CAC6F
:102720005DAC6EAC7FAC2197EFEA4E1AE5EA5E0A2B
:10273000E1EA6E0AE9ED7E0AC40CD51CE61CF71C22
:1027400024013501482659266A267B26402251223B
:1027500062227322482659266A267B26C40CD51C81
:10276000E61CF71C260137014EE0440C551C661C84
:10277000771C4A95D1F752E1F694E794D794C79421
:102780005A95D1F7C428D528E628F728C80CD91CB3
:10279000EA1CFB1C49885A886B887C88F6E54F1A2E
:1027A000F8E35F0AF9E46F0AF6E17F0A040D151DEC
:1027B000261D371D26013701482459246A247B240D
:1027C000482259226A227B22482459246A247B24E5
:1027D000040D151D261D371D28013901ECE07694E6
:1027E000679457944794EA95D1F7F4E1000F111FCD
:1027F000221F331FFA95D1F70429152926293729D5
:102800000C0D1D1D2E1D3F1D4DA05EA06FA078A4B8
:1028100043EA441A4FEE540A40ED640A49E2740A4E
:10282000840D951DA61DB71D280139014C245D247A
:102830006E247F24482059206A207B204C245D246C
:102840006E247F24840D951DA61DB71D2C013D010E
:1028500045E0440C551C661C771C4A95D1F75BE19A
:10286000B695A795979587955A95D1F78429952977
:10287000A629B729800F911FA21FB31F49AC5AACDC
:102880006BAC7CAC5DEA451A5BEE550A5BEB650A06
:102890005DEF750A840C951CA61CB71C2C013D012C
:1028A00040265126622673264C205D206E207F2014
:1028B0004026512662267326840C951CA61CB71C44
:1028C00024013501E9E0440C551C661C771CEA958F
:1028D000D1F7F7E1B694A79497948794FA95D1F736
:1028E00084289528A628B728880E991EAA1EBB1EE4
:1028F00061964CAC5DAC6EAC7FAC6197EFE74E1A65
:10290000E9E15E0AEEE56E0AE7E27E0AC40CD51C38
:10291000E61CF71C24013501482659266A267B2629
:102920004022512262227322482659266A267B269B
:10293000C40CD51CE61CF71C260137014EE0440CE4
:10294000551C661C771C4A95D1F752E1F694E79422
:10295000D794C7945A95D1F7C428D528E628F728E4
:10296000C80CD91CEA1CFB1C49A05AA06BA07CA077
:10297000F8E34F1AF4E05F0AFCE26F0AF8E17F0A1D
:10298000040D151D261D371D260137014824592425
:102990006A247B24482259226A227B224824592413
:1029A0006A247B24040D151D261D371D28013901BD
:1029B000ECE07694679457944794EA95D1F7F4E164
:1029C000000F111F221F331FFA95D1F70429152973
:1029D000262937290C0D1D1D2E1D3F1D4DA85EA853
:1029E0006FA878AC4AE1441A42E3540A4EE1640A03
:1029F0004EED740A840D951DA61DB71D28013901E1
:102A00004C245D246E247F24482059206A207B209A
:102A10004C245D246E247F24840D951DA61DB71DB6
:102A20002C013D0145E0440C551C661C771C4A9561
:102A3000D1F75BE1B695A795979587955A95D1F70C
:102A400084299529A629B729800F911FA21FB31F9A
:102A50002D964CAC5DAC6EAC7FAC2D975AE2451A0E
:102A600058EF550A58EC650A5CE3750A840C951C0E
:102A7000A61CB71C2C013D01402651266226732658
:102A80004C205D206E207F20402651266226732632
:102A9000840C951CA61CB71C24013501E9E0440CEC
:102AA000551C661C771CEA95D1F7F7E1B694A794FC
:102AB00097948794FA95D1F784289528A628B72863
:102AC000880E991EAA1EBB1E4D8C5E8C6F8C78A042
:102AD000E9E74E1AE2EF5E0AEAE26E0AEBE07E0AEE
:102AE000C40CD51CE61CF71C2401350148265926C8
:102AF0006A267B26402251226222732248265926CA
:102B00006A267B26C40CD51CE61CF71C260137015F
:102B10004EE0440C551C661C771C4A95D1F752E1D7
:102B2000F694E794D794C7945A95D1F7C428D5283A
:102B3000E628F728C80CD91CEA1CFB1C49A85AA88F
:102B40006BA87CA8F3E14F1AFBEE5F0AF5EA6F0A67
:102B5000FAEB7F0A040D151D261D371D26013701CE
:102B6000482459246A247B24482259226A227B2241
:102B7000482459246A247B24040D151D261D371D65
:102B800028013901ECE07694679457944794EA95CC
:102B9000D1F7F4E1000F111F221F331FFA95D1F76F
:102BA0000429152926293729280139014C0C5D1CD7
:102BB0006E1C7F1CEB964CAE5DAE6EAE7FAEEB979F
:102BC00029964CAC5DAC6EAC7FAC29972BEF421ACA
:102BD00026E1520A2CE1620A26E5720A840D951D4F
:102BE000A61DB71DEB964CAC5DAC6EAC7FACEB9705
:102BF0004C245D246E247F24482059206A207B20A9
:102C00004C245D246E247F24840D951DA61DB71DC4
:102C10002C013D0115E0440C551C661C771C1A95CF
:102C2000D1F70BE1B695A795979587950A95D1F7BA
:102C300084299529A629B729EB964CAC5DAC6EACDE
:102C40007FACEB97840D951DA61DB71D498C5A8C42
:102C50006B8C7C8C28E0421A2CE5520A20E1620A37
:102C600023E0720A840C951CA61CB71CEB964CAC96
:102C70005DAC6EAC7FACEB97482659266A267B2666
:102C80004C205D206E207F20EB962CAD3DAD4EADEF
:102C90005FADEB974226532664267526840C951C5F
:102CA000A61CB71C2401350129E0440C551C661CE8
:102CB000771C2A95D1F737E1B694A7949794879417
:102CC0003A95D1F784289528A628B728880E991E0A
:102CD000AA1EBB1E4DA45EA46FA478A837E2431AB7
:102CE0003DEF530A30E9630A38E9730AC40CD51C76
:102CF000E61CF71C24013501482659266A267B2646
:102D0000EB962CAD3DAD4EAD5FADEB97422253221D
:102D100064227522482659266A267B26C40CD51CB7
:102D2000E61CF71C260137014EE0440C551C661CBE
:102D3000771C4A95D1F752E1F694E794D794C7945B
:102D40005A95D1F7C428D528E628F728C80CD91CED
:102D5000EA1CFB1C26013701482459246A247B24E1
:102D6000EF964CAE5DAE6EAE7FAEEF9725964CAC57
:102D70005DAC6EAC7FAC259726E7421A23EB520A76
:102D800025ED620A22E7720AEB962CAD3DAD4EAD01
:102D90005FADEB97420E531E641E751EEF962CAD71
:102DA0003DAD4EAD5FADEF97282339234A235B231A
:102DB000282539254A255B25420E531E641E751EA3
:102DC000A3019201ECE05695479537952795EA9532
:102DD000D1F729873A874B875C8793018201F4E119
:102DE000000F111F221F331FFA95D1F749845A840F
:102DF0006B847C8404291529262937292801390167
:102E00004C0C5D1C6E1C7F1CEB964CAE5DAE6EAE2A
:102E10007FAEEB974DA05EA06FA078A42EEB421A78
:102E200026EC520A25E0620A7108840D951DA61D44
:102E3000B71DEF964CAC5DAC6EAC7FACEF97EB96EC
:102E40002CAD3DAD4EAD5FADEB97422653266426CB
:102E50007526840D951DA61DB71D2C013D0114E09E
:102E6000440C551C661C771C1A95D1F70CE1B695DD
:102E7000A795979587950A95D1F784299529A6292D
:102E8000B729820F931FA41FB51F49A85AA86BA882
:102E90007CA83FE7431A39E0530A3EE8630A38E763
:102EA000730A840C951CA61CB71CEB964CAC5DAC4D
:102EB0006EAC7FACEB974C245D246E247F244826B7
:102EC00059266A267B26840C951CA61CB71C240157
:102ED00035012BE0440C551C661C771C2A95D1F754
:102EE00035E1B694A794979487943A95D1F78428BE
:102EF0009528A628B728880E991EAA1EBB1E2196C3
:102F00004CAC5DAC6EAC7FAC21974EED441A4EE9F3
:102F1000540A42E6640A42E9740AC40CD51CE61C51
:102F2000F71CEB964CAC5DAC6EAC7FACEB974826D7
:102F300059266A267B26482459246A247B24C40CFB
:102F4000D51CE61CF71CF60167017F01C80CD91CD3
:102F5000EA1CFB1C2D964CAC5DAC6EAC7FAC2D9787
:102F6000F4EF4F1AF7EC5F0AFAE16F0AF2E07F0A1A
:102F7000EB960CAD1DAD2EAD3FADEB97040D151DC1
:102F8000261D371D24013501482659266A267B2631
:102F90004C245D246E247F24040D151D261D371D31
:102FA0002801390149E076946794579447944A95EB
:102FB000D1F757E1000F111F221F331F5A95D1F788
:102FC00004291529262937290C0D1D1D2E1D3F1DED
:102FD0004D885E886F88788C4CEB441A45E1540A22
:102FE00041E4640A4BE5740A840D951DA61DB71DC6
:102FF00026013701482459246A247B24402651267F
:1030000062267326840D951DA61DB71D2C013D015A
:10301000E4E0440C551C661C771CEA95D1F7FCE1F2
:10302000B695A79597958795FA95D1F7842995290F
:10303000A629B729800F911FA21FB31F49A05AA02C
:103040006BA07CA057E5451A50E3550A51E2650A8A
:1030500054EB750A840C951CA61CB71C2801390179
:103060004C245D246E247F24482659266A267B261C
:10307000840C951CA61CB71C240135014BE0440CA4
:10308000551C661C771C4A95D1F755E1B694A79458
:10309000979487945A95D1F784289528A628B7281D
:1030A000880E991EAA1EBB1E4DA45EA46FA478A80C
:1030B000E0EA4E1AE4EB5E0AE4E46E0AE9E07E0A16
:1030C000C40CD51CE61CF71C2C013D0140265126E2
:1030D00062267326482459246A247B24C40CD51CF8
:1030E000E61CF71C260167017201C80CD91CEA1CFA
:1030F000FB1C49AC5AAC6BAC7CAC40E9441A43E4D1
:10310000540A40E4640A41E4740A040D151D261DA6
:10311000371D24013501482659266A267B264C2472
:103120005D246E247F24040D151D261D371D2801E6
:103130003901E9E07694679457944794EA95D1F77A
:10314000F7E1000F111F221F331FFA95D1F7042951
:103150001529262937290C0D1D1D2E1D3F1D2996C9
:103160004CAC5DAC6EAC7FAC29975AE3451A51E884
:10317000550A54E6650A57ED750A840D951DA61D7E
:10318000B71D26013701482459246A247B24402690
:10319000512662267326480E591E6A1E7B1ED301D5
:1031A000C20144E0880F991FAA1FBB1F4A95D1F79F
:1031B0005CE176946794579447945A95D1F7482ADE
:1031C000592A6A2A7B2A400E511E621E731E898963
:1031D0009A89AB89BC898650984DAE45B541880E19
:1031E000991EAA1EBB1ED901C8018C259D25AE259E
:1031F000BF2584259525A625B725880D991DAA1DCF
:10320000BB1D4C015D01EBE0880C991CAA1CBB1C8A
:10321000EA95D1F7F5E1B695A79597958795FA9533
:10322000D1F788299929AA29BB29840D951DA61DA6
:10323000B71D8D8C9E8CAF8CB8A0EBE78E1AEFEC8F
:103240009E0AE0E1AE0AEBE2BE0AC80CD91CEA1CF9
:10325000FB1C5301420180269126A226B326882614
:103260009926AA26BB26C80CD91CEA1CFB1C4601C1
:1032700067017401C80ED91EEA1EFB1E89A49AA418
:10328000ABA4BCA44BEF841A42EE940A47E7A40A0D
:103290004BEFB40A080D191D2A1D3B1D4C015D01A1
:1032A00084249524A624B7248C249D24AE24BF24F2
:1032B000080D191D2A1D3B1D4801590149E0B6940E
:1032C000A794979487944A95D1F757E1000F111F5F
:1032D000221F331F5A95D1F7082919292A293B297A
:1032E0000C0D1D1D2E1D3F1D8DA89EA8AFA8B8ACAE
:1032F00057EC851A5FE2950A5BE2A50A56E2B50A29
:10330000480C591C6A1C7B1C4601570188269926CB
:10331000AA26BB2680269126A226B326480C591C35
:103320006A1C7B1C53014201E4E0880C991CAA1C16
:10333000BB1CEA95D1F7FCE17694679457944794C7
:10334000FA95D1F7482859286A287B28400E511E43
:10335000621E731E25968CAC9DACAEACBFAC25979F
:10336000EBE18E1AE6E69E0AE4E2AE0AE9E1BE0A65
:10337000880D991DAA1DBB1D480159018C249D244F
:10338000AE24BF2484249524A624B724880D991D37
:10339000AA1DBB1D4C015D014BE0880C991CAA1CA9
:1033A000BB1C4A95D1F755E1B695A795979587959A
:1033B0005A95D1F788299929AA29BB29840D951DE9
:1033C000A61DB71D61968CAC9DACAEACBFAC619731
:1033D000F8E08F1AF3E89F0AFDE5AF0AF0EEBF0AA6
:1033E000C80CD91CEA1CFB1C530142018026912603
:1033F000A226B32688269926AA26BB26C80CD91C45
:10340000EA1CFB1C460167017401C80ED91EEA1EA6
:10341000FB1E898C9A8CAB8CBC8C4BE9841A49EAD4
:10342000940A43E5A40A4BE3B40A080D191D2A1DAA
:103430003B1D4C015D0184249524A624B7248C24D3
:103440009D24AE24BF24080D191D2A1D3B1D4801D3
:103450005901E9E0B694A79497948794EA95D1F737
:10346000F7E1000F111F221F331FFA95D1F708292A
:1034700019292A293B290C0D1D1D2E1D3F1D898848
:103480009A88AB88BC885CEB851A5DED950A56ED91
:10349000A50A5BE0B50A480C591C6A1C7B1C4C0150
:1034A0005D0180949094A094B094802A912AA22ADD
:1034B000B32A8C249D24AE24BF24480C591C6A1CBA
:1034C0007B1C5301420146E0880C991CAA1CBB1CC2
:1034D0004A95D1F75AE176946794579447945A9550
:1034E000D1F7482859286A287B28400E511E621EB1
:1034F000731E8DA49EA4AFA4B8A8E9E68E1A910805
:10350000E5EDAE0AECEBBE0A880D991DAA1DBB1DA8
:103510004601570180949094A094B09484289528F3
:10352000A628B72880269126A226B326880D991DA5
:10353000AA1DBB1D4C015D01EAE0880C991CAA1C68
:10354000BB1CEA95D1F7F6E1B695A79597958795B7
:10355000FA95D1F788299929AA29BB29840D951DA7
:10356000A61DB71D2D968CAC9DACAEACBFAC2D97F7
:10357000F9E58F1AFCED9F0AFBE6AF0AF4E5BF0AF6
:10358000C80CD91CEA1CFB1C48015901809490947A
:10359000A094B094882A992AAA2ABB2A8424952424
:1035A000A624B724C80CD91CEA1CFB1C46015701F1
:1035B0004FE0880C991CAA1CBB1C4A95D1F751E11D
:1035C000F694E794D794C7945A95D1F7C828D92888
:1035D000EA28FB28C80ED91EEA1EFB1E8DA09EA05D
:1035E000AFA0B8A447EC841A4FE5940A4CE6A40AAD
:1035F00043E0B40A080D191D2A1D3B1D5301420169
:1036000080949094A094B0948C289D28AE28BF28D4
:1036100088269926AA26BB26080D191D2A1D3B1DA2
:1036200048015901EBE0B694A79497948794EA95E2
:10363000D1F7F5E1000F111F221F331FFA95D1F7C3
:10364000082919292A293B290C0D1D1D2E1D3F1D56
:1036500025968CAC9DACAEACBFAC25975DE3851ACE
:1036600056EA950A54EAA50A5AE9B50A480C591CC3
:103670006A1C7B1C4C015D0180949094A094B094D2
:10368000802A912AA22AB32A8C249D24AE24BF2406
:10369000480C591C6A1C7B1C5301420146E0880CF3
:1036A000991CAA1CBB1C4A95D1F75AE176946794E1
:1036B000579447945A95D1F7482859286A287B2867
:1036C000400E511E621E731E8D8C9E8CAF8CB8A056
:1036D000EEE68E1AE3E39E0AE3EFAE0AE0E7BE0AE7
:1036E000880D991DAA1DBB1D460157018094909419
:1036F000A094B09484289528A628B72880269126DF
:10370000A226B326880D991DAA1DBB1D4C015D0183
:10371000EAE0880C991CAA1CBB1CEA95D1F7F6E1DB
:10372000B695A79597958795FA95D1F78829992900
:10373000AA29BB29840D951DA61DB71D89AC9AAC7D
:10374000ABACBCACF3E88F1AFBE09F0AF0E1AF0A28
:10375000B108C80CD91CEA1CFB1C48015901809413
:103760009094A094B094882A992AAA2ABB2A8424E7
:103770009524A624B724C80CD91CEA1CFB1C4601BE
:1037800057014FE0880C991CAA1CBB1C4A95D1F725
:1037900051E1F694E794D794C7945A95D1F7C82885
:1037A000D928EA28FB28C80ED91EEA1EFB1E8D88E0
:1037B0009E88AF88B88C4FE2841A42EA940A4BE79D
:1037C000A40A4AE7B40A080D191D2A1D3B1D53011E
:1037D000420180949094A094B0948C289D28AE28A7
:1037E000BF2888269926AA26BB26080D191D2A1D42
:1037F0003B1D48015901EBE0B694A7949794879438
:10380000EA95D1F7F5E1000F111F221F331FFA953A
:10381000D1F7082919292A293B290C0D1D1D2E1D18
:103820003F1D89A89AA8ABA8BCA851EB851A51E8FE
:10383000950A57E5A50A50E9B50A480C591C6A1CB7
:103840007B1C4C015D0180949094A094B094802ADC
:10385000912AA22AB32A8C249D24AE24BF24840C4E
:10386000951CA61CB71C2401350146E0440C551CD0
:10387000661C771C4A95D1F75AE1B694A7949794A1
:1038800087945A95D1F784289528A628B728800EC2
:10389000911EA21EB31E61964CAC5DAC6EAC7FACAB
:1038A0006197E0E24E1AE9E15E0AE3ED6E0AE1E0BB
:1038B0007E0A840D951DA61DB71D26013701409473
:1038C000509460947094482859286A287B28402690
:1038D000512662267326840D951DA61DB71D2C0149
:1038E0003D01EAE0440C551C661C771CEA95D1F7B3
:1038F000F6E1B695A79597958795FA95D1F784291E
:103900009529A629B729880D991DAA1DBB1D49A473
:103910005AA46BA47CA4FCEE4F1AFCEB5F0AFEEFEA
:103920006F0AFCE57F0AC40CD51CE61CF71C2801B5
:1039300039014094509460947094482A592A6A2A14
:103940007B2A482459246A247B24C40CD51CE61CF9
:10395000F71C260137014FE0440C551C661C771CF0
:103960004A95D1F751E1F694E794D794C7945A95C4
:10397000D1F7C428D528E628F728C80ED91EEA1E94
:10398000FB1E29964CAC5DAC6EAC7FAC29974FE525
:10399000441A4EEE540A47EF640A41EB740A400E93
:1039A000511E621E731E950184010095109520958D
:1039B00030950C291D292E293F29082719272A2748
:1039C0003B27040D151D261D371D28013901EBE08D
:1039D0007694679457944794EA95D1F7F5E1000FF0
:1039E000111F221F331FFA95D1F704291529262903
:1039F00037290C0D1D1D2E1D3F1D49A05AA06BA07F
:103A00007CA05EE7451A51E8550A5CEA650A58E071
:103A1000750A840C951CA61CB71C2C013D01409412
:103A2000509460947094402A512A622A732A4C243C
:103A30005D246E247F24840C951CA61CB71C2401D5
:103A4000350146E0440C551C661C771C4A95D1F79D
:103A50005AE1B694A794979487945A95D1F78428FD
:103A60009528A628B728800E911EA21EB31E219667
:103A70004CAC5DAC6EAC7FAC2197EBEC4E1AEDE03C
:103A80005E0AE5EC6E0AE2E47E0A840D951DA61D31
:103A9000B71D2601370140945094609470944828D3
:103AA00059286A287B284026512662267326840DD1
:103AB000951DA61DB71D2C013D01EAE0440C551CC7
:103AC000661C771CEA95D1F7F6E1B695A795979510
:103AD0008795FA95D1F784299529A629B729880DC4
:103AE000991DAA1DBB1D498C5A8C6B8C7C8CF5E4EE
:103AF0004F1AFDE25F0AF8E26F0AF5ED7F0AC40C87
:103B0000D51CE61CF71C28013901409450946094A0
:103B10007094482A592A6A2A7B2A482459246A24FC
:103B20007B24C40CD51CE61CF71C260137014FE092
:103B3000440C551C661C771C4A95D1F751E1F6944C
:103B4000E794D794C7945A95D1F7C428D528E62886
:103B5000F728C80ED91EEA1EFB1E4DA85EA86FA846
:103B600078AC4FE6441A4CE2540A49E7640A44E14F
:103B7000740A040D151D261D371D240135014094BE
:103B80005094609470944C285D286E287F284826B5
:103B900059266A267B26040D151D261D371D280172
:103BA0003901EBE07694679457944794EA95D1F7FE
:103BB000F5E1000F111F221F331FFA95D1F70429D9
:103BC00015292629372965964CAC5DAC6EAC7FACC7
:103BD0006597480C591C6A1C7B1C65964CAE5DAE03
:103BE0006EAE7FAE65970C0D1D1D2E1D3F1D6980AD
:103BF0007A808B809C80600E711E821E931E69826B
:103C00007A828B829C828D809E80AF80B8848C0C5F
:103C10009D1CAE1CBF1C8D829E82AF82B886AD8477
:103C2000BE84CF84D888A80EB91ECA1EDB1EAD86FE
:103C3000BE86CF86D88A67962EAD3FAD6797205453
:103C4000310967963FAF2EAF6797605C7F4F232B9C
:103C500011F00C949C0D65968CAD9DADAEADBFADD5
:103C60006597C158DF4FE881F981CF57D0408087F1
:103C70009187A287B38749805A806B807C80448675
:103C80005586668677864D805E806F807884408A10
:103C9000518A628A738AA48AB58AC68AD78AE696C6
:103CA0008FADE697E7969FADE797C058DF4F0FB609
:103CB000F894DEBF0FBECDBFDF91CF911F910F9162
:103CC000FF90EF90DF90CF90BF90AF909F908F903C
:103CD0007F906F905F904F903F902F900895CF937B
:103CE000DF93FC0181E093E2A5E4B7E6808791874A
:103CF000A287B38789E89BEAADECBFEE84879587FE
:103D0000A687B7878EEF9CEDAAEBB8E9808B918BE5
:103D1000A28BB38B86E794E5A2E3B0E1848B958B0D
:103D2000A68BB78B108211821282138214821582A5
:103D300016821782DF01A85ABF4F80E4ED01982F49
:103D400019929A95E9F77896DF011D928A95E9F71D
:103D5000DF91CF9108958F929F92AF92BF92CF92B1
:103D6000DF92EF92FF920F931F93CF93DF93EC01BB
:103D70006B017A01088119812A813B81CA01A0E087
:103D8000B0E0AC01BD01400F511F621F731F7F7176
:103D9000488359836A837B834017510762077307FF
:103DA00060F44C815D816E817F814F5F5F4F6F4F0B
:103DB0007F4F4C835D836E837F830F731127222790
:103DC0003327011511052105310549F140E4842E01
:103DD000912CA12CB12C801A910AA20AB30A085E78
:103DE0001F4F88159905AA05BB0530F4A701B60138
:103DF000CE01800F911F25C0A401B601CE01800F16
:103E0000911F0E94E32DC80CD91CE818F90840E462
:103E100050E0BE01685E7F4FCE010E94A30C80E49B
:103E2000E816F10450F0A701407CB601CE010E94D3
:103E3000A30C6C018FE3E822FF24A701B601CE0199
:103E40004896DF91CF911F910F91FF90EF90DF90F7
:103E5000CF90BF90AF909F908F900C94E32DCF9216
:103E6000DF92EF92FF920F931F93CF93DF938C011A
:103E7000EB01C880D980EA80FB802FE3C222DD24D9
:103E8000EE24FF24D701C6010196A11DB11DFB013F
:103E9000EC0DFD1D20E8208F4FE350E060E070E066
:103EA0004C195D096E097F09FE0178967F01483043
:103EB000510561057105A0F4489660E070E08C0F33
:103EC0009D1F0E94EC2D40E450E0B701CE010E94FE
:103ED000A30C40E450E060E070E080E090E0DC01A2
:103EE00048505109489660E070E08C0F9D1F0E9479
:103EF000EC2D88819981AA81BB8123E0880F991FCD
:103F0000AA1FBB1F2A95D1F788839983AA83BB83F5
:103F1000FE01E05BFF4F8083319690833196A08352
:103F20003196B0833C812D819E818F813196308383
:103F300031962083319690833196808340E450E01F
:103F4000B701CE010E94A30C8885F8018083898582
:103F500081838A8582838B8583838C8584838D8509
:103F600085838E8586838F858783888980878989E5
:103F700081878A8982878B8983878C8984878D89C9
:103F800085878E8986878F89878788E9FE011192C8
:103F90008A95E9F7DF91CF911F910F91FF90EF90F4
:103FA000DF90CF900895CF92DF92EF92FF920F9320
:103FB0001F93CF93DF93CDB7DEB7C859D1090FB6A2
:103FC000F894DEBF0FBECDBF7C016B0180E190E0B5
:103FD0000E94BF278C01CE0101960E946F1EA60190
:103FE000B701CE0101960E94AB1EBE016F5F7F4FED
:103FF000C8010E942F1FC801C856DF4F0FB6F894A2
:10400000DEBF0FBECDBFDF91CF911F910F91FF900B
:10401000EF90DF90CF900895CF93DF931F92CDB7AD
:10402000DEB76983DC01ED91FC910280F381E02D24
:1040300041E050E0BE016F5F7F4F09950F90DF9127
:10404000CF9108950895FC011382128288EE93E0C7
:10405000A0E0B0E084839583A683B7838FE291E0EC
:104060009183808380E5848781E085878AE090E082
:104070009787868789E090E0918B808B82E090E043
:10408000938B828B148A158A168A178A118E108E4A
:10409000138E128E158E148E40E050E0BA01CF01BF
:1040A0000C94E626FC0177876687518B408B338B17
:1040B000228B0895EF92FF921F93CF93DF931F926D
:1040C000CDB7DEB77C01162F60E0FC018685498301
:1040D0000E94562AF7015485358580918C38498194
:1040E000882399F02FB7F89480918C38813059F457
:1040F0008DB380938A389DB380918B3880958923C6
:104100008DBB2FBF02C020938A385CBD3DBD1EBD54
:1041100000000DB407FEFDCF8EB54EBD00000DB4FE
:1041200007FEFDCF1EB580918C38882361F08FB7D4
:10413000F89420918C3890918A38213019F49DBBE5
:104140008FBF01C09FBF61E0F70186850E94562A9C
:10415000812F0F90DF91CF911F91FF90EF900895E5
:104160006F7740E00C945A2068E10C94B0200F93D4
:104170001F93CF93DF938C016AE10E94B020C82F78
:10418000D0E0F80164897589868997890E94E82BB7
:1041900024ED30E843E45EE40E94E12B87FD27979D
:1041A000CE018D599109DF91CF911F910F91089503
:1041B000CF93DF93EC0163E10E94B020282F30E021
:1041C000888D998DA901481B590BCA01DF91CF91A8
:1041D0000895CF93DF93EC01E881F9810480F581A4
:1041E000E02D0995892B59F0888D998D0196998F2D
:1041F000888F60E0CE010E94B02090E002C08FEF77
:104200009FEFDF91CF9108950F931F93CF93DF938B
:10421000EC0166E00E94B020182F67E0CE010E94FA
:10422000B020082F68E0CE010E94B020402F50E05F
:1042300060E070E0762F652F542F4427612B8A01B0
:104240009B01082BC901B80120E038E448EE51E099
:104250000E94B02C03E10E94552DB901CA01DF91E3
:10426000CF911F910F9108956DE10E94B020E82F2A
:10427000F0E084E0F595E7958A95E1F7EA30F105FD
:10428000F8F4EA5BFF4F0C949C2C60EA78E21EC0C5
:1042900060E471E51BC062E17AE718C064EE72EA7F
:1042A00015C064E274EF12C068E478EE81E00FC0DC
:1042B00060E970ED83E00BC060E271EA87E007C05F
:1042C000089568E77EE102C060EF7CE380E090E063
:1042D00008956CE20C94B020CF93DF93EC0143E897
:1042E00061E80E945A2062E1CE010E94B02083FD65
:1042F00003C00E94862AF7CF48E062E9CE010E94FF
:104300005A2081E090E0DF91CF9108958F929F92A3
:10431000AF92BF92CF92DF92FF920F931F93CF93F2
:10432000DF931F92CDB7DEB76C01B62E4A0162E271
:1043300079830E94B020F82E90E09C01280D391D51
:1043400079812F3F310531F028F02FEF30E049011E
:10435000881A990A0B2D172F5801A80CB91C0A1599
:104360001B0541F0F80141918F0160E8C6010E94F0
:104370005A20F5CF482D4F0D62EAC6010E945A20FF
:10438000C4010F90DF91CF911F910F91FF90DF90AB
:10439000CF90BF90AF909F908F900895EF92FF9233
:1043A0001F93CF93DF931F92CDB7DEB77C01DC0163
:1043B000ED91FC910480F581E02D0995892B99F010
:1043C0006DE0C7010E94B020482F60E0C70149831B
:1043D0000E94B020182F49816DE8C7010E945A2021
:1043E000812F90E002C08FEF9FEF0F90DF91CF9170
:1043F0001F91FF90EF900895CF93DF93EC017D8F95
:104400006C8F672BA9F160E08A890E941A2A40E02C
:1044100060ECCE010E945A208A899B8982309105E6
:1044200039F08A30910531F00B9731F08FEF05C0EC
:1044300082E003C080E001C081E00E9445258A89B6
:104440009B898230910539F08A30910531F00B97C4
:1044500031F08FEF05C082E003C080E001C081E051
:1044600043E050E064ED74E2DF91CF910C94882A30
:104470008A899B898230910539F08A30910531F023
:104480000B9731F08FEF05C082E003C080E001C0E0
:1044900081E00E94B72A8A899B898230910539F090
:1044A0008A30910531F00B9731F08FEF05C082E033
:1044B00003C080E001C081E0DF91CF910C946425BE
:1044C00041E861E80C945A2040E861E80C945A20D5
:1044D0000E9464220C9431258F929F92AF92BF92DA
:1044E000CF92DF92EF92FF920F931F93CF93DF93C0
:1044F0001F92CDB7DEB74C01DB01CA01F401448B3A
:10450000558B668B778B6A017B01FF0CCC08DC2C0A
:1045100076019A01AD016C2D7C2D8C2D9C2D03E133
:104520000E943A2DA12CE8E4BE2EF8EECF2EDD2419
:10453000D394E12CF12C00E010E00E94DD2C690105
:104540007A01A7016627772766E8C40129830E94BC
:104550005A2077276F2D5E2D4D2D67E8C4010E94EC
:104560005A202981422F68E8C4010F90DF91CF9132
:104570001F910F91FF90EF90DF90CF90BF90AF9081
:104580009F908F900C945A20CF92DF92EF92FF92DF
:10459000CF93DF93EC016A017B0161E08E850E947D
:1045A0001A2A61E08E850E94562A888999898F3F50
:1045B0002FEF9207B9F061E00E941A2A60E0888923
:1045C0000E94562A6AE070E080E090E00E9467292D
:1045D00061E088890E94562A6AE070E080E090E0FD
:1045E0000E9467290E94FB2462E4CE010E94B02051
:1045F000823161F5CE010E946422B701A601CE018D
:104600000E946C2240E06EE8CE010E945A2040E0F9
:104610006FE8CE010E945A206CE0CE010E94B020CB
:10462000482F43606CE8CE010E945A2044E066EABD
:10463000CE010E945A2040E869E8CE010E945A202B
:10464000CE010E94602281E090E002C080E090E014
:10465000DF91CF91FF90EF90DF90CF9008950F936F
:104660001F93CF93DF938C01EB016630710534F01B
:104670006D30710584F46630710579F445EC61EBB9
:10468000C8010E945A204CE067EBC8010E945A20E2
:10469000C6E0D0E00CC0CCE0D0E043EC61EBC80158
:1046A0000E945A204AE067EBC8010E945A206EE13E
:1046B000C8010E94B02094E0CC0FDD1F9A95E1F76D
:1046C0008F704C2F482B6EE9C801DF91CF911F915D
:1046D0000F910C945A20CF92DF92EF92FF920F939A
:1046E0001F93CF93DF938C01CB01BA010E94E82B7B
:1046F0006B017C0120E030EC43EF55E40E94E12B9C
:1047000018160CF056C020E030E842E256E4C7012B
:10471000B6010E94E12B18160CF04EC020E030ECE0
:1047200043E756E4C701B6010E94E12B18160CF0CE
:1047300046C020E030E842EA56E4C701B6010E94D4
:10474000E12B18160CF03EC020E034E244EF56E4B2
:10475000C701B6010E94E12B1816BCF520E034EE2B
:1047600042E257E4C701B6010E94E12B181684F516
:1047700020E034E244E757E4C701B6010E94E12B90
:1047800018164CF520E034E244EF57E4C701B601B7
:104790000E94E12B181614F520E034E244E758E4B7
:1047A000C701B6010E94E12B1816DCF4C9E0D0E085
:1047B0001AC0C0E0D0E017C0C1E0D0E014C0C2E031
:1047C000D0E011C0C3E0D0E00EC0C4E0D0E00BC028
:1047D000C5E0D0E008C0C6E0D0E005C0C7E0D0E04A
:1047E00002C0C8E0D0E06DE1C8010E94B02094E0B2
:1047F000CC0FDD1F9A95E1F78F704C2F482B6DE998
:10480000C801DF91CF911F910F91FF90EF90DF9042
:10481000CF900C945A200F931F93CF93DF938C016A
:10482000653071053CF0EB01693071052CF0C8E092
:10483000D0E002C0C5E0D0E06DE1C8010E94B02028
:104840002497CC0FDD1F817F4C2F482B6DE9C801C9
:10485000DF91CF911F910F910C945A20CF93DF934A
:10486000EC016EE10E94B020482F44606EE9CE0159
:10487000DF91CF910C945A20CF93DF93EC011B8EE4
:104880001A8E6DE10E94B020482F4E7F6DE9CE0157
:10489000DF91CF910C945A20CF93DF93EC0181E00C
:1048A00090E09B8F8A8F6DE1CE010E94B020482F4F
:1048B00041606DE9CE01DF91CF910C945A200F93A6
:1048C0001F93CF93DF93EC018B010E946022CE01F6
:1048D000012B19F00E944C2402C00E943C2440E0AD
:1048E0006DE8CE010E945A2040E062EACE010E94AB
:1048F0005A2081E090E0DF91CF911F910F910895B0
:104900000F931F93CF93DF93EC018B0116161706BD
:1049100044F40E944C24402F62EACE010E945A20A7
:1049200002C00E943C2445E861E8CE01DF91CF91AE
:104930001F910F910C945A201F93CF93DF93EC019A
:1049400062E10E94B020182F482F62E9CE010E9438
:104950005A2015FD25C0198E188E8A8D9B8D892BA6
:1049600011F062E201C063E1CE010E94B020182F75
:1049700060E1CE010E94B020482F6DE8CE010E9478
:104980005A20EC8DFD8D309719F0812F90E009951C
:1049900040E06DE8CE01DF91CF911F910C945A2039
:1049A000DF91CF911F9108958CE698E30C949C249D
:1049B000452B61F46F30710514F06EE070E077FF05
:1049C00002C060E070E0462F40670EC062307105A3
:1049D00034F0623171052CF061E170E002C062E0F8
:1049E00070E06250462F406869E80C945A208CE6CB
:1049F00098E30C942320CF93CFB7F89480918D380F
:104A0000811127C0ECE0F1E08491ECEEF0E09491AC
:104A1000E82FF0E0EE0FFF1FEE5CFE4FA591B49182
:104A2000EC91E92321F461E084E00E94562A61E0E0
:104A300084E00E941A2A8CB580618CBD8CB580649C
:104A40008CBD61E087E00E941A2A61E085E00E9447
:104A50001A2A80918D388F5F80938D38CFBFCF9188
:104A600008959FB7F89480918D38882319F081506C
:104A700080938D3880918D38811105C08CB58F7BE6
:104A80008CBD10928C389FBF08959FB7F8948130E9
:104A900029F058F0823021F484E008C082E006C09A
:104AA00082E080938C3880E001C081E020918B38D7
:104AB000822B80938B3880918C38811103C081E0E8
:104AC00080938C389FBF089590918C389230B1F0CC
:104AD0002FB7F894833030F4E82FF0E0E55CFE4F18
:104AE000808101C080E0809590918B3889238093EC
:104AF0008B38811102C010928C382FBF0895CF924D
:104B0000DF92EF92FF920F931F93CF93DF936C018D
:104B10007A018B01C0E0D0E0CE15DF0589F0D80125
:104B20006D918D01D601ED91FC910190F081E02D08
:104B3000C6010995892B11F47E0102C02196ECCFA4
:104B4000C701DF91CF911F910F91FF90EF90DF9000
:104B5000CF900895FC01918D228D892F90E0805C8B
:104B60009F4F821B91098F7399270895FC01918DA6
:104B7000828D981731F0828DE80FF11D858D90E0C0
:104B800008958FEF9FEF0895FC01918D828D981706
:104B900061F0828DDF01A80FB11D5D968C91928D21
:104BA0009F5F9F73928F90E008958FEF9FEF08951E
:104BB0008CE497E2892B41F080E090E0892B21F092
:104BC0000E944C2781110DC080E090E0892B71F08C
:104BD00080E090E0892B51F00E940000811104C018
:104BE00008950E940000F0CF0C9400000895FC018D
:104BF000848DDF01A80FB11DA35ABF4F2C91848D66
:104C000090E001968F739927848FA689B7892C939A
:104C1000A089B1898C9180648C93938D848D981335
:104C200006C00288F389E02D80818F7D80830895FE
:104C3000CF93DF93EC01888D8823C9F0EA89FB8943
:104C4000808185FD05C0A889B9898C9186FD0FC03A
:104C50000FB607FCF5CF808185FFF2CFA889B9890F
:104C60008C9185FFEDCFCE010E94F725E7CFDF9134
:104C7000CF910895EF92FF920F931F93CF93DF93FD
:104C8000EC0181E0888F9B8D8C8D981305C0E8899D
:104C9000F989808185FD24C0F62E0B8D10E00F5F11
:104CA0001F4F0F731127E02E8C8DE8120CC00FB62A
:104CB00007FCFACFE889F989808185FFF5CFCE011D
:104CC0000E94F725F1CF8B8DFE01E80FF11DE35A0D
:104CD000FF4FF0820B8FEA89FB898081806207C0D9
:104CE000EE89FF896083E889F98980818064808307
:104CF00081E090E0DF91CF911F910F91FF90EF90B5
:104D00000895CF92DF92EF92FF921F93CF93DF939C
:104D1000EC016A017B01122FE889F98982E0808326
:104D20004115514E61057105B1F060E079E08DE308
:104D300090E0A70196010E945B2CDA01C90101975E
:104D4000A109B109B695A79597958795AC0141152D
:104D500080E15807A8F0E889F989108260E874E8D2
:104D60008EE190E0A70196010E945B2CBA01A90197
:104D70004150510961097109769567955795479595
:104D8000EC85FD855083EE85FF854083188EEC8988
:104D9000FD891083EA89FB89808180618083EA89AB
:104DA000FB89808188608083EA89FB8980818068B3
:104DB0008083EA89FB8980818F7D8083DF91CF9119
:104DC0001F91FF90EF90DF90CF900895FC014483F6
:104DD00055836683778308951F920F920FB60F92C3
:104DE00011240BB60F922F938F939F93EF93FF9302
:104DF000E0919E38F0919F388081E091A438F09145
:104E0000A53882FD12C090818091A7388F5F8F7383
:104E10002091A838821751F0E091A738F0E0E257CE
:104E2000F74C958F8093A73801C08081FF91EF9157
:104E30009F918F912F910F900BBE0F900FBE0F90EF
:104E40001F9018951F920F920FB60F9211240BB658
:104E50000F922F933F934F935F936F937F938F9313
:104E60009F93AF93BF93EF93FF938EE898E30E94D5
:104E7000F725FF91EF91BF91AF919F918F917F9116
:104E80006F915F914F913F912F910F900BBE0F90BB
:104E90000FBE0F901F9018958EE898E30E94AA25E8
:104EA00021E0892B09F420E0822F0895EEE8F8E351
:104EB0001382128288EE93E0A0E0B0E084839583B1
:104EC000A683B78382E491E09183808385EC90E0B0
:104ED0009587848784EC90E09787868780EC90E0C4
:104EE000918B808B81EC90E0938B828B82EC90E0B5
:104EF000958B848B86EC90E0978B868B118E128E2F
:104F0000138E148E089508950E94A3290E9483276A
:104F10000E943A07C8EDD5E20E941E0C2097E1F3EB
:104F20000E94D825F9CF009729F0BC0180E090E0DD
:104F30000C94DA2D0895CF93DF9300D000D0CDB735
:104F4000DEB7611571058105910579F09B01AC0112
:104F500069833A834B835C830E94D62D29813A81F1
:104F60004B815C810E947D2C03C060E070E0CB012E
:104F70000F900F900F900F90DF91CF910895CF93E6
:104F8000DF938230910510F482E090E0E0913639B1
:104F9000F091373920E030E0C0E0D0E0309711F1F7
:104FA0004081518148175907C0F04817590761F4EB
:104FB00082819381209719F09B838A832BC09093E1
:104FC00037398093363926C02115310519F042173B
:104FD000530718F49A01BE01DF01EF010280F3814B
:104FE000E02DDCCF2115310509F1281B390B2430C8
:104FF000310590F412968D919C911397611571056E
:1050000021F0FB019383828304C09093373980930E
:105010003639FD01329644C0FD01E20FF31F819342
:105020009193225031092D933C933AC02091343909
:1050300030913539232B41F4209120013091210109
:10504000309335392093343920911E0130911F015E
:105050002115310541F42DB73EB740912201509101
:105060002301241B350BE0913439F0913539E217D7
:10507000F307A0F42E1B3F0B2817390778F0AC017B
:105080004E5F5F4F2417350748F04E0F5F1F509358
:105090003539409334398193919302C0E0E0F0E0D8
:1050A000CF01DF91CF9108950F931F93CF93DF939B
:1050B000009709F48CC0FC01329713821282009190
:1050C0003639109137390115110581F4208131816C
:1050D000820F931F209134393091353928173907C1
:1050E00079F5F0933539E093343971C0D80140E057
:1050F00050E0AE17BF0750F412962D913C911397D4
:10510000AD012115310509F1D901F3CF9D01DA0176
:105110003383228360817181860F971F82179307E3
:1051200069F4EC0128813981260F371F2E5F3F4F2C
:10513000318320838A819B8193838283452B29F449
:10514000F0933739E093363942C01396FC93EE93CF
:105150001297ED01499159919E01240F351FE217D5
:10516000F30771F480819181840F951F0296119647
:105170009C938E938281938113969C938E93129726
:10518000E0E0F0E0D80112968D919C911397009782
:1051900019F0F8018C01F6CF8D919C9198012E5F4A
:1051A0003F4F820F931F20913439309135392817A2
:1051B000390769F4309729F410923739109236394B
:1051C00002C0138212821093353900933439DF9173
:1051D000CF911F910F9108951F920F920FB60F92CA
:1051E00011242F933F938F939F93AF93BF938091FD
:1051F0002C3990912D39A0912E39B0912F393091C1
:105200002B3923E0230F2D3720F40196A11DB11D6A
:1052100005C026E8230F0296A11DB11D20932B394E
:1052200080932C3990932D39A0932E39B0932F3938
:105230008091303990913139A0913239B091333920
:105240000196A11DB11D8093303990933139A093FF
:105250003239B0933339BF91AF919F918F913F9184
:105260002F910F900FBE0F901F9018952FB7F894A5
:1052700060912C3970912D3980912E3990912F3970
:105280002FBF08953FB7F89480913039909131390C
:10529000A0913239B091333926B5A89B05C02F3F74
:1052A00019F00196A11DB11D3FBFBA2FA92F982F4C
:1052B0008827820F911DA11DB11DBC01CD0142E0C7
:1052C000660F771F881F991F4A95D1F708958F920F
:1052D0009F92AF92BF92CF92DF92EF92FF926B01BB
:1052E0007C010E9442294B015C01C114D104E104FC
:1052F000F10401F10E94862A0E944229DC01CB01BF
:1053000088199909AA09BB09883E9340A105B105EE
:1053100060F321E0C21AD108E108F10888EE880E96
:1053200083E0981EA11CB11CC114D104E104F10456
:1053300019F7DBCFFF90EF90DF90CF90BF90AF9049
:105340009F908F900895789484B5826084BD84B5D1
:10535000816084BD85B5826085BD85B5816085BD70
:10536000EEE6F0E0808181608083E1E8F0E0108289
:10537000808182608083808181608083E0E8F0E0CA
:10538000808181608083E1EBF0E0808184608083B4
:10539000E0EBF0E0808181608083E1E9F0E08081F2
:1053A00082608083808181608083E0E9F0E0808199
:1053B00081608083EAE7F0E080818460808380817F
:1053C0008260808380818160808380818068808327
:1053D0001092C100089590E0FC013197EA30F10588
:1053E00040F5E05BFF4F0C949C2C809180008F7700
:1053F00003C0809180008F7D80938000089584B5E4
:105400008F7702C084B58F7D84BD08958091B000F0
:105410008F7703C08091B0008F7D8093B000089596
:10542000809190008F7703C0809190008F7D809352
:1054300090000895CF93DF9390E0FC01E851FF4F77
:105440002491FC01E85FFE4F8491882361F190E094
:10545000880F991FFC01EE5CFE4FC591D491FC01B1
:10546000E85DFE4FA591B491611109C09FB7F89412
:105470008881209582238883EC912E230BC0623093
:1054800061F49FB7F8943881822F809583238883B5
:10549000EC912E2B2C939FBF06C08FB7F894E88118
:1054A0002E2B28838FBFDF91CF9108951F93CF9329
:1054B000DF93282F30E0F901E853FF4F8491F90181
:1054C000E851FF4FD491F901E85FFE4FC491CC231E
:1054D000C9F0162F81110E94EB29EC2FF0E0EE0F9E
:1054E000FF1FE85DFE4FA591B4918FB7F89411119D
:1054F00005C09C91ED2FE095E92302C0EC91ED2BC6
:10550000EC938FBFDF91CF911F9108950895089577
:10551000833060F5E82FF0E0EE0FFF1FEC5DFE4FEB
:1055200071836083813051F08230A1F080916900F5
:105530008C7F482B40936900E89A08958091690018
:10554000440F551F440F551F837F482B409369001C
:10555000E99A08958091690094E0440F551F9A9547
:10556000E1F78F7C482B40936900EA9A08958330D5
:1055700098F4813021F0823021F0E89803C0E99856
:1055800001C0EA98E82FF0E0EE0FFF1FEC5DFE4F40
:1055900087E89AE29183808308951F920F920FB655
:1055A0000F9211240BB60F922F933F934F935F935B
:1055B0006F937F938F939F93AF93BF93EF93FF93DB
:1055C000E0912401F09125010995FF91EF91BF91A0
:1055D000AF919F918F917F916F915F914F913F918B
:1055E0002F910F900BBE0F900FBE0F901F9018952C
:1055F0001F920F920FB60F9211240BB60F922F939A
:105600003F934F935F936F937F938F939F93AF934A
:10561000BF93EF93FF93E0912601F0912701099545
:10562000FF91EF91BF91AF919F918F917F916F917A
:105630005F914F913F912F910F900BBE0F900FBE36
:105640000F901F9018951F920F920FB60F92112472
:105650000BB60F922F933F934F935F936F937F936C
:105660008F939F93AF93BF93EF93FF93E0912801A4
:10567000F09129010995FF91EF91BF91AF919F9111
:105680008F917F916F915F914F913F912F910F90EB
:105690000BBE0F900FBE0F901F901895883028F00A
:1056A000883110F0885101C08FEF877020912A0156
:1056B00090E4299F90011124822B80937C0080919B
:1056C0007A00806480937A0080917A0086FDFCCF16
:1056D000809178002091790090E0922B08951F939B
:1056E000CF93DF93182FEB0161E00E941A2A2097D5
:1056F00011F460E004C0CF3FD10539F461E0812F9F
:10570000DF91CF911F910C94562AE12FF0E0E853DE
:10571000FF4FE4914E2F50E0FA013197EA30F10546
:1057200008F046C0E65AFF4F0C949C2C84B5806864
:1057300084BDC7BD42C084B5806284BDC8BD3DC0C4
:1057400080918000806880938000D0938900C0930E
:10575000880033C080918000806280938000D09365
:105760008B00C0938A0029C08091B000806880932C
:10577000B000C093B30021C08091B00080628093DC
:10578000B000C093B40019C08091900080688093ED
:105790009000D0939900C09398000FC08091900022
:1057A000806280939000D0939B00C0939A0005C0C4
:1057B000C038D1050CF0A2CF9CCFDF91CF911F91C3
:1057C00008950E94232C08F481E00895E89409C00C
:1057D00097FB3EF490958095709561957F4F8F4F24
:1057E0009F4F9923A9F0F92F96E9BB279395F6953A
:1057F000879577956795B795F111F8CFFAF4BB0FB8
:1058000011F460FF1BC06F5F7F4F8F4F9F4F16C01B
:10581000882311F096E911C0772321F09EE8872FA5
:10582000762F05C0662371F096E8862F70E060E061
:105830002AF09A95660F771F881FDAF7880F9695DA
:10584000879597F90895990F0008550FAA0BE0E87E
:10585000FEEF16161706E807F907C0F01216130632
:10586000E407F50798F0621B730B840B950B39F472
:105870000A2661F0232B242B252B21F408950A26D8
:1058800009F4A140A6958FEF811D811D0895AA1BE3
:10589000BB1B51E107C0AA1FBB1FA617B70710F01B
:1058A000A61BB70B881F991F5A95A9F7809590954D
:1058B000BC01CD010895A1E21A2EAA1BBB1BFD015C
:1058C0000DC0AA1FBB1FEE1FFF1FA217B307E407DF
:1058D000F50720F0A21BB30BE40BF50B661F771F37
:1058E000881F991F1A9469F7609570958095909517
:1058F0009B01AC01BD01CF010895052E97FB1EF45D
:1059000000940E94942C57FD07D00E945B2C07FC4A
:1059100003D04EF40C94942C5095409530952195DD
:105920003F4F4F4F5F4F08959095809570956195CB
:105930007F4F8F4F9F4F0895EE0FFF1F0024001CD5
:105940000BBE0790F691E02D09940E94712DA59F42
:10595000900DB49F900DA49F800D911D112408956A
:10596000E894DF93CF93FC01DB010E94712D7F93BC
:105970006F93E9019A01AC01BF93AF933F932F93CB
:10598000DF010E94712D26F46C1B7D0B820B930BA3
:105990009E01EB01FC010E94802DAF91BF912F91E0
:1059A0003F910E94802DBE01CF01F9012F913F91BF
:1059B000CF91DF910895689401C0E8948F929F92EF
:1059C000CF93DF930E94E92CDF91CF919F908F902E
:1059D000089588249924F401E401B0E49F93AA2750
:1059E0009A158B049C04ED05FE05CF05D007A10791
:1059F00098F4AD2FDC2FCF2FFE2FE92D982C892E78
:105A0000982F872F762F652F542F432F322F222741
:105A1000B85031F7BF9127C01B2EBF91BB27220F73
:105A2000331F441F551F661F771F881F991F881C2F
:105A3000991CEE1FFF1FCC1FDD1FAA1FBB1F8A145E
:105A40009B04EC05FD05CE05DF05A007B10748F076
:105A50008A189B08EC09FD09CE09DF09A00BB10BE0
:105A600021601A94E1F62EF49401AF01BE01CD013C
:105A7000000C08950F93083090F0982F872F762F01
:105A8000652F542F432F322F22270850F4CF220F97
:105A9000331F441F551F661F771F881F991F0A95C4
:105AA000B2F70F91089597FB10F8169400080F9322
:105AB000083098F00850232F342F452F562F672F8A
:105AC000782F892F902DF4CF05949795879577950A
:105AD000679557954795379527950A95AAF70F919A
