:100000000C94A1000C9402290C942D290C945829CD
:100010000C94CB000C94CB000C94CB000C94CB0034
:100020000C94CB000C94CB000C94CB000C94CB0024
:100030000C94CB000C94CB000C94CB000C94CB0014
:100040000C94CB000C94CB000C9422270C94CB0086
:100050000C9438250C946E250C94CB000C94CB009A
:100060000C94CB000C94CB000C94CB000C94CB00E4
:100070000C94CB000C94CB000C94CB000C94CB00D4
:100080000C94CB000C94CB000C94CB00CC1FB01F75
:10009000CF1FB31FB61FB91FBC1FBF1FC31FC71F72
:1000A000352838282B282F284F284F283C2840282F
:1000B00046284A28CB29D029D529DF290D2A0D2AFF
:1000C000E929F129F929032A000000010200090A9F
:1000D000000000000403080700000000000000000A
:1000E0000000000000000000010204081020408011
:1000F0000102040810204080010204081020408002
:1001000001020408102040800202020202020202E0
:1001100004040404040404040303030303030303A7
:100120000101010101010101000022002500280058
:100130002B0000002100240027002A00B5054423DD
:10014000A22511241FBECFEFD0E4DEBFCDBF11E04A
:10015000A0E0B1E0EEE2F9E500E00BBF02C00790DD
:100160000D92AE34B107D9F729E3AEE4B1E001C096
:100170001D92A833B207E1F710E0C1EAD0E004C055
:100180002197FE010E94D12ACE39D107C9F70E94DA
:10019000D0250C94952C0C9400001F93CF93DF93E3
:1001A000EC01162F0E94772C181739F0612FCE0121
:1001B000DF91CF911F910C947F2CDF91CF911F91F4
:1001C00008950C94772CDC01ED91FC910190F08165
:1001D000E02D099461E08CE00C948C2860E08CE0C8
:1001E0000C948C2861E08DE00C948C2860E08DE00C
:1001F0000C948C280F931F93CF93DF938C0100975F
:1002000011F0EC0102C0C1E0D0E01C161D060CF597
:1002100061E08CE00E948C2860E08DE00E948C28D8
:1002200064E670E080E090E00E949D2760E08CE052
:100230000E948C2861E08DE00E948C2864E670E0CA
:1002400080E090E00E949D2701151105F1F22197B1
:10025000DCCF60E08CE00E948C2860E08DE0DF91D4
:10026000CF911F910F910C948C280F931F93CF93D4
:10027000DF938C01009711F0EC0102C0C1E0D0E0E7
:1002800061E08DE00E948C2860E08DE01C161D0668
:10029000BCF40E948C2864E670E080E090E00E944C
:1002A0009D2761E08DE00E948C2864E670E080E08C
:1002B00090E00E949D270115110531F32197E4CFAD
:1002C000DF91CF911F910F910C948C280F931F9366
:1002D000CF93DF938C01009711F0EC0102C0C1E0D5
:1002E000D0E060E08CE01C161D06BCF40E948C2857
:1002F00064E670E080E090E00E949D2761E08CE081
:100300000E948C2864E670E080E090E00E949D27C7
:100310000115110531F32197E4CFDF91CF911F91A2
:100320000F910C948C2880914E0190914F01A091D7
:100330005001B09151010196A11DB11D80934E0154
:1003400090934F01A0935001B0935101409104014B
:1003500050910501609106017091070148175907F6
:100360006A077B0720F510924E0110924F01109200
:10037000500110925101609153018091090186173B
:1003800010F081E005C080910801681718F08FEF28
:100390008093520180915201680F6093530170E085
:1003A0008CE00E94A42960E08DE00C948C280895D4
:1003B00080914E0190914F01A0915001B091510157
:1003C0000196A11DB11D80934E0190934F01A09302
:1003D0005001B09351014091040150910501609189
:1003E000060170910701481759076A077B0720F536
:1003F00010924E0110924F01109250011092510133
:100400006091530180910901861710F081E005C0C9
:1004100080910801681718F08FEF80935201809146
:100420005201680F6093530170E08DE00E94A4298F
:1004300060E08CE00C948C28089560EC70E08EE80D
:1004400098E30E94E30066E070E08EE898E30E9483
:10045000E3006091613870E08EE898E30E94E30069
:1004600060EC70E08EE898E30C94E30060EC70E0E0
:100470008EE898E30E94E30067E070E08EE898E37E
:100480000E94E3006091190170E08EE898E30E94F9
:10049000E30060EC70E08EE898E30C94E30060EC1D
:1004A00070E08EE898E30E94E3006FE070E08EE871
:1004B00098E30E94E30061E070E08EE898E30E9418
:1004C000E30060EC70E08EE898E30C94E30060ECED
:1004D00070E08EE898E30E94E3006EE070E08EE842
:1004E00098E30E94E30080915F38882319F061E06F
:1004F00070E002C060E070E08EE898E30E94E300E4
:1005000060EC70E08EE898E30C94E30060EC70E03F
:100510008EE898E30E94E30068E070E08EE898E3DC
:100520000E94E30066E470E08EE898E30E94E30036
:1005300060EC70E08EE898E30C94E30060EC70E00F
:100540008EE898E30E94E30060E570E08EE898E3AF
:100550000E94E30061E070E08EE898E30E94E3000F
:1005600069E070E08EE898E30E94E30060EC70E0E0
:100570008EE898E30C94E30080916138882341F081
:1005800060916A3870916B388CE698E30C94112175
:10059000089580916138882341F060911C01709129
:1005A0001D018CE698E30C94ED210895809161384B
:1005B0008823E1F080915E38843A51F460911A0109
:1005C00070911B0140E050E08CE698E30E942523E7
:1005D00080915E38893A51F460911A0170911B0143
:1005E00041E050E08CE698E30C9425230895809137
:1005F0006138882361F08CE698E30E949F1F609326
:100600006638709367388093683890936938089596
:1006100080916138882371F0409166385091673835
:1006200060916838709169388CE698E30E944D219A
:100630000C94F702089580916138882361F08CE66C
:1006400098E30E946F1F60936238709363388093C1
:10065000643890936538089580916138882371F0EB
:100660004091623850916338609164387091653878
:100670008CE698E30E94C2200C941B03089580919D
:100680006138882321F08CE698E30C94D41F80E035
:100690000895C8E3DFE06FEFCE010E94CD00219600
:1006A000C11580E1D807B9F70E94F2000E94EE0060
:1006B000FBCF83ED9FE00E94E10091E0833709F0DA
:1006C00090E0892F089588E39FE00E94E10091E087
:1006D000833009F090E0892F089589E39FE00E941C
:1006E000E100982F80935E3881E0943A21F0993AA6
:1006F00011F080E0089508958AE39FE00E94E100F0
:1007000080935D389FEF980F81E09E3F08F080E076
:100710000895BF92CF92DF92EF92FF920F931F93B3
:10072000CF93DF938BE090E00E9401267C018C0147
:10073000C8E3DFE0CE010E94E100F80181938F0160
:100740002196C334FFE0DF07A9F76BE070E0C70133
:100750000E944B1EB82EC92E082F192FDD24D394CA
:10076000CE010E94E100F80191918F018913D12CF3
:100770002196C335FFE0DF0799F78B2D9C2D0E9452
:100780009926C7010E9499268D2DDF91CF911F9147
:100790000F91FF90EF90DF90CF90BF9008958FED75
:1007A0009FE00E94E10091E0833709F090E0892FFB
:1007B0000895CF92DF92EF92FF92CF930E94CF03E2
:1007C000882309F463C084ED9FE00E94E10090E07B
:1007D00090936B3880936A3885ED9FE00E94E1002A
:1007E00090E090931D0180931C0186ED9FE00E9494
:1007F000E10090E090931B0180931A018BED9FE044
:100800000E94E100C82F8CED9FE00E94E100C82EFD
:10081000D12CE12CF12C7601DD24CC24FC2A8DEDA9
:100820009FE00E94E100C82F8EED9FE00E94E10052
:10083000C82ADC2AC0926238D0926338E0926438C9
:10084000F092653887ED9FE00E94E100C82F88EDA7
:100850009FE00E94E100C82ED12CE12CF12C760102
:10086000DD24CC24FC2A89ED9FE00E94E100C82F02
:100870008AED9FE00E94E100C82ADC2AC092663817
:10088000D0926738E0926838F0926938CF91FF9043
:10089000EF90DF90CF90089580916038882309F41D
:1008A0008AC080916138882309F485C060916A38D4
:1008B00084ED9FE00E94CD0060911C0185ED9FE0DA
:1008C0000E94CD0060911A0186ED9FE00E94CD004C
:1008D0008091663890916738A0916838B0916938F6
:1008E0006B2F77278827992787ED9FE00E94CD00FF
:1008F0008091663890916738A0916838B0916938D6
:10090000BD018827992788ED9FE00E94CD00809146
:10091000663890916738A0916838B0916938692F2E
:100920007A2F8B2F992789ED9FE00E94CD0060914F
:1009300066388AED9FE00E94CD00809162389091E8
:100940006338A0916438B09165386B2F772788277A
:1009500099278BED9FE00E94CD00809162389091A5
:100960006338A0916438B0916538BD018827992714
:100970008CED9FE00E94CD008091623890916338A9
:10098000A0916438B0916538692F7A2F8B2F992701
:100990008DED9FE00E94CD00609162388EED9FE06A
:1009A0000E94CD0063E78FED9FE00E94CD008AE0BA
:1009B00090E00C9466018AE090E00C94350160E0D0
:1009C0008FED9FE00C94CD0082E390E00E94FA004E
:1009D0000E9449038CE698E30E94BE201092613881
:1009E00008958091623890916338A0916438B091F5
:1009F0006538892B8A2B8B2BE1F08091663890919A
:100A00006738A0916838B0916938892B8A2B8B2B75
:100A100081F080911A0190911B018F3F910549F05F
:100A200080916A3890916B38892B19F010921901D6
:100A3000089581E080931901089581E040916B0150
:100A400050916C012091690130916A01421753075E
:100A500009F480E0089580916B0190916C010196FA
:100A600069E170E00E947C2AAC0181E0209169017B
:100A700030916A014217530709F080E00895CF933F
:100A80008CE698E30E94221FC82F0E946C27609377
:100A90005D0170935E0180935F0190936001C0FFE0
:100AA00004C081E08093680102C010926801109236
:100AB0006701109266012091680180916101909117
:100AC00062012223B1F020911301309114018217A9
:100AD000930748F40196909362018093610181E04D
:100AE0008093650112C081E0809365018093640169
:100AF0000CC0009731F001979093620180936101DF
:100B000002C01092640110926501809164018823F3
:100B100019F0CF910C94EA00CF910C94EE000F9352
:100B20001F930E946C2700915D0110915E0120913E
:100B30005F0130916001DC01CB01801B910BA20BA6
:100B4000B30B00910F011091100120911101309110
:100B5000120180179107A207B30720F01F910F9190
:100B60000C943F051F910F91089580910901809386
:100B700053010895803C41F46BED70E08EE898E3FA
:100B80000E94E3008CED09C08B3D39F46BED70E001
:100B90008EE898E30E94E3008DED682F8EE898E3DD
:100BA0000C94642460EC70E08EE898E30E94E3000B
:100BB00061E270E08EE898E30E94E30080917401A6
:100BC0000E94BA05809173010E94BA05809172015A
:100BD0000E94BA05809171010E94BA0560EC70E034
:100BE0008EE898E30C94E30060EC70E08EE898E304
:100BF0000E94E30062E270E08EE898E30E94E30066
:100C0000809170010E94BA0580916F010E94BA051F
:100C100080916E010E94BA0580916D010E94BA0513
:100C200060EC70E08EE898E30C94E30060EC70E018
:100C30008EE898E30E94E30062E070E08EE898E3BB
:100C40000E94E300809169380E94BA05809168385B
:100C50000E94BA05809167380E94BA058091663873
:100C60000E94BA0560EC70E08EE898E30C94E30013
:100C700060EC70E08EE898E30E94E30061E070E0D1
:100C80008EE898E30E94E300809165380E94BA05DF
:100C9000809164380E94BA05809163380E94BA0539
:100CA000809162380E94BA0560EC70E08EE898E3AB
:100CB0000C94E300CF93DF93C8E3DFE0CE010E9402
:100CC000E1000E94BA052196C11580E1D807B1F76D
:100CD000DF91CF91089560EC70E08EE898E30E9478
:100CE000E30061E570E08EE898E30E94E3000E9473
:100CF0005A0660EC70E08EE898E30C94E300CF9322
:100D0000C82F60EC70E08EE898E30E94E30060E991
:100D100070E08EE898E30E94E3006C2F8EE898E381
:100D20000E94642460EC70E08EE898E3CF910C940C
:100D3000E300CF93DF93C82FD62F0E945903811170
:100D400002C0C83C28F083E0DF91CF910C947F066D
:100D50008C2F90E06D2F885C904FDF91CF910C9499
:100D6000CD000E94F10480916138811144C08091CE
:100D7000190181113CC0809160388823C1F14091F4
:100D800062385091633860916438709165388CE6B0
:100D900098E30E947E22892B41F481E00E947F0625
:100DA00080E090E00E94FA00089581E0809361382D
:100DB0000E94D6020E9408030E94BC020E94C9023F
:100DC0000E941B038CE698E30E94102268E07AE000
:100DD0008CE698E30E94522060E070E08CE698E395
:100DE0000E94622283E090E00E946601089583E001
:100DF00090E00E94350108950E945903882361F014
:100E00000E946303882341F00E946D03882321F030
:100E10000E947C03811103C01092603808950E94E3
:100E20008903882371F081E0809360380E94CF03AA
:100E3000882339F00E94D90382E1809318010C9431
:100E4000B106089580E00E9483290E94DF2526E0F4
:100E500040E052EC61E070E08EE898E30E94CD241F
:100E600061E08CE00E94502861E08DE00E945028F3
:100E700084EF91E0E7E6F6E3DF019C011D9221504B
:100E80003040E1F7E3E7F4E3DF019C011D922150DC
:100E90003040E1F784E0EFE6F4E3DF011D928A954C
:100EA000E9F784ED90E3E7EAF1E0DF019C011D92B0
:100EB00021503040E1F782E3E5E7F1E0DF011D92E8
:100EC0008A95E9F722E030E043E050E064E070E02A
:100ED0008CE698E30E94CA1E0C94FC06CF93DF9325
:100EE000EC0120916B0130916C01C901019669E11F
:100EF00070E00E947C2A4091690150916A01841738
:100F0000950749F1F901EE0FFF1FEB58FE4FD18312
:100F1000C08344EF51E0249FF001259FF00D349FE2
:100F2000F00D1124E955FE4FA3E7B4E39D012357CB
:100F300034432C173D0718F42D912193F7CF90934C
:100F40006C0180936B010E942B05811109C0DF9118
:100F5000CF910C944F0284E0DF91CF910C947F06E7
:100F6000DF91CF910895CF93C0911601CC5D60ECD5
:100F700070E08EE898E30E94E30063E270E08EE8A0
:100F800098E30E94E3006C2F8EE898E30E946424AB
:100F900060EC70E08EE898E3CF910C94E30060EC95
:100FA00070E08EE898E30E94E30064E070E08EE871
:100FB00098E30E94E30060916A388EE898E30E940B
:100FC000642460EC70E08EE898E30C94E30060EC3D
:100FD00070E08EE898E30E94E30065E070E08EE840
:100FE00098E30E94E30060911C018EE898E30E9460
:100FF000642460EC70E08EE898E30C94E30060EC0D
:1010000070E08EE898E30E94E30063E070E08EE811
:1010100098E30E94E30060911A018EE898E30E9431
:10102000642460EC70E08EE898E30C94E300CF93C6
:10103000C82F60EC70E08EE898E30E94E30060E463
:1010400070E08EE898E30E94E3006C2F8EE898E34E
:101050000E94642460EC70E08EE898E3CF910C94D9
:10106000E30090915A01992371F0803CD1F4809172
:101070000E0181110BC010925A0180915B01909179
:101080005C010C946E07803C09F0A0C181E0809364
:101090005A018EEF80930E0110925C0110925B0159
:1010A000089520915B0130915C01243F91E0390764
:1010B00008F08CC190910E012115310529F49E3F55
:1010C00019F480930E01089591111FC08B3D21F4F6
:1010D00081E080935901089590915901992349F035
:1010E0008C3D21F08D3D19F48BED01C080EC109208
:1010F0005901A9014F5F5F4F50935C0140935B0121
:10110000F901ED58FB4C80830895913009F044C0FB
:101110008B3D19F49093590118C09091590199236E
:1011200049F08C3D21F08D3D19F48BED01C080EC30
:1011300010925901A9014F5F5F4F50935C0140939A
:101140005B01F901E159FB4C808380915B01909137
:101150005C01049709F03AC160916F34709170346A
:1011600080917134909172340E94DA2A6115710570
:101170008105910511F40C943806609362387093E0
:101180006338809364389093653880911801813179
:1011900091F70E942C03EFCF923009F045C08B3DB0
:1011A00021F481E08093590118C09091590199234D
:1011B00049F08C3D21F08D3D19F48BED01C080ECA0
:1011C00010925901A9014F5F5F4F50935C0140930A
:1011D0005B01F901E159FB4C808380915B019091A7
:1011E0005C01049709F0F2C060916F347091703423
:1011F00080917134909172340E94DA2A61157105E0
:101200008105910511F40C9416066093663870936D
:1012100067388093683890936938809118018131DC
:1012200091F70E940803EFCF9330A9F48F3F11F498
:101230000C94FF07823110F490E002C081E190E04D
:1012400090931B0180931A0180911801813181F7DD
:101250000E94D602EDCF9430D1F48F3F11F40C945C
:10126000CF07863038F0282F30E08D3028F02CE082
:1012700030E002C026E030E030936B3820936A38CB
:1012800080911801813159F70E94BC02E8CF953056
:10129000D1F48F3F11F40C94E707853038F0282FF4
:1012A00030E0893028F028E030E002C025E030E06E
:1012B00030931D0120931C0180911801813159F751
:1012C0000E94C902E8CF963071F48F3F21F081115E
:1012D00004C00E94EA040C941D02813009F076C01B
:1012E0000E94B106F8CF913211F40C94D2059232DB
:1012F00011F40C94F405933211F40C94B307973065
:1013000021F40E94F1040C943602903319F490E019
:101310000C946601903421F40E943F030C9417084A
:10132000983029F4833709F051C00C9486029E301E
:1013300059F4813019F480935F3804C0811102C0E0
:1013400010925F380C946702993521F4883FF1F5CB
:101350000E94E404913511F40C946B06923551F51A
:101360008B3D21F481E08093590118C0909159017F
:10137000992349F08C3D21F08D3D19F48BED01C08E
:1013800080EC10925901A9014F5F5F4F50935C01AF
:1013900040935B01F901E159FB4C808380915B0133
:1013A00090915C01029791F46091703480916F3458
:1013B0000C949906903511F40C949E02933511F417
:1013C0000C944C04943511F40C94DF0408950F939D
:1013D0001F93CF93DF938C0101151105A1F0C091EC
:1013E0005B38D0915C38CE01019690935C38809345
:1013F0005B388CE698E30E94541FC959D94C888306
:1014000001501109E9CFDF91CF911F910F910895FC
:10141000CF93DF93EC0180915F3881112BC08CE674
:1014200098E30E94541F21974091150180FF0DC041
:101430009C01332754E0359527955A95E1F74F3FA6
:1014400009F497C0241395C07BC04F3F39F0109228
:101450005C3810925B388FEF809315018CE698E32F
:101460000E94251F9093170180931601CE010E94C0
:10147000E70992C010925C3810925B388CE698E3D2
:101480000E94251F9093170180931601CE010E94A0
:10149000E70960EC70E08EE898E30E94E30063E205
:1014A00070E08EE898E30E94E300609116016452B8
:1014B0008EE898E30E94642460EC70E08EE898E384
:1014C0000E94E30060EC70E08EE898E30E94E30085
:1014D00060E070E08EE898E30E94E300C7E6D6E3A0
:1014E00020915B3830915C38CE0187569643821745
:1014F000930768F060EC70E08EE898E30E94E300E8
:1015000010925C3810925B38DF91CF910895699109
:10151000603C41F46BED70E08EE898E30E94E300DC
:101520006CED09C06B3D39F46BED70E08EE898E32B
:101530000E94E3006DED8EE898E30E946424D0CF12
:101540008CE698E30E94251F209116013091170127
:10155000820F931F97FD019695958795909317019C
:1015600080931601CE010E94E7098FEF8093150149
:1015700013C010925C3810925B38209315018CE6F2
:1015800098E30E94251F9093170180931601CE01C6
:10159000DF91CF910C94E70960EC70E08EE898E35E
:1015A0000E94E30063E270E08EE898E30E94E300AB
:1015B0006091160164528EE898E30E94642460EC06
:1015C00070E08EE898E30E94E30060EC70E08EE843
:1015D00098E30E94E30060E070E08EE898E30E94E8
:1015E000E300C7E6D6E320915B3830915C38CE014A
:1015F000875696438217930708F07CCF6991603C29
:1016000041F46BED70E08EE898E30E94E3006CED2E
:1016100009C06B3D39F46BED70E08EE898E30E94F1
:10162000E3006DED8EE898E30E946424DCCFCF9256
:10163000DF92EF92FF920F931F93CF93DF93EC0112
:1016400080916138882309F47AC080915F388111D4
:1016500058C00E94F20060E071E080E090E00E94DB
:10166000E725162F107FCF3FD10508F0116060E00D
:1016700070E08CE698E30E944122612F8CE698E3AB
:101680000E94841E9BE7C92E92E3D92EEE24E39498
:10169000F12CC6018B5792438C179D07F0F4F6018D
:1016A00061916F018CE698E30E94841EFFEFEF1AB0
:1016B000FF0A8FEFE816F10461F78CE698E30E94C9
:1016C000D71F60E070E08CE698E30E944122612F12
:1016D0008CE698E30E94841ED9CF8CE698E30E94A2
:1016E000D71F0E94F60060E070E08CE698E3DF917F
:1016F000CF911F910F91FF90EF90DF90CF900C94BE
:1017000062220E94F200CF3FD10519F010F0CFEF16
:10171000D0E060E070E08CE698E30E9441220BE7A5
:1017200012E3C8018B5792438C179D07B0F6F8015E
:1017300061918F018CE698E30E94841EF2CF82E0D3
:101740000E947F0685E090E0DF91CF911F910F917D
:10175000FF90EF90DF90CF900C94FA00CF93DF933F
:101760008091690190916A0124EF31E0829FF0013C
:10177000839FF00D929FF00D11249C01220F331FC7
:10178000D901AB58BE4FCD91DC91ABE7B2E3E9553F
:10179000FE4FBF01AF01461B570B4C175D0720F4EE
:1017A00040814D931192F6CFF901EB58FE4F118213
:1017B0001082019669E170E00E947C2A90936A0190
:1017C00080936901CE010E94170B0E942B058111A5
:1017D00004C0DF91CF910C944F02DF91CF91089517
:1017E0000F931F9380916138882359F00E948F05D1
:1017F0000E941D05882381F08091580181110CC041
:101800004AC080916038882319F00E94930104C077
:101810000E94D8010E94EA048EE898E30E94F62311
:10182000892BA1F081E0809358018EE898E30E9413
:1018300010240E9431080E946C2760935401709319
:10184000550180935601909357014CC080915801E7
:10185000882309F447C00E946C270091540110911D
:1018600055012091560130915701DC01CB01801BBD
:10187000910BA20BB30B00910A0110910B01209167
:101880000C0130910D0180179107A207B30750F1A9
:101890001092580127C080916301811102C00E94FB
:1018A0003F0580916501811119C08091640181110A
:1018B00015C080916301882331F062E370E080E01D
:1018C00090E00E949D270E943F0580916501811153
:1018D000A3CF109263010E94AE0B9ECF81E0809354
:1018E00063019ACF1F910F9108952F923F924F92CB
:1018F0005F926F927F928F929F92AF92BF92CF92A0
:10190000DF92EF92FF920F931F93CF93DF93CDB7A8
:10191000DEB7C457D1090FB6F894DEBF0FBECDBFF6
:10192000E5969FAF8EAFE597E3967FAF6EAFE397F7
:101930001A01DC0118964D905D906D907C901B977C
:1019400061964CAE5DAE6EAE7FAE61971C964D90CB
:101950005D906D907C901F9749825A826B827C8249
:1019600050964D905D906D907C9053974D825E8225
:101970006F82788654964D905D906D907C905797CD
:1019800049865A866B867C86A85ABF4F6396BFAF3E
:10199000AEAF6397FC01E45AFF4F6596FFAFEEAF21
:1019A0006597805A9F4F67969FAF8EAF6797E59672
:1019B000AEADBFADE597AC59BF4F6996BFAFAEAF07
:1019C0006997E596EEADFFADE597E859FF4F6B9649
:1019D000FFAFEEAF6B97E5968EAD9FADE59784595F
:1019E0009F4F6D969FAF8EAF6D97E596AEADBFAD35
:1019F000E597A059BF4F6F96BFAFAEAF6F97E59613
:101A0000EEADFFADE597EC58FF4FA196FFAFEEAFFF
:101A1000A197E5968EAD9FADE59788589F4FA39609
:101A20009FAF8EAFA397E596AEADBFADE597A45837
:101A3000BF4FA596BFAFAEAFA597E596EEADFFAD94
:101A4000E597E058FF4FA796FFAFEEAFA797E59653
:101A50008EAD9FADE5978C579F4FA9969FAF8EAFE8
:101A6000A997E596AEADBFADE597A857BF4FAB962A
:101A7000BFAFAEAFAB97E596EEADFFADE597E457E0
:101A8000FF4FAD96FFAFEEAFAD97E5968EAD9FAD34
:101A9000E59780579F4FAF969FAF8EAFAF97E59674
:101AA000AEADBFADE597AC56BF4FE196BFAFAEAFA1
:101AB000E197E396AEADBFADE3974D905D906D902D
:101AC0007C904D865E866F86788A6396EEADFFAD1C
:101AD000639740825182628273820D811E812F81C1
:101AE000388549845A846B847C84042515252625F1
:101AF000372569807A808B809C80062117212821D8
:101B0000392189849A84AB84BC84082519252A2527
:101B10003B2561968CAD9DADAEADBFAD619788584C
:101B20009B45A549B8424D855E856F857889840FB0
:101B3000951FA61FB71F080F191F2A1F3B1FD9018A
:101B4000C80147E0880F991FAA1FBB1F4A95D1F70C
:101B500059E136952795179507955A95D1F7082B92
:101B6000192B2A2B3B2B69817A818B819C81060F53
:101B7000171F281F391FE396AEADBFADE39714962C
:101B80008D919D910D90BC91A02D898B9A8BAB8BE3
:101B9000BC8B6596EEADFFAD659780839183A28384
:101BA000B383C980DA80EB80FC804D805E806F80DB
:101BB0007884C424D524E624F724C022D122E2224A
:101BC000F322C424D524E624F724D501C4018A5A7B
:101BD0009844A843B74169887A888B889C88860D89
:101BE000971DA81DB91DC80ED91EEA1EFB1ED701E0
:101BF000C6016CE0880F991FAA1FBB1F6A95D1F719
:101C000074E1F694E794D794C7947A95D1F7C82AEB
:101C1000D92AEA2AFB2AC00ED11EE21EF31EE39641
:101C2000AEADBFADE39718968D909D90AD90BC90F2
:101C30001B978D8A9E8AAF8AB88E6796EEADFFADF0
:101C4000679780829182A282B38249815A816B8197
:101C50007C8140275127622773274C215D216E210B
:101C60007F2149805A806B807C80442555256625DC
:101C700077258D819E81AF81B88585529F48AF4D74
:101C8000BB4D880D991DAA1DBB1D480F591F6A1F0A
:101C90007B1FDB01CA01EFE0B695A7959795879565
:101CA000EA95D1F7F1E1440F551F661F771FFA95AA
:101CB000D1F7482B592B6A2B7B2B4C0D5D1D6E1DCC
:101CC0007F1DE396AEADBFADE3971C966D907D9002
:101CD0008D909C901F97698E7A8E8B8E9C8E6996C4
:101CE000EEADFFAD69976082718282829382480176
:101CF00059018C249D24AE24BF2484229522A6223F
:101D0000B72280269126A226B32689819A81AB81AB
:101D1000BC8182519143A244BE43498C5A8C6B8C46
:101D20007C8C840D951DA61DB71D880E991EAA1EBC
:101D3000BB1ED501C401EAE0B695A7959795879596
:101D4000EA95D1F7F6E1880C991CAA1CBB1CFA9500
:101D5000D1F7882A992AAA2ABB2A840E951EA61E84
:101D6000B71EE396AEADBFADE39750968D919D91B2
:101D70000D90BC91A02D8D8F9E8FAF8FB8A36B96C9
:101D8000EEADFFAD6B9780839183A283B3838155C2
:101D9000904FA348BA40080F191F2A1F3B1FD701B5
:101DA000C60184279527A627B72788219921AA212C
:101DB000BB218C259D25AE25BF25080F191F2A1F85
:101DC0003B1FD901C801E7E0880F991FAA1FBB1F5D
:101DD000EA95D1F7F9E13695279517950795FA9584
:101DE000D1F7082B192B2A2B3B2B080D191D2A1D67
:101DF0003B1DE396AEADBFADE39754964D905D901D
:101E00006D907C90579749A25AA26BA27CA26D96C6
:101E1000EEADFFAD6D974082518262827382D30135
:101E2000C201865D9943A847B84BC80ED91EEA1E69
:101E3000FB1EDB01CA0188259925AA25BB25802325
:101E40009123A223B32384279527A627B727C80E5B
:101E5000D91EEA1EFB1ED701C601ECE0880F991FB0
:101E6000AA1FBB1FEA95D1F7F4E1F694E794D79443
:101E7000C794FA95D1F7C82AD92AEA2AFB2AC00EB4
:101E8000D11EE21EF31EE396AEADBFADE3975896AA
:101E90004D905D906D907C905B974DA25EA26FA27D
:101EA00078A66F96EEADFFAD6F9740825182628249
:101EB0007382D301C2018D5E994BAF4CB745480F79
:101EC000591F6A1F7B1FD501C40180279127A227B4
:101ED000B3278C219D21AE21BF2188259925AA25D4
:101EE000BB25480F591F6A1F7B1FDB01CA01EFE0AA
:101EF000B695A79597958795EA95D1F7F1E1440FA7
:101F0000551F661F771FFA95D1F7482B592B6A2B5F
:101F10007B2B4C0D5D1D6E1D7F1DE396AEADBFADE1
:101F2000E3975C964D905D906D907C905F9749A68D
:101F30005AA66BA67CA6A196EEADFFADA1974082F6
:101F4000518262827382D301C2018F5F9A46A94B8C
:101F5000B240880E991EAA1EBB1ED901C8018C254D
:101F60009D25AE25BF2584239523A623B72380274F
:101F70009127A227B327880E991EAA1EBB1ED50142
:101F8000C401EAE0B695A79597958795EA95D1F7AC
:101F9000F6E1880C991CAA1CBB1CFA95D1F7882A7B
:101FA000992AAA2ABB2A840E951EA61EB71EE3965E
:101FB000AEADBFADE39790964D905D906D907C90E7
:101FC00093974DA65EA66FA678AAA396EEADFFAD39
:101FD000A3974082518262827382D301C2018852E8
:101FE0009746AF47B649080F191F2A1F3B1FD70155
:101FF000C60184279527A627B72788219921AA21DA
:10200000BB218C259D25AE25BF25080F191F2A1F32
:102010003B1FD901C801E7E0880F991FAA1FBB1F0A
:10202000EA95D1F7F9E13695279517950795FA9531
:10203000D1F7082B192B2A2B3B2B080D191D2A1D14
:102040003B1DE396AEADBFADE39794964D905D908A
:102050006D907C90979749AA5AAA6BAA7CAAA596DC
:10206000EEADFFADA5974082518262827382D301AB
:10207000C20181559840AB4BB447C80ED91EEA1E29
:10208000FB1EDB01CA0188259925AA25BB258023D3
:102090009123A223B32384279527A627B727C80E09
:1020A000D91EEA1EFB1ED701C601ECE0880F991F5E
:1020B000AA1FBB1FEA95D1F7F4E1F694E794D794F1
:1020C000C794FA95D1F7C82AD92AEA2AFB2AC00E62
:1020D000D11EE21EF31EE396AEADBFADE397989618
:1020E0004D905D906D907C909B974DAA5EAA6FAAD3
:1020F00078AEA796EEADFFADA7974082518262827F
:102100007382D301C2018F54944AA109B109480FC7
:10211000591F6A1F7B1FD501C40180279127A22761
:10212000B3278C219D21AE21BF2188259925AA2581
:10213000BB25480F591F6A1F7B1FDB01CA01EFE057
:10214000B695A79597958795EA95D1F7F1E1440F54
:10215000551F661F771FFA95D1F7482B592B6A2B0D
:102160007B2B4C0D5D1D6E1D7F1DE396AEADBFAD8F
:10217000E3979C964D905D906D907C909F9749AEB3
:102180005AAE6BAE7CAEA996EEADFFADA99740827C
:10219000518262827382D301C20182549842A34A5F
:1021A000B647880E991EAA1EBB1ED901C8018C25F0
:1021B0009D25AE25BF2584239523A623B7238027FD
:1021C0009127A227B327880E991EAA1EBB1ED501F0
:1021D000C401EAE0B695A79597958795EA95D1F75A
:1021E000F6E1880C991CAA1CBB1CFA95D1F7882A29
:1021F000992AAA2ABB2A840E951EA61EB71EE3960C
:10220000AEADBFADE397D0964D905D906D907C9054
:10221000D39721964CAE5DAE6EAE7FAE2197AB9656
:10222000EEADFFADAB974082518262827382FEEDCC
:102230004F1AFEEE5F0AFFE66F0AF4E97F0A040D0B
:10224000151D261D371D26013701442655266626F5
:102250007726482059206A207B204C245D246E2458
:102260007F24040D151D261D371D2801390187E027
:10227000440C551C661C771C8A95D1F799E136955C
:102280002795179507959A95D1F704291529262999
:102290003729080D191D2A1D3B1DD4964D905D90C0
:1022A0006D907C90D79725964CAE5DAE6EAE7FAEAE
:1022B0002597AD96EEADFFADAD974082518262821B
:1022C0007382FDE64F1AFEE85F0AF7E66F0AF2E056
:1022D0007F0AC40CD51CE61CF71C2A013B014824CC
:1022E00059246A247B2440225122622273224426EC
:1022F000552666267726C40CD51CE61CF71C26013D
:102300003701ECE0440C551C661C771CEA95D1F7AC
:10231000F4E1F694E794D794C794FA95D1F7C428DA
:10232000D528E628F728C00ED11EE21EF31ED89647
:102330004D905D906D907C90DB9729964CAE5DAE94
:102340006EAE7FAE2997AF96EEADFFADAF974082F0
:10235000518262827382F2E74F1AFCEB5F0AF6E861
:102360006F0AF9E57F0A440D551D661D771D24018E
:10237000350140265126622673264C205D206E20B2
:102380007F20482459246A247B24440D551D661D52
:10239000771D2A013B018FE0769467945794479408
:1023A0008A95D1F791E1440F551F661F771F9A95C3
:1023B000D1F744295529662977294C0D5D1D6E1DDD
:1023C0007F1DDC964D905D906D907C90DF972D96F3
:1023D0004CAE5DAE6EAE7FAE2D97E196EEADFFAD2D
:1023E000E1974082518262827382FFED4F1AF7EFCC
:1023F0005F0AFBE46F0AF6EB7F0A840C951CA61CAF
:10240000B71C280139014C245D246E247F2444220A
:102410005522662277224026512662267326840C96
:10242000951CA61CB71C24013501EAE0769467943C
:1024300057944794EA95D1F7F6E1880C991CAA1CA9
:10244000BB1CFA95D1F784289528A628B728840EB6
:10245000951EA61EB71E49885A886B887C888EE90F
:10246000481A8AED580A81EE680A89E0780A040D54
:10247000151D261D371D2A013B01482459246A24B5
:102480007B244C205D206E207F2044265526662626
:102490007726040D151D261D371D28013901A5E0DD
:1024A000440C551C661C771CAA95D1F7BBE13695E8
:1024B000279517950795BA95D1F704291529262947
:1024C0003729080D191D2A1D3B1D4DA05EA06FA0C8
:1024D00078A490EC491A9CE4590A9FEB690A9FE39F
:1024E000790AC40CD51CE61CF71C240135014026D2
:1024F00051266226732644225522662277224824DA
:1025000059246A247B24C40CD51CE61CF71C260124
:10251000370189E0440C551C661C771C8A95D1F75D
:1025200097E1F694E794D794C7949A95D1F7C42885
:10253000D528E628F728C00ED11EE21EF31E49ACAE
:102540005AAC6BAC7CACAFEA4A1AA5EA5A0AA1EACB
:102550006A0AA9ED7A0A440D551D661D771D2801EA
:1025600039014C245D246E247F24482059206A20A0
:102570007B204026512662267326440E551E661E79
:10258000771ED301C2014EE0880F991FAA1FBB1FFF
:102590004A95D1F752E176946794579447945A95A7
:1025A000D1F7482A592A6A2A7B2A4C0C5D1C6E1CDA
:1025B0007F1C4D855E856F857889465558436944F3
:1025C0007641840E951EA61EB71EB701A6014425AE
:1025D00055256625772540235123622373234C25F7
:1025E0005D256E257F25480D591D6A1D7B1DDB016C
:1025F000CA01ECE0B695A79597958795EA95D1F72E
:10260000F4E1440F551F661F771FFA95D1F7482B49
:10261000592B6A2B7B2B440D551D661D771D89A0F8
:102620009AA0ABA0BCA0B3EA8B1ABFEE9B0AB0ED98
:10263000AB0AB9E2BB0A080D191D2A1D3B1D530147
:10264000420184269526A626B7268C209D20AE2002
:10265000BF2084249524A624B724080D191D2A1D03
:102660003B1D48015901A5E0880C991CAA1CBB1C04
:10267000AA95D1F7BBE13695279517950795BA9599
:10268000D1F7082919292A293B29040F151F261FCC
:10269000371F8DA89EA8AFA8B8ACEDEA8E1AEBEE56
:1026A0009E0AEBEBAE0AEDEFBE0AC80CD91CEA1C81
:1026B000FB1C4A015B0180269126A226B3268420BA
:1026C0009520A620B72084269526A626B726C80CD6
:1026D000D91CEA1CFB1C4601570189E0880C991C97
:1026E000AA1CBB1C8A95D1F797E1F694E794D7947E
:1026F000C7949A95D1F7C828D928EA28FB28C00E94
:10270000D11EE21EF31E2D968CAC9DACAEACBFACC0
:102710002D97FFE78F1AF9E19F0AFEE5AF0AF7E26E
:10272000BF0A480C591C6A1C7B1C480159018C24A7
:102730009D24AE24BF2484229522A622B72280267F
:102740009126A226B326480C591C6A1C7B1C5301F7
:102750004201EEE0880C991CAA1CBB1CEA95D1F73B
:10276000F2E17694679457944794FA95D1F7482804
:1027700059286A287B284C0C5D1C6E1C7F1C8D8C94
:102780009E8CAF8CB8A088E3881A84E0980A8CE20B
:10279000A80A88E1B80A480D591D6A1D7B1D46012B
:1027A000570184249524A624B72480229122A222B2
:1027B000B3228C249D24AE24BF24480D591D6A1DCC
:1027C0007B1D4A015B01ACE0B694A7949794879473
:1027D000AA95D1F7B4E1440F551F661F771FBA952C
:1027E000D1F7482959296A297B29440D551D661DB1
:1027F000771D89A89AA8ABA8BCA89AE1891A92E388
:10280000990A9EE1A90A9EEDB90A080D191D2A1D13
:102810003B1D5301420184269526A626B7268C200F
:102820009D20AE20BF2084249524A624B724080D23
:10283000191D2A1D3B1D4801590185E0880C991C72
:10284000AA1CBB1C8A95D1F79BE136952795179555
:1028500007959A95D1F7082919292A293B29040FA8
:10286000151F261F371F29968CAC9DACAEACBFAC94
:102870002997AAE28A1AA8EF9A0AA8ECAA0AACE356
:10288000BA0AC80CD91CEA1CFB1C4A015B01802651
:102890009126A226B32684209520A620B720842640
:1028A0009526A626B726C80CD91CEA1CFB1C460197
:1028B0005701E9E0880C991CAA1CBB1CEA95D1F7CA
:1028C000F7E1F694E794D794C794FA95D1F7C8281E
:1028D000D928EA28FB28C00ED11EE21EF31E898CDF
:1028E0009A8CAB8CBC8CB9E78B1AB2EF9B0ABAE21C
:1028F000AB0ABBE0BB0A480C591C6A1C7B1C480194
:1029000059018C249D24AE24BF2484229522A62222
:10291000B72280269126A226B326480C591C6A1C91
:102920007B1C53014201AEE0880C991CAA1CBB1C05
:10293000AA95D1F7B2E17694679457944794BA95E3
:10294000D1F7482859286A287B284C0C5D1C6E1C3E
:102950007F1C8DA49EA4AFA4B8A8E3E18E1AEBEE71
:102960009E0AE5EAAE0AEAEBBE0A480D591D6A1D49
:102970007B1D4601570184249524A624B724802278
:102980009122A222B3228C249D24AE24BF24480D80
:10299000591D6A1D7B1D4A015B018CE0B694A7940A
:1029A000979487948A95D1F794E1440F551F661F39
:1029B000771F9A95D1F7482959296A297B29440D0F
:1029C000551D661D771D25968CAC9DACAEACBFAC7D
:1029D0002597FBEF8F1AF6E19F0AFCE1AF0AF6E5B7
:1029E000BF0A080D191D2A1D3B1D530142018426F3
:1029F0009526A626B7268C209D20AE20BF208424B5
:102A00009524A624B724080D191D2A1D3B1D480135
:102A10005901E5E0880C991CAA1CBB1CEA95D1F76A
:102A2000FBE13695279517950795FA95D1F7082973
:102A300019292A293B29040F151F261F371F8D88A6
:102A40009E88AF88B88C88E0881A8CE5980A80E167
:102A5000A80A83E0B80AC80CD91CEA1CFB1C4A016E
:102A60005B0180269126A226B32684209520A620ED
:102A7000B72084269526A626B726C80CD91CEA1CA2
:102A8000FB1C46015701A9E0880C991CAA1CBB1C21
:102A9000AA95D1F7B7E1F694E794D794C794BA957D
:102AA000D1F7C828D928EA28FB28C00ED11EE21E7B
:102AB000F31E89A49AA4ABA4BCA497E2891A9DEF43
:102AC000990A90E9A90A98E9B90A480C591C6A1CA4
:102AD0007B1C480159018C249D24AE24BF248422F0
:102AE0009522A622B72280269126A226B326480C3C
:102AF000591C6A1C7B1C530142018EE0880C991CF6
:102B0000AA1CBB1C8A95D1F792E1769467945794DE
:102B100047949A95D1F7482859286A287B284C0C65
:102B20005D1C6E1C7F1C4601570184249524A6243D
:102B3000B72421968CAD9DADAEADBFAD2197865724
:102B4000934BA54DB247480F591F6A1F7B1FD901F0
:102B5000C80188219921AA21BB218C259D25AE255C
:102B6000BF25480F591F6A1F7B1FDB01CA01ECE01C
:102B7000B695A79597958795EA95D1F7F4E1440F17
:102B8000551F661F771FFA95D1F7482B592B6A2BD3
:102B90007B2B440D551D661D771D89A19AA1ABA104
:102BA000BCA18E5B964CA540B109080F191F2A1FC6
:102BB0003B1F84269526A626B726080D191D2A1D1B
:102BC0003B1D48015901A4E0880C991CAA1CBB1CA0
:102BD000AA95D1F7BCE13695279517950795BA9533
:102BE000D1F7082919292A293B29040F151F261F67
:102BF000371F8DA49EA4AFA4B8A8AFE78A1AA9E096
:102C00009A0AAEE8AA0AA8E7BA0AC80CD91CEA1CB4
:102C1000FB1C5301420184269526A626B726802652
:102C20009126A226B326C80CD91CEA1CFB1C46011F
:102C300057018BE0880C991CAA1CBB1C8A95D1F704
:102C400095E1F694E794D794C7949A95D1F7C8285C
:102C5000D928EA28FB28C00ED11EE21EF31E89AC3B
:102C60009AACABACBCACBEED8B1ABEE99B0AB2E62B
:102C7000AB0AB2E9BB0A480C591C6A1C7B1C4A010E
:102C80005B0180269126A226B3268C249D24AE24A7
:102C9000BF24480C591C6A1C7B1CF20123013F0114
:102CA0004C0C5D1C6E1C7F1C29968CAC9DACAEAC94
:102CB000BFAC2997F4EF8F1AF7EC9F0AFAE1AF0A3D
:102CC000F2E0BF0A480D591D6A1D7B1D48015901DC
:102CD0008C249D24AE24BF2484249524A624B724C8
:102CE000480D591D6A1D7B1D4A015B01E9E0B69440
:102CF000A79497948794EA95D1F7F7E1440F551F6D
:102D0000661F771FFA95D1F7482959296A297B2927
:102D1000440D551D661D771D89889A88AB88BC882F
:102D20008CEB881A85E1980A81E4A80A8BE5B80A39
:102D3000080D191D2A1D3B1D4601570184249524A9
:102D4000A624B72484269526A626B726080D191D85
:102D50002A1D3B1D48015901A4E0880C991CAA1C9E
:102D6000BB1CAA95D1F7BCE1369527951795079519
:102D7000BA95D1F7082919292A293B29040F151FCB
:102D8000261F371F8D8C9E8CAF8CB8A097E5891AB3
:102D900090E3990A91E2A90A94EBB90AC80CD91CEC
:102DA000EA1CFB1C5301420184269526A626B72661
:102DB00080269126A226B326C80CD91CEA1CFB1C2F
:102DC000460157018BE0880C991CAA1CBB1C8A95F4
:102DD000D1F795E1F694E794D794C7949A95D1F7F3
:102DE000C828D928EA28FB28C00ED11EE21EF31EEF
:102DF00089A49AA4ABA4BCA4A0EA8A1AA4EB9A0A58
:102E0000A4E4AA0AA9E0BA0A480C591C6A1C7B1C53
:102E10004A015B0180269126A226B3268C249D249C
:102E2000AE24BF24480C591C6A1C7B1CF2012301F0
:102E30003F014C0C5D1C6E1C7F1C8DA89EA8AFA88A
:102E4000B8ACF0E98F1AF3E49F0AF0E4AF0AF1E4BA
:102E5000BF0A480D591D6A1D7B1D480159018C246C
:102E60009D24AE24BF2484249524A624B724840E54
:102E7000951EA61EB71ED501C40149E0B695A795BB
:102E8000979587954A95D1F757E1880C991CAA1C0C
:102E9000BB1C5A95D1F7882A992AAA2ABB2A840CE6
:102EA000951CA61CB71C25964CAD5DAD6EAD7FADD7
:102EB00025974A5351486446774D040F151F261F26
:102EC000371FB701A60144255525662577254825D6
:102ED00059256A257B25040F151F261F371FB901A9
:102EE000A801E4E0440F551F661F771FEA95D1F74C
:102EF000FCE13695279517950795FA95D1F7042BA0
:102F0000152B262B372B080D191D2A1D3B1D4D8512
:102F10005E856F8578894650584D6E457541C40E63
:102F2000D51EE61EF71EB301A201482559256A25C4
:102F30007B2540275127622773274C0D5D1D6E1D91
:102F40007F1DDB01CA01EBE0880F991FAA1FBB1F81
:102F5000EA95D1F7F5E17695679557954795FA95F6
:102F6000D1F7482B592B6A2B7B2B400F511F621F27
:102F7000731FC98CDA8CEB8CFC8C8BE7C81A8FEC36
:102F8000D80A80E1E80A8BE2F80A4C0C5D1C6E1C42
:102F90007F1C75016401C026D126E226F326C426D3
:102FA000D526E626F7264C0C5D1C6E1C7F1CD20134
:102FB00023013D01440E551E661E771ECDA0DEA0E6
:102FC000EFA0F8A4BBEFCB1AB2EEDB0AB7E7EB0A2F
:102FD000BBEFFB0A8C0C9D1CAE1CBF1C6801790169
:102FE000C426D526E626F726C424D524E624F724CD
:102FF0008C0C9D1CAE1CBF1C75016401A9E0F694ED
:10300000E794D794C794AA95D1F7B7E1880C991C97
:10301000AA1CBB1CBA95D1F78C289D28AE28BF28C6
:10302000840C951CA61CB71CC9A8DAA8EBA8FCA8A0
:10303000E7ECCE1AEFE2DE0AEBE2EE0AE6E2FE0A87
:103040000C0D1D1D2E1D3F1D6A017B01C424D524BE
:10305000E624F724C824D924EA24FB240C0D1D1DE2
:103060002E1D3F1D6801790184E0CC0CDD1CEE1C97
:10307000FF1C8A95D1F79CE1369527951795079502
:103080009A95D1F70C291D292E293F29080D191DC4
:103090002A1D3B1D2196CCACDDACEEACFFAC2197DC
:1030A000FBE1CF1AF6E6DF0AF4E2EF0AF9E1FF0AE4
:1030B0004C0D5D1D6E1D7F1D73016201C824D92456
:1030C000EA24FB24C026D126E226F3264C0D5D1D02
:1030D0006E1D7F1D6A017B01EBE0CC0CDD1CEE1C3C
:1030E000FF1CEA95D1F7F5E17695679557954795D9
:1030F000FA95D1F74C295D296E297F29400F511F80
:10310000621F731F2D96CCACDDACEEACFFAC2D97DF
:1031100088E0C81A83E8D80A8DE5E80A80EEF80A44
:103120004C0C5D1C6E1C7F1C75016401C026D126F1
:10313000E226F326C426D526E626F7264C0C5D1C8F
:103140006E1C7F1CD20123013D01440E551E661EDC
:10315000771ECD88DE88EF88F88CBBE9CB1AB9EAF8
:10316000DB0AB3E5EB0ABBE3FB0A8C0C9D1CAE1C2F
:10317000BF1C68017901C426D526E626F726C4249B
:10318000D524E624F7248C0C9D1CAE1CBF1C7501B5
:103190006401A9E0F694E794D794C794AA95D1F76F
:1031A000B7E1880C991CAA1CBB1CBA95D1F78C28D6
:1031B0009D28AE28BF28840C951CA61CB71CCD8466
:1031C000DE84EF84F888ECEBCE1AEDEDDE0AE6ED56
:1031D000EE0AEBE0FE0A0C0D1D1D2E1D3F1D6A01BF
:1031E0007B01C094D094E094F094C828D928EA28B0
:1031F000FB28C424D524E624F7240C0D1D1D2E1D08
:103200003F1D6801790186E0CC0CDD1CEE1CFF1C23
:103210008A95D1F79AE136952795179507959A954E
:10322000D1F70C291D292E293F29080D191D2A1D0A
:103230003B1DC9A4DAA4EBA4FCA4F9E6CF1AD1087B
:10324000F5EDEF0AFCEBFF0A4C0D5D1D6E1D7F1DB9
:1032500073016201C094D094E094F094C02AD12A02
:10326000E22AF32AC824D924EA24FB244C0D5D1D4C
:103270006E1D7F1D6A017B01EAE0CC0CDD1CEE1C9B
:10328000FF1CEA95D1F7F6E1769567955795479536
:10329000FA95D1F74C295D296E297F29400F511FDE
:1032A000621F731F2996CCACDDACEEACFFAC299746
:1032B00089E5C81A8CEDD80A8BE6E80A84E5F80A95
:1032C0004C0C5D1C6E1C7F1C75016401C094D09475
:1032D000E094F094C42AD52AE62AF72AC026D126FB
:1032E000E226F3264C0C5D1C6E1C7F1C73016201F0
:1032F000AFE0CC0CDD1CEE1CFF1CAA95D1F7B1E1B0
:103300007694679457944794BA95D1F74C285D28E2
:103310006E287F28440E551E661E771EC9A0DAA0AF
:10332000EBA0FCA097ECC91A9FE5D90A9CE6E90A34
:1033300093E0F90A8C0C9D1CAE1CBF1C680179013E
:10334000C094D094E094F094C428D528E628F728B7
:10335000C426D526E626F7268C0C9D1CAE1CBF1C69
:10336000750164018BE0F694E794D794C7948A952D
:10337000D1F795E1880C991CAA1CBB1C9A95D1F732
:103380008C289D28AE28BF28840C951CA61CB71C31
:103390002196CCACDDACEEACFFAC2197ADE3CA1A04
:1033A000A6EADA0AA4EAEA0AAAE9FA0A0C0D1D1D3D
:1033B0002E1D3F1D6A017B01C094D094E094F094CF
:1033C000C828D928EA28FB28C424D524E624F724D1
:1033D0000C0D1D1D2E1D3F1D68017901E6E0CC0C72
:1033E000DD1CEE1CFF1CEA95D1F7FAE13695279516
:1033F00017950795FA95D1F70C291D292E293F29F4
:10340000080D191D2A1D3B1DC98CDA8CEB8CFC8C18
:10341000BEE6CB1AB3E3DB0AB3EFEB0AB0E7FB0A75
:103420004C0D5D1D6E1D7F1D73016201C094D09413
:10343000E094F094C02AD12AE22AF32AC824D9249D
:10344000EA24FB244C0D5D1D6E1D7F1D6A017B016E
:10345000AAE0CC0CDD1CEE1CFF1CAA95D1F7B6E14E
:103460007695679557954795BA95D1F74C295D297B
:103470006E297F29400F511F621F731FCDA8DEA840
:10348000EFA8F8ACE3E8CE1AEBE0DE0AE0E1EE0AE2
:10349000F1084C0C5D1C6E1C7F1C75016401C0940E
:1034A000D094E094F094C42AD52AE62AF72AC026BC
:1034B000D126E226F3264C0C5D1C6E1C7F1C73018A
:1034C00062018FE0CC0CDD1CEE1CFF1C8A95D1F74D
:1034D00091E176946794579447949A95D1F74C2844
:1034E0005D286E287F28440E551E661E771EC988EB
:1034F000DA88EB88FC88FFE2CF1AF2EADF0AFBE702
:10350000EF0AFAE7FF0A8C0C9D1CAE1CBF1C680179
:103510007901C094D094E094F094C428D528E6288A
:10352000F728C426D526E626F7268C0C9D1CAE1C53
:10353000BF1C75016401EBE0F694E794D794C7943F
:10354000EA95D1F7F5E1880C991CAA1CBB1CFA95E9
:10355000D1F78C289D28AE28BF28840C951CA61C6A
:10356000B71CCDA4DEA4EFA4F8A881EBC81A81E8AB
:10357000D80A87E5E80A80E9F80A0C0D1D1D2E1D02
:103580003F1D6A017B01C094D094E094F094C82858
:10359000D928EA28FB28C424D524E624F7240C0DD6
:1035A0001D1D2E1D3F1D68017901A6E0CC0CDD1C00
:1035B000EE1CFF1CAA95D1F7BAE136952795179511
:1035C0000795BA95D1F70C291D292E293F29080DF9
:1035D000191D2A1D3B1D2D968CAD9DADAEADBFAD09
:1035E0002D9780529941A34DB140480F591F6A1F32
:1035F0007B1FD301C20180959095A095B095802B3B
:10360000912BA22BB32B88259925AA25BB25480FE2
:10361000591F6A1F7B1FDB01CA01EAE0880F991F4F
:10362000AA1FBB1FEA95D1F7F6E1769567955795E6
:103630004795FA95D1F7482B592B6A2B7B2B400FD6
:10364000511F621F731F8DA19EA1AFA1B8A58C5EF3
:103650009C4BAE4FBC45480E591E6A1E7B1ED501C1
:10366000C40180959095A095B095842B952BA62BA1
:10367000B72B80279127A227B327480E591E6A1E11
:103680007B1ED301C201EFE0880F991FAA1FBB1F49
:10369000EA95D1F7F1E17694679457944794FA95B7
:1036A000D1F7482A592A6A2A7B2A440E551E661EDB
:1036B000771E25968CAD9DADAEADBFAD25978F55D0
:1036C0009E4EA74FB14B880E991EAA1EBB1ED90154
:1036D000C80180959095A095B09584299529A62933
:1036E000B72984279527A627B727880E991EAA1ED3
:1036F000BB1ED501C401EBE0B695A79597958795BC
:10370000EA95D1F7F5E1880C991CAA1CBB1CFA9527
:10371000D1F7882A992AAA2ABB2A840C951CA61CB0
:10372000B71C8D8D9E8DAF8DB8A18E579148AC4A38
:10373000B840080F191F2A1F3B1FDB01CA018095E3
:103740009095A095B09588299929AA29BB29842507
:103750009525A625B725080F191F2A1F3B1FD9013C
:10376000C801E6E0880F991FAA1FBB1FEA95D1F791
:10377000FAE13695279517950795FA95D1F7082B15
:10378000192B2A2B3B2B080D191D2A1D3B1D89AD1A
:103790009AADABADBCAD8B5C9D40A54CB244480F1F
:1037A000591F6A1F7B1FD301C20180959095A09578
:1037B000B095802B912BA22BB32B88259925AA2578
:1037C000BB25480F591F6A1F7B1FDB01CA01EAE0B6
:1037D000880F991FAA1FBB1FEA95D1F7F6E17695CE
:1037E000679557954795FA95D1F7482B592B6A2B32
:1037F0007B2B400F511F621F731F8D899E89AF89DC
:10380000B88D85549D42A842B54D480E591E6A1E7A
:103810007B1ED501C40180959095A095B095842B11
:10382000952BA62BB72B80279127A227B327480ECD
:10383000591E6A1E7B1ED301C201EFE0880F991F3B
:10384000AA1FBB1FEA95D1F7F1E1769467945794CC
:103850004794FA95D1F7482A592A6A2A7B2A440EB6
:10386000551E661E771E89A99AA9ABA9BCA98F56B9
:103870009C42A947B441880E991EAA1EBB1ED901BD
:10388000C80180959095A095B09584299529A62981
:10389000B72984279527A627B727880E991EAA1E21
:1038A000BB1ED501C401EBE0B695A795979587950A
:1038B000EA95D1F7F5E1880C991CAA1CBB1CFA9576
:1038C000D1F7882A992AAA2ABB2A61968CAD9DAD88
:1038D000AEADBFAD6197800F911FA21FB31F619660
:1038E0008CAF9DAFAEAFBFAF6197840C951CA61C8B
:1038F000B71C89819A81AB81BC81880D991DAA1D55
:10390000BB1D89839A83AB83BC838D809E80AF80EF
:10391000B884840C951CA61CB71C8D829E82AF8235
:10392000B88689859A85AB85BC85840F951FA61FAF
:10393000B71F89879A87AB87BC87E396AEADBFADCB
:10394000E397A05CBF4FE396BFAFAEAFE397B0E4A1
:103950002B1A310811F00C94590D61964CAC5DACEA
:103960006EAC7FAC6197E596AEADBFADE5971896AE
:103970004D925D926D927C921B9749805A806B802C
:103980007C801C964D925D926D927C921F97FD01FA
:10399000808A918AA28AB38A49845A846B847C84FF
:1039A00054964D925D926D927C925797E3968EADB0
:1039B0009FADE397CC58DF4F0FB6F894DEBF0FBE34
:1039C000CDBFDF91CF911F910F91FF90EF90DF90CE
:1039D000CF90BF90AF909F908F907F906F905F90AF
:1039E0004F903F902F900895CF93DF93FC0181E09B
:1039F00093E2A5E4B7E680879187A287B38789E839
:103A00009BEAADECBFEE84879587A687B7878EEFDC
:103A10009CEDAAEBB8E9808B918BA28BB38B86E7E8
:103A200094E5A2E3B0E1848B958BA68BB78B1082D3
:103A30001182128213821482158216821782DF018C
:103A4000A85ABF4F80E4ED01982F19929A95E9F793
:103A50007896DF011D928A95E9F7DF91CF9108955D
:103A60008F929F92AF92BF92EF92FF920F931F930C
:103A7000CF93DF93EC017B018A0188819981AA8130
:103A8000BB8160E070E04C015D01840E951EA61EB6
:103A9000B71E2FE1B22288829982AA82BB82881641
:103AA0009906AA06BB0668F48C809D80AE80BF8014
:103AB0002FEF821A920AA20AB20A8C829D82AE82EB
:103AC000BF828F739927AA27BB270097A105B1054D
:103AD00031F120E4822E912CA12CB12C881A990A64
:103AE000AA0ABB0A4896481559056A057B0528F4B9
:103AF000A801B7018C0F9D1F22C0A401B7018C0F34
:103B00009D1F0E94672CE80CF91C0819190940E454
:103B100050E0BE01685E7F4FCE010E94750C0034FC
:103B2000110548F0A801407CB701CE010E94750C38
:103B30007C010F731127A801B701CE014896DF91D0
:103B4000CF911F910F91FF90EF90BF90AF909F90FA
:103B50008F900C94672CEF92FF920F931F93CF934B
:103B6000DF938C01EB01488159816A817B814F731E
:103B7000552766277727DB01CA010196A11DB11DD4
:103B8000FE01E40FF51F20E8208F40E450E060E0E4
:103B900070E0481B590B6A0B7B0B9E01285E3F4F60
:103BA00079014830510561057105A0F4489660E03F
:103BB00070E08C0F9D1F0E94702C40E450E0B70114
:103BC000CE010E94750C40E450E060E070E080E0BF
:103BD00090E0DC0148505109489660E070E08C0F9D
:103BE0009D1F0E94702C88819981AA81BB8123E04E
:103BF000880F991FAA1FBB1F2A95D1F78883998325
:103C0000AA83BB83FE01E05BFF4F808331969083E4
:103C10003196A0833196B0833C812D819E818F8126
:103C2000319630833196208331969083319680830C
:103C300040E450E0B701CE010E94750C8885F80180
:103C40008083898581838A8582838B8583838C8524
:103C500084838D8585838E8586838F8587838889F8
:103C60008087898981878A8982878B8983878C89E4
:103C700084878D8985878E8986878F89878788E95C
:103C8000FE0111928A95E9F7DF91CF911F910F9173
:103C9000FF90EF900895CF92DF92EF92FF920F93F3
:103CA0001F93CF93DF93CDB7DEB7C859D1090FB6B5
:103CB000F894DEBF0FBECDBF7C016B0180E190E0C8
:103CC0000E9401268C01CE0101960E94F41CA601DF
:103CD000B701CE0101960E94301DBE016F5F7F4F7C
:103CE000C8010E94AB1DC801C856DF4F0FB6F8943B
:103CF000DEBF0FBECDBFDF91CF911F910F91FF901F
:103D0000EF90DF90CF900895CF93DF931F92CDB7C0
:103D1000DEB76983DC01ED91FC910280F381E02D37
:103D200041E050E0BE016F5F7F4F09950F90DF913A
:103D3000CF9108950895FC011382128288EE93E0DA
:103D4000A0E0B0E084839583A683B7838FE291E0FF
:103D50009183808380E5848781E085878AE090E095
:103D60009787868789E090E0918B808B82E090E056
:103D7000938B828B148A158A168A178A118E108E5D
:103D8000138E128E158E148E40E050E0BA01CF01D2
:103D90000C943225FC0177876687518B408B338BDF
:103DA000228B08950F931F93CF93DF93EC01062F7F
:103DB000142F60E08E850E948C284C853D85809173
:103DC0008C38882399F02FB7F89480918C38813003
:103DD00059F48DB380938A389DB380918B38809548
:103DE00089238DBB2FBF02C020938A384CBD3DBDB7
:103DF0000EBD00000DB407FEFDCF8EB51EBD000048
:103E00000DB407FEFDCF1EB580918C38882361F07C
:103E10009FB7F89420918C3880918A38213019F41A
:103E20008DBB9FBF01C08FBF61E08E850E948C2833
:103E3000812FDF91CF911F910F9108956F7740E00F
:103E40000C94D21E68E10C941E1F0F931F93CF9306
:103E5000DF938C016AE10E941E1FC82FD0E0F80199
:103E600064897589868997890E941D2A24ED30E826
:103E700043E45EE40E94162A87FD2797CE018D5900
:103E80009109DF91CF911F910F910895CF93DF9307
:103E9000EC0163E10E941E1F90E0288D398D821B8A
:103EA000930BDF91CF910895CF93DF93EC01E881DD
:103EB000F9810480F581E02D0995892B59F0888DD1
:103EC000998D0196998F888F60E0CE010E941E1F08
:103ED00090E002C08FEF9FEFDF91CF9108950F9395
:103EE0001F93CF93DF938C0166E00E941E1FD82F93
:103EF00067E0C8010E941E1FC82F68E0C8010E9429
:103F00001E1F4C2F50E060E070E0762F652F542F7D
:103F100044276D2B8A019B01082BC901B80120E0C1
:103F200038E448EE51E00E94EC2A03E10E94912B14
:103F3000B901CA01DF91CF911F910F9108956DE1F1
:103F40000E941E1FE82FF0E084E0F595E7958A9522
:103F5000E1F7EA30F105F8F4EA5BFF4F0C94D12A5F
:103F600060EA78E21EC060E471E51BC062E17AE7B6
:103F700018C064EE72EA15C064E274EF12C068E41F
:103F800078EE81E00FC060E970ED83E00BC060E285
:103F900071EA87E007C0089568E77EE102C060EF3C
:103FA0007CE380E090E008956CE20C941E1FCF93B8
:103FB000DF93EC0143E861E80E94D21E62E1CE018A
:103FC0000E941E1F83FD03C00E94BB28F7CF48E05C
:103FD00062E9CE010E94D21E81E090E0DF91CF9194
:103FE0000895AF92BF92CF92DF92FF920F931F93EB
:103FF000CF93DF936C015B01EA0162E20E941E1F16
:10400000F82E90E09C012C0F3D1F2F3F310529F029
:1040100020F0CFEFD0E0C81BD90B8501AC0EBD1E40
:104020000A151B0541F0F80141918F0160E8C601B6
:104030000E94D21EF5CF4C2F4F0D62EAC6010E949E
:10404000D21ECE01DF91CF911F910F91FF90DF9093
:10405000CF90BF90AF9008950F931F93CF93DF93AE
:10406000EC01E881F9810480F581E02D0995892B27
:1040700091F06DE0CE010E941E1F082F60E0CE017E
:104080000E941E1F182F402F6DE8CE010E94D21EE5
:10409000812F90E002C08FEF9FEFDF91CF911F91B2
:1040A0000F910895CF93DF93EC017D8F6C8F672B79
:1040B000A9F160E08A890E94502840E060ECCE01BE
:1040C0000E94D21E8A899B898230910539F08A30FC
:1040D000910531F00B9731F08FEF05C082E003C0FE
:1040E00080E001C081E00E9492238A899B8982300E
:1040F000910539F08A30910531F00B9731F08FEF4F
:1041000005C082E003C080E001C081E043E050E0F0
:1041100061E273E2DF91CF910C94BD288A899B897B
:104120008230910539F08A30910531F00B9731F0EA
:104130008FEF05C082E003C080E001C081E00E94F3
:10414000EC288A899B898230910539F08A30910563
:1041500031F00B9731F08FEF05C082E003C080E0B3
:1041600001C081E0DF91CF910C94B12341E861E877
:104170000C94D21E40E861E80C94D21E0E94BA2032
:104180000C947E23AF92BF92CF92DF92EF92FF9278
:104190000F931F93CF93DF93EC01DB01CA014C8B8C
:1041A0005D8B6E8B7F8B6A017B01FF0CCC08DC2C56
:1041B00076019A01AD016C2D7C2D8C2D9C2D03E197
:1041C0000E94762BA12CE8E4BE2EF8EECF2EDD2443
:1041D000D394E12CF12C00E010E00E94192B122F57
:1041E000C22ED32E7A01A7016627772766E8CE0173
:1041F0000E94D21E77276F2D5E2D4D2D67E8CE01D0
:104200000E94D21E412F68E8CE01DF91CF911F910D
:104210000F91FF90EF90DF90CF90BF90AF900C94F4
:10422000D21E0F931F93CF93DF938C01EB01663067
:10423000710534F06D30710584F46630710579F4E0
:1042400045EC61EBC8010E94D21E4CE067EBC8014F
:104250000E94D21EC6E0D0E00CC0CCE0D0E043EC1F
:1042600061EBC8010E94D21E4AE067EBC8010E94C0
:10427000D21E6EE1C8010E941E1F8F7094E0CC0F09
:10428000DD1F9A95E1F74C2F482B6EE9C801DF91AD
:10429000CF911F910F910C94D21ECF92DF92EF928B
:1042A000FF920F931F93CF93DF938C01CB01BA0141
:1042B0000E941D2A6B017C0120E030EC43EF55E4A5
:1042C0000E94162A18160CF056C020E030E842E290
:1042D00056E4C701B6010E94162A18160CF04EC00B
:1042E00020E030EC43E756E4C701B6010E94162AED
:1042F00018160CF046C020E030E842EA56E4C70148
:10430000B6010E94162A18160CF03EC020E034E2D6
:1043100044EF56E4C701B6010E94162A1816BCF5F0
:1043200020E034EE42E257E4C701B6010E94162AAB
:10433000181684F520E034E244E757E4C701B601DB
:104340000E94162A18164CF520E034E244EF57E498
:10435000C701B6010E94162A181614F520E034E2AF
:1043600044E758E4C701B6010E94162A1816DCF487
:10437000C9E0D0E01AC0C0E0D0E017C0C1E0D0E092
:1043800014C0C2E0D0E011C0C3E0D0E00EC0C4E071
:10439000D0E00BC0C5E0D0E008C0C6E0D0E005C06A
:1043A000C7E0D0E002C0C8E0D0E06DE1C8010E94E3
:1043B0001E1F8F7094E0CC0FDD1F9A95E1F74C2FF4
:1043C000482B6DE9C801DF91CF911F910F91FF90AC
:1043D000EF90DF90CF900C94D21E0F931F93CF934A
:1043E000DF938C01653071053CF0EB01693071059C
:1043F0002CF0C8E0D0E002C0C5E0D0E06DE1C8011B
:104400000E941E1F2497CC0FDD1F817F4C2F482B4D
:104410006DE9C801DF91CF911F910F910C94D21ECD
:10442000CF93DF93EC016EE10E941E1F482F446082
:104430006EE9CE01DF91CF910C94D21ECF93DF9322
:10444000EC011B8E1A8E6DE10E941E1F482F4E7FBD
:104450006DE9CE01DF91CF910C94D21ECF93DF9303
:10446000EC0181E090E09B8F8A8F6DE1CE010E948C
:104470001E1F482F41606DE9CE01DF91CF910C9452
:10448000D21E0F931F93CF93DF93EC018B010E94F9
:10449000B620CE01012B19F00E942E2202C00E94EC
:1044A0001E2240E06DE8CE010E94D21E40E062EA8A
:1044B000CE010E94D21E81E090E0DF91CF911F914A
:1044C0000F9108950F931F93CF93DF93EC018B010E
:1044D0001616170644F40E942E22402F62EACE01DF
:1044E0000E94D21E02C00E941E2245E861E8CE0151
:1044F000DF91CF911F910F910C94D21ECF92DF923A
:10450000EF92FF92CF93DF93EC016A017B0161E0B0
:104510008E850E94502861E08E850E948C288889B3
:1045200099898F3F2FEF9207B9F061E00E945028E0
:1045300060E088890E948C286AE070E080E090E06A
:104540000E949D2761E088890E948C286AE070E0C3
:1045500080E090E00E949D270E94482362E4CE0103
:104560000E941E1F823161F5CE010E94BA20B70160
:10457000A601CE010E94C22040E06EE8CE010E945A
:10458000D21E40E06FE8CE010E94D21E6CE0CE0148
:104590000E941E1F482F43606CE8CE010E94D21E6D
:1045A00044E066EACE010E94D21E40E869E8CE01EE
:1045B0000E94D21ECE010E94B62081E090E002C08F
:1045C00080E090E0DF91CF91FF90EF90DF90CF906F
:1045D00008951F93CF93DF93EC0162E10E941E1FA9
:1045E000182F482F62E9CE010E94D21E15FD25C06A
:1045F000198E188E8A8D9B8D892B11F062E201C075
:1046000063E1CE010E941E1F182F60E1CE010E94BF
:104610001E1F482F6DE8CE010E94D21EEC8DFD8D2D
:10462000309719F0812F90E0099540E06DE8CE01B8
:10463000DF91CF911F910C94D21EDF91CF911F91EA
:1046400008958CE698E30C94E922452B61F46F30D1
:10465000710514F06EE070E077FF02C060E070E07A
:10466000462F40670EC06230710534F0623171052B
:104670002CF061E170E002C062E070E06250462F11
:10468000406869E80C94D21E8CE698E30C949B1E5B
:10469000CF93CFB7F89480918D38811127C0ECE08B
:1046A000F1E08491ECEEF0E09491E82FF0E0EE0F71
:1046B000FF1FEE5CFE4FA591B491EC91E92321F42C
:1046C00061E084E00E948C2861E084E00E94502830
:1046D0008CB580618CBD8CB580648CBD61E087E059
:1046E0000E94502861E085E00E94502880918D381A
:1046F0008F5F80938D38CFBFCF9108959FB7F89487
:1047000080918D38882319F0815080938D38809165
:104710008D38811105C08CB58F7B8CBD10928C3883
:104720009FBF08959FB7F894813029F058F08230E8
:1047300021F484E008C082E006C082E080938C38D7
:1047400080E001C081E020918B38822B80938B38F0
:1047500080918C38811103C081E080938C389FBF99
:10476000089590918C389230B1F02FB7F89483303F
:1047700030F4E82FF0E0E55CFE4F808101C080E07E
:10478000809590918B38892380938B38811102C05A
:1047900010928C382FBF0895CF92DF92EF92FF9244
:1047A0000F931F93CF93DF936C017A018B01C0E0CD
:1047B000D0E0CE15DF0581F0D8016D918D01D601D5
:1047C000ED91FC910190F081E02DC6010995892BB6
:1047D00011F02196EECF7E01C701DF91CF911F919D
:1047E0000F91FF90EF90DF90CF900895FC01918D95
:1047F000228D892F90E0805C9F4F821B91098F73DF
:1048000099270895FC01918D828D981731F0828D42
:10481000E80FF11D858D90E008958FEF9FEF0895CB
:10482000FC01918D828D981761F0828DDF01A80FB8
:10483000B11D5D968C91928D9F5F9F73928F90E0DA
:1048400008958FEF9FEF089588E995E2892B41F055
:1048500080E090E0892B21F00E94982581110DC005
:1048600080E090E0892B71F080E090E0892B51F09E
:104870000E940000811104C008950E940000F0CF42
:104880000C9400000895FC01848DDF01A80FB11D78
:10489000A35ABF4F2C91848D90E001968F73992776
:1048A000848FA689B7892C93A089B1898C91806463
:1048B0008C93938D848D981306C00288F389E02D24
:1048C00080818F7D80830895EF92FF920F931F93D5
:1048D000CF93DF93EC0181E0888F9B8D8C8D9813B3
:1048E00005C0E889F989808185FD24C0F62E0B8DED
:1048F00010E00F5F1F4F0F731127E02E8C8DE81211
:104900000CC00FB607FCFACFE889F989808185FFD2
:10491000F5CFCE010E944324F1CF8B8DFE01E80F2D
:10492000F11DE35AFF4FF0820B8FEA89FB898081EA
:10493000806207C0EE89FF896083E889F9898081F8
:104940008064808381E090E0DF91CF911F910F918F
:10495000FF90EF900895CF93DF93EC01888D88232B
:10496000C9F0EA89FB89808185FD05C0A889B989DC
:104970008C9186FD0FC00FB607FCF5CF808185FFB7
:10498000F2CFA889B9898C9185FFEDCFCE010E9425
:104990004324E7CFDF91CF910895CF92DF92EF923A
:1049A000FF921F93CF93DF93EC016A017B01122FDB
:1049B000E889F98982E080834115514E61057105CE
:1049C000B1F060E079E08DE390E0A70196010E94EC
:1049D000902ADA01C9010197A109B109B695A795F5
:1049E000979587959C01211580E13807A8F0E88903
:1049F000F989108260E874E88EE190E0A7019601E1
:104A00000E94902ADA01C9010197A109B109B6955E
:104A1000A795979587959C01EC85FD853083EE855C
:104A2000FF852083188EEC89FD891083EA89FB8934
:104A3000808180618083EA89FB89808188608083AE
:104A4000EA89FB89808180688083EA89FB8980818B
:104A50008F7D8083DF91CF911F91FF90EF90DF904A
:104A6000CF900895FC01448355836683778308952E
:104A70001F920F920FB60F9211240BB60F922F9325
:104A80008F939F93EF93FF93E0919E38F0919F381F
:104A90008081E091A438F091A53882FD12C0908108
:104AA0008091A7388F5F8F732091A838821751F0BB
:104AB000E091A738F0E0E257F74C958F8093A73844
:104AC00001C08081FF91EF919F918F912F910F9065
:104AD0000BBE0F900FBE0F901F9018951F920F9254
:104AE0000FB60F9211240BB60F922F933F934F9353
:104AF0005F936F937F938F939F93AF93BF93EF9346
:104B0000FF938EE898E30E944324FF91EF91BF91B9
:104B1000AF919F918F917F916F915F914F913F9155
:104B20002F910F900BBE0F900FBE0F901F901895F6
:104B30008EE898E30E94F62321E0892B09F420E017
:104B4000822F0895EEE8F8E31382128288EE93E054
:104B5000A0E0B0E084839583A683B78382E491E0EC
:104B60009183808385EC90E09587848784EC90E046
:104B70009787868780EC90E0918B808B81EC90E02A
:104B8000938B828B82EC90E0958B848B86EC90E00B
:104B9000978B868B118E128E138E148E0895089526
:104BA0000E94D9270E94CF250E942207C4E2D4E2A6
:104BB0000E94F00B2097E1F30E942424F9CF009784
:104BC00029F0BC0180E090E00C945E2C0895CF9217
:104BD000DF92EF92FF92611571058105910549F011
:104BE0006B017C010E94102CA70196010E94B22A41
:104BF00003C060E070E0CB01FF90EF90DF90CF90BA
:104C000008950F931F93CF93DF938230910510F493
:104C100082E090E0E0913639F091373920E030E0E1
:104C2000A0E0B0E0309719F14081518102811381F9
:104C300048175907C8F08417950769F4109731F0A1
:104C400012960C93129713961C9327C00093363933
:104C50001093373922C02115310519F04217530737
:104C600018F49A01BD01EF01DF01F801DBCF211536
:104C70003105F9F0281B390B2430310580F48A8185
:104C80009B816115710521F0FB019383828304C030
:104C90009093373980933639FE01329644C0FE0135
:104CA000E20FF31F819391932250310939832883B6
:104CB0003AC02091343930913539232B41F4209179
:104CC00020013091210130933539209334392091DE
:104CD0001E0130911F012115310541F42DB73EB75A
:104CE0004091220150912301241B350BE09134396E
:104CF000F0913539E217F307A0F42E1B3F0B28176C
:104D0000390778F0AC014E5F5F4F2417350748F044
:104D10004E0F5F1F509335394093343981939193EF
:104D200002C0E0E0F0E0CF01DF91CF911F910F9141
:104D30000895CF93DF93009709F481C0FC01329767
:104D400013821282A0913639B0913739109781F4CD
:104D500020813181820F931F209134393091353970
:104D60002817390751F5F0933539E093343967C086
:104D7000ED0120E030E0CE17DF0740F44A815B818F
:104D80009E0141155105F1F0EA01F5CFD383C283AD
:104D900040815181840F951FC817D90759F4888124
:104DA0009981840F951F0296918380838A819B81CC
:104DB000938382832115310529F4F0933739E093E9
:104DC00036393DC0E901FB83EA8349915991C40F0B
:104DD000D51FEC17FD0761F480819181840F951F29
:104DE0000296E90199838883828193819B838A83D8
:104DF000E0E0F0E012968D919C911397009719F0E6
:104E0000FD01DC01F7CF8D919C9111979D012E5FE3
:104E10003F4F820F931F2091343930913539281735
:104E2000390769F4309729F41092373910923639DE
:104E300002C013821282B0933539A0933439DF91C6
:104E4000CF9108951F920F920FB60F9211242F93B6
:104E50003F938F939F93AF93BF9380912C39909101
:104E60002D39A0912E39B0912F3930912B3923E073
:104E7000230F2D3720F40196A11DB11D05C026E892
:104E8000230F0296A11DB11D20932B3980932C393D
:104E900090932D39A0932E39B0932F3980913039CA
:104EA00090913139A0913239B09133390196A11DD9
:104EB000B11D8093303990933139A0933239B0933A
:104EC0003339BF91AF919F918F913F912F910F9067
:104ED0000FBE0F901F9018952FB7F89460912C3942
:104EE00070912D3980912E3990912F392FBF0895CF
:104EF0003FB7F8948091303990913139A09132398F
:104F0000B091333926B5A89B05C02F3F19F0019603
:104F1000A11DB11D3FBFBA2FA92F982F8827820F3F
:104F2000911DA11DB11DBC01CD0142E0660F771F8F
:104F3000881F991F4A95D1F708958F929F92AF923B
:104F4000BF92CF92DF92EF92FF926B017C010E94A1
:104F500078274B015C01C114D104E104F10401F193
:104F60000E94BB280E947827DC01CB01881999098F
:104F7000AA09BB09883E9340A105B10560F321E071
:104F8000C21AD108E108F10888EE880E83E0981E65
:104F9000A11CB11CC114D104E104F10419F7DBCF49
:104FA000FF90EF90DF90CF90BF90AF909F908F9049
:104FB0000895789484B5826084BD84B5816084BD91
:104FC00085B5826085BD85B5816085BDEEE6F0E082
:104FD000808181608083E1E8F0E0108280818260DE
:104FE0008083808181608083E0E8F0E0808181605F
:104FF0008083E1EBF0E0808184608083E0EBF0E08F
:10500000808181608083E1E9F0E08081826080833B
:10501000808181608083E0E9F0E08081816080832D
:10502000EAE7F0E080818460808380818260808311
:105030008081816080838081806880831092C1003C
:10504000089590E0FC013197EA30F10540F5E05B0E
:10505000FF4F0C94D12A809180008F7703C08091FC
:1050600080008F7D80938000089584B58F7702C083
:1050700084B58F7D84BD08958091B0008F7703C083
:105080008091B0008F7D8093B00008958091900052
:105090008F7703C0809190008F7D8093900008955A
:1050A000CF93DF9390E0FC01E851FF4F2491FC0186
:1050B000E85FFE4F8491882361F190E0880F991F8B
:1050C000FC01EE5CFE4FC591D491FC01E85DFE4F02
:1050D000A591B491611109C09FB7F894888120957A
:1050E00082238883EC912E230BC0623061F49FB73A
:1050F000F8948881322F309583238883EC912E2B6E
:105100002C939FBF06C08FB7F894E8812E2B28837D
:105110008FBFDF91CF9108951F93CF93DF93282FF7
:1051200030E0F901E853FF4F8491F901E851FF4F56
:10513000D491F901E85FFE4FC491CC23C1F0162F42
:1051400081110E942128EC2FF0E0EE0FFF1FE85D97
:10515000FE4FA591B4919FB7F894111104C08C91A2
:10516000D095D82302C0EC91DE2BDC939FBFDF915A
:10517000CF911F91089508950895833060F5E82F29
:10518000F0E0EE0FFF1FEC5DFE4F71836083813016
:1051900051F08230A1F0809169008C7F482B4093C0
:1051A0006900E89A089580916900837F440F551F34
:1051B000440F551F482B40936900E99A0895809148
:1051C00069008F7C94E0440F551F9A95E1F7482BB6
:1051D00040936900EA9A0895833098F4813021F071
:1051E000823021F0E89803C0E99801C0EA98E82FDE
:1051F000F0E0EE0FFF1FEC5DFE4F8CEB98E2918329
:10520000808308951F920F920FB60F9211240BB650
:105210000F922F933F934F935F936F937F938F934F
:105220009F93AF93BF93EF93FF93E0912401F0918D
:1052300025010995FF91EF91BF91AF919F918F91BA
:105240007F916F915F914F913F912F910F900BBE86
:105250000F900FBE0F901F9018951F920F920FB6D0
:105260000F9211240BB60F922F933F934F935F939E
:105270006F937F938F939F93AF93BF93EF93FF931E
:10528000E0912601F09127010995FF91EF91BF91DF
:10529000AF919F918F917F916F915F914F913F91CE
:1052A0002F910F900BBE0F900FBE0F901F9018956F
:1052B0001F920F920FB60F9211240BB60F922F93DD
:1052C0003F934F935F936F937F938F939F93AF938E
:1052D000BF93EF93FF93E0912801F0912901099585
:1052E000FF91EF91BF91AF919F918F917F916F91BE
:1052F0005F914F913F912F910F900BBE0F900FBE7A
:105300000F901F901895883028F0883110F0885140
:1053100001C08FEF20912A0190E4299F9001112470
:105320008770822B80937C0080917A0080648093C8
:105330007A0080917A0086FDFCCF809178002091E0
:10534000790090E0922B08951F93CF93DF93182F4D
:10535000EB0161E00E945028209711F460E004C046
:10536000CF3FD10539F461E0812FDF91CF911F91BB
:105370000C948C28E12FF0E0E853FF4FE4918E2F3E
:1053800090E0FC013197EA30F10508F046C0E65A9A
:10539000FF4F0C94D12A84B5806884BDC7BD42C03C
:1053A00084B5806284BDC8BD3DC0809180008068A6
:1053B00080938000D0938900C093880033C080918F
:1053C0008000806280938000D0938B00C0938A001D
:1053D00029C08091B00080688093B000C093B30072
:1053E00021C08091B00080628093B000C093B4006F
:1053F00019C080919000806880939000D0939900AC
:10540000C09398000FC080919000806280939000BC
:10541000D0939B00C0939A0005C0C038D1050CF012
:10542000A2CF9CCFDF91CF911F9108950E94582A5F
:1054300008F481E00895E89409C097FB3EF4909544
:105440008095709561957F4F8F4F9F4F9923A9F05D
:10545000F92F96E9BB279395F695879577956795EC
:10546000B795F111F8CFFAF4BB0F11F460FF1BC030
:105470006F5F7F4F8F4F9F4F16C0882311F096E9C3
:1054800011C0772321F09EE8872F762F05C0662371
:1054900071F096E8862F70E060E02AF09A95660F2A
:1054A000771F881FDAF7880F9695879597F90895E3
:1054B000990F0008550FAA0BE0E8FEEF1616170625
:1054C000E807F907C0F012161306E407F50798F08D
:1054D000621B730B840B950B39F40A2661F0232BA6
:1054E000242B252B21F408950A2609F4A140A69522
:1054F0008FEF811D811D0895AA1BBB1B51E107C0C1
:10550000AA1FBB1FA617B70710F0A61BB70B881F53
:10551000991F5A95A9F780959095BC01CD010895E2
:10552000A1E21A2EAA1BBB1BFD010DC0AA1FBB1FA7
:10553000EE1FFF1FA217B307E407F50720F0A21B19
:10554000B30BE40BF50B661F771F881F991F1A9486
:1055500069F760957095809590959B01AC01BD01B0
:10556000CF010895052E97FB1EF400940E94C92ACE
:1055700057FD07D00E94902A07FC03D04EF40C94EC
:10558000C92A50954095309521953F4F4F4F5F4F19
:10559000089590958095709561957F4F8F4F9F4F9F
:1055A0000895EE0FFF1F0024001C0BBE0790F6911C
:1055B000E02D099469279627692778278727782778
:1055C00008950E94AD2BA59F900DB49F900DA49FB0
:1055D000800D911D11240895E894DF93CF93FC0171
:1055E000DB010E94AD2B7F936F93E9019A01AC011F
:1055F000BF93AF933F932F93DF010E94AD2B26F40F
:105600006C1B7D0B820B930B9E01EB01FC010E9436
:10561000BC2BAF91BF912F913F910E94BC2BBE013B
:10562000CF01F9012F913F91CF91DF9108956894B7
:1056300001C0E8948F929F92CF93DF930E94252B15
:10564000DF91CF919F908F90089588249924F40141
:10565000E401B0E49F93AA279A158B049C04ED05FE
:10566000FE05CF05D007A10798F4AD2FDC2FCF2F73
:10567000FE2FE92D982C892E982F872F762F652FB6
:10568000542F432F322F2227B85031F7BF9127C014
:105690001B2EBF91BB27220F331F441F551F661FB0
:1056A000771F881F991F881C991CEE1FFF1FCC1F96
:1056B000DD1FAA1FBB1F8A149B04EC05FD05CE0548
:1056C000DF05A007B10748F08A189B08EC09FD091F
:1056D000CE09DF09A00BB10B21601A94E1F62EF47C
:1056E0009401AF01BE01CD01000C08950F93083065
:1056F00090F0982F872F762F652F542F432F322F1E
:1057000022270850F4CF220F331F441F551F661F56
:10571000771F881F991F0A95B2F70F91089597FB7D
:1057200010F8169400080F93083098F00850232FB3
:10573000342F452F562F672F782F892F902DF4CF98
:1057400005949795879577956795579547953795DC
:1057500027950A95AAF70F910895A29FB001B39FCC
:10576000C001A39F700D811D1124911DB29F700D6A
:10577000811D1124911D08950E94AD2B460F571FC6
:10578000C81FD91F08F4319608958F929F92AF9247
:10579000BF92CF92DF92EF92FF92CF93DF93EC0113
:1057A000688179818A819B816115710581059105E7
:1057B00021F464E279ED8BE597E02DE133EF41E0F0
:1057C00050E00E94B22A49015A019B01AC01A7EAAC
:1057D000B1E40E94E12A6B017C01ACEEB4EFA501BB
:1057E00094010E94902CDC01CB018C0D9D1DAE1DFF
:1057F000BF1DB7FF03C00197A109B04888839983F3
:10580000AA83BB83BC01CD019F77DF91CF91FF902D
:10581000EF90DF90CF90BF90AF909F908F900895C2
:105820008F929F92AF92BF92CF92DF92EF92FF92B0
:10583000609100017091010180910201909103013A
:10584000611571058105910521F464E279ED8BE51F
:1058500097E02DE133EF41E050E00E94B22A490188
:105860005A019B01AC01A7EAB1E40E94E12A6B0155
:105870007C01ACEEB4EFA50194010E94902CDC01F8
:10588000CB018C0D9D1DAE1DBF1DB7FF03C0019741
:10589000A109B0488093000190930101A0930201F7
:1058A000B0930301BC01CD019F77FF90EF90DF9093
:1058B000CF90BF90AF909F908F900895609300011C
:1058C0007093010180930201909303010895FB01FD
:1058D000DC0102C001900D9241505040D8F708956C
:1058E000DC0101C06D9341505040E0F70895F999F3
:1058F000FECF92BD81BDF89A992780B50895262FD5
:10590000F999FECF1FBA92BD81BD20BD0FB6F894A4
:10591000FA9AF99A0FBE01960895B7FF0C94E12AFE
:0E5920000E94E12A821B930B0895F894FFCF9A
:10592E0001000000F82A000028013C000000FE03E0
:10593E000000000F00FFDCFE1101FF00050000005B
:10594E0038398000BC28BC28BC2801000000008427
:10595E001EF11F461F541F2C209A1E010204000028
:0E596E0000006424CC23F62310240224AB2472
:00000001FF
