:100000000C9483000C9499260C94C4260C94EF262F
:100010000C94AF000C94AF000C94AF000C94AF00A4
:100020000C94AF000C94AF000C94AF000C94AF0094
:100030000C94AF000C94AF000C94AF000C94AF0084
:100040000C94AF000C94AF000C9440280C94AF00BB
:100050000C94A72B0C94DD2B0C94AF000C94AF00E8
:100060000C94AF000C94AF000C94AF000C94AF0054
:100070000C94AF000C94AF000C94AF000C94DD24F2
:100080000C94AF000C94AF000C94AF000000000182
:100090000200090A00000000040308070000000035
:1000A0000000000000000000000000000102040841
:1000B0001020408001020408102040800102040842
:1000C0001020408001020408102040800202020239
:1000D00002020202040404040404040403030303EC
:1000E00003030303010101010101010100002200DA
:1000F000250028002B0000002100240027002A00F2
:10010000CA056F1D112C2092A43A11241FBECFEFF7
:10011000D0E4DEBFCDBF11E0A0E0B1E0E2E3F0E665
:1001200000E00BBF02C007900D92AA3AB107D9F7C1
:100130002AE3AAEAB1E001C01D92A43AB207E1F7AE
:1001400010E0C3E8D0E004C02197FE010E94522EC7
:10015000C038D107C9F70E94942C0C9417300C9426
:100160000000CF93DF931F92CDB7DEB76983DC0128
:10017000ED91FC910280F381E02D41E050E0BE0161
:100180006F5F7F4F09950F90DF91CF91089508958C
:10019000FC011382128288EE93E0A0E0B0E0848339
:1001A0009583A683B78389E491E09183808380E57A
:1001B000848781E085878AE090E09787868789E059
:1001C00090E0918B808B82E090E0938B828B148AFD
:1001D000158A168A178A118E108E138E128E158E1E
:1001E000148E40E050E0BA01CF010C946B2CFC015E
:1001F00077876687518B408B338B228B08950F93C3
:100200001F93CF93DF93EC01062F142F60E08E85B0
:100210000E94462A3C852D858091F839882381F0FB
:100220009FB7F8948091F839813081F58DB3809330
:10023000F6394DB38091F739809584238DBB9FBFEC
:100240003CBD2DBD0EBD00000DB407FEFDCF8EB52B
:100250001EBD00000DB407FEFDCF1EB58091F8391C
:10026000882351F09FB7F8942091F8398091F6399E
:10027000213079F48DBB9FBF61E08E850E94462AB4
:10028000812FDF91CF911F910F9108959093F639AF
:10029000D7CF8FBFF1CF6F7740E00C94FF0068E1BC
:1002A0000C944B0169E10C944B0169E10E944B01F4
:1002B000682F880F770B880B990B0E94E02C20E0A9
:1002C00030E040E85EE30E94902D08958F929F9267
:1002D000AF92BF92EF92FF920F931F93CF93DF9352
:1002E0008C016AE10E944B01C82FD0E0C8010E9436
:1002F00055010E94A82C4B017B01F8016489758986
:10030000868997890E94E02C24ED30E843E45EE47E
:100310000E94A32CBE0187FD12C06D597109F7FE22
:1003200011C0680D791DCB01DF91CF911F910F9105
:10033000FF90EF90BF90AF909F908F900895645A78
:100340007109EDCF072E000C880B990B0E94E02C51
:1003500020EB32E748E85FE30E94902D0E94A82C32
:10036000E2CFCF93DF93EC0163E10E944B0190E079
:10037000288D398D821B930BDF91CF910895CF93F8
:10038000DF93EC01E881F9810480F581E02D099586
:10039000892B69F0888D998D0196998F888F60E0FF
:1003A000CE010E944B0190E0DF91CF9108958FEF35
:1003B0009FEFFACF0F931F93CF93DF938C0166E0EB
:1003C0000E944B01D82F67E0C8010E944B01C82F43
:1003D00068E0C8010E944B014C2F50E070E060E0E3
:1003E000762F652F542F44276D2B8A019B01082BF4
:1003F000C901B80120E038E448EE51E00E946D2EBA
:1004000003E10E94122FB901CA01DF91CF911F9120
:100410000F9108956DE10E944B0190E034E09595B5
:1004200087953A95E1F78A30910574F4FC01EE0F57
:10043000FF1FE80FF91FE95DFE4F60817181828126
:10044000082E000C990B089560E070E0CB01089530
:100450006CE20C944B01CF93DF93EC0143E861E82D
:100460000E94FF0062E1CE010E944B0183FD03C0A8
:100470000E943F28F7CF48E062E9CE010E94FF00CA
:1004800081E090E0DF91CF910895AF92BF92CF923B
:10049000DF92FF920F931F93CF93DF936C015B0169
:1004A000EA0162E20E944B01F82E90E09C012C0FC1
:1004B0003D1F2F3F310529F020F0CFEFD0E0C81BC2
:1004C000D90B8501AC0EBD1E0A151B0541F0F801C4
:1004D00041918F0160E8C6010E94FF00F5CF4C2FCB
:1004E0004F0D62EAC6010E94FF00CE01DF91CF915D
:1004F0001F910F91FF90DF90CF90BF90AF90089524
:100500000F931F93CF93DF93EC01E881F98104806F
:10051000F581E02D0995892BB1F06DE0CE010E94A7
:100520004B01082F60E0CE010E944B01182F402F95
:100530006DE8CE010E94FF00812F90E0DF91CF9106
:100540001F910F9108958FEF9FEFF8CFCF93DF9317
:10055000EC017D8F6C8F8A899B89672BA1F160E00C
:100560000E940A2A40E060ECCE010E94FF008A89C6
:100570009B8982309105D9F08A309105D1F00B9793
:10058000D1F481E00E9419268A899B8982309105E5
:10059000A1F08A30910599F00B9799F481E043E03E
:1005A00050E06AEA75E0DF91CF910C94542682E026
:1005B000E9CF80E0E7CF8FEFE5CF82E0F0CF80E0BA
:1005C000EECF8FEFECCF82309105B9F08A309105F4
:1005D000B1F00B97B1F481E00E9483268A899B8950
:1005E0008230910581F08A30910579F00B9779F48A
:1005F00081E0DF91CF910C94382682E0EDCF80E04E
:10060000EBCF8FEFE9CF82E0F4CF80E0F2CF8FEF36
:10061000F0CF41E861E80C94FF0040E861E80C94F9
:10062000FF000E940D030C940526AF92BF92CF925B
:10063000DF92EF92FF920F931F93CF93DF93EC0122
:10064000DB01CA018C8B9D8BAE8BBF8B6A017B015A
:10065000FF0CCC08DC2C76019A01AB016C2D7C2DB3
:100660008C2D9C2D03E10E94F72EA12CE8E4BE2ED8
:10067000F8EECF2EDD24D394E12CF12C00E010E035
:100680000E949A2E122FC22ED32E7A01A70166271E
:10069000772766E8CE010E94FF0077276F2D5E2D39
:1006A0004D2D67E8CE010E94FF00412F68E8CE0182
:1006B000DF91CF911F910F91FF90EF90DF90CF903E
:1006C000BF90AF900C94FF00CF92DF92EF92FF9219
:1006D000CF93DF93EC016A017B0161E08E850E947C
:1006E0000A2A61E08E850E94462A888999898F3F6F
:1006F0009807B9F061E00E940A2A60E088890E94A8
:10070000462A6AE070E080E090E00E94BB2861E049
:1007100088890E94462A6AE070E080E090E00E94AA
:10072000BB280E94CF2562E4CE010E944B0182319A
:1007300091F5CE010E940D03B701A601CE010E94E2
:10074000150340E06EE8CE010E94FF0040E06FE834
:10075000CE010E94FF006CE0CE010E944B01482FA9
:1007600043606CE8CE010E94FF0044E066EACE01DF
:100770000E94FF0040E869E8CE010E94FF00CE0120
:100780000E94090381E090E0DF91CF91FF90EF900C
:10079000DF90CF90089590E080E0F6CFCF92DF9287
:1007A000EF92FF92CF93DF93EC016EE10E944B0139
:1007B000F82ECE010E940A02F2942FE0F222CC24FD
:1007C000C394D12C02C0CC0CDD1CFA94E2F70D2CA2
:1007D000000CEE08FF0828EE33E040E050E00E94F5
:1007E000332EC701B6010E94332E21313105410558
:1007F00051055CF04CE066EACE01DF91CF91FF90AD
:10080000EF90DF90CF900C94FF0044E0F4CF0F9373
:100810001F93CF93DF938C01EB016630710534F0A9
:100820006D30710534F56630710529F545EC61EBE5
:10083000C8010E94FF004CE067EBC8010E94FF0066
:10084000C6E0D0E06EE1C8010E944B018F7094E0D9
:10085000CC0FDD1F9A95E1F74C2F482B6EE9C801AC
:100860000E94FF00C801DF91CF911F910F910C945E
:10087000CE03CCE0D0E043EC61EBC8010E94FF0066
:100880004AE067EBC8010E94FF00DCCFCF92DF9205
:10089000EF92FF920F931F93CF93DF938C01CB01C5
:1008A000BA010E94E02C6B017C0120E030EC43EFA8
:1008B00055E40E94A32CD0E0C0E018160CF065C0EF
:1008C00020E030E842E256E4C701B6010E94A32CC2
:1008D000C1E0D0E018160CF058C020E030EC43E73F
:1008E00056E4C701B6010E94A32CC2E0D0E018165E
:1008F0000CF04BC020E030E842EA56E4C701B601F4
:100900000E94A32CC3E0D0E018160CF03EC020E0FB
:1009100034E244EF56E4C701B6010E94A32CC4E0C0
:10092000D0E0181694F520E034EE42E257E4C70117
:10093000B6010E94A32CC5E0D0E0181634F520E0E3
:1009400034E244E757E4C701B6010E94A32CC6E095
:10095000D0E01816D4F420E034E244EF57E4C701A5
:10096000B6010E94A32CC7E0D0E0181674F420E072
:1009700034E244E758E4C701B6010E94A32CC9E061
:10098000D0E0181614F0C8E0D0E06DE1C8010E9474
:100990004B018F7094E0CC0FDD1F9A95E1F74C2F3F
:1009A000482B6DE9C8010E94FF00C801DF91CF917B
:1009B0001F910F91FF90EF90DF90CF900C94CE039A
:1009C0000F931F93CF93DF938C01EB016930710577
:1009D00014F0C8E0D0E06DE1C8010E944B01C530C1
:1009E000D10514F4C5E0D0E02497CC0FDD1F482FCB
:1009F000417F4C2B6DE9C801DF91CF911F910F9181
:100A00000C94FF00CF93DF93EC016EE10E944B0149
:100A1000482F44606EE9CE01DF91CF910C94FF0026
:100A2000CF93DF93EC011B8E1A8E6DE10E944B0178
:100A3000482F4E7F6DE9CE01DF91CF910C94FF00DE
:100A4000CF93DF93EC0181E090E09B8F8A8F6DE183
:100A5000CE010E944B01482F41606DE9CE01DF912C
:100A6000CF910C94FF000F931F93CF93DF93EC0172
:100A70008B010E940903CE01012B99F00E942005F1
:100A800040E06DE8CE010E94FF0040E062EACE0146
:100A90000E94FF0081E090E0DF91CF911F910F91C4
:100AA00008950E941005ECCF0F931F93CF93DF930F
:100AB000EC018B011616170684F40E942005402FC6
:100AC00062EACE010E94FF0045E861E8CE01DF91B5
:100AD000CF911F910F910C94FF000E941005F4CF4D
:100AE0000F931F93CF93DF93EC0162E10E944B01C0
:100AF000182F482F62E9CE010E94FF0015FD25C086
:100B0000198E188E8A8D9B8D62E2892B09F463E120
:100B1000CE010E944B01082F10E060E1CE010E943F
:100B20004B01482F6DE8CE010E94FF00EC8DFD8D3A
:100B3000309711F0C801099540E06DE8CE01DF91D2
:100B4000CF911F910F910C94FF00DF91CF911F91D6
:100B50000F9108958AEA91E00C947005452B61F499
:100B6000AB016F30710514F04EE050E057FD40E0EE
:100B7000406769E80C94FF00AB016231710514F025
:100B800041E150E04230510514F442E050E042505F
:100B90004068EFCF8AEA91E00C94C8002F923F9210
:100BA0004F925F926F927F928F929F92AF92BF927D
:100BB000CF92DF92EF92FF920F931F93CF93DF9329
:100BC000CDB7DEB7C857D1090FB6F894DEBF0FBE58
:100BD000CDBFE9969FAF8EAFE9971A01DC01189659
:100BE0000D911D912D913C911B9761960CAF1DAFFE
:100BF0002EAF3FAF61971C960D911D912D913C91A9
:100C00001F9709831A832B833C8350960D911D9166
:100C10002D913C9153970D831E832F8338875496D3
:100C20000D911D912D913C91579709871A872B871C
:100C30003C87E6966FAFE697E7967FAFE797A85AAF
:100C4000BF4F6396BFAFAEAF6397FC01E45AFF4F4F
:100C50006596FFAFEEAF65978C01005A1F4F679600
:100C60001FAF0EAF67979C012C593F4F69963FAF5E
:100C70002EAF699788599F4F6B969FAF8EAF6B973A
:100C8000E996AEADBFADE997A459BF4F6D96BFAF22
:100C9000AEAF6D97E996EEADFFADE997E059FF4F26
:100CA0006F96FFAFEEAF6F97E9960EAD1FADE99768
:100CB0000C581F4FA1961FAF0EAFA197E9962EAD0E
:100CC0003FADE99728583F4FA3963FAF2EAFA3976C
:100CD000E9968EAD9FADE99784589F4FA5969FAF3B
:100CE0008EAFA597E996AEADBFADE997A058BF4FBF
:100CF000A796BFAFAEAFA797E996EEADFFADE99768
:100D0000EC57FF4FA996FFAFEEAFA997E9960EAD4E
:100D10001FADE99708571F4FAB961FAF0EAFAB97AC
:100D2000E9962EAD3FADE99724573F4FAD963FAFC3
:100D30002EAFAD97E9968EAD9FADE99780579F4F47
:100D4000AF969FAF8EAFAF97E996AEADBFADE997C7
:100D5000AC56BF4FE196BFAFAEAFE197E796AEADF1
:100D6000BFADE7970D911D912D913C910D871E8789
:100D70002F87388B6396EEADFFAD639700831183A9
:100D80002283338361968CAD9DADAEADBFAD6197CF
:100D900088589B45A549B842800F911FA21FB31FD9
:100DA0004D815E816F81788509851A852B853C850B
:100DB000402751276227732709811A812B813C81A3
:100DC000402351236223732309851A852B853C8593
:100DD0004027512762277327840F951FA61FB71F2F
:100DE0008C019D0147E0000F111F221F331F4A9500
:100DF000D1F7AC01BD01E9E1769567955795479527
:100E0000EA95D1F7402B512B622B732B89819A8164
:100E1000AB81BC81480F591F6A1F7B1FE796AEAD9F
:100E2000BFADE79714960D911D912D913C911797A9
:100E3000098B1A8B2B8B3C8B6596EEADFFAD6597BE
:100E4000008311832283338389859A85AB85BC8592
:100E50008A5A9844A843B741800F911FA21FB31F1D
:100E6000C980DA80EB80FC800D811E812F8138855E
:100E7000C026D126E226F326C422D522E622F72276
:100E8000C026D126E226F3268C0D9D1DAE1DBF1D6A
:100E90008C019D01FCE0000F111F221F331FFA95EA
:100EA000D1F76C017D01A4E1F694E794D794C7943F
:100EB000AA95D1F7C02AD12AE22AF32AC40ED51E58
:100EC000E61EF71EE796AEADBFADE79718968D917B
:100ED0009D910D90BC91A02D8D8B9E8BAF8BB88F6B
:100EE0006796EEADFFAD679780839183A283B3834E
:100EF0008D819E81AF81B88585529F48AF4DBB4D96
:100F00000D891E892F89388D800F911FA21FB31F55
:100F100049805A806B807C80442655266626772639
:100F20004C205D206E207F2009811A812B813C811D
:100F30004026512662267326840D951DA61DB71DD9
:100F40008C019D01EFE03695279517950795EA9559
:100F5000D1F72C013D01F1E1440C551C661C771CB6
:100F6000FA95D1F7402A512A622A732A4C0C5D1C4B
:100F70006E1C7F1CE796AEADBFADE7971C968D91BA
:100F80009D910D90BC91A02D898F9A8FAB8FBC8FB6
:100F90006996EEADFFAD699780839183A283B38399
:100FA00089819A81AB81BC8182519143A244BE4325
:100FB000098D1A8D2B8D3C8D800F911FA21FB31FA1
:100FC0008A019B010C251D252E253F250421152175
:100FD000262137210427152726273727800F911F21
:100FE000A21FB31F4C015D011AE0B694A794979419
:100FF00087941A95D1F78C019D0186E1000F111F8E
:10100000221F331F8A95D1F7082919292A293B293C
:10101000040D151D261D371DE796AEADBFADE79734
:1010200050968D919D910D90BC91A02D8D8F9E8F8E
:10103000AF8FB8A36B96EEADFFAD6B9780839183B6
:10104000A283B3838155904FA348BA40840F951F64
:10105000A61FB71FB701A60144255525662577258C
:1010600040235123622373234C255D256E257F2564
:10107000840F951FA61FB71F4C015D0147E0880C28
:10108000991CAA1CBB1C4A95D1F7AC01BD01E9E132
:101090007695679557954795EA95D1F74829592947
:1010A0006A297B29400F511F621F731FE796AEAD5F
:1010B000BFADE79754968D919D910D90BC91A02D59
:1010C00089A39AA3ABA3BCA36D96EEADFFAD6D97BC
:1010D00080839183A283B383865D9943A847B84BED
:1010E0008C0D9D1DAE1DBF1D73016201C026D12652
:1010F000E226F326C422D522E622F722C424D524F0
:10110000E624F7248C0D9D1DAE1DBF1D4C015D0115
:10111000FCE0880C991CAA1CBB1CFA95D1F76C0149
:101120007D01A4E1F694E794D794C794AA95D1F7EA
:10113000C828D928EA28FB28C40ED51EE61EF71EAB
:10114000E796AEADBFADE79758968D919D910D9006
:10115000BC91A02D8DA39EA3AFA3B8A76F96EEADB3
:10116000FFAD6F9780839183A283B3838D5E994B8C
:10117000AF4CB745840D951DA61DB71D280139013B
:1011800044265526662677264C205D206E207F203B
:101190004026512662267326840D951DA61DB71D77
:1011A0004C015D01EFE0B694A79497948794EA957B
:1011B000D1F72C013D01F1E1440C551C661C771C54
:1011C000FA95D1F7482859286A287B284C0C5D1CD1
:1011D0006E1C7F1CE796AEADBFADE7975C968D9118
:1011E0009D910D90BC91A02D89A79AA7ABA7BCA7F4
:1011F000A196EEADFFADA19780839183A283B383C7
:101200008F5F9A46A94BB240800F911FA21FB31F58
:101210008A019B010C251D252E253F250421152122
:10122000262137210427152726273727800F911FCE
:10123000A21FB31F4C015D011AE0B694A7949794C6
:1012400087941A95D1F78C019D0186E1000F111F3B
:10125000221F331F8A95D1F7082919292A293B29EA
:10126000040D151D261D371DE796AEADBFADE797E2
:1012700090968D919D910D90BC91A02D8DA79EA7CC
:10128000AFA7B8ABA396EEADFFADA39780839183D4
:10129000A283B38388529746AF47B649840F951F00
:1012A000A61FB71FB701A60144255525662577253A
:1012B00040235123622373234C255D256E257F2512
:1012C000840F951FA61FB71F4C015D0147E0880CD6
:1012D000991CAA1CBB1C4A95D1F7AC01BD01E9E1E0
:1012E0007695679557954795EA95D1F748295929F5
:1012F0006A297B29400F511F621F731FE796AEAD0D
:10130000BFADE79794968D919D910D90BC91A02DC6
:1013100089AB9AABABABBCABA596EEADFFADA597D9
:1013200080839183A283B38381559840AB4BB447AC
:101330008C0D9D1DAE1DBF1D73016201C026D126FF
:10134000E226F326C422D522E622F722C424D5249D
:10135000E624F7248C0D9D1DAE1DBF1D4C015D01C3
:10136000FCE0880C991CAA1CBB1CFA95D1F76C01F7
:101370007D01A4E1F694E794D794C794AA95D1F798
:10138000C828D928EA28FB28C40ED51EE61EF71E59
:10139000E796AEADBFADE79798968D919D910D9074
:1013A000BC91A02D8DAB9EABAFABB8AFA796EEAD09
:1013B000FFADA79780839183A283B3838F54944A10
:1013C000A109B109840D951DA61DB71D280139017C
:1013D00044265526662677264C205D206E207F20E9
:1013E0004026512662267326840D951DA61DB71D25
:1013F0004C015D01EFE0B694A79497948794EA9529
:10140000D1F72C013D01F1E1440C551C661C771C01
:10141000FA95D1F7482859286A287B284C0C5D1C7E
:101420006E1C7F1CE796AEADBFADE7979C968D9185
:101430009D910D90BC91A02D89AF9AAFABAFBCAF81
:10144000A996EEADFFADA99780839183A283B38364
:1014500082549842A34AB647800F911FA21FB31F20
:101460008A019B010C251D252E253F2504211521D0
:10147000262137210427152726273727800F911F7C
:10148000A21FB31F4C015D011AE0B694A794979474
:1014900087941A95D1F78C019D0186E1000F111FE9
:1014A000221F331F8A95D1F7082919292A293B2998
:1014B000040D151D261D371DE796AEADBFADE79790
:1014C000D0968D919D910D90BC91A02D21968CAFC1
:1014D0009DAFAEAFBFAF2197AB96EEADFFADAB9773
:1014E00080839183A283B3834C015D01FEED8F1A4B
:1014F000FEEE9F0AFFE6AF0AF4E9BF0A840E951ECE
:10150000A61EB71EB701A6014425552566257725D9
:1015100040235123622373234C255D256E257F25AF
:10152000480D591D6A1D7B1D4A015B0197E0880C1F
:10153000991CAA1CBB1C9A95D1F7E9E17695679591
:1015400057954795EA95D1F7482959296A297B2962
:10155000400F511F621F731FE796AEADBFADE797F7
:10156000D4968D919D910D90BC91A02D25968CAF18
:101570009DAFAEAFBFAF2597AD96EEADFFADAD97CA
:1015800080839183A283B3834C015D01FDE68F1AB2
:10159000FEE89F0AF7E6AF0AF2E0BF0A8C0C9D1C3A
:1015A000AE1CBF1C73016201C026D126E226F326C1
:1015B000C422D522E622F722C424D524E624F72427
:1015C000C80CD91CEA1CFB1C46015701FCE0880C26
:1015D000991CAA1CBB1CFA95D1F7A4E1F694E794D8
:1015E000D794C794AA95D1F7C828D928EA28FB2808
:1015F000C40ED51EE61EF71EE796AEADBFADE7974B
:10160000D8968D919D910D90BC91A02D29968CAF6F
:101610009DAFAEAFBFAF2997AF96EEADFFADAF9721
:1016200080839183A283B3834C015D01F2E78F1A1B
:10163000FCEB9F0AF6E8AF0AF9E5BF0A840C951C9B
:10164000A61CB71C28013901442655266626772694
:101650004C205D206E207F20402651266226732676
:10166000480C591C6A1C7B1C53014201BFE0B69414
:10167000A79497948794BA95D1F781E1440C551CAF
:10168000661C771C8A95D1F7482859286A287B2838
:101690004C0C5D1C6E1C7F1CE796AEADBFADE79792
:1016A000DC968D919D910D90BC91A02D2D968CAFC7
:1016B0009DAFAEAFBFAF2D97E196EEADFFADE19719
:1016C00080839183A283B3834C015D01FFED8F1A68
:1016D000F7EF9F0AFBE4AF0AF6EBBF0A800E911EFC
:1016E000A21EB31E8A019B010C251D252E253F2518
:1016F00004211521262137210427152726273727DE
:10170000080D191D2A1D3B1D480159019AE0B69488
:10171000A794979487949A95D1F7E6E1000F111F4B
:10172000221F331FEA95D1F7082919292A293B29B5
:10173000040D151D261D371D89889A88AB88BC8825
:101740008EE9881A8AED980A81EEA80A89E0B80A1B
:10175000840E951EA61EB71EB301A2014027512775
:10176000622773274C215D216E217F214425552559
:1017700066257725480D591D6A1D7B1D4A015B01B1
:10178000F5E0880C991CAA1CBB1CFA95D1F7ABE1BB
:101790007695679557954795AA95D1F74829592980
:1017A0006A297B29400F511F621F731F8DA09EA0C5
:1017B000AFA0B8A490EC891A9CE4990A9FEBA90AFF
:1017C0009FE3B90A8C0C9D1CAE1CBF1C68017901FB
:1017D000C426D526E626F726C420D520E620F72005
:1017E000C026D126E226F326C80CD91CEA1CFB1C15
:1017F00046015701B9E0880C991CAA1CBB1CBA957C
:10180000D1F787E1F694E794D794C7948A95D1F7F6
:10181000C828D928EA28FB28C40ED51EE61EF71EC4
:1018200089AC9AACABACBCACAFEA8A1AA5EA9A0A0E
:10183000A1EAAA0AA9EDBA0A840C951CA61CB71C39
:101840002A013B014C245D246E247F244022512236
:10185000622273224426552666267726480C591C98
:101860006A1C7B1C530142019EE0880C991CAA1C37
:10187000BB1C9A95D1F7E2E176946794579447940C
:10188000EA95D1F7482859286A287B284C0C5D1C1A
:101890006E1C7F1C8D849E84AF84B888B6E58B1A3D
:1018A000B8E39B0AB9E4AB0AB6E1BB0A800E911E0D
:1018B000A21EB31E9701860104251525262537256E
:1018C00004231523262337230C251D252E253F25EC
:1018D000080D191D2A1D3B1D48015901FCE0B69455
:1018E000A79497948794FA95D1F7A4E1000F111F5C
:1018F000221F331FAA95D1F7082919292A293B2924
:10190000040D151D261D371D89A09AA0ABA0BCA0F3
:10191000E3EA8E1AEFEE9E0AE0EDAE0AE9E2BE0AB5
:10192000840E951EA61EB71EB301A20140275127A3
:10193000622773274C215D216E217F214425552587
:1019400066257725480D591D6A1D7B1D4A015B01DF
:10195000B5E0880C991CAA1CBB1CBA95D1F78BE189
:1019600076956795579547958A95D1F748295929CE
:101970006A297B29400F511F621F731F8DA89EA8E3
:10198000AFA8B8ACFDEA8F1AFBEE9F0AFBEBAF0ADB
:10199000FDEFBF0A8C0C9D1CAE1CBF1C68017901B9
:1019A000C426D526E626F726C420D520E620F72033
:1019B000C026D126E226F326C80CD91CEA1CFB1C43
:1019C0004601570199E0880C991CAA1CBB1C9A95EA
:1019D000D1F7E7E1F694E794D794C794EA95D1F765
:1019E000C828D928EA28FB28C40ED51EE61EF71EF3
:1019F0002D968CAC9DACAEACBFAC2D978FE7881A02
:101A000089E1980A8EE5A80A87E2B80A840C951C39
:101A1000A61CB71C2A013B014C245D246E247F24A4
:101A200040225122622273224426552666267726BA
:101A3000480C591C6A1C7B1C53014201FEE0880CB7
:101A4000991CAA1CBB1CFA95D1F7A2E17694679465
:101A500057944794AA95D1F7482859286A287B2893
:101A60004C0C5D1C6E1C7F1C8D8C9E8CAF8CB8A0AA
:101A700098E3891A94E0990A9CE2A90A98E1B90AC4
:101A8000800E911EA21EB31E970186010425152506
:101A90002625372504231523262337230C251D252A
:101AA0002E253F25080D191D2A1D3B1D48015901F2
:101AB000BCE0B694A79497948794BA95D1F784E143
:101AC000000F111F221F331F8A95D1F708291929EA
:101AD0002A293B29040D151D261D371D89A89AA802
:101AE000ABA8BCA8AAE18A1AA2E39A0AAEE1AA0AA4
:101AF000AEEDBA0A840E951EA61EB71EB301A20152
:101B000040275127622773274C215D216E217F21B9
:101B10004425552566257725480D591D6A1D7B1DD1
:101B20004A015B0195E0880C991CAA1CBB1C9A9584
:101B3000D1F7EBE17695679557954795EA95D1F7FB
:101B4000482959296A297B29400F511F621F731F99
:101B500029968CAC9DACAEACBFAC2997BAE28B1A7F
:101B6000B8EF9B0AB8ECAB0ABCE3BB0A8C0C9D1C1B
:101B7000AE1CBF1C68017901C426D526E626F726CF
:101B8000C420D520E620F720C026D126E226F32661
:101B9000C80CD91CEA1CFB1C46015701F9E0880C53
:101BA000991CAA1CBB1CFA95D1F7A7E1F694E794FF
:101BB000D794C794AA95D1F7C828D928EA28FB2832
:101BC000C40ED51EE61EF71E898C9A8CAB8CBC8C7D
:101BD000E9E78E1AE2EF9E0AEAE2AE0AEBE0BE0AFD
:101BE000840C951CA61CB71C2A013B014C245D24C7
:101BF0006E247F24402251226222732244265526DD
:101C000066267726480C591C6A1C7B1C530142012E
:101C1000BEE0880C991CAA1CBB1CBA95D1F782E1C6
:101C200076946794579447948A95D1F74828592811
:101C30006A287B284C0C5D1C6E1C7F1C8DA49EA406
:101C4000AFA4B8A8F3E18F1AFBEE9F0AF5EAAF0A3A
:101C5000FAEBBF0A800E911EA21EB31E97018601E9
:101C60000425152526253725042315232623372368
:101C70000C251D252E253F25080D191D2A1D3B1D50
:101C8000480159019CE0B694A794979487949A953B
:101C9000D1F7E4E1000F111F221F331FEA95D1F79E
:101CA000082919292A293B29040D151D261D371D30
:101CB00025968CAC9DACAEACBFAC25978BEF881A4B
:101CC00086E1980A8CE1A80A86E5B80A840E951E7A
:101CD000A61EB71EB301A201402751276227732712
:101CE0004C215D216E217F214425552566257725D0
:101CF000480D591D6A1D7B1D4A015B01F5E0880CEA
:101D0000991CAA1CBB1CFA95D1F7ABE17695679597
:101D100057954795AA95D1F7482959296A297B29CA
:101D2000400F511F621F731F8D889E88AF88B88C2B
:101D300098E0891A9CE5990A90E1A90A93E0B90A0A
:101D40008C0C9D1CAE1CBF1C68017901C426D526D5
:101D5000E626F726C420D520E620F720C026D12687
:101D6000E226F326C80CD91CEA1CFB1C46015701CD
:101D7000B9E0880C991CAA1CBB1CBA95D1F787E165
:101D8000F694E794D794C7948A95D1F7C828D928B0
:101D9000EA28FB28C40ED51EE61EF71E89A49AA4C5
:101DA000ABA4BCA4A7E28A1AADEF9A0AA0E9AA0ADA
:101DB000A8E9BA0A840C951CA61CB71C2A013B0191
:101DC0004C245D246E247F244022512262227322FF
:101DD0004426552666267726480C591C6A1C7B1C0F
:101DE000530142019EE0880C991CAA1CBB1C9A95C9
:101DF000D1F7E2E17694679457944794EA95D1F746
:101E0000482859286A287B284C0C5D1C6E1C7F1CB6
:101E10004601570184249524A624B72421968CAD2D
:101E20009DADAEADBFAD21978657934BA54DB24743
:101E3000800F911FA21FB31F950184010423152356
:101E4000262337230C251D252E253F25800F911F86
:101E5000A21FB31F8C019D01FCE0369527951795B5
:101E60000795FA95D1F7E5960CAF1DAF2EAF3FAFB2
:101E7000E5978C019D01A4E1000F111F221F331F64
:101E8000AA95D1F7E5968CAD9DADAEADBFADE5970A
:101E9000082B192B2A2B3B2B040D151D261D371D36
:101EA00089A19AA1ABA1BCA18E5B964CA540B109BA
:101EB000840F951FA61FB71F80269126A226B32642
:101EC000880E991EAA1EBB1ED501C40144E0880FCE
:101ED000991FAA1FBB1F4A95D1F75CE1B694A7943E
:101EE000979487945A95D1F7882A992AAA2ABB2AC7
:101EF000800E911EA21EB31E4DA55EA56FA578A9EA
:101F00004F5759406E4878474C0D5D1D6E1D7F1D23
:101F100073016201C026D126E226F326C824D92403
:101F2000EA24FB24C40ED51EE61EF71EB701A60147
:101F3000EBE0440F551F661F771FEA95D1F7F5E1D7
:101F4000F694E794D794C794FA95D1F7C42AD52A82
:101F5000E62AF72AC80CD91CEA1CFB1C49AD5AAD6D
:101F60006BAD7CAD4E5D5E4962467249440E551EB6
:101F7000661E771EB901A801482559256A257B25CB
:101F80004C255D256E257F25440E551E661E771E49
:101F9000D20123013D014C0C5D1C6E1C7F1C299657
:101FA0004CAD5DAD6EAD7FAD2997445F574C6A4136
:101FB0007240400F511F621F731F950184010C2551
:101FC0001D252E253F250425152526253725040FFB
:101FD000151F261F371FB901A801A9E0769567953F
:101FE00057954795AA95D1F7B7E1000F111F221F0A
:101FF000331FBA95D1F7042B152B262B372B040D45
:10200000151D261D371D49895A896B897C894C5BB2
:10201000554161447B45480D591D6A1D7B1D460194
:10202000570184249524A624B72480269126A2262D
:10203000B326840E951EA61EB71EB501A40184E02A
:10204000440F551F661F771F8A95D1F79CE1B69400
:10205000A794979487949A95D1F7842A952AA62ACB
:10206000B72A800E911EA21EB31E4D8D5E8D6F8D00
:1020700078A1475550436142744BC40ED51EE61EED
:10208000F71EB301A2014027512762277327482575
:1020900059256A257B254C0D5D1D6E1D7F1DDB01BD
:1020A000CA01EBE0880F991FAA1FBB1FEA95D1F761
:1020B000F5E17695679557954795FA95D1F7482BB1
:1020C000592B6A2B7B2B480D591D6A1D7B1DC9A4FA
:1020D000DAA4EBA4FCA4B0EACB1AB4EBDB0AB4E4B8
:1020E000EB0AB9E0FB0A4C0C5D1C6E1C7F1C6801FE
:1020F0007901C824D924EA24FB24C426D526E6265F
:10210000F7264C0C5D1C6E1C7F1CF20123013F0165
:10211000440E551E661E771ECDA8DEA8EFA8F8ACAB
:10212000F0E9CF1AF3E4DF0AF0E4EF0AF1E4FF0A82
:10213000C00ED11EE21EF31E95018401042715274F
:102140002627372704251525262537250C0D1D1D87
:102150002E1D3F1D68017901A9E0F694E794D794FC
:10216000C794AA95D1F7B7E1000F111F221F331FA3
:10217000BA95D1F70C291D292E293F29040D151DCB
:10218000261D371D2596CCACDDACEEACFFAC2597FB
:102190008AE3C81A81E8D80A84E6E80A87EDF80AD3
:1021A000C80CD91CEA1CFB1C4A015B018424952441
:1021B000A624B72480269126A226B3268C0C9D1C2B
:1021C000AE1CBF1C7501640184E0CC0CDD1CEE1C50
:1021D000FF1C8A95D1F79CE1B694A79497948794B5
:1021E0009A95D1F78C289D28AE28BF28800E911E85
:1021F000A21EB31ECD84DE84EF84F88896E0C91A4F
:1022000098EDD90A9EE5E90A95E1F90AC40ED51EB2
:10221000E61EF71EB301A20140275127622773274C
:10222000482559256A257B254C0D5D1D6E1D7F1D9A
:102230006A017B01EBE0CC0CDD1CEE1CFF1CEA9577
:10224000D1F7F5E17695679557954795FA95D1F7CA
:102250004C295D296E297F29480D591D6A1D7B1D5A
:10226000C98CDA8CEB8CFC8CABE7CA1AAFECDA0ABF
:10227000A0E1EA0AABE2FA0A4C0C5D1C6E1C7F1C62
:1022800068017901C824D924EA24FB24C426D52670
:10229000E626F7264C0C5D1C6E1C7F1CF201230108
:1022A0003F01440E551E661E771ECDA0DEA0EFA096
:1022B000F8A4FBEFCF1AF2EEDF0AF7E7EF0AFBEF25
:1022C000FF0AC00ED11EE21EF31E950184010427F1
:1022D00015272627372704251525262537250C0DF4
:1022E0001D1D2E1D3F1D68017901A9E0F694E7949C
:1022F000D794C794AA95D1F7B7E1000F111F221FF9
:10230000331FBA95D1F70C291D292E293F29040D19
:10231000151D261D371DC9A8DAA8EBA8FCA887EC57
:10232000C81A8FE2D80A8BE2E80A86E2F80AC80CDB
:10233000D91CEA1CFB1C4A015B0184249524A624B9
:10234000B72480269126A226B3268C0C9D1CAE1C99
:10235000BF1C7501640184E0CC0CDD1CEE1CFF1C6D
:102360008A95D1F79CE1B694A794979487949A950F
:10237000D1F78C289D28AE28BF28800E911EA21E62
:10238000B31E2196CCACDDACEEACFFAC21979BE14B
:10239000C91A96E6D90A94E2E90A99E1F90AC40E43
:1023A000D51EE61EF71EB301A20140275127622762
:1023B0007327482559256A257B254C0D5D1D6E1D0B
:1023C0007F1D6A017B01EBE0CC0CDD1CEE1CFF1CC9
:1023D000EA95D1F7F5E17695679557954795FA9582
:1023E000D1F74C295D296E297F29480D591D6A1D99
:1023F0007B1D2D96CCACDDACEEACFFAC2D97A8E0F0
:10240000CA1AA3E8DA0AADE5EA0AA0EEFA0A4C0C09
:102410005D1C6E1C7F1C68017901C824D924EA2444
:10242000FB24C426D526E626F7264C0C5D1C6E1C24
:102430007F1CF20123013F01440E551E661E771ECC
:10244000CD88DE88EF88F88CFBE9CF1AF9EADF0A3D
:10245000F3E5EF0AFBE3FF0AC00ED11EE21EF31EF6
:1024600095018401042715272627372704251525DC
:10247000262537250C0D1D1D2E1D3F1D68017901D8
:10248000A9E0F694E794D794C794AA95D1F7B7E159
:10249000000F111F221F331FBA95D1F70C291D29D8
:1024A0002E293F29040D151D261D371DCD84DE84E0
:1024B000EF84F8888CEBC81A8DEDD80A86EDE80A0F
:1024C0008BE0F80AC80CD91CEA1CFB1C4A015B0112
:1024D00080949094A094B094802A912AA22AB32A3E
:1024E00084249524A624B7248C0C9D1CAE1CBF1CF0
:1024F0007501640186E0CC0CDD1CEE1CFF1C8A9586
:10250000D1F79AE1B694A794979487949A95D1F7C6
:102510008C289D28AE28BF28800E911EA21EB31EB7
:10252000C9A4DAA4EBA4FCA499E6C91AD10895EDD4
:10253000E90A9CEBF90AC40ED51EE61EF71EB3018C
:10254000A2014095509560957095482959296A29AE
:102550007B2940275127622773274C0D5D1D6E1D77
:102560007F1D6A017B01EAE0CC0CDD1CEE1CFF1C28
:10257000EA95D1F7F6E17695679557954795FA95DF
:10258000D1F74C295D296E297F29480D591D6A1DF7
:102590007B1D2996CCACDDACEEACFFAC2997A9E550
:1025A000CA1AACEDDA0AABE6EA0AA4E5FA0AC40CE8
:1025B000D51CE61CF71C2801390140945094609406
:1025C0007094442A552A662A772A482459246A2472
:1025D0007B244C0C5D1C6E1C7F1C73016201AFE000
:1025E000CC0CDD1CEE1CFF1CAA95D1F7B1E1769452
:1025F000679457944794BA95D1F74C285D286E2874
:102600007F28440E551E661E771EC9A0DAA0EBA0D7
:10261000FCA0B7ECCB1ABFE5DB0ABCE6EB0AB3E0E3
:10262000FB0AC00ED11EE21EF31E95018401009527
:102630001095209530950429152926293729042736
:102640001527262737270C0D1D1D2E1D3F1D680140
:1026500079018BE0F694E794D794C7948A95D1F7E3
:1026600095E1000F111F221F331F9A95D1F70C29F6
:102670001D292E293F29040D151D261D371D2196C4
:10268000CCACDDACEEACFFAC2197EDE3CE1AE6EAC4
:10269000DE0AE4EAEE0AEAE9FE0AC80CD91CEA1CE2
:1026A000FB1C4A015B0180949094A094B094802A12
:1026B000912AA22AB32A84249524A624B7248C0C18
:1026C0009D1CAE1CBF1C75016401E6E0CC0CDD1C3A
:1026D000EE1CFF1CEA95D1F7FAE1B694A794979403
:1026E0008794FA95D1F78C289D28AE28BF28800EB4
:1026F000911EA21EB31EC98CDA8CEB8CFC8CFEE6FC
:10270000CF1AF3E3DF0AF3EFEF0AF0E7FF0AC40E94
:10271000D51EE61EF71EB301A201409550956095A7
:102720007095482959296A297B2940275127622712
:1027300073274C0D5D1D6E1D7F1D6A017B01AAE094
:10274000CC0CDD1CEE1CFF1CAA95D1F7B6E17695EA
:10275000679557954795BA95D1F74C295D296E290C
:102760007F29480D591D6A1D7B1DCDA8DEA8EFA845
:10277000F8AC83E8C81A8BE0D80A80E1E80AF108CF
:10278000C40CD51CE61CF71C280139014094509458
:1027900060947094442A552A662A772A482459243A
:1027A0006A247B244C0C5D1C6E1C7F1C730162012F
:1027B0008FE0CC0CDD1CEE1CFF1C8A95D1F791E15B
:1027C00076946794579447949A95D1F74C285D284E
:1027D0006E287F28440E551E661E771EC988DA882B
:1027E000EB88FC889FE2C91A92EAD90A9BE7E90ABA
:1027F0009AE7F90AC00ED11EE21EF31E950184016C
:1028000000951095209530950429152926293729FA
:1028100004271527262737270C0D1D1D2E1D3F1DAC
:1028200068017901EBE0F694E794D794C794EA95B0
:10283000D1F7F5E1000F111F221F331FFA95D1F7D1
:102840000C291D292E293F29040D151D261D371D74
:10285000CDA4DEA4EFA4F8A8A1EBCA1AA1E8DA0A75
:10286000A7E5EA0AA0E9FA0AC80CD91CEA1CFB1C75
:102870004A015B0180949094A094B094802A912A9C
:10288000A22AB32A84249524A624B7248C0C9D1C48
:10289000AE1CBF1C75016401A6E0CC0CDD1CEE1C57
:1028A000FF1CAA95D1F7BAE1B694A79497948794A0
:1028B000BA95D1F78C289D28AE28BF28800E911E8E
:1028C000A21EB31E2D968CAD9DADAEADBFAD2D97A6
:1028D00080529941A34DB140840F951FA61FB71F89
:1028E000B301A201409550956095709548295929EA
:1028F0006A297B294027512762277327840F951F58
:10290000A61FB71F6C017D014AE0CC0CDD1CEE1C3C
:10291000FF1C4A95D1F7AC01BD01E6E176956795BC
:1029200057954795EA95D1F74C295D296E297F295E
:10293000480D591D6A1D7B1D8DA19EA1AFA1B8A593
:102940008C5E9C4BAE4FBC45840D951DA61DB71DDE
:10295000280139014094509460947094442A552A77
:10296000662A772A482459246A247B24840D951DDD
:10297000A61DB71D6C017D01FFE0CC0CDD1CEE1C1B
:10298000FF1CFA95D1F72C013D01A1E176946794E3
:1029900057944794AA95D1F74C285D286E287F2834
:1029A000440E551E661E771E25968CAD9DADAEADB0
:1029B000BFAD25978F559E4EA74FB14B800F911FEE
:1029C000A21FB31F950184010095109520953095A5
:1029D00004291529262937290427152726273727CB
:1029E000800F911FA21FB31F6C017D011BE0F694A5
:1029F000E794D794C7941A95D1F78C019D0185E18E
:102A0000000F111F221F331F8A95D1F70C291D2992
:102A10002E293F29040D151D261D371D8D8D9E8DD8
:102A2000AF8DB8A18E579148AC4AB840880D991D1A
:102A3000AA1DBB1D4A015B0180949094A094B094A0
:102A4000802A912AA22AB32A84249524A624B72472
:102A5000880D991DAA1DBB1D6C017D01E6E0CC0C03
:102A6000DD1CEE1CFF1CEA95D1F74C015D01FAE17B
:102A7000B694A79497948794FA95D1F78C289D28BB
:102A8000AE28BF28800E911EA21EB31E89AD9AAD3E
:102A9000ABADBCAD8B5C9D40A54CB244840F951F83
:102AA000A61FB71FB301A201409550956095709580
:102AB000482959296A297B294027512762277327EA
:102AC000840F951FA61FB71F6C017D014AE0CC0C37
:102AD000DD1CEE1CFF1C4A95D1F7AC01BD01E6E1FF
:102AE0007695679557954795EA95D1F74C295D29D5
:102AF0006E297F29480D591D6A1D7B1D8D899E8970
:102B0000AF89B88D85549D42A842B54D840D951D61
:102B1000A61DB71D2801390140945094609470940B
:102B2000442A552A662A772A482459246A247B2471
:102B3000840D951DA61DB71D6C017D01FFE0CC0C19
:102B4000DD1CEE1CFF1CFA95D1F72C013D01A1E123
:102B50007694679457944794AA95D1F74C285D28AA
:102B60006E287F28440E551E661E771E89A99AA9D5
:102B7000ABA9BCA98F569C42A947B441800F911FB5
:102B8000A21FB31F950184010095109520953095E3
:102B90000429152926293729042715272627372709
:102BA000800F911FA21FB31F6C017D011BE0F694E3
:102BB000E794D794C7941A95D1F78C019D0185E1CC
:102BC000000F111F221F331F8A95D1F70C291D29D1
:102BD0002E293F29040D151D261D371D61968CAD2C
:102BE0009DADAEADBFAD6197880D991DAA1DBB1DF2
:102BF00061968CAF9DAFAEAFBFAF619789819A816F
:102C0000AB81BC81800F911FA21FB31F89839A8360
:102C1000AB83BC830D811E812F813885040D151D6A
:102C2000261D371D0D831E832F83388789859A853E
:102C3000AB85BC85840F951FA61FB71F89879A8710
:102C4000AB87BC87E796AEADBFADE797A05CBF4F43
:102C5000E796BFAFAEAFE797B0E42B1A310811F09B
:102C60000C94AE0661960CAD1DAD2EAD3FAD6197D7
:102C7000E996AEADBFADE99718960D931D932D93D0
:102C80003C931B9709811A812B813C811C960D93E3
:102C90001D932D933C931F970D811E812F813885A5
:102CA00050960D931D932D933C93539709851A8548
:102CB0002B853C8554960D931D932D933C935797EC
:102CC000E7968EAD9FADE797C858DF4F0FB6F894E3
:102CD000DEBF0FBECDBFDF91CF911F910F91FF904F
:102CE000EF90DF90CF90BF90AF909F908F907F90AC
:102CF0006F905F904F903F902F900895CF93DF9308
:102D0000FC0181E093E2A5E4B7E680879187A28782
:102D1000B38789E89BEAADECBFEE84879587A687E9
:102D2000B7878EEF9CEDAAEBB8E9808B918BA28BD5
:102D3000B38B86E794E5A2E3B0E1848B958BA68BF9
:102D4000B78B10821182128213821482158216822E
:102D50001782DF01A85ABF4F80E4ED01982F199226
:102D60009A95E9F77896DF011D928A95E9F7DF9148
:102D7000CF9108958F929F92AF92BF92EF92FF9260
:102D80000F931F93CF93DF93EC017B018A0188811E
:102D90009981AA81BB8170E060E04A015B01880EE5
:102DA000991EAA1EBB1E2FE1B22288829982AA8296
:102DB000BB8288169906AA06BB0668F48C809D80A3
:102DC000AE80BF802FEF821A920AA20AB20A8C82CA
:102DD0009D82AE82BF828F739927AA27BB27009757
:102DE000A105B10579F120E4822E912CA12CB12C02
:102DF000881A990AAA0ABB0A48968C0F9D1F481583
:102E000059056A057B0570F4A801B701DF91CF91E0
:102E10001F910F91FF90EF90BF90AF909F908F9078
:102E20000C94E92FA401B7010E94E92FE80CF91CCA
:102E30000819190940E450E0BE01685E7F4FCE01D9
:102E40000E94CE050034110548F0A801407CB7016E
:102E5000CE010E94CE057C010F731127A801B70196
:102E6000CE014896D3CFEF92FF920F931F93CF934B
:102E7000DF938C01EB01488159816A817B814F731B
:102E8000552766277727DB01CA010196A11DB11DD1
:102E90004C0F5D1F20E8FA01208F40E450E060E015
:102EA00070E0481B590B6A0B7B0B7E01F8E1EF0EBB
:102EB000F11C4830510561057105A0F4489670E099
:102EC00060E08C0F9D1F0E94F22F40E450E0B7019C
:102ED000CE010E94CE0540E450E060E070E080E06A
:102EE00090E0DC0148505109489670E060E08C0F9A
:102EF0009D1F0E94F22F88819981AA81BB8123E0C6
:102F0000880F991FAA1FBB1F2A95D1F78883998321
:102F1000AA83BB83FE01E05BFF4F808331969083E1
:102F20003196A0833196B0833C812D819E818F8123
:102F30003196308331962083319690833196808309
:102F400040E450E0B701CE010E94CE058885F8012B
:102F50008083898581838A8582838B8583838C8521
:102F600084838D8585838E8586838F8587838889F5
:102F70008087898981878A8982878B8983878C89E1
:102F800084878D8985878E8986878F89878788E959
:102F9000FE0111928A95E9F7DF91CF911F910F9170
:102FA000FF90EF900895CF92DF92EF92FF920F93F0
:102FB0001F93CF93DF93CDB7DEB7C859D1090FB6B2
:102FC000F894DEBF0FBECDBF7C016B0180E190E0C5
:102FD0000E941A278C01CE0101960E947E16A6013E
:102FE000B701CE0101960E94BA16BE016F5F7F4FF6
:102FF000C8010E943317C801C856DF4F0FB6F894B6
:10300000DEBF0FBECDBFDF91CF911F910F91FF901B
:10301000EF90DF90CF9008951F93CF93DF93EC0153
:10302000162F0E94F92F181739F0612FCE01DF916A
:10303000CF911F910C940130DF91CF911F91089592
:103040000C94F92FDC01ED91FC910190F081E02DC1
:10305000099461E08CE00C94462A60E08CE00C94CA
:10306000462A61E08DE00C94462A60E08DE00C94E5
:10307000462A88E198E00FB6F894A89580936000FE
:103080000FBE909360000E9431180E942D18FBCF54
:103090000F931F93CF93DF938C01EC01892B11F4D5
:1030A000C1E0D0E01C161D060CF561E08CE00E942A
:1030B000462A60E08DE00E94462A64E670E080E0E7
:1030C00090E00E94BB2860E08CE00E94462A61E00C
:1030D0008DE00E94462A64E670E080E090E00E9465
:1030E000BB2801151105F1F22197DCCF0E942D18A4
:1030F000DF91CF911F910F910C9435180E943118D8
:103100000E942D186AE070E080E090E00E94BB28E9
:103110000E9429180E94351865E070E080E090E078
:103120000E94BB28EBCF0F931F93CF93DF938C01AB
:10313000EC01892B11F4C1E0D0E061E08DE00E9448
:10314000462A1C161D06ACF40E94351864E670E091
:1031500080E090E00E94BB280E94311864E670E095
:1031600080E090E00E94BB280115110551F32197E2
:10317000E8CFDF91CF911F910F910C9435180F93E9
:103180001F93CF93DF938C01EC01892B11F4C1E0E5
:10319000D0E01C161D06ACF40E942D1864E670E009
:1031A00080E090E00E94BB280E94291864E670E04D
:1031B00080E090E00E94BB280115110551F3219792
:1031C000E8CFDF91CF911F910F910C942D18809132
:1031D000D9359091DA35A091DB35B091DC35019687
:1031E000A11DB11D8093D9359093DA35A093DB35BD
:1031F000B093DC35409104015091050160910601C6
:1032000070910701481759076A077B0710F510925C
:10321000D9351092DA351092DB351092DC35609199
:10322000D83580910901861770F081E08093D735F9
:103230008091D735680F6093D83570E08CE00E949C
:103240005A290C94351880910801681788F38FEF7C
:10325000EDCF08958091D9359091DA35A091DB3585
:10326000B091DC350196A11DB11D8093D9359093A5
:10327000DA35A093DB35B093DC35409104015091F1
:1032800005016091060170910701481759076A0707
:103290007B0710F51092D9351092DA351092DB3594
:1032A0001092DC356091D83580910901861770F055
:1032B00081E08093D7358091D735680F6093D835FA
:1032C00070E08DE00E945A290C942D18809108011D
:1032D000681788F38FEFEDCF089560EC70E083E01E
:1032E0009AE30E94221866E070E083E09AE30E946D
:1032F00022186091EB3970E083E09AE30E94221873
:1033000060EC70E083E09AE30C94221860EC70E0CB
:1033100083E09AE30E94221867E070E083E09AE37A
:103320000E9422186091150170E083E09AE30E94E8
:10333000221860EC70E083E09AE30C94221860ECB1
:1033400070E083E09AE30E9422186FE070E083E06F
:103350009AE30E94221861E070E083E09AE30E9401
:10336000221860EC70E083E09AE30C94221860EC81
:1033700070E083E09AE30E9422186FE070E083E03F
:103380009AE30E94221870E060E083E09AE30E94D2
:10339000221860EC70E083E09AE30C94221860EC51
:1033A00070E083E09AE30E9422186EE070E083E010
:1033B0009AE30E9422188091E93961E070E081115E
:1033C00002C070E060E083E09AE30E94221860ECA3
:1033D00070E083E09AE30C94221860EC70E083E0E4
:1033E0009AE30E94221868E070E083E09AE30E946A
:1033F000221866E470E083E09AE30E94221860ECF1
:1034000070E083E09AE30C94221860EC70E083E0B3
:103410009AE30E94221860E570E083E09AE30E943C
:10342000221861E070E083E09AE30E94221865E1CF
:1034300070E083E09AE30E94221860EC70E083E081
:103440009AE30C94221860EC70E083E09AE30E9407
:10345000221868E470E083E09AE30E94221860E991
:1034600070E083E09AE30E94221860EC70E083E051
:103470009AE30C94221860EC70E083E09AE30E94D7
:10348000221869E470E083E09AE30E94221861E95F
:1034900070E083E09AE30E94221860EC70E083E021
:1034A0009AE30C9422188091EB39882341F06091C3
:1034B000F4397091F5398AEA91E00C940704089583
:1034C0008091EB39882341F06091180170911901C6
:1034D0008AEA91E00C94E00408958093E739882308
:1034E00021F081E08093E83908951092E839089539
:1034F0008091EB398823E1F08091E639843A51F4E8
:10350000609116017091170150E040E08AEA91E065
:103510000E94AE058091E639893A51F46091160116
:103520007091170141E050E08AEA91E00C94AE05F9
:1035300008958091EB39882361F08AEA91E00E9436
:103540000A026093F0397093F1398093F2399093C5
:10355000F33908958091EB39882371F04091F03967
:103560005091F1396091F2397091F3398AEA91E022
:103570000E9446040C94991A08958091EB3988238F
:1035800061F08AEA91E00E94DA016093EC3970936D
:10359000ED398093EE399093EF3908958091EB39AE
:1035A000882371F04091EC395091ED396091EE39FA
:1035B0007091EF398AEA91E00E9415030C94BD1ACC
:1035C00008958091EB39882321F08AEA91E00C94E8
:1035D000280280E0089583ED9FE00E94201891E08A
:1035E000833709F090E0892F0895C8E3DFE06FEF9B
:1035F000CE010E940C182196C11580E1D807B9F7B9
:103600000E94391888E39FE00E942018833039F027
:10361000982F9F7E81E0903E19F080E0089581E030
:10362000089589E39FE00E942018982F8093E6393F
:103630008F7B843A39F0893A29F081E09F3F19F075
:1036400080E0089581E008958AE39FE00E942018B9
:103650008093E5399FEF980F81E09E3F08F080E06E
:103660000895BF92CF92DF92EF92FF920F931F9334
:10367000CF93DF938BE090E00E941A277C018C01AE
:10368000C8E3DFE0CE010E942018F80181938F018A
:103690002196C334FFE0DF07A9F76BE070E0C701B4
:1036A0000E94D317B82EC92E082F192FDD24D394CA
:1036B000CE010E942018F80191918F018913D12C1D
:1036C0002196C335FFE0DF0799F78B2D9C2D0E94D3
:1036D000B627C7010E94B6278D2DDF91CF911F918C
:1036E0000F91FF90EF90DF90CF90BF9008958FEDF6
:1036F0009FE00E94201891E0833709F090E0892F25
:103700000895CF92DF92EF92FF92CF930E94771BA2
:10371000882309F461C084ED9FE00E94201890E0A6
:103720009093F5398093F43985ED9FE00E9420183D
:1037300090E0909319018093180186ED9FE00E941C
:10374000201890E090931701809316018BED9FE075
:103750000E942018C82F8CED9FE00E94201890E056
:10376000B0E0A0E07C01DD24CC24FC2A8DED9FE0BC
:103770000E942018C82F8EED9FE00E942018C82AB2
:10378000DC2AC092EC39D092ED39E092EE39F09219
:10379000EF3987ED9FE00E942018C82F88ED9FE049
:1037A0000E94201890E0B0E0A0E07C01DD24CC2451
:1037B000FC2A89ED9FE00E942018C82F8AED9FE027
:1037C0000E942018C82ADC2AC092F039D092F13920
:1037D000E092F239F092F339CF91FF90EF90DF90C1
:1037E000CF9008958091EA39882309F48AC08091A6
:1037F000EB39882309F485C06091F43984ED9FE0AA
:103800000E940C186091180185ED9FE00E940C1831
:103810006091160186ED9FE00E940C186091F039CE
:103820007091F1398091F2399091F339692F7727AE
:103830008827992787ED9FE00E940C186091F03946
:103840007091F1398091F2399091F339BC01882758
:10385000992788ED9FE00E940C186091F0397091D3
:10386000F1398091F2399091F339672F782F892FB0
:10387000992789ED9FE00E940C186091F0398AED3C
:103880009FE00E940C186091EC397091ED398091A5
:10389000EE399091EF39692F7727882799278BED9B
:1038A0009FE00E940C186091EC397091ED39809185
:1038B000EE399091EF39BC01882799278CED9FE074
:1038C0000E940C186091EC397091ED398091EE39BD
:1038D0009091EF39672F782F892F99278DED9FE0F1
:1038E0000E940C186091EC398EED9FE00E940C183C
:1038F00063E78FED9FE00E940C188AE090E00C9443
:10390000BF188AE090E00C94931860E08FED9FE080
:103910000C940C1882E390E00E9448180E94F51A5B
:103920008091E83970E060E0882319F06091E73910
:1039300070E08AEA91E00C9454058AEA91E00E94D2
:1039400011031092EB3908958091EC399091ED3983
:10395000A091EE39B091EF39892B8A2B8B2BE1F0B6
:103960008091F0399091F139A091F239B091F33909
:10397000892B8A2B8B2B81F0809116019091170156
:103980008F3F910549F08091F4399091F539892B59
:1039900019F010921501089581E0809315010895A2
:1039A0008091D1018A3F50F42091CF013091D00114
:1039B00081E02115384118F480E0089581E00895F0
:1039C000CF938AEA91E00E944F01C82F0E948A2873
:1039D0006093E2357093E3358093E4359093E53559
:1039E000C0FF2DC081E08093ED358093EC3580934E
:1039F000EB358091E6359091E7352091ED35211139
:103A000008C02091EC35211104C02091EB35222310
:103A100019F120910F013091100182179307B0F432
:103A200001969093E7358093E63581E08093EA35FF
:103A30008091E9358823E9F0CF910C9429181092F0
:103A4000ED351092EC351092EB35D3CF81E08093B9
:103A5000EA358093E935ECCF009741F001979093D8
:103A6000E7358093E6351092EA35E2CF1092E935DA
:103A7000FACFCF910C942D180F931F930E948A2890
:103A80000091E2351091E3352091E4353091E53530
:103A9000601B710B820B930B00910B0110910C01B9
:103AA00020910D0130910E01601771078207930775
:103AB00020F01F910F910C94E01C1F910F9108951D
:103AC0001092900089E18093910080E89EE39093AA
:103AD00097008093960080E2809371000895809112
:103AE00009018093D8350895803C61F46BED70E056
:103AF00083E09AE30E9422188CED682F83E09AE31A
:103B00000C94FE2A8B3DC9F76BED70E083E09AE3DD
:103B10000E9422188DEDF1CF60EC70E083E09AE313
:103B20000E94221861E270E083E09AE30E9422186A
:103B30008091F5350E94741D8091F4350E94741DAA
:103B40008091F3350E94741D8091F2350E94741D9E
:103B500060EC70E083E09AE30C94221860EC70E073
:103B600083E09AE30E94221862E270E083E09AE325
:103B70000E9422188091F1350E94741D8091F035C9
:103B80000E94741D8091EF350E94741D8091EE3566
:103B90000E94741D60EC70E083E09AE30C9422189C
:103BA000CF93C0911201C35660EC70E083E09AE3BA
:103BB0000E94221863E270E083E09AE30E942218D8
:103BC0008C2F0E94741D60EC70E083E09AE3CF912B
:103BD0000C94221860EC70E083E09AE30E942218B3
:103BE00064E270E083E09AE30E9422188091E43955
:103BF0000E94741D60EC70E083E09AE30C9422183C
:103C000060EC70E083E09AE30E94221862E070E0CA
:103C100083E09AE30E9422188091F3390E94741D78
:103C20008091F2390E94741D8091F1390E94741DB7
:103C30008091F0390E94741D60EC70E083E09AE39B
:103C40000C94221860EC70E083E09AE30E94221842
:103C500061E070E083E09AE30E9422188091EF39DE
:103C60000E94741D8091EE390E94741D8091ED397F
:103C70000E94741D8091EC390E94741D60EC70E00C
:103C800083E09AE30C942218CF93DF93C8E3DFE03C
:103C9000CE010E9420180E94741D2196C11580E15A
:103CA000D807B1F7DF91CF91089560EC70E083E021
:103CB0009AE30E94221861E570E083E09AE30E9493
:103CC00022180E94441E60EC70E083E09AE30C949A
:103CD0002218CF93C82F60EC70E083E09AE30E9433
:103CE000221860E970E083E09AE30E9422186C2FAA
:103CF00083E09AE30E94FE2A60EC70E083E09AE39E
:103D0000CF910C942218CF93DF93C82FD62F0E9407
:103D1000EB1A81110BC0C83C48F48C2F90E06D2F3A
:103D2000885C904FDF91CF910C940C1883E0DF9169
:103D3000CF910C94691ECF93DF930E94A41CC09175
:103D4000EB39C1111DC08091150181113CC0D0918A
:103D5000EA39DD23C1F14091EC395091ED396091A0
:103D6000EE397091EF398AEA91E00E946403892B61
:103D700059F481E00E94691E90E080E00E9448189A
:103D80008C2FDF91CF91089581E08093EB390E94D1
:103D9000781A0E94AA1A0E94531A0E94601A0E945E
:103DA000BD1A8AEA91E00E9402056BE872E28AEA93
:103DB00091E00E94A6020E94901C83E090E00E9485
:103DC000BF18CD2FDDCF83E090E00E949318D8CFAD
:103DD00060EC70E083E09AE30E94221864E070E0F7
:103DE00083E09AE30E9422186091F43983E09AE319
:103DF0000E94FE2A60EC70E083E09AE30C942218A3
:103E000060EC70E083E09AE30E94221865E070E0C5
:103E100083E09AE30E9422186091180183E09AE3FC
:103E20000E94FE2A60EC70E083E09AE30C94221872
:103E300060EC70E083E09AE30E94221869E070E091
:103E400083E09AE30E9422186091E73983E09AE3C5
:103E50000E94FE2A60EC70E083E09AE30C94221842
:103E600060EC70E083E09AE30E94221863E070E067
:103E700083E09AE30E9422186091160183E09AE39E
:103E80000E94FE2A60EC70E083E09AE30C94221812
:103E9000CF93C82F60EC70E083E09AE30E94221871
:103EA00060E470E083E09AE30E9422186C2F83E0C4
:103EB0009AE30E94FE2A60EC70E083E09AE3CF91DF
:103EC0000C9422189091DF35992309F48AC2803C22
:103ED00009F0ACC080910A0181119DC01092DF35BC
:103EE0008091CA1D9091CB1D6091C61D7091C71D18
:103EF0008617970761F42091CC1D3091CD1D8091DC
:103F0000C81D9091C91D2817390709F46DC2209169
:103F1000CC1D3091CD1D8091CA1D9091CB1D029773
:103F20002817390709F460C28091CF019091D00120
:103F30008115984108F058C22091CB013091CC01F5
:103F40008091CD019091CE01019710F48FEF97E110
:103F50008217930709F44BC02817390708F042C0AD
:103F6000821B930B0196009709F43EC24091D10148
:103F70004F5F4093D101E091CC1DF091CD1D318375
:103F800020834091CC1D5091CD1D2091C81D3091B2
:103F9000C91D4217530771F57093CD1D6093CC1D59
:103FA000E091CE1BF091CF1B918380832091CE1B9B
:103FB0003091CF1B8091CA1B9091CB1B28173907DA
:103FC00021F58091C81B9091C91B9093CF1B8093C2
:103FD000CE1B8091CD019091CE019093CC01809326
:103FE000CB010895821B930B8F5F974EBCCF81E06E
:103FF00090E0BCCF2091CC1D3091CD1D2E5F3F4F66
:104000003093CD1D2093CC1DCBCF8091CE1B9091B2
:10401000CF1B0296DACF81E08093DF358EEF80935D
:104020000A011092E1351092E03508952091E035B3
:104030003091E135243F91E0390708F0D5C19091E6
:104040000A012115310529F49E3F19F480930A01D4
:104050000895911146C08B3D21F481E08093DE35B7
:1040600008959091DE35992349F08C3D21F08D3DE6
:1040700019F48BED01C080EC1092DE359091D101E6
:104080009A3F08F0B1C12091CF013091D0012115A4
:10409000384108F0A9C12091CF013091D0012F5FA4
:1040A0003F4F3093D0012093CF012091CD0130912B
:1040B000CE01A9014F5F5F4F5093CE014093CD01D8
:1040C0002E523E4FF90180838091CD019091CE0117
:1040D0008115984109F088C11092CE011092CD014E
:1040E0000895913009F044C08B3DD1F49093DE35B2
:1040F0008091E0359091E135049709F075C16091A8
:10410000EA377091EB378091EC379091ED370E9450
:104110005B2E6115710581059105D9F40C94221E61
:104120009091DE35992349F08C3D21F08D3D19F4B5
:104130008BED01C080EC1092DE35A9014F5F5F4F1F
:104140005093E1354093E0352651384CF901808396
:10415000CFCF6093EC397093ED398093EE39909323
:10416000EF39809114018131C9F60E94CE1AD6CF61
:10417000923009F045C08B3DD9F481E08093DE3563
:104180008091E0359091E135049709F02DC160915F
:10419000EA377091EB378091EC379091ED370E94C0
:1041A0005B2E6115710581059105D9F40C94001EF3
:1041B0009091DE35992349F08C3D21F08D3D19F425
:1041C0008BED01C080EC1092DE35A9014F5F5F4F8F
:1041D0005093E1354093E0352651384CF901808306
:1041E000CFCF6093F0397093F1398093F239909387
:1041F000F339809114018131C9F60E94AA1AD6CFF1
:10420000933099F48F3F11F40C94301F823108F0F1
:1042100081E190E090931701809316018091140141
:10422000813191F70E94781AEFCF9430D1F48F3F0B
:1042300011F40C94E81E863088F090E08D309105E2
:1042400014F08CE090E09093F5398093F4398091EC
:104250001401813171F70E94531AEBCF86E090E090
:10426000F2CF9530D1F48F3F11F40C94001F8530BC
:1042700088F090E08930910514F088E090E0909308
:1042800019018093180180911401813171F70E9406
:10429000601AEBCF85E090E0F2CF993021F40E94D4
:1042A0006D1A0C94181F963079F48F3F11F40C940A
:1042B0006D19811103C00E949D1CF9CF813009F056
:1042C00093C00E949B1EF3CF913211F40C948C1D6D
:1042D000923211F40C94AE1D933211F40C94D01D53
:1042E000973021F40E94A41C0C948619903319F481
:1042F00090E00C94BF18903421F40E94E11A0C94C1
:10430000481F983029F4833709F06EC00C94ED19DA
:104310009E3059F4813021F48093E9390C94CF19FF
:104320008111FCCF1092E939F9CF9F3041F40E94FE
:10433000D01C811102C00C949F190C94B7199935A7
:1043400029F4883F09F050C00E948A1C953529F451
:10435000883F09F049C00E943918913511F40C9436
:10436000551E923551F58B3D79F481E08093DE3511
:104370008091E0359091E1350297B1F56091EB378E
:104380008091EA370C94831E9091DE35992349F091
:104390008C3D21F08D3D19F48BED01C080EC109225
:1043A000DE35A9014F5F5F4F5093E1354093E03513
:1043B0002651384CF9018083DBCF903511F40C94F1
:1043C000051A983411F40C94231A993411F40C94AE
:1043D0003B1A933511F40C94F21B943529F40C9488
:1043E000851C803C09F417CE089581E08093C801B4
:1043F0004FB7F8942091D3353091D4358091D5358D
:104400009091D6354FBF28173907F1F0E091D33599
:10441000F091D4358091D1359091D235E817F907D4
:1044200061F48091CF359091D0359093D4358093BD
:10443000D33580810E94621FDBCFE091D335F091AC
:10444000D435CF010196F1CF1092C8010895CF93D2
:10445000DF9360EC70E083E09AE30E94221870E042
:1044600060E083E09AE30E942218CEEED7E3209129
:10447000E2393091E339CE018E5E9743821793077C
:10448000C8F46991603C61F46BED70E083E09AE3FD
:104490000E9422186CED83E09AE30E94FE2AE7CF87
:1044A0006B3DC9F76BED70E083E09AE30E94221840
:1044B0006DEDF1CF60EC70E083E09AE30E9422188A
:1044C0001092E3391092E239DF91CF910895CF93A2
:1044D000DF93EC012097E1F021978091E2399091F0
:1044E000E339843F9140A0F48AEA91E00E94BF0141
:1044F0002091E2393091E339A9014F5F5F4F50932A
:10450000E3394093E2392251384CF9018083E2CFFC
:10451000DF91CF9108950F931F93CF93DF93EC0119
:104520008091E93981117BC08AEA91E00E94BF0144
:1045300021974091110180FF57C09C0154E03595AF
:1045400027955A95E1F72F7033274F3FD9F41092F2
:10455000E3391092E239209311018AEA91E00E9436
:10456000660190931301809312018AEA91E00E9400
:1045700052018093E439CE01DF91CF911F910F91C9
:104580000C9467222413E3CF8AEA91E00E9466012B
:104590002091120130911301820F931F97FD019614
:1045A0009595879590931301809312010091E439BA
:1045B00010E08AEA91E00E945201800F912F911D34
:1045C000959587958093E439CE010E9467228FEFFD
:1045D000809311010E94D01D0E94EA1DDF91CF91AE
:1045E0001F910F910C9427224F3F39F01092E3391D
:1045F0001092E2398FEF809311018AEA91E00E94D4
:10460000660190931301809312018AEA91E00E945F
:1046100052018093E439CE010E946722DBCF1092D1
:10462000E3391092E239E9CFCF92DF92EF92FF9215
:104630000F931F93CF93DF93EC018091EB39882385
:1046400009F47AC08091E939811154C00E9431186F
:1046500060E071E080E090E00E94792C162F107FDE
:10466000CF3FD10508F0116070E060E08AEA91E088
:104670000E943305612F8AEA91E00E94B10096EF13
:10468000C92E95E3D92EEE24E394F12CC601865F62
:1046900095438C179D07F0F4F60161916F018AEA4A
:1046A00091E00E94B100FFEFEF1AFF0A8FEFE816CA
:1046B000F10461F78AEA91E00E942B0270E060E069
:1046C0008AEA91E00E943305612F8AEA91E00E9414
:1046D000B100D9CF8AEA91E00E942B020E943518DE
:1046E000DF91CF911F910F91FF90EF90DF90CF90CE
:1046F0000C94901C0E943118CF3FD10519F010F096
:10470000CFEFD0E08091E83970E060E08111BE0128
:104710008AEA91E00E94330506EF15E3C801865F3F
:1047200095438C179D07B0F6F80161918F018AEAD5
:1047300091E00E94B100F2CF82E00E94691E85E004
:1047400090E0DF91CF911F910F91FF90EF90DF905C
:10475000CF900C9448180F931F93CF93DF938091C1
:10476000C90181116EC081E08093C901C0E0D8E128
:104770004FB7F8942091CA1D3091CB1D8091CC1D6C
:104780009091CD1D4FBF2817390709F45AC0E09109
:10479000CA1DF091CB1D8091C81D9091C91DE817CD
:1047A000F90709F03FC08091C61D9091C71D9093F5
:1047B000CB1D8093CA1D00811181E091CC1BF0912B
:1047C000CD1B2091CA1B3091CB1BE217F30789F553
:1047D0002091C81B3091C91B3093CD1B2093CC1B5B
:1047E00020813181A90141505109443F514008F0D5
:1047F000BFCFE6EFF5E3065F1543C8018E0F9F1F9D
:10480000BE010E94FD2DDC01AE52BE4F8C91819302
:10481000CF01865F95438217930778F3C9010E9401
:104820001423A6CFE091CA1DF091CB1DCF010296B3
:10483000BECFE091CC1BF091CD1B9F012E5F3F4F6F
:10484000CBCF1092D1011092D0011092CF011092D3
:10485000C901DF91CF911F910F9108958091EB399C
:104860008823E1F10E943C1D8091D101882311F140
:104870008091E835811102C00E94E01C8091EA35E8
:10488000811128C08091E935811124C08091E835DB
:10489000882331F062E370E080E090E00E94BB2862
:1048A0000E94E01C8091EA35811104C01092E83525
:1048B0000E94AB234FB7F8942091D3353091D43573
:1048C0008091D5359091D6354FBF2817390791F093
:1048D0000C94F52181E08093E835ECCF8091EA39A2
:1048E000882319F00E94E718E5CF0E942A190E9438
:1048F0009D1CE0CF0895CF938091CA01811127C0FC
:1049000081E08093CA01C4E183E09AE30E94742AA3
:10491000892BD9F08FB7F8944091D3355091D43585
:104920002091CF353091D0354217530791F4409103
:10493000D5355091D6352091D1353091D2354217A9
:10494000530739F48FBFC150F9F61092CA01CF91C5
:1049500008954091D5355091D6352091D335309179
:10496000D435215031094217530761F38FBF83E0DB
:104970009AE30E948E2A2FB7F894E091D535F091F2
:10498000D63580834091D5355091D6358091D1353B
:104990009091D2354817590751F48091CF359091B5
:1049A000D0359093D6358093D5352FBFCCCF80911D
:1049B000D5359091D6350196F4CF1F920F920FB650
:1049C0000F9211240BB60F922F933F934F935F9347
:1049D0006F937F938F939F93AF93BF93EF93FF93C7
:1049E0000E947B24FF91EF91BF91AF919F918F9196
:1049F0007F916F915F914F913F912F910F900BBEDF
:104A00000F900FBE0F901F9018958091A43A80FFD1
:104A10002AC082E08093DD358091DD35815082307F
:104A2000B8F50E94EB1A882381F10E94021B8823AB
:104A300061F10E94111B882341F10E94241B8823ED
:104A400021F10E94311B882351F181E08093EA39E2
:104A50000E94771B882319F10E94811B82E18093B9
:104A600014010C949B1E82FF02C083E0D3CF83FF0E
:104A700002C081E0CFCF42E250E065E571E083E023
:104A80009AE30E943E2C0E947E181092EA39089503
:104A90001092EA394EE150E068E771E0F0CF0895F6
:104AA00080E00E943C290E94712CAEECBDE181E0C7
:104AB00098E1FD019C01119221503040E1F7EFECAB
:104AC000F5E3B183A083B783A683B583A4838EEC7B
:104AD00095E39383828326E040E052EC61E070E04E
:104AE00083E09AE30E94452B0E94601D61E08CE008
:104AF0000E940A2A61E08DE00E940A2AEEEEF7E3A6
:104B000084EF91E0DF019C011D9221503040E1F7DC
:104B1000EAEEF7E384E0DF011D928A95E9F7E2ED22
:104B2000F1E080E098E1DF019C011D9221503040CE
:104B3000E1F7A0EDBBE186EF91E0FD019C01119250
:104B400021503040E1F7E6ECFDE1B183A083B7836B
:104B5000A683B583A48324EC3DE133832283A2EDB5
:104B6000B9E1FD019C01119221503040E1F7E8ECE0
:104B7000FBE1B183A083B783A683B583A48386ECCE
:104B80009BE19383828322E030E043E050E064E0E5
:104B900070E08AEA91E00E94F7000C940525CF931B
:104BA000CFB7F8948091F939811127C0E0EDF0E09A
:104BB0008491E0EBF0E09491E82FF0E0EE0FFF1F1E
:104BC000EA50FF4FA591B491EC91E92321F461E003
:104BD00084E00E94462A61E084E00E940A2A8CB5A3
:104BE00080618CBD8CB580648CBD61E087E00E94E3
:104BF0000A2A61E085E00E940A2A8091F9398F5FD4
:104C00008093F939CFBFCF9108959FB7F8948091E1
:104C1000F939882319F081508093F9398091F93955
:104C2000811105C08CB58F7B8CBD1092F8399FBF68
:104C300008952FB7F894813041F0C0F08230A1F090
:104C400082E08093F83980E001C082E09091F739EA
:104C5000892B8093F7398091F839811103C081E065
:104C60008093F8392FBF089584E0F0CF81E0EECF34
:104C70009091F8399230A1F09FB7F894833088F47E
:104C8000E82FF0E0E956FE4F808180952091F739BA
:104C900082238093F739811102C01092F8399FBFA7
:104CA000089580E0F2CF0895833060F5E82FF0E0BA
:104CB000EE0FFF1FE65EFE4F71836083813051F07F
:104CC0008230A1F0809169008C7F482B409369006D
:104CD000E89A089580916900837F440F551F440F1F
:104CE000551F482B40936900E99A08958091690007
:104CF0008F7C94E0440F551F9A95E1F7482B409321
:104D00006900EA9A0895833078F4E82FF0E0813062
:104D100061F0823061F0E898EE0FFF1FE65EFE4F13
:104D200083E596E2918380830895E998F5CFEA9828
:104D3000F3CF1F920F920FB60F9211240BB60F9262
:104D40002F933F934F935F936F937F938F939F9393
:104D5000AF93BF93EF93FF93E0911A01F0911B0182
:104D60000995FF91EF91BF91AF919F918F917F91A5
:104D70006F915F914F913F912F910F900BBE0F90CC
:104D80000FBE0F901F9018951F920F920FB60F92A3
:104D900011240BB60F922F933F934F935F936F9312
:104DA0007F938F939F93AF93BF93EF93FF93E09184
:104DB0001C01F0911D010995FF91EF91BF91AF91F9
:104DC0009F918F917F916F915F914F913F912F9123
:104DD0000F900BBE0F900FBE0F901F9018951F9253
:104DE0000F920FB60F9211240BB60F922F933F9391
:104DF0004F935F936F937F938F939F93AF93BF93E3
:104E0000EF93FF93E0911E01F0911F010995FF912F
:104E1000EF91BF91AF919F918F917F916F915F9132
:104E20004F913F912F910F900BBE0F900FBE0F909F
:104E30001F9018950F931F93CF93DF9382309105A6
:104E400010F482E090E0E091A23AF091A33A30E0D1
:104E500020E0B0E0A0E0309799F42115310509F485
:104E60004AC0281B390B24303105D8F58A819B8133
:104E70006115710589F1FB0193838283FE0111C0E5
:104E8000408151810281138148175907E0F048178A
:104E9000590799F4109761F012960C931297139694
:104EA0001C933296CF01DF91CF911F910F910895FE
:104EB0000093A23A1093A33AF4CF2115310551F093
:104EC0004217530738F0A901DB019A01BD01DF0148
:104ED000F801C1CFEF01F9CF9093A33A8093A23AA2
:104EE000CDCFFE01E20FF31F819391932250310940
:104EF00039832883D7CF2091A03A3091A13A232B30
:104F000041F420912201309123013093A13A209362
:104F1000A03A20912001309121012115310541F461
:104F20002DB73EB74091240150912501241B350B2C
:104F3000E091A03AF091A13AE217F307A0F42E1BFA
:104F40003F0B2817390778F0AC014E5F5F4F2417ED
:104F5000350748F04E0F5F1F5093A13A4093A03A97
:104F6000819391939FCFF0E0E0E09CCFCF93DF93CC
:104F70000097E9F0FC01329713821282A091A23AC5
:104F8000B091A33AED0130E020E01097A1F4208128
:104F90003181820F931F2091A03A3091A13A2817B6
:104FA000390709F061C0F093A13AE093A03ADF918C
:104FB000CF910895EA01CE17DF07E8F54A815B81BA
:104FC0009E0141155105B1F7E901FB83EA8349913F
:104FD0005991C40FD51FEC17FD0761F480819181B1
:104FE0000296840F951FE9019983888382819381BA
:104FF0009B838A83F0E0E0E012968D919C91139759
:105000000097B9F52D913C911197CD010296820F31
:10501000931F2091A03A3091A13A2817390739F609
:10502000309751F51092A33A1092A23AB093A13A58
:10503000A093A03ABCCFD383C28340815181840F17
:10504000951FC817D90761F44E5F5F4F888199811A
:10505000480F591F518340838A819B8193838283A8
:105060002115310509F0B0CFF093A33AE093A23AAD
:105070009ECFFD01DC01C0CF13821282D7CF0895ED
:105080001F920F920FB60F9211242F933F938F937D
:105090009F93AF93BF938091FB399091FC39A0917E
:1050A000FD39B091FE393091FA3923E0230F2D37C5
:1050B00058F50196A11DB11D2093FA398093FB3953
:1050C0009093FC39A093FD39B093FE398091FF395C
:1050D0009091003AA091013AB091023A0196A11D37
:1050E000B11D8093FF399093003AA093013AB09399
:1050F000023ABF91AF919F918F913F912F910F9065
:105100000FBE0F901F90189526E8230F0296A11D41
:10511000B11DD2CF2FB7F8946091FB397091FC3953
:105120008091FD399091FE392FBF08953FB7F894D3
:105130008091FF399091003AA091013AB091023AE2
:1051400026B5A89B05C02F3F19F00196A11DB11DE2
:105150003FBFBA2FA92F982F8827BC01CD01620F1E
:10516000711D811D911D42E0660F771F881F991FD9
:105170004A95D1F708958F929F92AF92BF92CF92A6
:10518000DF92EF92FF926B017C010E9496284B0107
:105190005C01C114D104E104F104E9F00E943F284C
:1051A0000E949628681979098A099B09683E73400C
:1051B0008105910570F321E0C21AD108E108F108D8
:1051C00088EE880E83E0981EA11CB11CC114D10486
:1051D000E104F10429F7FF90EF90DF90CF90BF90AA
:1051E000AF909F908F900895789484B5826084BD2D
:1051F00084B5816084BD85B5826085BD85B58160DB
:1052000085BDEEE6F0E0808181608083E1E8F0E03A
:105210001082808182608083808181608083E0E869
:10522000F0E0808181608083E1EBF0E08081846048
:105230008083E0EBF0E0808181608083E1E9F0E051
:10524000808182608083808181608083E0E9F0E0FA
:10525000808181608083EAE7F0E0808184608083E0
:10526000808182608083808181608083808180688A
:1052700080831092C1000895883020F0873108F4AF
:1052800087E188512091260190E4299F9001112403
:105290008770822B80937C0080917A008064809359
:1052A0007A0080917A0086FDFCCF80917800909101
:1052B000790008951F93CF93DF93182FEB0161E0DE
:1052C0000E940A2A209739F460E0812FDF91CF9164
:1052D0001F910C94462ACF3FD10511F461E0F5CF20
:1052E000E12FF0E0E457FF4FE491E150EA3008F09D
:1052F00054C0F0E0E258F64D0C94522E88299029C3
:1053000095299F29CD29CD29A929B129B929C329B1
:1053100084B5806884BDC7BDDF91CF911F9108958A
:1053200084B5806284BDC8BDF7CF8091800080685D
:1053300080938000D0938900C0938800EDCF809146
:105340008000806280938000D0938B00C0938A009D
:10535000E3CF8091B00080688093B000C093B30029
:10536000DBCF8091B00080628093B000C093B40026
:10537000D3CF80919000806880939000D093990063
:10538000C0939800C9CF8091900080628093900074
:10539000D0939B00C0939A00BFCFC038D1050CF0CA
:1053A0009DCF92CF81508A3080F5E82FF0E0E55212
:1053B000F64D0C94522EEF29F329E529EB29052A05
:1053C000052AF629FC29002A062A809180008F7779
:1053D000809380000895809180008F7DF9CF84B5FF
:1053E0008F7784BD089584B58F7DFBCF8091B00009
:1053F0008F778093B00008958091B0008F7DF9CFB2
:10540000809190008F778093900008958091900014
:105410008F7DF9CFCF93DF9390E0FC01E455FF4FF0
:10542000249184539F4FFC0184918823C9F090E01C
:10543000880F991FFC01EA50FF4FA591B491FC0120
:10544000E451FF4FC591D49161110DC09FB7F894FD
:105450008C91209582238C938881282328839FBF59
:10546000DF91CF910895623051F49FB7F8943C9149
:10547000822F809583238C93E8812E2BEFCF8FB7DB
:10548000F894EC912E2B2C938FBFEACF1F93CF93E0
:10549000DF93282F30E0F901E457FF4F8491F901A1
:1054A000E455FF4FD491F901E453FF4FC491CC234D
:1054B000A9F0162F81110E94D229EC2FF0E0EE0FF7
:1054C000FF1FE451FF4FA591B4918FB7F894EC9171
:1054D000111108C0D095DE23DC938FBFDF91CF91EF
:1054E0001F910895DE2BF8CFFC01918D228D892F1D
:1054F00090E0805C9F4F821B91098F7399270895DC
:10550000FC01918D828D981731F0828DE80FF11D8D
:10551000858D90E008958FEF9FEF0895FC01918DA8
:10552000828D981761F0A28DAE0FBF2FB11D5D96D1
:105530008C91928D9F5F9F73928F90E008958FEF73
:105540009FEF089587E09CE2892B49F080E090E08E
:10555000892B29F00E94072C81110E94000080E015
:1055600090E0892B49F080E090E0892B29F00E949F
:10557000000081110C9400000895FC01A48DA80F77
:10558000B92FB11DA35ABF4F2C91848D90E0019685
:105590008F739927848FA689B7892C93A089B189A5
:1055A0008C9180648C93938D848D981306C00288AF
:1055B000F389E02D80818F7D80830895CF93DF93E1
:1055C000EC01888D8823B9F0AA89BB89E889F9891B
:1055D0008C9185FD03C0808186FD0DC00FB607FC50
:1055E000F7CF8C9185FFF2CF808185FFEDCFCE0183
:1055F0000E94BD2AE9CFDF91CF910895EF92FF92EB
:105600000F931F93CF93DF93EC0181E0888F9B8DE5
:105610008C8D981316C0E889F989808185FF11C0A7
:10562000EE89FF896083E889F989808180648083BD
:1056300081E090E0DF91CF911F910F91FF90EF906B
:105640000895F62E0B8D10E00F5F1F4F0F7311277B
:10565000E02E8C8D8E110CC00FB607FCFACFE889B6
:10566000F989808185FFF5CFCE010E94BD2AF1CF57
:10567000EB8DEC0FFD2FF11DE35AFF4FF0820B8FE6
:10568000EA89FB8980818062D2CFCF92DF92EF924C
:10569000FF921F93CF93DF93EC016A017B01122FDE
:1056A000E889F98982E08083C11481EED806E1049B
:1056B000F104A1F060E079E08DE390E0A7019601AC
:1056C0000E94112E215031094109510956954795E3
:1056D00037952795211580E1380798F0E889F989F1
:1056E000108260E874E88EE190E0A70196010E94C4
:1056F000112E215031094109510956954795379589
:105700002795EC85FD853083EE85FF852083188EF7
:10571000EC89FD891083EA89FB898081806180831F
:10572000EA89FB89808188608083EA89FB8980819E
:1057300080688083EA89FB8980818F7D8083DF9107
:10574000CF911F91FF90EF90DF90CF9008951F921F
:105750000F920FB60F9211240BB60F922F938F93C7
:105760009F93EF93FF93E091133AF091143A808165
:10577000E091193AF0911A3A82FD1DC09081809112
:105780001C3A8F5F8F7320911D3A821741F0E09190
:105790001C3AF0E0ED5FF54C958F80931C3AFF9139
:1057A000EF919F918F912F910F900BBE0F900FBE95
:1057B0000F901F9018958081F2CF1F920F920FB615
:1057C0000F9211240BB60F922F933F934F935F9339
:1057D0006F937F938F939F93AF93BF93EF93FF93B9
:1057E00083E09AE30E94BD2AFF91EF91BF91AF91B0
:1057F0009F918F917F916F915F914F913F912F91E9
:105800000F900BBE0F900FBE0F901F90189583E066
:105810009AE30E94742A21E0892B09F420E0822F68
:105820000895E3E0FAE31382128288EE93E0A0E0A9
:10583000B0E084839583A683B7838EE991E091835A
:10584000808385EC90E09587848784EC90E097874F
:10585000868780EC90E0918B808B81EC90E0938B3D
:10586000828B82EC90E0958B848B86EC90E0978B1A
:10587000868B118E128E138E148E0895AF92BF9266
:10588000CF92DF92EF92FF920F931F93CF93DF930C
:105890006C017B018B01040F151FEB015E01AE183B
:1058A000BF08C017D10759F06991D601ED91FC915D
:1058B0000190F081E02DC6010995892B79F7C5018A
:1058C000DF91CF911F910F91FF90EF90DF90CF90DC
:1058D000BF90AF900895FC0144835583668377831E
:1058E0000895009729F0BC0190E080E00C94E02F2F
:1058F0000895CF92DF92EF92FF926B017C01C11469
:10590000D104E104F10441F00E94912FA701960116
:105910000E94332E6B017C01C701B601FF90EF900E
:10592000DF90CF90089508950E94F4280E94932C50
:105930000E945025C2EADAE20E942E242097E1F369
:105940000E94A22AF9CF0E941B2D08F481E008953D
:105950000E94AF2C6894B1110C948A2D08950E9476
:105960006F2D88F09F5798F0B92F9927B751B0F055
:10597000E1F0660F771F881F991F1AF0BA95C9F7D3
:1059800014C0B13091F00E94892DB1E008950C94BB
:10599000892D672F782F8827B85F39F0B93FCCF36E
:1059A000869577956795B395D9F73EF49095809550
:1059B000709561957F4F8F4F9F4F0895E89409C070
:1059C00097FB3EF490958095709561957F4F8F4F32
:1059D0009F4F9923A9F0F92F96E9BB279395F69548
:1059E000879577956795B795F111F8CFFAF4BB0FC6
:1059F00011F460FF1BC06F5F7F4F8F4F9F4F16C02A
:105A0000882311F096E911C0772321F09EE8872FB3
:105A1000762F05C0662371F096E8862F70E060E06F
:105A20002AF09A95660F771F881FDAF7880F9695E8
:105A3000879597F90895990F0008550FAA0BE0E88C
:105A4000FEEF16161706E807F907C0F01216130640
:105A5000E407F50798F0621B730B840B950B39F480
:105A60000A2661F0232B242B252B21F408950A26E6
:105A700009F4A140A6958FEF811D811D089597F926
:105A80009F6780E870E060E008959FEF80EC0895E4
:105A900000240A941616170618060906089500240D
:105AA0000A9412161306140605060895092E039487
:105AB000000C11F4882352F0BB0F40F4BF2B11F4FB
:105AC00060FF04C06F5F7F4F8F4F9F4F089557FD5A
:105AD0009058440F551F59F05F3F71F04795880F5C
