:100000000C9483000C943A2B0C94652B0C94902B3D
:100010000C94AD000C94AD000C94AD000C94AD00AC
:100020000C94AD000C94AD000C94AD000C94AD009C
:100030000C94AD000C94AD000C94AD000C94AD008C
:100040000C94AD000C94AD000C9455290C94AD00AB
:100050000C9467270C949D270C94AD000C94AD0074
:100060000C94AD000C94AD000C94AD000C94AD005C
:100070000C94AD000C94AD000C94AD000C94C90D23
:100080000C94AD000C94AD000C94AD000000000188
:100090000200090A00000000040308070000000035
:1000A0000000000000000000000000000102040841
:1000B0001020408001020408102040800102040842
:1000C0001020408001020408102040800202020239
:1000D00002020202040404040404040403030303EC
:1000E00003030303010101010101010100002200DA
:1000F000250028002B0000002100240027002A00F2
:10010000B0057925D12711241FBECFEFD0E4DEBF83
:10011000CDBF11E0A0E0B1E0EEE8FFE500E00BBFED
:1001200002C007900D92AA34B107D9F728E3AAE4D8
:10013000B1E001C01D92A835B207E1F710E0C3E8B5
:10014000D0E004C02197FE010E94002EC038D107E4
:10015000C9F70E94FF270C94C52F0C9400001F9331
:10016000CF93DF93EC01162F0E94A72F181739F0B9
:10017000612FCE01DF91CF911F910C94AF2FDF91B2
:10018000CF911F9108950C94A72FDC01ED91FC9164
:100190000190F081E02D099461E08CE00C94C52A77
:1001A00060E08CE00C94C52A61E08DE00C94C52AD7
:1001B00060E08DE00C94C52A0F931F93CF93DF93DB
:1001C0008C01EC01892B11F4C1E0D0E01C161D0656
:1001D0000CF561E08CE00E94C52A60E08DE00E9491
:1001E000C52A64E670E080E090E00E94D02960E0DB
:1001F0008CE00E94C52A61E08DE00E94C52A64E679
:1002000070E080E090E00E94D02901151105F1F224
:100210002197DCCF60E08CE00E94C52A60E08DE091
:10022000DF91CF911F910F910C94C52A0F931F93CB
:10023000CF93DF938C01EC01892B11F4C1E0D0E066
:1002400061E08DE00E94C52A60E08DE01C161D066D
:10025000BCF40E94C52A64E670E080E090E00E9451
:10026000D02961E08DE00E94C52A64E670E080E05C
:1002700090E00E94D0290115110531F32197E4CFB8
:10028000DF91CF911F910F910C94C52A0F931F936B
:10029000CF93DF938C01EC01892B11F4C1E0D0E006
:1002A00060E08CE01C161D06BCF40E94C52A64E6C2
:1002B00070E080E090E00E94D02961E08CE00E9434
:1002C000C52A64E670E080E090E00E94D029011524
:1002D000110531F32197E4CFDF91CF911F910F9159
:1002E0000C94C52A8091703390917133A091723330
:1002F000B09173330196A11DB11D8093703390931B
:100300007133A0937233B0937333409104015091D1
:1003100005016091060170910701481759076A07A6
:100320007B0720F510927033109271331092723364
:10033000109273336091753380910901861780F0B4
:1003400081E08093743380917433680F60937533C8
:1003500070E08CE00E94D92B60E08DE00C94C52AFF
:1003600080910801681778F38FEFEBCF08958091A3
:10037000703390917133A0917233B09173330196C1
:10038000A11DB11D8093703390937133A09372338C
:10039000B0937333409104015091050160910601BF
:1003A00070910701481759076A077B0720F51092DB
:1003B00070331092713310927233109273336091D4
:1003C000753380910901861780F081E08093743342
:1003D00080917433680F6093753370E08DE00E94F4
:1003E000D92B60E08CE00C94C52A80910801681735
:1003F00078F38FEFEBCF089560EC70E08EEA97E32F
:100400000E94C50066E070E08EEA97E30E94C50096
:100410006091813770E08EEA97E30E94C50060EC3E
:1004200070E08EEA97E30C94C50060EC70E08EEA11
:1004300097E30E94C50067E070E08EEA97E30E94B0
:10044000C5006091150170E08EEA97E30E94C50037
:1004500060EC70E08EEA97E30C94C50060EC70E00D
:100460008EEA97E30E94C5006FE070E08EEA97E3A2
:100470000E94C50061E070E08EEA97E30E94C5002B
:1004800060EC70E08EEA97E30C94C50060EC70E0DD
:100490008EEA97E30E94C5006FE070E08EEA97E372
:1004A0000E94C50070E060E08EEA97E30E94C500FC
:1004B00060EC70E08EEA97E30C94C50060EC70E0AD
:1004C0008EEA97E30E94C5006EE070E08EEA97E343
:1004D0000E94C50080917F3761E070E0811102C009
:1004E00070E060E08EEA97E30E94C50060EC70E087
:1004F0008EEA97E30C94C50060EC70E08EEA97E317
:100500000E94C50068E070E08EEA97E30E94C50093
:1005100066E470E08EEA97E30E94C50060EC70E04C
:100520008EEA97E30C94C50060EC70E08EEA97E3E6
:100530000E94C50060E570E08EEA97E30E94C50066
:1005400061E070E08EEA97E30E94C5006FE070E022
:100550008EEA97E30E94C50060EC70E08EEA97E3B4
:100560000C94C50080918137882341F060918A37CF
:1005700070918B378CE897E30C94B62308958091A3
:100580008137882341F060911801709119018CE83E
:1005900097E30C948F240895809181378823E1F0AC
:1005A00080917E37843A51F4609116017091170161
:1005B00050E040E08CE897E30E945D2580917E3713
:1005C000893A51F4609116017091170141E050E0B1
:1005D0008CE897E30C945D250895809181378823FA
:1005E00061F08CE897E30E948821609386377093CE
:1005F0008737809388379093893708958091813722
:10060000882371F040918637509187376091883701
:10061000709189378CE897E30E94F5230C94ED02E2
:10062000089580918137882361F08CE897E30E94D8
:1006300058216093823770938337809384379093E7
:100640008537089580918137882371F040918237F2
:100650005091833760918437709185378CE897E3A8
:100660000E94C4220C94110308958091813788233D
:1006700021F08CE897E30C94D72180E0089583ED76
:100680009FE00E94C30091E0833709F090E0892F3A
:100690000895C8E3DFE06FEFCE010E94AF0021961E
:1006A000C11580E1D807B9F70E94D4000E94D0009C
:1006B000FBCF88E39FE00E94C30091E0833009F004
:1006C00090E0892F089589E39FE00E94C300982F4E
:1006D00080937E3781E0943A21F0993A11F080E0DE
:1006E000089508958AE39FE00E94C30080937D37B8
:1006F0009FEF980F81E09E3F08F080E00895BF9241
:10070000CF92DF92EF92FF920F931F93CF93DF93DD
:100710008BE090E00E9430287C018C01C8E3DFE090
:10072000CE010E94C300F80181938F012196C3344A
:10073000FFE0DF07A9F76BE070E0C7010E94F61F3A
:10074000B82EC92E082F192FDD24D394CE010E9474
:10075000C300F80191918F018913D12C2196C335E3
:10076000FFE0DF0799F78B2D9C2D0E94CC28C70155
:100770000E94CC288D2DDF91CF911F910F91FF907A
:10078000EF90DF90CF90BF9008958FED9FE00E9493
:10079000C30091E0833709F090E0892F0895CF924C
:1007A000DF92EF92FF92CF930E94C503882309F452
:1007B00061C084ED9FE00E94C30090E090938B376E
:1007C00080938A3785ED9FE00E94C30090E090936C
:1007D00019018093180186ED9FE00E94C30090E00C
:1007E00090931701809316018BED9FE00E94C30048
:1007F000C82F8CED9FE00E94C30090E0B0E0A0E025
:100800007C01DD24CC24FC2A8DED9FE00E94C300F6
:10081000C82F8EED9FE00E94C300C82ADC2AC09238
:100820008237D0928337E0928437F092853787ED14
:100830009FE00E94C300C82F88ED9FE00E94C30084
:1008400090E0B0E0A0E07C01DD24CC24FC2A89ED1E
:100850009FE00E94C300C82F8AED9FE00E94C30062
:10086000C82ADC2AC0928637D0928737E092883730
:10087000F0928937CF91FF90EF90DF90CF9008955D
:1008800080918037882309F48AC08091813788233A
:1008900009F485C060918A3784ED9FE00E94AF0023
:1008A0006091180185ED9FE00E94AF0060911601F4
:1008B00086ED9FE00E94AF00609186377091873788
:1008C0008091883790918937692F772788279927D2
:1008D00087ED9FE00E94AF00609186377091873767
:1008E0008091883790918937BC018827992788EDB6
:1008F0009FE00E94AF0060918637709187378091AA
:10090000883790918937672F782F892F992789ED1C
:100910009FE00E94AF00609186378AED9FE00E94C1
:10092000AF006091823770918337809184379091C6
:100930008537692F7727882799278BED9FE00E94BD
:10094000AF006091823770918337809184379091A6
:100950008537BC01882799278CED9FE00E94AF0066
:100960006091823770918337809184379091853779
:10097000672F782F892F99278DED9FE00E94AF0078
:10098000609182378EED9FE00E94AF0063E78FEDAC
:100990009FE00E94AF008AE090E00C9446018AE05C
:1009A00090E00C94160160E08FED9FE00C94AF0096
:1009B00082E390E00E94DC000E9449038CE897E308
:1009C0000E94C022109281370895809182379091C1
:1009D0008337A0918437B0918537892B8A2B8B2B55
:1009E000E1F08091863790918737A0918837B09158
:1009F0008937892B8A2B8B2B81F08091160190915E
:100A000017018F3F910549F080918A3790918B377C
:100A1000892B19F010921501089581E0809315013A
:100A200008958091530187FD0AC0209151013091B2
:100A3000520181E02115384118F480E0089581E0E9
:100A40000895CF938CE897E30E94CD20C82F0E9491
:100A50009F2960937A3370937B3380937C33909398
:100A60007D33C0FF2DC081E0809385338093843334
:100A70008093833380917E3390917F3320918533AF
:100A8000211108C020918433211104C020918333A7
:100A9000222319F120910F01309110018217930741
:100AA000B0F4019690937F3380937E3381E08093FE
:100AB0008233809181338823E9F0CF910C94CC006C
:100AC000109285331092843310928333D3CF81E018
:100AD0008093823380938133ECCF009741F001976C
:100AE00090937F3380937E3310928233E2CF1092C3
:100AF0008133FACFCF910C94D0000F931F930E94B3
:100B00009F2900917A3310917B3320917C3330916F
:100B10007D33601B710B820B930B00910B011091C5
:100B20000C0120910D0130910E01601771078207B1
:100B3000930720F01F910F910C9421051F910F91A5
:100B400008951092900089E18093910080E89EE3DF
:100B5000909397008093960080E2809371000895AF
:100B600080910901809375330895803C61F46BEDA9
:100B700070E08EEA97E30E94C5008CED682F8EEA44
:100B800097E30C94B8268B3DC9F76BED70E08EEAC5
:100B900097E30E94C5008DEDF1CF60EC70E08EEA26
:100BA00097E30E94C50061E270E08EEA97E30E943D
:100BB000C50080918D330E94B50580918C330E94D1
:100BC000B50580918B330E94B50580918A330E94D0
:100BD000B50560EC70E08EEA97E30C94C50060EC1C
:100BE00070E08EEA97E30E94C50062E270E08EEA50
:100BF00097E30E94C500809189330E94B5058091DA
:100C000088330E94B505809187330E94B505809195
:100C100086330E94B50560EC70E08EEA97E30C9491
:100C2000C500CF93C0911201C35660EC70E08EEA0C
:100C300097E30E94C50063E270E08EEA97E30E94AA
:100C4000C5008C2F0E94B50560EC70E08EEA97E33A
:100C5000CF910C94C50060EC70E08EEA97E30E949F
:100C6000C50064E270E08EEA97E30E94C5008091BF
:100C70007C370E94B50560EC70E08EEA97E30C9437
:100C8000C50060EC70E08EEA97E30E94C50062E068
:100C900070E08EEA97E30E94C500809189370E9438
:100CA000B505809188370E94B505809187370E94ED
:100CB000B505809186370E94B50560EC70E08EEA3C
:100CC00097E30C94C50060EC70E08EEA97E30E9415
:100CD000C50061E070E08EEA97E30E94C500809154
:100CE00085370E94B505809184370E94B5058091B3
:100CF00083370E94B505809182370E94B50560EC6C
:100D000070E08EEA97E30C94C500CF93DF93C8E3BD
:100D1000DFE0CE010E94C3000E94B5052196C115F7
:100D200080E1D807B1F7DF91CF91089560EC70E0D2
:100D30008EEA97E30E94C50061E570E08EEA97E3D2
:100D40000E94C5000E94850660EC70E08EEA97E381
:100D50000C94C500CF93C82F60EC70E08EEA97E347
:100D60000E94C50060E970E08EEA97E30E94C5002A
:100D70006C2F8EEA97E30E94B82660EC70E08EEA52
:100D800097E3CF910C94C500CF93DF93C82FD62F54
:100D90000E943F0381110BC0C83C48F48C2F90E0A7
:100DA0006D2F885C904FDF91CF910C94AF0083E062
:100DB000DF91CF910C94AA060E94E50480918137BF
:100DC00081111DC08091150181113CC08091803737
:100DD0008823C1F1409182375091833760918437E5
:100DE000709185378CE897E30E941323892B41F497
:100DF00081E00E94AA0690E080E00E94DC00089555
:100E000081E0809381370E94CC020E94FE020E9402
:100E1000B2020E94BF020E9411038CE897E30E9475
:100E2000B12467EF7AE08CE897E30E94552270E0E6
:100E300060E08CE897E30E94032583E090E00E9445
:100E40004601DDCF83E090E00E941601D8CF0E94DA
:100E50003F038823F1F00E9459038823D1F00E94B8
:100E600063038823B1F00E947203882391F00E94EB
:100E70007F03882389F081E0809380370E94C50337
:100E8000882351F00E94CF0382E1809314010C94D7
:100E9000DC061092803708950895CF93DF9380E0A9
:100EA0000E94BB2B0E940E28A8E6BBE1C0E0D8E15F
:100EB000FD019E01119221503040E1F7E8E6F3E395
:100EC000B183A083B783A683B583A48387E693E326
:100ED0009383828326E040E052EC61E070E08EEA8A
:100EE00097E30E94FF260E94A10561E08CE00E942A
:100EF000892A61E08DE00E94892AE6E8F5E384EF23
:100F000091E0DF019C011D9221503040E1F7E2E8C1
:100F1000F5E384E0DF011D928A95E9F7E4E5F1E06D
:100F2000DF019E011D9221503040E1F7CEE5DAE16C
:100F300088E0DE01E82F1D92EA95E9F7A4E5B9E122
:100F4000FD0111928A95E9F7E0E6FBE1D183C083C8
:100F5000D783C683D583C4838EE59BE19383828345
:100F6000E6E5FAE1B183A083B783A683B583A483C2
:100F700084E59AE19383828322E030E043E050E00D
:100F800064E070E08CE897E30E947520DF91CF91D8
:100F90000C94270760EC70E08EEA97E30E94C5008E
:100FA00064E070E08EEA97E30E94C50060918A37A2
:100FB0008EEA97E30E94B82660EC70E08EEA97E331
:100FC0000C94C50060EC70E08EEA97E30E94C500C7
:100FD00065E070E08EEA97E30E94C5006091180119
:100FE0008EEA97E30E94B82660EC70E08EEA97E301
:100FF0000C94C50060EC70E08EEA97E30E94C50097
:1010000063E070E08EEA97E30E94C50060911601EC
:101010008EEA97E30E94B82660EC70E08EEA97E3D0
:101020000C94C500CF93C82F60EC70E08EEA97E374
:101030000E94C50060E470E08EEA97E30E94C5005C
:101040006C2F8EEA97E30E94B82660EC70E08EEA7F
:1010500097E3CF910C94C50090917733992309F4CD
:1010600074C2803C09F0ACC080910A0181119DC01E
:10107000109277338091641B9091651B6091601B87
:101080007091611B8617970761F42091661B309160
:10109000671B8091621B9091631B2817390709F425
:1010A00057C22091661B3091671B8091641B909101
:1010B000651B02972817390709F44AC2809151012C
:1010C000909152018115984108F042C220914D0142
:1010D00030914E0180914F0190915001019710F491
:1010E0008FEF97E18217930709F44BC02817390750
:1010F00008F042C0821B930B0196009709F428C2A6
:10110000409153014F5F40935301E091661BF09172
:10111000671B318320834091661B5091671B209190
:10112000621B3091631B4217530771F57093671B65
:101130006093661BE0915C1AF0915D1A9183808345
:1011400020915C1A30915D1A8091581A9091591A29
:101150002817390721F58091561A9091571A9093C4
:101160005D1A80935C1A80914F0190915001909389
:101170004E0180934D010895821B930B8F5F974E14
:10118000BCCF81E090E0BCCF2091661B3091671B03
:101190002E5F3F4F3093671B2093661BCBCF809110
:1011A0005C1A90915D1A0296DACF81E080937733D2
:1011B0008EEF80930A01109279331092783308955C
:1011C0002091783330917933243F91E0390708F04A
:1011D000BFC190910A012115310529F49E3F19F4F0
:1011E00080930A010895911145C08B3D21F481E05F
:1011F00080937633089590917633992349F08C3D0E
:1012000021F08D3D19F48BED01C080EC1092763306
:101210009091530197FD9CC1209151013091520151
:101220002115384108F094C12091510130915201AB
:101230002F5F3F4F309352012093510120914F0176
:1012400030915001A9014F5F5F4F5093500140937F
:101250004F012C5A3E4FF901808380914F019091AC
:1012600050018115984109F073C1109250011092FC
:101270004F010895913009F044C08B3DD1F4909313
:1012800076338091783390917933049709F060C177
:101290006091823570918335809184359091853548
:1012A0000E94092E6115710581059105D9F40C94F0
:1012B000630690917633992349F08C3D21F08D3D62
:1012C00019F48BED01C080EC10927633A9014F5FC9
:1012D0005F4F50937933409378332E573A4CF9014E
:1012E0008083CFCF60938237709383378093843726
:1012F00090938537809114018131C9F60E942203B1
:10130000D6CF923009F045C08B3DD9F481E080936F
:1013100076338091783390917933049709F018C12E
:1013200060918235709183358091843590918535B7
:101330000E94092E6115710581059105D9F40C945F
:10134000410690917633992349F08C3D21F08D3DF3
:1013500019F48BED01C080EC10927633A9014F5F38
:101360005F4F50937933409378332E573A4CF901BD
:101370008083CFCF60938637709387378093883789
:1013800090938937809114018131C9F60E94FE0241
:10139000D6CF933099F48F3F11F40C94FA07823131
:1013A00008F081E190E090931701809316018091FD
:1013B0001401813191F70E94CC02EFCF9430D1F427
:1013C0008F3F11F40C94CA07863088F090E08D307E
:1013D000910514F08CE090E090938B3780938A37DE
:1013E00080911401813171F70E94B202EBCF86E047
:1013F00090E0F2CF9530D1F48F3F11F40C94E207D6
:10140000853088F090E08930910514F088E090E014
:10141000909319018093180180911401813171F723
:101420000E94BF02EBCF85E090E0F2CF963079F4D6
:101430008F3F11F40C94FC01811103C00E94DE0463
:10144000F9CF813009F084C00E94DC06F3CF9132DD
:1014500011F40C94CD05923211F40C94EF059332F3
:1014600011F40C941106973021F40E94E5040C94B9
:101470001502903319F490E00C944601903421F455
:101480000E9435030C941208983029F4833709F030
:101490005FC00C947C029E3059F4813021F480931B
:1014A0007F370C945E028111FCCF10927F37F9CF09
:1014B0009F3041F40E941105811102C00C942E024C
:1014C0000C944602993529F4883F09F041C00E94E6
:1014D000D804913511F40C949606923551F58B3D54
:1014E00079F481E0809376338091783390917933E9
:1014F000029771F560918335809182350C94C40612
:1015000090917633992349F08C3D21F08D3D19F46B
:101510008BED01C080EC10927633A9014F5F5F4FD5
:1015200050937933409378332E573A4CF9018083A6
:10153000DBCF903511F40C949402933511F40C9494
:101540004004943529F40C94D304803C09F42DCE46
:10155000089581E080934A014FB7F89420916C334D
:1015600030916D3380916E3390916F334FBF281758
:101570003907F1F0E0916C33F0916D3380916A336B
:1015800090916B33E817F90761F48091683390917B
:10159000693390936D3380936C3380810E942C0863
:1015A000DBCFE0916C33F0916D33CF010196F1CF39
:1015B00010924A010895CF93DF93EC012197A0F098
:1015C0008CE897E30E943D2120917A3730917B3758
:1015D000A9014F5F5F4F50937B3740937A372A576B
:1015E0003A4CF9018083EACFDF91CF9108950F93B0
:1015F0001F93CF93DF93EC0180917F378111B5C0AA
:101600008CE897E30E943D2121974091110180FFD2
:1016100078C09C0154E0359527955A95E1F72F70D5
:1016200033274F3FD9F410927B3710927A372093AB
:1016300011018CE897E30E94E420909313018093BA
:1016400012018CE897E30E94D02080937C37CE0172
:10165000DF91CF911F910F910C94DB0A4213E3CFDE
:101660008CE897E30E94E42020911201309113014D
:10167000820F931F97FD019695958795909313017F
:101680008093120100917C3710E08CE897E30E9470
:10169000D020800F912F911D9595879580937C3751
:1016A000CE010E94DB0A8FEF809311010E94110688
:1016B0000E942B0660EC70E08EEA97E30E94C50062
:1016C00070E060E08EEA97E30E94C500C6E8D5E3CB
:1016D00020917A3730917B37CE0186589543821717
:1016E0009307A0F56991603C39F56BED70E08EEAE7
:1016F00097E30E94C5006CED8EEA97E30E94B8263E
:10170000E7CF4F3F39F010927B3710927A378FEF47
:10171000809311018CE897E30E94E42090931301D9
:10172000809312018CE897E30E94D02080937C374D
:10173000CE010E94DB0ABACF6B3DF1F66BED70E093
:101740008EEA97E30E94C5006DEDD6CF60EC70E0A5
:101750008EEA97E30E94C50010927B3710927A3789
:10176000DF91CF911F910F91089510927B371092C6
:101770007A378CE897E30E94E420909313018093DA
:1017800012018CE897E30E94D02080937C37CE0131
:101790000E94DB0A0E9411060E942B0660EC70E09A
:1017A0008EEA97E30E94C50070E060E08EEA97E35E
:1017B0000E94C500C6E8D5E320917A3730917B3787
:1017C000CE01865895438217930708F0BFCF6991E1
:1017D000603C61F46BED70E08EEA97E30E94C50017
:1017E0006CED8EEA97E30E94B826E6CF6B3DC9F711
:1017F0006BED70E08EEA97E30E94C5006DEDF1CFCE
:10180000CF92DF92EF92FF920F931F93CF93DF93CC
:10181000EC0180918137882309F47AC080917F3769
:10182000811158C00E94D40060E071E080E090E037
:101830000E941628162F107FCF3FD10508F01160A7
:1018400070E060E08CE897E30E94E224612F8CE86E
:1018500097E30E942F209EE8C92E93E3D92EEE2411
:10186000E394F12CC6018E5893438C179D07F0F436
:10187000F60161916F018CE897E30E942F20FFEF42
:10188000EF1AFF0A8FEFE816F10461F78CE897E38F
:101890000E94DA2170E060E08CE897E30E94E22485
:1018A000612F8CE897E30E942F20D9CF8CE897E333
:1018B0000E94DA210E94D80070E060E08CE897E393
:1018C000DF91CF911F910F91FF90EF90DF90CF901C
:1018D0000C9403250E94D400CF3FD10519F010F0DD
:1018E000CFEFD0E070E060E08CE897E30E94E22464
:1018F0000EE813E3C8018E5893438C179D07B0F68A
:10190000F80161918F018CE897E30E942F20F2CFBC
:1019100082E00E94AA0685E090E0DF91CF911F91BE
:101920000F91FF90EF90DF90CF900C94DC000F931D
:101930001F93CF93DF9380914B0181116EC081E0A3
:1019400080934B01C0E0D8E14FB7F8942091641B1D
:101950003091651B8091661B9091671B4FBF2817C4
:10196000390709F45AC0E091641BF091651B80911E
:10197000621B9091631BE817F90709F03FC0809143
:10198000601B9091611B9093651B8093641B008189
:101990001181E0915A1AF0915B1A2091581A3091F6
:1019A000591AE217F30789F52091561A3091571A00
:1019B00030935B1A20935A1A20813181A90141503A
:1019C0005109443F514008F0BFCFEEE8F3E30E5811
:1019D0001343C8018E0F9F1FBE010E94AB2DDC0177
:1019E000AC5ABE4F8C918193CF018E58934382178E
:1019F000930778F3C9010E94000CA6CFE091641B05
:101A0000F091651BCF010296BECFE0915A1AF0917A
:101A10005B1A9F012E5F3F4FCBCF10925301109264
:101A200052011092510110924B01DF91CF911F9101
:101A30000F910895809181378823E1F10E947D05FF
:101A400080915301882311F180918033811102C06C
:101A50000E94210580918233811128C080918133B9
:101A6000811124C080918033882331F062E370E0DB
:101A700080E090E00E94D0290E942105809182336D
:101A8000811104C0109280330E94970C4FB7F894D4
:101A900020916C3330916D3380916E3390916F3320
:101AA0004FBF2817390791F00C94A90A81E0809361
:101AB0008033ECCF80918037882319F00E94720127
:101AC000E5CF0E94B7010E94DE04E0CF0895CF93D6
:101AD00080914C01811127C081E080934C01C4E1C9
:101AE0008EEA97E30E942E26892BD9F08FB7F894BF
:101AF00040916C3350916D3320916833309169334C
:101B00004217530791F440916E3350916F332091F7
:101B10006A3330916B334217530739F48FBFC1508A
:101B2000F9F610924C01CF91089540916E33509187
:101B30006F3320916C3330916D332150310942174E
:101B4000530761F38FBF8EEA97E30E9448262FB7B1
:101B5000F894E0916E33F0916F33808340916E334F
:101B600050916F3380916A3390916B3348175907C6
:101B700051F4809168339091693390936F338093DF
:101B80006E332FBFCCCF80916E3390916F3301961F
:101B9000F4CF1F920F920FB60F9211240BB60F9233
:101BA0002F933F934F935F936F937F938F939F9365
:101BB000AF93BF93EF93FF930E94670DFF91EF9157
:101BC000BF91AF919F918F917F916F915F914F9155
:101BD0003F912F910F900BBE0F900FBE0F901F9053
:101BE00018952F923F924F925F926F927F928F92B1
:101BF0009F92AF92BF92CF92DF92EF92FF920F939C
:101C00001F93CF93DF93CDB7DEB7C857D1090FB677
:101C1000F894DEBF0FBECDBFE9969FAF8EAFE997B8
:101C20001A01DC0118960D911D912D913C911B9785
:101C300061960CAF1DAF2EAF3FAF61971C960D9113
:101C40001D912D913C911F9709831A832B833C830F
:101C500050960D911D912D913C9153970D831E83AC
:101C60002F83388754960D911D912D913C91579754
:101C700009871A872B873C87E6966FAFE697E7962A
:101C80007FAFE797A85ABF4F6396BFAFAEAF6397DA
:101C9000FC01E45AFF4F6596FFAFEEAF65978C01EC
:101CA000005A1F4F67961FAF0EAF67979C012C59C4
:101CB0003F4F69963FAF2EAF699788599F4F6B96FC
:101CC0009FAF8EAF6B97E996AEADBFADE997A459C4
:101CD000BF4F6D96BFAFAEAF6D97E996EEADFFAD5E
:101CE000E997E059FF4F6F96FFAFEEAF6F97E99618
:101CF0000EAD1FADE9970C581F4FA1961FAF0EAF49
:101D0000A197E9962EAD3FADE99728583F4FA3968E
:101D10003FAF2EAFA397E9968EAD9FADE99784585C
:101D20009F4FA5969FAF8EAFA597E996AEADBFAD7D
:101D3000E997A058BF4FA796BFAFAEAFA797E99658
:101D4000EEADFFADE997EC57FF4FA996FFAFEEAFB1
:101D5000A997E9960EAD1FADE99708571F4FAB96AF
:101D60001FAF0EAFAB97E9962EAD3FADE997245765
:101D70003F4FAD963FAF2EAFAD97E9968EAD9FAD7D
:101D8000E99780579F4FAF969FAF8EAFAF97E99679
:101D9000AEADBFADE997AC56BF4FE196BFAFAEAFAA
:101DA000E197E796AEADBFADE7970D911D912D91EF
:101DB0003C910D871E872F87388B6396EEADFFAD64
:101DC0006397008311832283338361968CAD9DAD2D
:101DD000AEADBFAD619788589B45A549B842800F0D
:101DE000911FA21FB31F4D815E816F817885098588
:101DF0001A852B853C854027512762277327098147
:101E00001A812B813C81402351236223732309854E
:101E10001A852B853C854027512762277327840F1D
:101E2000951FA61FB71F8C019D0147E0000F111FD2
:101E3000221F331F4A95D1F7AC01BD01E9E1769528
:101E4000679557954795EA95D1F7402B512B622B13
:101E5000732B89819A81AB81BC81480F591F6A1FFE
:101E60007B1FE796AEADBFADE79714960D911D9120
:101E70002D913C911797098B1A8B2B8B3C8B659678
:101E8000EEADFFAD6597008311832283338389858F
:101E90009A85AB85BC858A5A9844A843B741800F80
:101EA000911FA21FB31FC980DA80EB80FC800D81D7
:101EB0001E812F813885C026D126E226F326C42232
:101EC000D522E622F722C026D126E226F3268C0D63
:101ED0009D1DAE1DBF1D8C019D01FCE0000F111F5B
:101EE000221F331FFA95D1F76C017D01A4E1F6940E
:101EF000E794D794C794AA95D1F7C02AD12AE22AA9
:101F0000F32AC40ED51EE61EF71EE796AEADBFAD92
:101F1000E79718968D919D910D90BC91A02D8D8B7A
:101F20009E8BAF8BB88F6796EEADFFAD67978083C2
:101F30009183A283B3838D819E81AF81B8858552C1
:101F40009F48AF4DBB4D0D891E892F89388D800F5D
:101F5000911FA21FB31F49805A806B807C8044264A
:101F60005526662677264C205D206E207F2009812D
:101F70001A812B813C814026512662267326840DCE
:101F8000951DA61DB71D8C019D01EFE03695279587
:101F900017950795EA95D1F72C013D01F1E1440C25
:101FA000551C661C771CFA95D1F7402A512A622AE3
:101FB000732A4C0C5D1C6E1C7F1CE796AEADBFAD4A
:101FC000E7971C968D919D910D90BC91A02D898FC6
:101FD0009A8FAB8FBC8F6996EEADFFAD699780830A
:101FE0009183A283B38389819A81AB81BC81825121
:101FF0009143A244BE43098D1A8D2B8D3C8D800FD9
:10200000911FA21FB31F8A019B010C251D252E25A0
:102010003F250421152126213721042715272627AE
:102020003727800F911FA21FB31F4C015D011AE0DB
:10203000B694A794979487941A95D1F78C019D0133
:1020400086E1000F111F221F331F8A95D1F708293F
:1020500019292A293B29040D151D261D371DE79630
:10206000AEADBFADE79750968D919D910D90BC910F
:10207000A02D8D8F9E8FAF8FB8A36B96EEADFFAD69
:102080006B9780839183A283B3838155904FA3483C
:10209000BA40840F951FA61FB71FB701A60144259C
:1020A00055256625772540235123622373234C252C
:1020B0005D256E257F25840F951FA61FB71F4C0138
:1020C0005D0147E0880C991CAA1CBB1C4A95D1F7FE
:1020D000AC01BD01E9E17695679557954795EA957D
:1020E000D1F7482959296A297B29400F511F621FBE
:1020F000731FE796AEADBFADE79754968D919D9156
:102100000D90BC91A02D89A39AA3ABA3BCA36D96FF
:10211000EEADFFAD6D9780839183A283B383865D1F
:102120009943A847B84B8C0D9D1DAE1DBF1D730173
:102130006201C026D126E226F326C422D522E62259
:10214000F722C424D524E624F7248C0D9D1DAE1D52
:10215000BF1D4C015D01FCE0880C991CAA1CBB1C36
:10216000FA95D1F76C017D01A4E1F694E794D79438
:10217000C794AA95D1F7C828D928EA28FB28C40E05
:10218000D51EE61EF71EE796AEADBFADE797589693
:102190008D919D910D90BC91A02D8DA39EA3AFA379
:1021A000B8A76F96EEADFFAD6F9780839183A28342
:1021B000B3838D5E994BAF4CB745840D951DA61D1D
:1021C000B71D2801390144265526662677264C205E
:1021D0005D206E207F204026512662267326840DC6
:1021E000951DA61DB71D4C015D01EFE0B694A794A7
:1021F00097948794EA95D1F72C013D01F1E1440CC5
:10220000551C661C771CFA95D1F7482859286A286E
:102210007B284C0C5D1C6E1C7F1CE796AEADBFADE1
:10222000E7975C968D919D910D90BC91A02D89A70B
:102230009AA7ABA7BCA7A196EEADFFADA1978083EF
:102240009183A283B3838F5F9A46A94BB240800FDC
:10225000911FA21FB31F8A019B010C251D252E254E
:102260003F2504211521262137210427152726275C
:102270003727800F911FA21FB31F4C015D011AE089
:10228000B694A794979487941A95D1F78C019D01E1
:1022900086E1000F111F221F331F8A95D1F70829ED
:1022A00019292A293B29040D151D261D371DE796DE
:1022B000AEADBFADE79790968D919D910D90BC917D
:1022C000A02D8DA79EA7AFA7B8ABA396EEADFFAD8F
:1022D000A39780839183A283B38388529746AF47A5
:1022E000B649840F951FA61FB71FB701A601442545
:1022F00055256625772540235123622373234C25DA
:102300005D256E257F25840F951FA61FB71F4C01E5
:102310005D0147E0880C991CAA1CBB1C4A95D1F7AB
:10232000AC01BD01E9E17695679557954795EA952A
:10233000D1F7482959296A297B29400F511F621F6B
:10234000731FE796AEADBFADE79794968D919D91C3
:102350000D90BC91A02D89AB9AABABABBCABA59655
:10236000EEADFFADA59780839183A283B3838155A2
:102370009840AB4BB4478C0D9D1DAE1DBF1D730126
:102380006201C026D126E226F326C422D522E62207
:10239000F722C424D524E624F7248C0D9D1DAE1D00
:1023A000BF1D4C015D01FCE0880C991CAA1CBB1CE4
:1023B000FA95D1F76C017D01A4E1F694E794D794E6
:1023C000C794AA95D1F7C828D928EA28FB28C40EB3
:1023D000D51EE61EF71EE796AEADBFADE797989601
:1023E0008D919D910D90BC91A02D8DAB9EABAFAB0F
:1023F000B8AFA796EEADFFADA79780839183A28378
:10240000B3838F54944AA109B109840D951DA61D6B
:10241000B71D2801390144265526662677264C200B
:102420005D206E207F204026512662267326840D73
:10243000951DA61DB71D4C015D01EFE0B694A79454
:1024400097948794EA95D1F72C013D01F1E1440C72
:10245000551C661C771CFA95D1F7482859286A281C
:102460007B284C0C5D1C6E1C7F1CE796AEADBFAD8F
:10247000E7979C968D919D910D90BC91A02D89AF71
:102480009AAFABAFBCAFA996EEADFFADA997808375
:102490009183A283B38382549842A34AB647800FA4
:1024A000911FA21FB31F8A019B010C251D252E25FC
:1024B0003F2504211521262137210427152726270A
:1024C0003727800F911FA21FB31F4C015D011AE037
:1024D000B694A794979487941A95D1F78C019D018F
:1024E00086E1000F111F221F331F8A95D1F708299B
:1024F00019292A293B29040D151D261D371DE7968C
:10250000AEADBFADE797D0968D919D910D90BC91EA
:10251000A02D21968CAF9DAFAEAFBFAF2197AB96EC
:10252000EEADFFADAB9780839183A283B3834C0163
:102530005D01FEED8F1AFEEE9F0AFFE6AF0AF4E999
:10254000BF0A840E951EA61EB71EB701A60144251C
:1025500055256625772540235123622373234C2577
:102560005D256E257F25480D591D6A1D7B1D4A017D
:102570005B0197E0880C991CAA1CBB1C9A95D1F7AB
:10258000E9E17695679557954795EA95D1F74829FA
:1025900059296A297B29400F511F621F731FE79633
:1025A000AEADBFADE797D4968D919D910D90BC9146
:1025B000A02D25968CAF9DAFAEAFBFAF2597AD9642
:1025C000EEADFFADAD9780839183A283B3834C01C1
:1025D0005D01FDE68F1AFEE89F0AF7E6AF0AF2E01A
:1025E000BF0A8C0C9D1CAE1CBF1C73016201C0266F
:1025F000D126E226F326C422D522E622F722C424DD
:10260000D524E624F724C80CD91CEA1CFB1C46017F
:102610005701FCE0880C991CAA1CBB1CFA95D1F749
:10262000A4E1F694E794D794C794AA95D1F7C82863
:10263000D928EA28FB28C40ED51EE61EF71EE79609
:10264000AEADBFADE797D8968D919D910D90BC91A1
:10265000A02D29968CAF9DAFAEAFBFAF2997AF9697
:10266000EEADFFADAF9780839183A283B3834C011E
:102670005D01F2E78F1AFCEB9F0AF6E8AF0AF9E575
:10268000BF0A840C951CA61CB71C280139014426DE
:102690005526662677264C205D206E207F2040261A
:1026A000512662267326480C591C6A1C7B1C530158
:1026B0004201BFE0B694A79497948794BA95D1F756
:1026C00081E1440C551C661C771C8A95D1F748287B
:1026D00059286A287B284C0C5D1C6E1C7F1CE796D1
:1026E000AEADBFADE797DC968D919D910D90BC91FD
:1026F000A02D2D968CAF9DAFAEAFBFAF2D97E196BD
:10270000EEADFFADE19780839183A283B3834C014B
:102710005D01FFED8F1AF7EF9F0AFBE4AF0AF6EBBE
:10272000BF0A800E911EA21EB31E8A019B010C25BA
:102730001D252E253F25042115212621372104277B
:10274000152726273727080D191D2A1D3B1D48016F
:1027500059019AE0B694A794979487949A95D1F7E3
:10276000E6E1000F111F221F331FEA95D1F7082958
:1027700019292A293B29040D151D261D371D898875
:102780009A88AB88BC888EE9881A8AED980A81EE0F
:10279000A80A89E0B80A840E951EA61EB71EB301CA
:1027A000A20140275127622773274C215D216E210A
:1027B0007F214425552566257725480D591D6A1D1D
:1027C0007B1D4A015B01F5E0880C991CAA1CBB1C0F
:1027D000FA95D1F7ABE17695679557954795AA9508
:1027E000D1F7482959296A297B29400F511F621FB7
:1027F000731F8DA09EA0AFA0B8A490EC891A9CE492
:10280000990A9FEBA90A9FE3B90A8C0C9D1CAE1C88
:10281000BF1C68017901C426D526E626F726C42008
:10282000D520E620F720C026D126E226F326C80CC4
:10283000D91CEA1CFB1C46015701B9E0880C991C05
:10284000AA1CBB1CBA95D1F787E1F694E794D794FC
:10285000C7948A95D1F7C828D928EA28FB28C40E3E
:10286000D51EE61EF71E89AC9AACABACBCACAFEA89
:102870008A1AA5EA9A0AA1EAAA0AA9EDBA0A840C58
:10288000951CA61CB71C2A013B014C245D246E2418
:102890007F24402251226222732244265526662636
:1028A0007726480C591C6A1C7B1C530142019EE090
:1028B000880C991CAA1CBB1C9A95D1F7E2E176946E
:1028C000679457944794EA95D1F7482859286A287D
:1028D0007B284C0C5D1C6E1C7F1C8D849E84AF84F9
:1028E000B888B6E58B1AB8E39B0AB9E4AB0AB6E13F
:1028F000BB0A800E911EA21EB31E970186010425FD
:1029000015252625372504231523262337230C25B3
:102910001D252E253F25080D191D2A1D3B1D48018B
:102920005901FCE0B694A79497948794FA95D1F74F
:10293000A4E1000F111F221F331FAA95D1F7082908
:1029400019292A293B29040D151D261D371D89A08B
:102950009AA0ABA0BCA0E3EA8E1AEFEE9E0AE0EDCF
:10296000AE0AE9E2BE0A840E951EA61EB71EB3018A
:10297000A20140275127622773274C215D216E2138
:102980007F214425552566257725480D591D6A1D4B
:102990007B1D4A015B01B5E0880C991CAA1CBB1C7D
:1029A000BA95D1F78BE176956795579547958A95B6
:1029B000D1F7482959296A297B29400F511F621FE5
:1029C000731F8DA89EA8AFA8B8ACFDEA8F1AFBEEC6
:1029D0009F0AFBEBAF0AFDEFBF0A8C0C9D1CAE1CDF
:1029E000BF1C68017901C426D526E626F726C42037
:1029F000D520E620F720C026D126E226F326C80CF3
:102A0000D91CEA1CFB1C4601570199E0880C991C53
:102A1000AA1CBB1C9A95D1F7E7E1F694E794D794EA
:102A2000C794EA95D1F7C828D928EA28FB28C40E0C
:102A3000D51EE61EF71E2D968CAC9DACAEACBFAC81
:102A40002D978FE7881A89E1980A8EE5A80A87E210
:102A5000B80A840C951CA61CB71C2A013B014C2407
:102A60005D246E247F244022512262227322442658
:102A7000552666267726480C591C6A1C7B1C530178
:102A80004201FEE0880C991CAA1CBB1CFA95D1F7E8
:102A9000A2E17694679457944794AA95D1F7482871
:102AA00059286A287B284C0C5D1C6E1C7F1C8D8C61
:102AB0009E8CAF8CB8A098E3891A94E0990A9CE2A6
:102AC000A90A98E1B90A800E911EA21EB31E9701B1
:102AD00086010425152526253725042315232623BD
:102AE00037230C251D252E253F25080D191D2A1DD0
:102AF0003B1D48015901BCE0B694A7949794879474
:102B0000BA95D1F784E1000F111F221F331F8A9558
:102B1000D1F7082919292A293B29040D151D261D3D
:102B2000371D89A89AA8ABA8BCA8AAE18A1AA2E373
:102B30009A0AAEE1AA0AAEEDBA0A840E951EA61E46
:102B4000B71EB301A20140275127622773274C21EA
:102B50005D216E217F214425552566257725480D69
:102B6000591D6A1D7B1D4A015B0195E0880C991C6B
:102B7000AA1CBB1C9A95D1F7EBE176956795579502
:102B80004795EA95D1F7482959296A297B29400FA9
:102B9000511F621F731F29968CAC9DACAEACBFACAD
:102BA0002997BAE28B1AB8EF9B0AB8ECAB0ABCE3E0
:102BB000BB0A8C0C9D1CAE1CBF1C68017901C4268D
:102BC000D526E626F726C420D520E620F720C02605
:102BD000D126E226F326C80CD91CEA1CFB1C4601B0
:102BE0005701F9E0880C991CAA1CBB1CFA95D1F777
:102BF000A7E1F694E794D794C794AA95D1F7C8288B
:102C0000D928EA28FB28C40ED51EE61EF71E898C9B
:102C10009A8CAB8CBC8CE9E78E1AE2EF9E0AEAE252
:102C2000AE0AEBE0BE0A840C951CA61CB71C2A0158
:102C30003B014C245D246E247F24402251226222D9
:102C400073224426552666267726480C591C6A1C92
:102C50007B1C53014201BEE0880C991CAA1CBB1CC2
:102C6000BA95D1F782E176946794579447948A9500
:102C7000D1F7482859286A287B284C0C5D1C6E1C0B
:102C80007F1C8DA49EA4AFA4B8A8F3E18F1AFBEE1D
:102C90009F0AF5EAAF0AFAEBBF0A800E911EA21E48
:102CA000B31E970186010425152526253725042303
:102CB0001523262337230C251D252E253F25080DFA
:102CC000191D2A1D3B1D480159019CE0B694A7948B
:102CD000979487949A95D1F7E4E1000F111F221F72
:102CE000331FEA95D1F7082919292A293B29040D10
:102CF000151D261D371D25968CAC9DACAEACBFAC0A
:102D000025978BEF881A86E1980A8CE1A80A86E558
:102D1000B80A840E951EA61EB71EB301A201402755
:102D20005127622773274C215D216E217F21442585
:102D3000552566257725480D591D6A1D7B1D4A01BD
:102D40005B01F5E0880C991CAA1CBB1CFA95D1F715
:102D5000ABE17695679557954795AA95D1F74829A0
:102D600059296A297B29400F511F621F731F8D88C3
:102D70009E88AF88B88C98E0891A9CE5990A90E102
:102D8000A90A93E0B90A8C0C9D1CAE1CBF1C6801FB
:102D90007901C426D526E626F726C420D520E620CC
:102DA000F720C026D126E226F326C80CD91CEA1C3F
:102DB000FB1C46015701B9E0880C991CAA1CBB1CDE
:102DC000BA95D1F787E1F694E794D794C7948A959A
:102DD000D1F7C828D928EA28FB28C40ED51EE61E3C
:102DE000F71E89A49AA4ABA4BCA4A7E28A1AADEFEB
:102DF0009A0AA0E9AA0AA8E9BA0A840C951CA61C9A
:102E0000B71C2A013B014C245D246E247F24402200
:102E10005122622273224426552666267726480CC4
:102E2000591C6A1C7B1C530142019EE0880C991CB2
:102E3000AA1CBB1C9A95D1F7E2E17694679457944B
:102E40004794EA95D1F7482859286A287B284C0CE2
:102E50005D1C6E1C7F1C4601570184249524A6240A
:102E6000B72421968CAD9DADAEADBFAD21978657F1
:102E7000934BA54DB247800F911FA21FB31F950121
:102E8000840104231523262337230C251D252E25F5
:102E90003F25800F911FA21FB31F8C019D01FCE0F5
:102EA0003695279517950795FA95D1F7E5960CAFC6
:102EB0001DAF2EAF3FAFE5978C019D01A4E1000F40
:102EC000111F221F331FAA95D1F7E5968CAD9DAD3A
:102ED000AEADBFADE597082B192B2A2B3B2B040D6C
:102EE000151D261D371D89A19AA1ABA1BCA18E5B22
:102EF000964CA540B109840F951FA61FB71F8026C9
:102F00009126A226B326880E991EAA1EBB1ED501A5
:102F1000C40144E0880F991FAA1FBB1F4A95D1F72F
:102F20005CE1B694A794979487945A95D1F7882A30
:102F3000992AAA2ABB2A800E911EA21EB31E4DA555
:102F40005EA56FA578A94F5759406E4878474C0D3C
:102F50005D1D6E1D7F1D73016201C026D126E22614
:102F6000F326C824D924EA24FB24C40ED51EE61E69
:102F7000F71EB701A601EBE0440F551F661F771F30
:102F8000EA95D1F7F5E1F694E794D794C794FA95CA
:102F9000D1F7C42AD52AE62AF72AC80CD91CEA1C7C
:102FA000FB1C49AD5AAD6BAD7CAD4E5D5E496246D2
:102FB0007249440E551E661E771EB901A8014825A8
:102FC00059256A257B254C255D256E257F25440ED8
:102FD000551E661E771ED20123013D014C0C5D1C5F
:102FE0006E1C7F1C29964CAD5DAD6EAD7FAD2997F3
:102FF000445F574C6A417240400F511F621F731F5C
:10300000950184010C251D252E253F250425152518
:1030100026253725040F151F261F371FB901A801C4
:10302000A9E07695679557954795AA95D1F7B7E1A9
:10303000000F111F221F331FBA95D1F7042B152B38
:10304000262B372B040D151D261D371D49895A893E
:103050006B897C894C5B554161447B45480D591D0A
:103060006A1D7B1D4601570184249524A624B7249C
:1030700080269126A226B326840E951EA61EB71E74
:10308000B501A40184E0440F551F661F771F8A9580
:10309000D1F79CE1B694A794979487949A95D1F729
:1030A000842A952AA62AB72A800E911EA21EB31E34
:1030B0004D8D5E8D6F8D78A1475550436142744BA5
:1030C000C40ED51EE61EF71EB301A20140275127EC
:1030D00062277327482559256A257B254C0D5D1DE0
:1030E0006E1D7F1DDB01CA01EBE0880F991FAA1F2F
:1030F000BB1FEA95D1F7F5E176956795579547950A
:10310000FA95D1F7482B592B6A2B7B2B480D591D6B
:103110006A1D7B1DC9A4DAA4EBA4FCA4B0EACB1AF7
:10312000B4EBDB0AB4E4EB0AB9E0FB0A4C0C5D1C1F
:103130006E1C7F1C68017901C824D924EA24FB2471
:10314000C426D526E626F7264C0C5D1C6E1C7F1C7B
:10315000F20123013F01440E551E661E771ECDA8C5
:10316000DEA8EFA8F8ACF0E9CF1AF3E4DF0AF0E448
:10317000EF0AF1E4FF0AC00ED11EE21EF31E950114
:1031800084010427152726273727042515252625FA
:1031900037250C0D1D1D2E1D3F1D68017901A9E06D
:1031A000F694E794D794C794AA95D1F7B7E1000FA6
:1031B000111F221F331FBA95D1F70C291D292E2963
:1031C0003F29040D151D261D371D2596CCACDDAC01
:1031D000EEACFFAC25978AE3C81A81E8D80A84E6EA
:1031E000E80A87EDF80AC80CD91CEA1CFB1C4A0146
:1031F0005B0184249524A624B72480269126A22648
:10320000B3268C0C9D1CAE1CBF1C7501640184E0B0
:10321000CC0CDD1CEE1CFF1C8A95D1F79CE1B6940A
:10322000A794979487949A95D1F78C289D28AE28D7
:10323000BF28800E911EA21EB31ECD84DE84EF84B3
:10324000F88896E0C91A98EDD90A9EE5E90A95E151
:10325000F90AC40ED51EE61EF71EB301A2014027CF
:10326000512762277327482559256A257B254C0D50
:103270005D1D6E1D7F1D6A017B01EBE0CC0CDD1C2A
:10328000EE1CFF1CEA95D1F7F5E176956795579509
:103290004795FA95D1F74C295D296E297F29480D6C
:1032A000591D6A1D7B1DC98CDA8CEB8CFC8CABE73D
:1032B000CA1AAFECDA0AA0E1EA0AABE2FA0A4C0C4D
:1032C0005D1C6E1C7F1C68017901C824D924EA2486
:1032D000FB24C426D526E626F7264C0C5D1C6E1C66
:1032E0007F1CF20123013F01440E551E661E771E0E
:1032F000CDA0DEA0EFA0F8A4FBEFCF1AF2EEDF0A1C
:10330000F7E7EF0AFBEFFF0AC00ED11EE21EF31E25
:10331000950184010427152726273727042515251D
:10332000262537250C0D1D1D2E1D3F1D6801790119
:10333000A9E0F694E794D794C794AA95D1F7B7E19A
:10334000000F111F221F331FBA95D1F70C291D2919
:103350002E293F29040D151D261D371DC9A8DAA8E1
:10336000EBA8FCA887ECC81A8FE2D80A8BE2E80A1F
:1033700086E2F80AC80CD91CEA1CFB1C4A015B0156
:1033800084249524A624B72480269126A226B32639
:103390008C0C9D1CAE1CBF1C7501640184E0CC0C20
:1033A000DD1CEE1CFF1C8A95D1F79CE1B694A79416
:1033B000979487949A95D1F78C289D28AE28BF289A
:1033C000800E911EA21EB31E2196CCACDDACEEACDD
:1033D000FFAC21979BE1C91A96E6D90A94E2E90A63
:1033E00099E1F90AC40ED51EE61EF71EB301A2012B
:1033F0004027512762277327482559256A257B25B1
:103400004C0D5D1D6E1D7F1D6A017B01EBE0CC0C38
:10341000DD1CEE1CFF1CEA95D1F7F5E1769567956A
:1034200057954795FA95D1F74C295D296E297F2943
:10343000480D591D6A1D7B1D2D96CCACDDACEEAC44
:10344000FFAC2D97A8E0CA1AA3E8DA0AADE5EA0AAC
:10345000A0EEFA0A4C0C5D1C6E1C7F1C6801790101
:10346000C824D924EA24FB24C426D526E626F72638
:103470004C0C5D1C6E1C7F1CF20123013F01440EAD
:10348000551E661E771ECD88DE88EF88F88CFBE916
:10349000CF1AF9EADF0AF3E5EF0AFBE3FF0AC00EF1
:1034A000D11EE21EF31E950184010427152726274D
:1034B000372704251525262537250C0D1D1D2E1D06
:1034C0003F1D68017901A9E0F694E794D794C79469
:1034D000AA95D1F7B7E1000F111F221F331FBA952C
:1034E000D1F70C291D292E293F29040D151D261D54
:1034F000371DCD84DE84EF84F8888CEBC81A8DEDFF
:10350000D80A86EDE80A8BE0F80AC80CD91CEA1C38
:10351000FB1C4A015B0180949094A094B094802A93
:10352000912AA22AB32A84249524A624B7248C0C99
:103530009D1CAE1CBF1C7501640186E0CC0CDD1C1B
:10354000EE1CFF1C8A95D1F79AE1B694A794979444
:1035500087949A95D1F78C289D28AE28BF28800E95
:10356000911EA21EB31EC9A4DAA4EBA4FCA499E682
:10357000C91AD10895EDE90A9CEBF90AC40ED51ECB
:10358000E61EF71EB301A201409550956095709517
:10359000482959296A297B294027512762277327FF
:1035A0004C0D5D1D6E1D7F1D6A017B01EAE0CC0C98
:1035B000DD1CEE1CFF1CEA95D1F7F6E176956795C8
:1035C00057954795FA95D1F74C295D296E297F29A2
:1035D000480D591D6A1D7B1D2996CCACDDACEEACA7
:1035E000FFAC2997A9E5CA1AACEDDA0AABE6EA0AFC
:1035F000A4E5FA0AC40CD51CE61CF71C2801390105
:103600004094509460947094442A552A662A772AEC
:10361000482459246A247B244C0C5D1C6E1C7F1C9E
:1036200073016201AFE0CC0CDD1CEE1CFF1CAA95FF
:10363000D1F7B1E17694679457944794BA95D1F74E
:103640004C285D286E287F28440E551E661E771E66
:10365000C9A0DAA0EBA0FCA0B7ECCB1ABFE5DB0A4F
:10366000BCE6EB0AB3E0FB0AC00ED11EE21EF31E5D
:103670009501840100951095209530950429152910
:103680002629372904271527262737270C0D1D1D26
:103690002E1D3F1D680179018BE0F694E794D794C5
:1036A000C7948A95D1F795E1000F111F221F331F90
:1036B0009A95D1F70C291D292E293F29040D151D96
:1036C000261D371D2196CCACDDACEEACFFAC2197AE
:1036D000EDE3CE1AE6EADE0AE4EAEE0AEAE9FE0AD9
:1036E000C80CD91CEA1CFB1C4A015B018094909415
:1036F000A094B094802A912AA22AB32A84249524E3
:10370000A624B7248C0C9D1CAE1CBF1C7501640143
:10371000E6E0CC0CDD1CEE1CFF1CEA95D1F7FAE1CB
:10372000B694A79497948794FA95D1F78C289D28FE
:10373000AE28BF28800E911EA21EB31EC98CDA8C43
:10374000EB8CFC8CFEE6CF1AF3E3DF0AF3EFEF0A13
:10375000F0E7FF0AC40ED51EE61EF71EB301A20154
:103760004095509560957095482959296A297B297B
:1037700040275127622773274C0D5D1D6E1D7F1D4D
:103780006A017B01AAE0CC0CDD1CEE1CFF1CAA9593
:10379000D1F7B6E17695679557954795BA95D1F7E4
:1037A0004C295D296E297F29480D591D6A1D7B1DF5
:1037B000CDA8DEA8EFA8F8AC83E8C81A8BE0D80A39
:1037C00080E1E80AF108C40CD51CE61CF71C2801AE
:1037D00039014094509460947094442A552A662A82
:1037E000772A482459246A247B244C0C5D1C6E1CC7
:1037F0007F1C730162018FE0CC0CDD1CEE1CFF1CF2
:103800008A95D1F791E176946794579447949A9565
:10381000D1F74C285D286E287F28440E551E661E61
:10382000771EC988DA88EB88FC889FE2C91A92EA79
:10383000D90A9BE7E90A9AE7F90AC00ED11EE21EEF
:10384000F31E95018401009510952095309504296B
:1038500015292629372904271527262737270C0D50
:103860001D1D2E1D3F1D68017901EBE0F694E794C4
:10387000D794C794EA95D1F7F5E1000F111F221FE5
:10388000331FFA95D1F70C291D292E293F29040D44
:10389000151D261D371DCDA4DEA4EFA4F8A8A1EBAD
:1038A000CA1AA1E8DA0AA7E5EA0AA0E9FA0AC80CE6
:1038B000D91CEA1CFB1C4A015B0180949094A094E3
:1038C000B094802A912AA22AB32A84249524A6247B
:1038D000B7248C0C9D1CAE1CBF1C75016401A6E0B6
:1038E000CC0CDD1CEE1CFF1CAA95D1F7BAE1B694F6
:1038F000A79497948794BA95D1F78C289D28AE28E1
:10390000BF28800E911EA21EB31E2D968CAD9DADBC
:10391000AEADBFAD2D9780529941A34DB140840FFC
:10392000951FA61FB71FB301A20140955095609542
:103930007095482959296A297B29402751276227F0
:103940007327840F951FA61FB71F6C017D014AE0E6
:10395000CC0CDD1CEE1CFF1C4A95D1F7AC01BD015F
:10396000E6E17695679557954795EA95D1F74C2905
:103970005D296E297F29480D591D6A1D7B1D8DA16A
:103980009EA1AFA1B8A58C5E9C4BAE4FBC45840DEB
:10399000951DA61DB71D28013901409450946094CF
:1039A0007094442A552A662A772A482459246A247E
:1039B0007B24840D951DA61DB71D6C017D01FFE0C4
:1039C000CC0CDD1CEE1CFF1CFA95D1F72C013D013F
:1039D000A1E17694679457944794AA95D1F74C281F
:1039E0005D286E287F28440E551E661E771E25967C
:1039F0008CAD9DADAEADBFAD25978F559E4EA74FFB
:103A0000B14B800F911FA21FB31F95018401009538
:103A10001095209530950429152926293729042742
:103A2000152726273727800F911FA21FB31F6C0170
:103A30007D011BE0F694E794D794C7941A95D1F7CB
:103A40008C019D0185E1000F111F221F331F8A95F4
:103A5000D1F70C291D292E293F29040D151D261DDE
:103A6000371D8D8D9E8DAF8DB8A18E579148AC4A74
:103A7000B840880D991DAA1DBB1D4A015B018094A9
:103A80009094A094B094802A912AA22AB32A8424E4
:103A90009524A624B724880D991DAA1DBB1D6C0171
:103AA0007D01E6E0CC0CDD1CEE1CFF1CEA95D1F795
:103AB0004C015D01FAE1B694A79497948794FA9526
:103AC000D1F78C289D28AE28BF28800E911EA21EFB
:103AD000B31E89AD9AADABADBCAD8B5C9D40A54C22
:103AE000B244840F951FA61FB71FB301A2014095D2
:103AF000509560957095482959296A297B29402756
:103B0000512762277327840F951FA61FB71F6C01CB
:103B10007D014AE0CC0CDD1CEE1CFF1C4A95D1F760
:103B2000AC01BD01E6E17695679557954795EA9515
:103B3000D1F74C295D296E297F29480D591D6A1D31
:103B40007B1D8D899E89AF89B88D85549D42A84281
:103B5000B54D840D951DA61DB71D28013901409452
:103B6000509460947094442A552A662A772A4824EF
:103B700059246A247B24840D951DA61DB71D6C0154
:103B80007D01FFE0CC0CDD1CEE1CFF1CFA95D1F78B
:103B90002C013D01A1E17694679457944794AA952E
:103BA000D1F74C285D286E287F28440E551E661ECE
:103BB000771E89A99AA9ABA9BCA98F569C42A9478F
:103BC000B441800F911FA21FB31F9501840100957E
:103BD0001095209530950429152926293729042781
:103BE000152726273727800F911FA21FB31F6C01AF
:103BF0007D011BE0F694E794D794C7941A95D1F70A
:103C00008C019D0185E1000F111F221F331F8A9532
:103C1000D1F70C291D292E293F29040D151D261D1C
:103C2000371D61968CAD9DADAEADBFAD6197880D72
:103C3000991DAA1DBB1D61968CAF9DAFAEAFBFAFE6
:103C4000619789819A81AB81BC81800F911FA21FEE
:103C5000B31F89839A83AB83BC830D811E812F811F
:103C60003885040D151D261D371D0D831E832F83DA
:103C7000388789859A85AB85BC85840F951FA61FDB
:103C8000B71F89879A87AB87BC87E796AEADBFAD74
:103C9000E797A05CBF4FE796BFAFAEAFE797B0E442
:103CA0002B1A310811F00C94D10E61960CAD1DAD9C
:103CB0002EAD3FAD6197E996AEADBFADE9971896D1
:103CC0000D931D932D933C931B9709811A812B8192
:103CD0003C811C960D931D932D933C931F970D8152
:103CE0001E812F81388550960D931D932D933C9303
:103CF000539709851A852B853C8554960D931D9302
:103D00002D933C935797E7968EAD9FADE797C85894
:103D1000DF4F0FB6F894DEBF0FBECDBFDF91CF915E
:103D20001F910F91FF90EF90DF90CF90BF90AF90D9
:103D30009F908F907F906F905F904F903F902F90CB
:103D40000895CF93DF93FC0181E093E2A5E4B7E609
:103D500080879187A287B38789E89BEAADECBFEEA5
:103D600084879587A687B7878EEF9CEDAAEBB8E985
:103D7000808B918BA28BB38B86E794E5A2E3B0E1B5
:103D8000848B958BA68BB78B108211821282138243
:103D90001482158216821782DF01A85ABF4F80E471
:103DA000ED01982F19929A95E9F77896DF011D9207
:103DB0008A95E9F7DF91CF9108958F929F92AF9204
:103DC000BF92EF92FF920F931F93CF93DF93EC017B
:103DD0007B018A0188819981AA81BB8170E060E0C2
:103DE0004A015B01880E991EAA1EBB1E2FE1B2225A
:103DF00088829982AA82BB8288169906AA06BB0687
:103E000068F48C809D80AE80BF802FEF821A920A6A
:103E1000A20AB20A8C829D82AE82BF828F739927DA
:103E2000AA27BB270097A105B10579F120E4822ECE
:103E3000912CA12CB12C881A990AAA0ABB0A48967F
:103E40008C0F9D1F481559056A057B0570F4A80164
:103E5000B701DF91CF911F910F91FF90EF90BF902D
:103E6000AF909F908F900C94972FA401B7010E9460
:103E7000972FE80CF91C0819190940E450E0BE011D
:103E8000685E7F4FCE010E94F10D0034110548F0AD
:103E9000A801407CB701CE010E94F10D7C010F7397
:103EA0001127A801B701CE014896D3CFEF92FF9218
:103EB0000F931F93CF93DF938C01EB0148815981BE
:103EC0006A817B814F73552766277727DB01CA01FB
:103ED0000196A11DB11D4C0F5D1F20E8FA01208F36
:103EE00040E450E060E070E0481B590B6A0B7B0B2C
:103EF0007E01F8E1EF0EF11C4830510561057105B6
:103F0000A0F4489670E060E08C0F9D1F0E94A02FE7
:103F100040E450E0B701CE010E94F10D40E450E0D2
:103F200060E070E080E090E0DC0148505109489684
:103F300070E060E08C0F9D1F0E94A02F8881998106
:103F4000AA81BB8123E0880F991FAA1FBB1F2A9556
:103F5000D1F788839983AA83BB83FE01E05BFF4F7F
:103F60008083319690833196A0833196B0833C81D3
:103F70002D819E818F8131963083319620833196B9
:103F800090833196808340E450E0B701CE010E94D7
:103F9000F10D8885F8018083898581838A858283F4
:103FA0008B8583838C8584838D8585838E858683AD
:103FB0008F85878388898087898981878A89828795
:103FC0008B8983878C8984878D8985878E8986876D
:103FD0008F89878788E9FE0111928A95E9F7DF9139
:103FE000CF911F910F91FF90EF900895CF92DF92A4
:103FF000EF92FF920F931F93CF93DF93CDB7DEB76E
:10400000C859D1090FB6F894DEBF0FBECDBF7C01F1
:104010006B0180E190E00E9430288C01CE01019676
:104020000E94A11EA601B701CE0101960E94DD1ECD
:10403000BE016F5F7F4FC8010E94561FC801C8565E
:10404000DF4F0FB6F894DEBF0FBECDBFDF91CF912B
:104050001F910F91FF90EF90DF90CF900895CF9335
:10406000DF931F92CDB7DEB76983DC01ED91FC9140
:104070000280F381E02D41E050E0BE016F5F7F4F91
:1040800009950F90DF91CF9108950895FC01138257
:10409000128288EE93E0A0E0B0E084839583A6834B
:1040A000B7838BE291E09183808380E5848781E010
:1040B00085878AE090E09787868789E090E0918BFA
:1040C000808B82E090E0938B828B148A158A168A0B
:1040D000178A118E108E138E128E158E148E40E05C
:1040E00050E0BA01CF010C946127FC017787668705
:1040F000518B408B338B228B08950F931F93CF935B
:10410000DF93EC01062F142F60E08E850E94C52AF4
:104110003C852D858091AC37882381F09FB7F8943A
:104120008091AC37813081F58DB38093AA374DB340
:104130008091AB37809584238DBB9FBF3CBD2DBD47
:104140000EBD00000DB407FEFDCF8EB51EBD0000F4
:104150000DB407FEFDCF1EB58091AC37882351F01A
:104160009FB7F8942091AC378091AA37213079F429
:104170008DBB9FBF61E08E850E94C52A812FDF9194
:10418000CF911F910F9108959093AA37D7CF8FBFEA
:10419000F1CF6F7740E00C947D2068E10C94C9204A
:1041A00069E10C94C92069E10E94C920682F880F39
:1041B000770B880B990B0E948E2C20E030E040E8B2
:1041C0005EE30E943E2D08958F929F92AF92BF9220
:1041D000EF92FF920F931F93CF93DF938C016AE1CD
:1041E0000E94C920C82FD0E0C8010E94D3200E949D
:1041F000562C4B017B01F801648975898689978962
:104200000E948E2C24ED30E843E45EE40E94512CA1
:10421000BE0187FD12C06D597109F7FE11C0680D0E
:10422000791DCB01DF91CF911F910F91FF90EF90FE
:10423000BF90AF909F908F900895645A7109EDCF11
:10424000072E000C880B990B0E948E2C20EB32E776
:1042500048E85FE30E943E2D0E94562CE2CFCF93A8
:10426000DF93EC0163E10E94C92090E0288D398D35
:10427000821B930BDF91CF910895CF93DF93EC01D5
:10428000E881F9810480F581E02D0995892B69F099
:10429000888D998D0196998F888F60E0CE010E945C
:1042A000C92090E0DF91CF9108958FEF9FEFFACF73
:1042B0000F931F93CF93DF938C0166E00E94C92078
:1042C000D82F67E0C8010E94C920C82F68E0C80144
:1042D0000E94C9204C2F50E070E060E0762F652FDF
:1042E000542F44276D2B8A019B01082BC901B8016B
:1042F00020E038E448EE51E00E941B2E03E10E94CA
:10430000C02EB901CA01DF91CF911F910F9108957D
:104310006DE10E94C920E82FF0E084E0F595E79573
:104320008A95E1F7EA30F10508F036C0E656FE4D11
:104330000C94002ECD21A421D221A921AE21B3219C
:10434000B821BD21C221C72160EA78E280E090E077
:10435000089560E471E580E090E0089562E17AE715
:1043600080E090E0089564EE72EA80E090E00895C5
:1043700064E274EF80E090E0089568E478EE81E014
:1043800090E0089560E970ED83E090E0089560E2C8
:1043900071EA87E090E00895089568E77EE180E0A3
:1043A00090E0089560EF7CE380E090E008956CE297
:1043B0000C94C920CF93DF93EC0143E861E80E949D
:1043C0007D2062E1CE010E94C92083FD03C00E94CE
:1043D000F32AF7CF48E062E9CE010E947D2081E018
:1043E00090E0DF91CF910895AF92BF92CF92DF928C
:1043F000FF920F931F93CF93DF936C015B01EA0150
:1044000062E20E94C920F82E90E09C012C0F3D1F13
:104410002F3F310529F020F0CFEFD0E0C81BD90B9A
:104420008501AC0EBD1E0A151B0541F0F801419136
:104430008F0160E8C6010E947D20F5CF4C2F4F0D03
:1044400062EAC6010E947D20CE01DF91CF911F91CB
:104450000F91FF90DF90CF90BF90AF9008950F9392
:104460001F93CF93DF93EC01E881F9810480F581FC
:10447000E02D0995892BB1F06DE0CE010E94C92095
:10448000082F60E0CE010E94C920182F402F6DE850
:10449000CE010E947D20812F90E0DF91CF911F916E
:1044A0000F9108958FEF9FEFF8CFCF93DF93EC013B
:1044B0007D8F6C8F8A899B89672BA1F160E00E94B8
:1044C000892A40E060ECCE010E947D208A899B8988
:1044D00082309105D9F08A309105D1F00B97D1F453
:1044E00081E00E94C7258A899B8982309105A1F0CD
:1044F0008A30910599F00B9799F481E043E050E000
:1045000069E575E2DF91CF910C94F52A82E0E9CF5D
:1045100080E0E7CF8FEFE5CF82E0F0CF80E0EECF15
:104520008FEFECCF82309105B9F08A309105B1F070
:104530000B97B1F481E00E94242B8A899B898230F9
:10454000910581F08A30910579F00B9779F481E03B
:10455000DF91CF910C94E62582E0EDCF80E0EBCFA8
:104560008FEFE9CF82E0F4CF80E0F2CF8FEFF0CF92
:1045700041E861E80C947D2040E861E80C947D20DE
:104580000E94BC220C94B325AF92BF92CF92DF92CF
:10459000EF92FF920F931F93CF93DF93EC01DB0118
:1045A000CA018C8B9D8BAE8BBF8B6A017B01FF0C8C
:1045B000CC08DC2C76019A01AB016C2D7C2D8C2D66
:1045C0009C2D03E10E94A52EA12CE8E4BE2EF8EE5E
:1045D000CF2EDD24D394E12CF12C00E010E00E94DA
:1045E000482E122FC22ED32E7A01A70166277727D5
:1045F00066E8CE010E947D2077276F2D5E2D4D2D20
:1046000067E8CE010E947D20412F68E8CE01DF914E
:10461000CF911F910F91FF90EF90DF90CF90BF90BF
:10462000AF900C947D20CF92DF92EF92FF92CF93C8
:10463000DF93EC016A017B0161E08E850E94892A8B
:1046400061E08E850E94C52A888999898F3F9807E5
:10465000B9F061E00E94892A60E088890E94C52A39
:104660006AE070E080E090E00E94D02961E08889F3
:104670000E94C52A6AE070E080E090E00E94D029A4
:104680000E947D2562E4CE010E94C920823191F50D
:10469000CE010E94BC22B701A601CE010E94C42215
:1046A00040E06EE8CE010E947D2040E06FE8CE0140
:1046B0000E947D206CE0CE010E94C920482F4360FB
:1046C0006CE8CE010E947D2044E066EACE010E94A3
:1046D0007D2040E869E8CE010E947D20CE010E9445
:1046E000B82281E090E0DF91CF91FF90EF90DF90D2
:1046F000CF90089590E080E0F6CFCF92DF92EF92D6
:10470000FF92CF93DF93EC016EE10E94C920F82E57
:10471000CE010E948821F2942FE0F222CC24C3948F
:10472000D12C02C0CC0CDD1CFA94E2F70D2C000C4D
:10473000EE08FF0828EE33E040E050E00E94E12D53
:10474000C701B6010E94E12D213131054105510516
:104750005CF04CE066EACE01DF91CF91FF90EF90E4
:10476000DF90CF900C947D2044E0F4CF0F931F9303
:10477000CF93DF938C01EB016630710534F06D301F
:10478000710534F56630710529F545EC61EBC8011A
:104790000E947D204CE067EBC8010E947D20C6E0AE
:1047A000D0E06EE1C8010E94C9208F7094E0CC0F68
:1047B000DD1F9A95E1F74C2F482B6EE9C8010E9446
:1047C0007D20C801DF91CF911F910F910C947D2323
:1047D000CCE0D0E043EC61EBC8010E947D204AE0D0
:1047E00067EBC8010E947D20DCCFCF92DF92EF9271
:1047F000FF920F931F93CF93DF938C01CB01BA01EC
:104800000E948E2C6B017C0120E030EC43EF55E4DC
:104810000E94512CD0E0C0E018160CF065C020E0DA
:1048200030E842E256E4C701B6010E94512CC1E0D3
:10483000D0E018160CF058C020E030EC43E756E406
:10484000C701B6010E94512CC2E0D0E018160CF04E
:104850004BC020E030E842EA56E4C701B6010E94AE
:10486000512CC3E0D0E018160CF03EC020E034E23A
:1048700044EF56E4C701B6010E94512CC4E0D0E0D9
:10488000181694F520E034EE42E257E4C701B60171
:104890000E94512CC5E0D0E0181634F520E034E237
:1048A00044E757E4C701B6010E94512CC6E0D0E0AE
:1048B0001816D4F420E034E244EF57E4C701B601FF
:1048C0000E94512CC7E0D0E0181674F420E034E2C6
:1048D00044E758E4C701B6010E94512CC9E0D0E07A
:1048E000181614F0C8E0D0E06DE1C8010E94C9209C
:1048F0008F7094E0CC0FDD1F9A95E1F74C2F482B79
:104900006DE9C8010E947D20C801DF91CF911F9100
:104910000F91FF90EF90DF90CF900C947D230F9339
:104920001F93CF93DF938C01EB016930710514F075
:10493000C8E0D0E06DE1C8010E94C920C530D105B2
:1049400014F4C5E0D0E02497CC0FDD1F482F417F41
:104950004C2B6DE9C801DF91CF911F910F910C9401
:104960007D20CF93DF93EC016EE10E94C920482F98
:1049700044606EE9CE01DF91CF910C947D20CF93FE
:10498000DF93EC011B8E1A8E6DE10E94C920482F27
:104990004E7F6DE9CE01DF91CF910C947D20CF93B6
:1049A000DF93EC0181E090E09B8F8A8F6DE1CE0177
:1049B0000E94C920482F41606DE9CE01DF91CF915F
:1049C0000C947D200F931F93CF93DF93EC018B0109
:1049D0000E94B822CE01012B99F00E94CF2440E022
:1049E0006DE8CE010E947D2040E062EACE010E9487
:1049F0007D2081E090E0DF91CF911F910F9108958C
:104A00000E94BF24ECCF0F931F93CF93DF93EC0151
:104A10008B011616170684F40E94CF24402F62EAF9
:104A2000CE010E947D2045E861E8CE01DF91CF9163
:104A30001F910F910C947D200E94BF24F4CF0F93FF
:104A40001F93CF93DF93EC0162E10E94C920182FDE
:104A5000482F62E9CE010E947D2015FD25C0198EE8
:104A6000188E8A8D9B8D62E2892B09F463E1CE0159
:104A70000E94C920082F10E060E1CE010E94C920E9
:104A8000482F6DE8CE010E947D20EC8DFD8D309782
:104A900011F0C801099540E06DE8CE01DF91CF919A
:104AA0001F910F910C947D20DF91CF911F910F9159
:104AB00008958CE897E30C941F25452B61F4AB0116
:104AC0006F30710514F04EE050E057FD40E0406754
:104AD00069E80C947D20AB016231710514F041E16D
:104AE00050E04230510514F442E050E0425040683A
:104AF000EFCF8CE897E30C944620CF93CFB7F89490
:104B00008091AD37811127C0E0EDF0E08491E0EBBA
:104B1000F0E09491E82FF0E0EE0FFF1FEA50FF4F16
:104B2000A591B491EC91E92321F461E084E00E9425
:104B3000C52A61E084E00E94892A8CB580618CBD21
:104B40008CB580648CBD61E087E00E94892A61E0B9
:104B500085E00E94892A8091AD378F5F8093AD37C1
:104B6000CFBFCF9108959FB7F8948091AD37882338
:104B700019F081508093AD378091AD37811105C018
:104B80008CB58F7B8CBD1092AC379FBF08952FB72B
:104B9000F894813041F0C0F08230A1F082E080933F
:104BA000AC3780E001C082E09091AB37892B8093D5
:104BB000AB378091AC37811103C081E08093AC3773
:104BC0002FBF089584E0F0CF81E0EECF9091AC3715
:104BD0009230A1F09FB7F894833088F4E82FF0E08A
:104BE000E95CFE4F808180952091AB3782238093D2
:104BF000AB37811102C01092AC379FBF089580E09F
:104C0000F2CFAF92BF92CF92DF92EF92FF920F93CB
:104C10001F93CF93DF936C017B018B01040F151F52
:104C2000EB015E01AE18BF08C017D10759F06991BA
:104C3000D601ED91FC910190F081E02DC60109951E
:104C4000892B79F7C501DF91CF911F910F91FF90CB
:104C5000EF90DF90CF90BF90AF900895FC01918DC1
:104C6000228D892F90E0805C9F4F821B91098F736A
:104C700099270895FC01918D828D981731F0828DCE
:104C8000E80FF11D858D90E008958FEF9FEF089557
:104C9000FC01918D828D981761F0A28DAE0FBF2F10
:104CA000B11D5D968C91928D9F5F9F73928F90E066
:104CB00008958FEF9FEF089587EC97E2892B49F0D5
:104CC00080E090E0892B29F00E94C72781110E9483
:104CD000000080E090E0892B49F080E090E0892B93
:104CE00029F00E94000081110C9400000895FC013D
:104CF000A48DA80FB92FB11DA35ABF4F2C91848D3D
:104D000090E001968F739927848FA689B7892C9399
:104D1000A089B1898C9180648C93938D848D981334
:104D200006C00288F389E02D80818F7D80830895FD
:104D3000CF93DF93EC01888D8823B9F0AA89BB89D2
:104D4000E889F9898C9185FD03C0808186FD0DC0BD
:104D50000FB607FCF7CF8C9185FFF2CF808185FFDE
:104D6000EDCFCE010E947726E9CFDF91CF91089554
:104D7000EF92FF920F931F93CF93DF93EC0181E0AB
:104D8000888F9B8D8C8D981316C0E889F989808156
:104D900085FF11C0EE89FF896083E889F9898081E8
:104DA0008064808381E090E0DF91CF911F910F912B
:104DB000FF90EF900895F62E0B8D10E00F5F1F4FC0
:104DC0000F731127E02E8C8D8E110CC00FB607FCCF
:104DD000FACFE889F989808185FFF5CFCE010E945D
:104DE0007726F1CFEB8DEC0FFD2FF11DE35AFF4F2E
:104DF000F0820B8FEA89FB8980818062D2CFCF92CB
:104E0000DF92EF92FF921F93CF93DF93EC016A0141
:104E10007B01122FE889F98982E08083C11481EE39
:104E2000D806E104F104A1F060E079E08DE390E0C0
:104E3000A70196010E94BF2D215031094109510956
:104E40005695479537952795211580E1380798F0B5
:104E5000E889F989108260E874E88EE190E0A701A2
:104E600096010E94BF2D21503109410951095695E3
:104E7000479537952795EC85FD853083EE85FF8531
:104E80002083188EEC89FD891083EA89FB89808153
:104E900080618083EA89FB89808188608083EA89D8
:104EA000FB89808180688083EA89FB8980818F7D8E
:104EB0008083DF91CF911F91FF90EF90DF90CF9093
:104EC0000895FC01448355836683778308951F9278
:104ED0000F920FB60F9211240BB60F922F938F9350
:104EE0009F93EF93FF93E091BE37F091BF3780819E
:104EF000E091C437F091C53782FD1DC0908180914B
:104F0000C7378F5F8F732091C837821741F0E091C8
:104F1000C737F0E0E255F84C958F8093C737FF9183
:104F2000EF919F918F912F910F900BBE0F900FBE1D
:104F30000F901F9018958081F2CF1F920F920FB69D
:104F40000F9211240BB60F922F933F934F935F93C1
:104F50006F937F938F939F93AF93BF93EF93FF9341
:104F60008EEA97E30E947726FF91EF91BF91AF9170
:104F70009F918F917F916F915F914F913F912F9171
:104F80000F900BBE0F900FBE0F901F9018958EEADA
:104F900097E30E942E2621E0892B09F420E0822F3E
:104FA0000895EEEAF7E31382128288EE93E0A0E020
:104FB000B0E084839583A683B7838EE391E09183E9
:104FC000808385EC90E09587848784EC90E09787D8
:104FD000868780EC90E0918B808B81EC90E0938BC6
:104FE000828B82EC90E0958B848B86EC90E0978BA3
:104FF000868B118E128E138E148E089508950E9442
:10500000092A0E94FE270E944D07CCE5D6E20E94A5
:105010001A0D2097E1F30E945C26F9CF009729F042
:10502000BC0190E080E00C948E2F0895CF92DF9227
:10503000EF92FF926B017C01C114D104E104F104F1
:1050400041F00E943F2FA70196010E94E12D6B01C4
:105050007C01C701B601FF90EF90DF90CF900895DB
:105060000F931F93CF93DF938230910510F482E06A
:1050700090E0E0915638F091573830E020E0B0E011
:10508000A0E0309799F42115310509F44AC0281B96
:10509000390B24303105D8F58A819B816115710562
:1050A00089F1FB0193838283FE0111C0408151810C
:1050B0000281138148175907E0F04817590799F4FE
:1050C000109761F012960C93129713961C933296D8
:1050D000CF01DF91CF911F910F9108950093563822
:1050E00010935738F4CF2115310551F0421753076B
:1050F00038F0A901DB019A01BD01DF01F801C1CF40
:10510000EF01F9CF9093573880935638CDCFFE01F9
:10511000E20FF31F81939193225031093983288341
:10512000D7CF2091543830915538232B41F420911A
:105130001C0130911D013093553820935438209133
:105140001A0130911B012115310541F42DB73EB7ED
:1051500040911E0150911F01241B350BE0915438E2
:10516000F0915538E217F307A0F42E1B3F0B2817D8
:10517000390778F0AC014E5F5F4F2417350748F0D0
:105180004E0F5F1F5093553840935438819391933D
:105190009FCFF0E0E0E09CCFCF93DF930097E9F062
:1051A000FC01329713821282A0915638B091573881
:1051B000ED0130E020E01097A1F420813181820FD1
:1051C000931F20915438309155382817390709F02A
:1051D00061C0F0935538E0935438DF91CF91089532
:1051E000EA01CE17DF07E8F54A815B819E01411590
:1051F0005105B1F7E901FB83EA8349915991C40F45
:10520000D51FEC17FD0761F4808191810296840F10
:10521000951FE90199838883828193819B838A8387
:10522000F0E0E0E012968D919C9113970097B9F50C
:105230002D913C911197CD010296820F931F2091E1
:105240005438309155382817390739F6309751F5C9
:105250001092573810925638B0935538A09354385E
:10526000BCCFD383C28340815181840F951FC8175F
:10527000D90761F44E5F5F4F88819981480F591FAC
:10528000518340838A819B819383828321153105D9
:1052900009F0B0CFF0935738E09356389ECFFD0118
:1052A000DC01C0CF13821282D7CF1F920F920FB6AC
:1052B0000F9211242F933F938F939F93AF93BF939C
:1052C00080914C3890914D38A0914E38B0914F3824
:1052D00030914B3823E0230F2D3758F50196A11D4F
:1052E000B11D20934B3880934C3890934D38A09348
:1052F0004E38B0934F388091503890915138A091EA
:105300005238B09153380196A11DB11D8093503889
:1053100090935138A0935238B0935338BF91AF91C6
:105320009F918F913F912F910F900FBE0F901F90E3
:10533000189526E8230F0296A11DB11DD2CF2FB7D5
:10534000F89460914C3870914D3880914E3890911E
:105350004F382FBF08953FB7F894809150389091FF
:105360005138A0915238B091533826B5A89B05C04A
:105370002F3F19F00196A11DB11D3FBFBA2FA92FD4
:10538000982F8827BC01CD01620F711D811D911DD1
:1053900042E0660F771F881F991F4A95D1F708953D
:1053A0008F929F92AF92BF92CF92DF92EF92FF9235
:1053B0006B017C010E94AB294B015C01C114D1043B
:1053C000E104F104E9F00E94F32A0E94AB29681974
:1053D00079098A099B09683E73408105910570F33C
:1053E00021E0C21AD108E108F10888EE880E83E0B6
:1053F000981EA11CB11CC114D104E104F10429F7C9
:10540000FF90EF90DF90CF90BF90AF909F908F90E4
:105410000895789484B5826084BD84B5816084BD2C
:1054200085B5826085BD85B5816085BDEEE6F0E01D
:10543000808181608083E1E8F0E010828081826079
:105440008083808181608083E0E8F0E080818160FA
:105450008083E1EBF0E0808184608083E0EBF0E02A
:10546000808181608083E1E9F0E0808182608083D7
:10547000808181608083E0E9F0E0808181608083C9
:10548000EAE7F0E0808184608083808182608083AD
:105490008081816080838081806880831092C100D8
:1054A000089581508A3080F5E82FF0E0E65AF54DF6
:1054B0000C94002E6E2A722A642A6A2A842A842A6C
:1054C000752A7B2A7F2A852A809180008F77809396
:1054D00080000895809180008F7DF9CF84B58F770B
:1054E00084BD089584B58F7DFBCF8091B0008F7708
:1054F0008093B00008958091B0008F7DF9CF8091A6
:1055000090008F77809390000895809190008F7D18
:10551000F9CFCF93DF9390E0FC01E455FF4F249146
:1055200084539F4FFC0184918823C9F090E0880F39
:10553000991FFC01EA50FF4FA591B491FC01E45181
:10554000FF4FC591D49161110DC09FB7F8948C9114
:10555000209582238C938881282328839FBFDF9105
:10556000CF910895623051F49FB7F8943C91822F07
:10557000809583238C93E8812E2BEFCF8FB7F894FF
:10558000EC912E2B2C938FBFEACF1F93CF93DF93F9
:10559000282F30E0F901E457FF4F8491F901E455D9
:1055A000FF4FD491F901E453FF4FC491CC23A9F0EC
:1055B000162F81110E94512AEC2FF0E0EE0FFF1FF1
:1055C000E451FF4FA591B4918FB7F894EC9111116C
:1055D00008C0D095DE23DC938FBFDF91CF911F9160
:1055E0000895DE2BF8CF08950895833060F5E82FF5
:1055F000F0E0EE0FFF1FE05EFE4F718360838130AD
:1056000051F08230A1F0809169008C7F482B40934B
:105610006900E89A089580916900837F440F551FBF
:10562000440F551F482B40936900E99A08958091D3
:1056300069008F7C94E0440F551F9A95E1F7482B41
:1056400040936900EA9A0895833078F4E82FF0E0F7
:10565000813061F0823061F0E898EE0FFF1FE05E6C
:10566000FE4F84EF9AE2918380830895E998F5CF05
:10567000EA98F3CF1F920F920FB60F9211240BB638
:105680000F922F933F934F935F936F937F938F93DB
:105690009F93AF93BF93EF93FF93E0912001F0911D
:1056A00021010995FF91EF91BF91AF919F918F914A
:1056B0007F916F915F914F913F912F910F900BBE12
:1056C0000F900FBE0F901F9018951F920F920FB65C
:1056D0000F9211240BB60F922F933F934F935F932A
:1056E0006F937F938F939F93AF93BF93EF93FF93AA
:1056F000E0912201F09123010995FF91EF91BF9173
:10570000AF919F918F917F916F915F914F913F9159
:105710002F910F900BBE0F900FBE0F901F901895FA
:105720001F920F920FB60F9211240BB60F922F9368
:105730003F934F935F936F937F938F939F93AF9319
:10574000BF93EF93FF93E0912401F0912501099518
:10575000FF91EF91BF91AF919F918F917F916F9149
:105760005F914F913F912F910F900BBE0F900FBE05
:105770000F901F901895883020F0873108F487E14A
:1057800088512091260190E4299F9001112487706F
:10579000822B80937C0080917A00806480937A00D1
:1057A00080917A0086FDFCCF8091780090917900FD
:1057B00008951F93CF93DF93182FEB0161E00E94B0
:1057C000892A209739F460E0812FDF91CF911F91D2
:1057D0000C94C52ACF3FD10511F461E0F5CFE12F3C
:1057E000F0E0E457FF4FE491E150EA3008F054C094
:1057F000F0E0E350F44D0C94002E072C0F2C142CE9
:105800001E2C4C2C4C2C282C302C382C422C84B5A3
:10581000806884BDC7BDDF91CF911F91089584B585
:10582000806284BDC8BDF7CF80918000806880937E
:105830008000D0938900C0938800EDCF80918000D4
:10584000806280938000D0938B00C0938A00E3CF66
:105850008091B00080688093B000C093B300DBCF2C
:105860008091B00080628093B000C093B400D3CF29
:1058700080919000806880939000D0939900C093AD
:105880009800C9CF80919000806280939000D0935F
:105890009B00C0939A00BFCFC038D1050CF09DCFBC
:1058A00092CF0E94C92C08F481E008950E945D2CDB
:1058B0006894B1110C94382D08950E941D2D88F024
:1058C0009F5798F0B92F9927B751B0F0E1F0660FC4
:1058D000771F881F991F1AF0BA95C9F714C0B13005
:1058E00091F00E94372DB1E008950C94372D672F69
:1058F000782F8827B85F39F0B93FCCF38695779534
:105900006795B395D9F73EF490958095709561951C
:105910007F4F8F4F9F4F0895E89409C097FB3EF447
:1059200090958095709561957F4F8F4F9F4F9923EC
:10593000A9F0F92F96E9BB279395F695879577956A
:105940006795B795F111F8CFFAF4BB0F11F460FF2A
:105950001BC06F5F7F4F8F4F9F4F16C0882311F082
:1059600096E911C0772321F09EE8872F762F05C096
:10597000662371F096E8862F70E060E02AF09A9531
:10598000660F771F881FDAF7880F9695879597F926
:105990000895990F0008550FAA0BE0E8FEEF1616C0
:1059A0001706E807F907C0F012161306E407F50713
:1059B00098F0621B730B840B950B39F40A2661F087
:1059C000232B242B252B21F408950A2609F4A1402A
:1059D000A6958FEF811D811D089597F99F6780E837
:1059E00070E060E008959FEF80EC089500240A9431
:1059F0001616170618060906089500240A941216AA
:105A00001306140605060895092E0394000C11F4DC
:105A1000882352F0BB0F40F4BF2B11F460FF04C089
:105A20006F5F7F4F8F4F9F4F089557FD9058440FE2
:105A3000551F59F05F3F71F04795880F97FB991FED
:105A400061F09F3F79F087950895121613061406AA
:105A5000551FF2CF4695F1DF08C016161706180637
:105A6000991FF1CF86957105610508940895E89412
:105A7000BB2766277727CB0197F908950E94512D00
:105A80000C94042D0E94F62C38F00E94FD2C20F07E
:105A9000952311F00C94ED2C0C94F32C11240C9400
:105AA000382D0E94152D70F3959FC1F3950F50E08E
:105AB000551F629FF001729FBB27F00DB11D639FC0
:105AC000AA27F00DB11DAA1F649F6627B00DA11D66
:105AD000661F829F2227B00DA11D621F739FB00D0C
