:100000000C9483000C9416290C9441290C946C29AF
:100010000C94AF000C94AF000C94AF000C94AF00A4
:100020000C94AF000C94AF000C94AF000C94AF0094
:100030000C94AF000C94AF000C94AF000C94AF0084
:100040000C94AF000C94AF000C94EF2A0C94AF000A
:100050000C9406280C943C280C94AF000C94AF0030
:100060000C94AF000C94AF000C94AF000C94AF0054
:100070000C94AF000C94AF000C94AF000C945D2571
:100080000C94AF000C94AF000C94AF000000000182
:100090000200090A00000000040308070000000035
:1000A0000000000000000000000000000102040841
:1000B0001020408001020408102040800102040842
:1000C0001020408001020408102040800202020239
:1000D00002020202040404040404040403030303EC
:1000E00003030303010101010101010100002200DA
:1000F000250028002B0000002100240027002A00F2
:100100001606991D70282092F83911241FBECFEFD2
:10011000D0E4DEBFCDBF11E0A0E0B1E0E2E3F1E664
:1001200000E00BBF02C007900D92AE3AB107D9F7BD
:1001300029E3AEEAB1E001C01D92A83FB207E1F7A2
:1001400010E0C3E8D0E004C02197FE010E94D22E47
:10015000C038D107C9F70E94E02A0C9497300C945C
:100160000000CF93DF931F92CDB7DEB76983DC0128
:10017000ED91FC910280F381E02D41E050E0BE0161
:100180006F5F7F4F09950F90DF91CF91089508958C
:10019000FC011382128288EE93E0A0E0B0E0848339
:1001A0009583A683B7838DE491E09183808380E576
:1001B000848781E085878AE090E09787868789E059
:1001C00090E0918B808B82E090E0938B828B148AFD
:1001D000158A168A178A118E108E138E128E158E1E
:1001E000148E40E050E0BA01CF010C94CA28FC0103
:1001F00077876687518B408B338B228B08950F93C3
:100200001F93CF93DF93EC01062F142F60E08E85B0
:100210000E94F52C3C852D8580914C39882381F0F6
:100220009FB7F89480914C39813081F58DB38093DC
:100230004A394DB380914B39809584238DBB9FBF44
:100240003CBD2DBD0EBD00000DB407FEFDCF8EB52B
:100250001EBD00000DB407FEFDCF1EB580914C39C8
:10026000882351F09FB7F89420914C3980914A39F6
:10027000213079F48DBB9FBF61E08E850E94F52C03
:10028000812FDF91CF911F910F91089590934A395B
:10029000D7CF8FBFF1CF6F7740E00C94FF0068E1BC
:1002A0000C944B010F931F93CF93DF938C016BE161
:1002B0000E944B01C82FD0E0F801648975898689B6
:1002C00097890E94602D24ED30E843E45EE40E94AB
:1002D000232D87FD08C0CE018D599109DF91CF9163
:1002E0001F910F910895CE01845A9109F7CF69E1CA
:1002F0000C944B0169E10E944B01682F880F770B2A
:10030000880B990B0E94602D20E030E040E85EE30E
:100310000E94102E08958F929F92AF92BF92EF92FB
:10032000FF920F931F93CF93DF938C016AE10E949A
:100330004B01C82FD0E0C8010E947A010E94282DED
:100340004B017B01F80164897589868997890E9430
:10035000602D24ED30E843E45EE40E94232DBE01CD
:1003600087FD12C06D597109F7FE11C0680D791D26
:10037000CB01DF91CF911F910F91FF90EF90BF9034
:10038000AF909F908F900895645A7109EDCF072E1A
:10039000000C880B990B0E94602D20EB32E748E897
:1003A0005FE30E94102E0E94282DE2CFCF93DF93AF
:1003B000EC0163E10E944B0190E0288D398D821B96
:1003C000930BDF91CF910895CF93DF93EC01E881F8
:1003D000F9810480F581E02D0995892B69F0888DDC
:1003E000998D0196998F888F60E0CE010E944B0114
:1003F00090E0DF91CF9108958FEF9FEFFACF0F93A9
:100400001F93CF93DF938C0166E00E944B01D82F9E
:1004100067E0C8010E944B01C82F68E0C8010E9434
:100420004B014C2F50E070E060E0762F652F542F89
:1004300044276D2B8A019B01082BC901B80120E0DC
:1004400038E448EE51E00E94ED2E03E10E94922F25
:10045000B901CA01DF91CF911F910F9108956DE10C
:100460000E944B0190E034E0959587953A95E1F72D
:100470008A30910574F4FC01EE0FFF1FE80FF91F9D
:10048000E55DFE4F608171818281082E000C990B21
:10049000089560E070E0CB0108956CE20C944B018C
:1004A000CF93DF93EC0143E861E80E94FF0062E133
:1004B000CE010E944B0183FD03C00E94DE2AF7CFCC
:1004C00048E062E9CE010E94FF0081E090E0DF9108
:1004D000CF910895AF92BF92CF92DF92FF920F9388
:1004E0001F93CF93DF936C015B01EA0162E20E94EC
:1004F0004B01F82E90E09C012C0F3D1F2F3F310542
:1005000029F020F0CFEFD0E0C81BD90B8501AC0E4D
:10051000BD1E0A151B0541F0F80141918F0160E8ED
:10052000C6010E94FF00F5CF4C2F4F0D62EAC601B5
:100530000E94FF00CE01DF91CF911F910F91FF909C
:10054000DF90CF90BF90AF9008950F931F93CF93FC
:10055000DF93EC01E881F9810480F581E02D0995B4
:10056000892BB1F06DE0CE010E944B01082F60E0B5
:10057000CE010E944B01182F402F6DE8CE010E9442
:10058000FF00812F90E0DF91CF911F910F9108958F
:100590008FEF9FEFF8CFCF93DF93EC017D8F6C8FC0
:1005A0008A899B89672BA1F160E00E94B92C40E009
:1005B00060ECCE010E94FF008A899B898230910500
:1005C000D9F08A309105D1F00B97D1F481E00E94E7
:1005D00099268A899B8982309105A1F08A309105FC
:1005E00099F00B9799F481E043E050E062E176E006
:1005F000DF91CF910C94D12882E0E9CF80E0E7CF62
:100600008FEFE5CF82E0F0CF80E0EECF8FEFECCF41
:1006100082309105B9F08A309105B1F00B97B1F4B1
:1006200081E00E9400298A899B898230910581F0AE
:100630008A30910579F00B9779F481E0DF91CF91C1
:100640000C94B82682E0EDCF80E0EBCF8FEFE9CFBE
:1006500082E0F4CF80E0F2CF8FEFF0CF41E861E8A5
:100660000C94FF0040E861E80C94FF000E94320304
:100670000C9485260F931F93CF93DF938C01EB018E
:100680006231710514F0C1E1D0E044E86DECC801BD
:100690000E94FF00C230D10514F4C2E0D0E0C25085
:1006A0004C2F406869E8C801DF91CF911F910F91ED
:1006B0000C94FF000F931F93CF93DF93452BB9F456
:1006C000EB016F30710514F0CEE0D0E08C0144E80E
:1006D0006DEC0E94FF00D7FDC0E04C2F406769E839
:1006E000C801DF91CF911F910F910C94FF00DF9112
:1006F000CF911F910F910C943A03AF92BF92CF927A
:10070000DF92EF92FF920F931F93CF93DF93EC0151
:10071000DB01CA018C8B9D8BAE8BBF8B6A017B0189
:10072000FF0CCC08DC2C76019A01AB016C2D7C2DE2
:100730008C2D9C2D03E10E94772FA12CE8E4BE2E86
:10074000F8EECF2EDD24D394E12CF12C00E010E064
:100750000E941A2F122FC22ED32E7A01A7016627CC
:10076000772766E8CE010E94FF0077276F2D5E2D68
:100770004D2D67E8CE010E94FF00412F68E8CE01B1
:10078000DF91CF911F910F91FF90EF90DF90CF906D
:10079000BF90AF900C94FF00CF92DF92EF92FF9248
:1007A000CF93DF93EC016A017B0161E08E850E94AB
:1007B000B92C61E08E850E94F52C888999898F3F3C
:1007C0009807B9F061E00E94B92C60E088890E9426
:1007D000F52C6AE070E080E090E00E946A2B61E016
:1007E00088890E94F52C6AE070E080E090E00E9429
:1007F0006A2B0E944F2662E4CE010E944B01823197
:1008000091F5CE010E943203B701A601CE010E94EC
:100810007D0340E06EE8CE010E94FF0040E06FE8FB
:10082000CE010E94FF006CE0CE010E944B01482FD8
:1008300043606CE8CE010E94FF0044E066EACE010E
:100840000E94FF0062E070E0CE010E943A03CE01F8
:100850000E942E0381E090E0DF91CF91FF90EF9016
:10086000DF90CF90089590E080E0F6CFCF92DF92B6
:10087000EF92FF92CF93DF93EC016EE10E944B0168
:10088000F82ECE010E942F02F2942FE0F222CC2407
:10089000C394D12C02C0CC0CDD1CFA94E2F70D2CD1
:1008A000000CEE08FF0828EE33E040E050E00E9424
:1008B000B32EC701B6010E94B32E21313105410587
:1008C00051055CF04CE066EACE01DF91CF91FF90DC
:1008D000EF90DF90CF900C94FF0044E0F4CF0F93A3
:1008E0001F93CF93DF938C01EB016630710534F0D9
:1008F0006D30710534F56630710529F545EC61EB15
:10090000C8010E94FF004CE067EBC8010E94FF0095
:10091000C6E0D0E06EE1C8010E944B018F7094E008
:10092000CC0FDD1F9A95E1F74C2F482B6EE9C801DB
:100930000E94FF00C801DF91CF911F910F910C948D
:100940003604CCE0D0E043EC61EBC8010E94FF002C
:100950004AE067EBC8010E94FF00DCCFCF92DF9234
:10096000EF92FF920F931F93CF93DF938C01CB01F4
:10097000BA010E94602D6B017C0120E030EC43EF56
:1009800055E40E94232DD0E0C0E018160CF065C09D
:1009900020E030E842E256E4C701B6010E94232D70
:1009A000C1E0D0E018160CF058C020E030EC43E76E
:1009B00056E4C701B6010E94232DC2E0D0E018160C
:1009C0000CF04BC020E030E842EA56E4C701B60123
:1009D0000E94232DC3E0D0E018160CF03EC020E0AA
:1009E00034E244EF56E4C701B6010E94232DC4E06F
:1009F000D0E0181694F520E034EE42E257E4C70147
:100A0000B6010E94232DC5E0D0E0181634F520E091
:100A100034E244E757E4C701B6010E94232DC6E043
:100A2000D0E01816D4F420E034E244EF57E4C701D4
:100A3000B6010E94232DC7E0D0E0181674F420E020
:100A400034E244E758E4C701B6010E94232DC9E00F
:100A5000D0E0181614F0C8E0D0E06DE1C8010E94A3
:100A60004B018F7094E0CC0FDD1F9A95E1F74C2F6E
:100A7000482B6DE9C8010E94FF00C801DF91CF91AA
:100A80001F910F91FF90EF90DF90CF900C94360460
:100A90000F931F93CF93DF938C01EB0169307105A6
:100AA00014F0C8E0D0E06DE1C8010E944B01C530F0
:100AB000D10514F4C5E0D0E02497CC0FDD1F482FFA
:100AC000417F4C2B6DE9C801DF91CF911F910F91B0
:100AD0000C94FF00CF93DF93EC016EE10E944B0179
:100AE000482F44606EE9CE01DF91CF910C94FF0056
:100AF000CF93DF93EC011B8E1A8E6DE10E944B01A8
:100B0000482F4E7F6DE9CE01DF91CF910C94FF000D
:100B1000CF93DF93EC0181E090E09B8F8A8F6DE1B2
:100B2000CE010E944B01482F41606DE9CE01DF915B
:100B3000CF910C94FF000F931F93CF93DF93EC01A1
:100B40008B010E942E03CE01012B99F00E94880593
:100B500040E06DE8CE010E94FF0040E062EACE0175
:100B60000E94FF0081E090E0DF91CF911F910F91F3
:100B700008950E947805ECCF0F931F93CF93DF93D6
:100B8000EC018B011616170684F40E948805402F8D
:100B900062EACE010E94FF0045E861E8CE01DF91E4
:100BA000CF911F910F910C94FF000E947805F4CF14
:100BB0000F931F93CF93DF93EC0162E10E944B01EF
:100BC000182F482F62E9CE010E94FF0015FD25C0B5
:100BD000198E188E8A8D9B8D62E2892B09F463E150
:100BE000CE010E944B01082F10E060E1CE010E946F
:100BF0004B01482F6DE8CE010E94FF00EC8DFD8D6A
:100C0000309711F0C801099540E06DE8CE01DF9101
:100C1000CF911F910F910C94FF00DF91CF911F9105
:100C20000F9108958EEA91E00C94D8058EEA91E038
:100C30000C94C8002F923F924F925F926F927F92D6
:100C40008F929F92AF92BF92CF92DF92EF92FF92DC
:100C50000F931F93CF93DF93CDB7DEB7C857D1095A
:100C60000FB6F894DEBF0FBECDBFE9969FAF8EAF33
:100C7000E9971A01DC0118960D911D912D913C9177
:100C80001B9761960CAF1DAF2EAF3FAF61971C96BF
:100C90000D911D912D913C911F9709831A832B83F0
:100CA0003C8350960D911D912D913C9153970D834E
:100CB0001E832F83388754960D911D912D913C9161
:100CC000579709871A872B873C87E6966FAFE69779
:100CD000E7967FAFE797A85ABF4F6396BFAFAEAF17
:100CE0006397FC01E45AFF4F6596FFAFEEAF65973F
:100CF0008C01005A1F4F67961FAF0EAF67979C017C
:100D00002C593F4F69963FAF2EAF699788599F4F37
:100D10006B969FAF8EAF6B97E996AEADBFADE9977F
:100D2000A459BF4F6D96BFAFAEAF6D97E996EEADCC
:100D3000FFADE997E059FF4F6F96FFAFEEAF6F97AA
:100D4000E9960EAD1FADE9970C581F4FA1961FAF46
:100D50000EAFA197E9962EAD3FADE99728583F4FCA
:100D6000A3963FAF2EAFA397E9968EAD9FADE997BF
:100D700084589F4FA5969FAF8EAFA597E996AEADCD
:100D8000BFADE997A058BF4FA796BFAFAEAFA7972B
:100D9000E996EEADFFADE997EC57FF4FA996FFAF8F
:100DA000EEAFA997E9960EAD1FADE99708571F4F13
:100DB000AB961FAF0EAFAB97E9962EAD3FADE9975F
:100DC00024573F4FAD963FAF2EAFAD97E9968EAD0E
:100DD0009FADE99780579F4FAF969FAF8EAFAF976C
:100DE000E996AEADBFADE997AC56BF4FE196BFAF48
:100DF000AEAFE197E796AEADBFADE7970D911D9110
:100E00002D913C910D871E872F87388B6396EEAD11
:100E1000FFAD6397008311832283338361968CAD8A
:100E20009DADAEADBFAD619788589B45A549B84211
:100E3000800F911FA21FB31F4D815E816F81788546
:100E400009851A852B853C85402751276227732702
:100E500009811A812B813C81402351236223732312
:100E600009851A852B853C854027512762277327E2
:100E7000840F951FA61FB71F8C019D0147E0000F2F
:100E8000111F221F331F4A95D1F7AC01BD01E9E1C3
:100E90007695679557954795EA95D1F7402B512B55
:100EA000622B732B89819A81AB81BC81480F591FBA
:100EB0006A1F7B1FE796AEADBFADE79714960D9105
:100EC0001D912D913C911797098B1A8B2B8B3C8B85
:100ED0006596EEADFFAD6597008311832283338362
:100EE00089859A85AB85BC858A5A9844A843B741C1
:100EF000800F911FA21FB31FC980DA80EB80FC8096
:100F00000D811E812F813885C026D126E226F32649
:100F1000C422D522E622F722C026D126E226F326D5
:100F20008C0D9D1DAE1DBF1D8C019D01FCE0000FB1
:100F3000111F221F331FFA95D1F76C017D01A4E127
:100F4000F694E794D794C794AA95D1F7C02AD12AEA
:100F5000E22AF32AC40ED51EE61EF71EE796AEADB2
:100F6000BFADE79718968D919D910D90BC91A02DE6
:100F70008D8B9E8BAF8BB88F6796EEADFFAD67976D
:100F800080839183A283B3838D819E81AF81B88555
:100F900085529F48AF4DBB4D0D891E892F89388DD5
:100FA000800F911FA21FB31F49805A806B807C80E5
:100FB00044265526662677264C205D206E207F200D
:100FC00009811A812B813C81402651266226732695
:100FD000840D951DA61DB71D8C019D01EFE0369572
:100FE000279517950795EA95D1F72C013D01F1E179
:100FF000440C551C661C771CFA95D1F7402A512ADF
:10100000622A732A4C0C5D1C6E1C7F1CE796AEADE9
:10101000BFADE7971C968D919D910D90BC91A02D31
:10102000898F9A8FAB8FBC8F6996EEADFFAD6997B4
:1010300080839183A283B38389819A81AB81BC81B0
:1010400082519143A244BE43098D1A8D2B8D3C8D54
:10105000800F911FA21FB31F8A019B010C251D2524
:101060002E253F2504211521262137210427152768
:1010700026273727800F911FA21FB31F4C015D0148
:101080001AE0B694A794979487941A95D1F78C0197
:101090009D0186E1000F111F221F331F8A95D1F792
:1010A000082919292A293B29040D151D261D371D3C
:1010B000E796AEADBFADE79750968D919D910D909F
:1010C000BC91A02D8D8F9E8FAF8FB8A36B96EEAD88
:1010D000FFAD6B9780839183A283B3838155904F3B
:1010E000A348BA40840F951FA61FB71FB701A601DA
:1010F00044255525662577254023512362237323F4
:101100004C255D256E257F25840F951FA61FB71FD3
:101110004C015D0147E0880C991CAA1CBB1C4A9538
:10112000D1F7AC01BD01E9E17695679557954795F3
:10113000EA95D1F7482959296A297B29400F511F7F
:10114000621F731FE796AEADBFADE79754968D91C2
:101150009D910D90BC91A02D89A39AA3ABA3BCA394
:101160006D96EEADFFAD6D9780839183A283B383BF
:10117000865D9943A847B84B8C0D9D1DAE1DBF1DC4
:1011800073016201C026D126E226F326C422D522AD
:10119000E622F722C424D524E624F7248C0D9D1DD5
:1011A000AE1DBF1D4C015D01FCE0880C991CAA1C02
:1011B000BB1CFA95D1F76C017D01A4E1F694E7948C
:1011C000D794C794AA95D1F7C828D928EA28FB282C
:1011D000C40ED51EE61EF71EE796AEADBFADE7976F
:1011E00058968D919D910D90BC91A02D8DA39EA39D
:1011F000AFA3B8A76F96EEADFFAD6F9780839183D5
:10120000A283B3838D5E994BAF4CB745840D951D7A
:10121000A61DB71D280139014426552666267726C6
:101220004C205D206E207F204026512662267326AA
:10123000840D951DA61DB71D4C015D01EFE0B69410
:10124000A79497948794EA95D1F72C013D01F1E199
:10125000440C551C661C771CFA95D1F74828592870
:101260006A287B284C0C5D1C6E1C7F1CE796AEAD7B
:10127000BFADE7975C968D919D910D90BC91A02D8F
:1012800089A79AA7ABA7BCA7A196EEADFFADA19782
:1012900080839183A283B3838F5F9A46A94BB24028
:1012A000800F911FA21FB31F8A019B010C251D25D2
:1012B0002E253F2504211521262137210427152716
:1012C00026273727800F911FA21FB31F4C015D01F6
:1012D0001AE0B694A794979487941A95D1F78C0145
:1012E0009D0186E1000F111F221F331F8A95D1F740
:1012F000082919292A293B29040D151D261D371DEA
:10130000E796AEADBFADE79790968D919D910D900C
:10131000BC91A02D8DA79EA7AFA7B8ABA396EEADAD
:10132000FFADA39780839183A283B38388529746AE
:10133000AF47B649840F951FA61FB71FB701A60177
:1013400044255525662577254023512362237323A1
:101350004C255D256E257F25840F951FA61FB71F81
:101360004C015D0147E0880C991CAA1CBB1C4A95E6
:10137000D1F7AC01BD01E9E17695679557954795A1
:10138000EA95D1F7482959296A297B29400F511F2D
:10139000621F731FE796AEADBFADE79794968D9130
:1013A0009D910D90BC91A02D89AB9AABABABBCAB22
:1013B000A596EEADFFADA59780839183A283B383FD
:1013C00081559840AB4BB4478C0D9D1DAE1DBF1D84
:1013D00073016201C026D126E226F326C422D5225B
:1013E000E622F722C424D524E624F7248C0D9D1D83
:1013F000AE1DBF1D4C015D01FCE0880C991CAA1CB0
:10140000BB1CFA95D1F76C017D01A4E1F694E79439
:10141000D794C794AA95D1F7C828D928EA28FB28D9
:10142000C40ED51EE61EF71EE796AEADBFADE7971C
:1014300098968D919D910D90BC91A02D8DAB9EABFA
:10144000AFABB8AFA796EEADFFADA7978083918302
:10145000A283B3838F54944AA109B109840D951DC9
:10146000A61DB71D28013901442655266626772674
:101470004C205D206E207F20402651266226732658
:10148000840D951DA61DB71D4C015D01EFE0B694BE
:10149000A79497948794EA95D1F72C013D01F1E147
:1014A000440C551C661C771CFA95D1F7482859281E
:1014B0006A287B284C0C5D1C6E1C7F1CE796AEAD29
:1014C000BFADE7979C968D919D910D90BC91A02DFD
:1014D00089AF9AAFABAFBCAFA996EEADFFADA99700
:1014E00080839183A283B38382549842A34AB647F0
:1014F000800F911FA21FB31F8A019B010C251D2580
:101500002E253F25042115212621372104271527C3
:1015100026273727800F911FA21FB31F4C015D01A3
:101520001AE0B694A794979487941A95D1F78C01F2
:101530009D0186E1000F111F221F331F8A95D1F7ED
:10154000082919292A293B29040D151D261D371D97
:10155000E796AEADBFADE797D0968D919D910D907A
:10156000BC91A02D21968CAF9DAFAEAFBFAF2197A0
:10157000AB96EEADFFADAB9780839183A283B3832F
:101580004C015D01FEED8F1AFEEE9F0AFFE6AF0AE9
:10159000F4E9BF0A840E951EA61EB71EB701A60168
:1015A000442555256625772540235123622373233F
:1015B0004C255D256E257F25480D591D6A1D7B1D17
:1015C0004A015B0197E0880C991CAA1CBB1C9A95E8
:1015D000D1F7E9E17695679557954795EA95D1F763
:1015E000482959296A297B29400F511F621F731FFF
:1015F000E796AEADBFADE797D4968D919D910D90D6
:10160000BC91A02D25968CAF9DAFAEAFBFAF2597F7
:10161000AD96EEADFFADAD9780839183A283B3838A
:101620004C015D01FDE68F1AFEE89F0AF7E6AF0A5E
:10163000F2E0BF0A8C0C9D1CAE1CBF1C7301620142
:10164000C026D126E226F326C422D522E622F7229E
:10165000C424D524E624F724C80CD91CEA1CFB1C9E
:1016600046015701FCE0880C991CAA1CBB1CFA958A
:10167000D1F7A4E1F694E794D794C794AA95D1F74B
:10168000C828D928EA28FB28C40ED51EE61EF71E56
:10169000E796AEADBFADE797D8968D919D910D9031
:1016A000BC91A02D29968CAF9DAFAEAFBFAF29974F
:1016B000AF96EEADFFADAF9780839183A283B383E6
:1016C0004C015D01F2E78F1AFCEB9F0AF6E8AF0AC6
:1016D000F9E5BF0A840C951CA61CB71C280139012A
:1016E00044265526662677264C205D206E207F20D6
:1016F0004026512662267326480C591C6A1C7B1C06
:1017000053014201BFE0B694A79497948794BA9589
:10171000D1F781E1440C551C661C771C8A95D1F7E2
:10172000482859286A287B284C0C5D1C6E1C7F1C9D
:10173000E796AEADBFADE797DC968D919D910D908C
:10174000BC91A02D2D968CAF9DAFAEAFBFAF2D97A6
:10175000E196EEADFFADE19780839183A283B383E1
:101760004C015D01FFED8F1AF7EF9F0AFBE4AF0A12
:10177000F6EBBF0A800E911EA21EB31E8A019B01CA
:101780000C251D252E253F25042115212621372135
:101790000427152726273727080D191D2A1D3B1D4D
:1017A000480159019AE0B694A794979487949A9522
:1017B000D1F7E6E1000F111F221F331FEA95D1F781
:1017C000082919292A293B29040D151D261D371D15
:1017D00089889A88AB88BC888EE9881A8AED980A2D
:1017E00081EEA80A89E0B80A840E951EA61EB71ECF
:1017F000B301A20140275127622773274C215D21A5
:101800006E217F214425552566257725480D591DD4
:101810006A1D7B1D4A015B01F5E0880C991CAA1C1E
:10182000BB1CFA95D1F7ABE176956795579547952F
:10183000AA95D1F7482959296A297B29400F511FB8
:10184000621F731F8DA09EA0AFA0B8A490EC891A50
:101850009CE4990A9FEBA90A9FE3B90A8C0C9D1C92
:10186000AE1CBF1C68017901C426D526E626F726E2
:10187000C420D520E620F720C026D126E226F32674
:10188000C80CD91CEA1CFB1C46015701B9E0880CA6
:10189000991CAA1CBB1CBA95D1F787E1F694E79472
:1018A000D794C7948A95D1F7C828D928EA28FB2865
:1018B000C40ED51EE61EF71E89AC9AACABACBCAC10
:1018C000AFEA8A1AA5EA9A0AA1EAAA0AA9EDBA0A0F
:1018D000840C951CA61CB71C2A013B014C245D24DA
:1018E0006E247F24402251226222732244265526F0
:1018F00066267726480C591C6A1C7B1C5301420142
:101900009EE0880C991CAA1CBB1C9A95D1F7E2E1B9
:101910007694679457944794EA95D1F748285928C4
:101920006A287B284C0C5D1C6E1C7F1C8D849E8459
:10193000AF84B888B6E58B1AB8E39B0AB9E4AB0A62
:10194000B6E1BB0A800E911EA21EB31E970186014E
:10195000042515252625372504231523262337237B
:101960000C251D252E253F25080D191D2A1D3B1D63
:1019700048015901FCE0B694A79497948794FA958E
:10198000D1F7A4E1000F111F221F331FAA95D1F731
:10199000082919292A293B29040D151D261D371D43
:1019A00089A09AA0ABA0BCA0E3EA8E1AEFEE9E0A33
:1019B000E0EDAE0AE9E2BE0A840E951EA61EB71E31
:1019C000B301A20140275127622773274C215D21D3
:1019D0006E217F214425552566257725480D591D03
:1019E0006A1D7B1D4A015B01B5E0880C991CAA1C8D
:1019F000BB1CBA95D1F78BE17695679557954795BE
:101A00008A95D1F7482959296A297B29400F511F06
:101A1000621F731F8DA89EA8AFA8B8ACFDEA8F1AED
:101A2000FBEE9F0AFBEBAF0AFDEFBF0A8C0C9D1C7F
:101A3000AE1CBF1C68017901C426D526E626F72610
:101A4000C420D520E620F720C026D126E226F326A2
:101A5000C80CD91CEA1CFB1C4601570199E0880CF4
:101A6000991CAA1CBB1C9A95D1F7E7E1F694E79460
:101A7000D794C794EA95D1F7C828D928EA28FB2833
:101A8000C40ED51EE61EF71E2D968CAC9DACAEACDA
:101A9000BFAC2D978FE7881A89E1980A8EE5A80ACE
:101AA00087E2B80A840C951CA61CB71C2A013B01CE
:101AB0004C245D246E247F24402251226222732212
:101AC0004426552666267726480C591C6A1C7B1C22
:101AD00053014201FEE0880C991CAA1CBB1CFA951C
:101AE000D1F7A2E17694679457944794AA95D1F7D9
:101AF000482859286A287B284C0C5D1C6E1C7F1CCA
:101B00008D8C9E8CAF8CB8A098E3891A94E0990ACA
:101B10009CE2A90A98E1B90A800E911EA21EB31E8A
:101B2000970186010425152526253725042315232D
:101B3000262337230C251D252E253F25080D191D8D
:101B40002A1D3B1D48015901BCE0B694A794979407
:101B50008794BA95D1F784E1000F111F221F331F1C
:101B60008A95D1F7082919292A293B29040D151D21
:101B7000261D371D89A89AA8ABA8BCA8AAE18A1A75
:101B8000A2E39A0AAEE1AA0AAEEDBA0A840E951E45
:101B9000A61EB71EB301A201402751276227732753
:101BA0004C215D216E217F21442555256625772511
:101BB000480D591D6A1D7B1D4A015B0195E0880C8B
:101BC000991CAA1CBB1C9A95D1F7EBE176956795F9
:101BD00057954795EA95D1F7482959296A297B29CC
:101BE000400F511F621F731F29968CAC9DACAEAC89
:101BF000BFAC2997BAE28B1AB8EF9B0AB8ECAB0AD4
:101C0000BCE3BB0A8C0C9D1CAE1CBF1C6801790197
:101C1000C426D526E626F726C420D520E620F720C0
:101C2000C026D126E226F326C80CD91CEA1CFB1CD0
:101C300046015701F9E0880C991CAA1CBB1CFA95B7
:101C4000D1F7A7E1F694E794D794C794AA95D1F772
:101C5000C828D928EA28FB28C40ED51EE61EF71E80
:101C6000898C9A8CAB8CBC8CE9E78E1AE2EF9E0AC9
:101C7000EAE2AE0AEBE0BE0A840C951CA61CB71C77
:101C80002A013B014C245D246E247F2440225122F2
:101C9000622273224426552666267726480C591C54
:101CA0006A1C7B1C53014201BEE0880C991CAA1CD3
:101CB000BB1CBA95D1F782E1769467945794479408
:101CC0008A95D1F7482859286A287B284C0C5D1C36
:101CD0006E1C7F1C8DA49EA4AFA4B8A8F3E18F1A3C
:101CE000FBEE9F0AF5EAAF0AFAEBBF0A800E911EDF
:101CF000A21EB31E9701860104251525262537252A
:101D000004231523262337230C251D252E253F25A7
:101D1000080D191D2A1D3B1D480159019CE0B69470
:101D2000A794979487949A95D1F7E4E1000F111F37
:101D3000221F331FEA95D1F7082919292A293B299F
:101D4000040D151D261D371D25968CAC9DACAEAC23
:101D5000BFAC25978BEF881A86E1980A8CE1A80A18
:101D600086E5B80A840E951EA61EB71EB301A20111
:101D700040275127622773274C215D216E217F2147
:101D80004425552566257725480D591D6A1D7B1D5F
:101D90004A015B01F5E0880C991CAA1CBB1CFA9552
:101DA000D1F7ABE17695679557954795AA95D1F709
:101DB000482959296A297B29400F511F621F731F27
:101DC0008D889E88AF88B88C98E0891A9CE5990A1E
:101DD00090E1A90A93E0B90A8C0C9D1CAE1CBF1CB3
:101DE00068017901C426D526E626F726C420D52029
:101DF000E620F720C026D126E226F326C80CD91CFF
:101E0000EA1CFB1C46015701B9E0880C991CAA1C6E
:101E1000BB1CBA95D1F787E1F694E794D794C794A1
:101E20008A95D1F7C828D928EA28FB28C40ED51EE0
:101E3000E61EF71E89A49AA4ABA4BCA4A7E28A1A42
:101E4000ADEF9A0AA0E9AA0AA8E9BA0A840C951C7F
:101E5000A61CB71C2A013B014C245D246E247F2460
:101E60004022512262227322442655266626772676
:101E7000480C591C6A1C7B1C530142019EE0880CD3
:101E8000991CAA1CBB1C9A95D1F7E2E17694679441
:101E900057944794EA95D1F7482859286A287B280F
:101EA0004C0C5D1C6E1C7F1C46015701842495243C
:101EB000A624B72421968CAD9DADAEADBFAD2197C4
:101EC0008657934BA54DB247800F911FA21FB31F9A
:101ED0009501840104231523262337230C251D2572
:101EE0002E253F25800F911FA21FB31F8C019D013E
:101EF000FCE03695279517950795FA95D1F7E59665
:101F00000CAF1DAF2EAF3FAFE5978C019D01A4E153
:101F1000000F111F221F331FAA95D1F7E5968CAD34
:101F20009DADAEADBFADE597082B192B2A2B3B2BF2
:101F3000040D151D261D371D89A19AA1ABA1BCA1B9
:101F40008E5B964CA540B109840F951FA61FB71F45
:101F500080269126A226B326880E991EAA1EBB1E95
:101F6000D501C40144E0880F991FAA1FBB1F4A95E1
:101F7000D1F75CE1B694A794979487945A95D1F7DA
:101F8000882A992AAA2ABB2A800E911EA21EB31E55
:101F90004DA55EA56FA578A94F5759406E48784763
:101FA0004C0D5D1D6E1D7F1D73016201C026D12683
:101FB000E226F326C824D924EA24FB24C40ED51E25
:101FC000E61EF71EB701A601EBE0440F551F661F82
:101FD000771FEA95D1F7F5E1F694E794D794C79483
:101FE000FA95D1F7C42AD52AE62AF72AC80CD91CB3
:101FF000EA1CFB1C49AD5AAD6BAD7CAD4E5D5E4934
:1020000062467249440E551E661E771EB901A8012C
:10201000482559256A257B254C255D256E257F257C
:10202000440E551E661E771ED20123013D014C0C45
:102030005D1C6E1C7F1C29964CAD5DAD6EAD7FADF9
:102040002997445F574C6A417240400F511F621FED
:10205000731F950184010C251D252E253F25042580
:10206000152526253725040F151F261F371FB901F3
:10207000A801A9E07695679557954795AA95D1F758
:10208000B7E1000F111F221F331FBA95D1F7042BA0
:10209000152B262B372B040D151D261D371D4989A1
:1020A0005A896B897C894C5B554161447B45480D5D
:1020B000591D6A1D7B1D4601570184249524A624C1
:1020C000B72480269126A226B326840E951EA61E2E
:1020D000B71EB501A40184E0440F551F661F771F8A
:1020E0008A95D1F79CE1B694A794979487949A9592
:1020F000D1F7842A952AA62AB72A800E911EA21EFD
:10210000B31E4D8D5E8D6F8D78A147555043614252
:10211000744BC40ED51EE61EF71EB301A201402764
:10212000512762277327482559256A257B254C0DA1
:102130005D1D6E1D7F1DDB01CA01EBE0880F991F3D
:10214000AA1FBB1FEA95D1F7F5E1769567955795DC
:102150004795FA95D1F7482B592B6A2B7B2B480DC5
:10216000591D6A1D7B1DC9A4DAA4EBA4FCA4B0EA26
:10217000CB1AB4EBDB0AB4E4EB0AB9E0FB0A4C0C73
:102180005D1C6E1C7F1C68017901C824D924EA24D7
:10219000FB24C426D526E626F7264C0C5D1C6E1CB7
:1021A0007F1CF20123013F01440E551E661E771E5F
:1021B000CDA8DEA8EFA8F8ACF0E9CF1AF3E4DF0A67
:1021C000F0E4EF0AF1E4FF0AC00ED11EE21EF31E96
:1021D000950184010427152726273727042515256F
:1021E000262537250C0D1D1D2E1D3F1D680179016B
:1021F000A9E0F694E794D794C794AA95D1F7B7E1EC
:10220000000F111F221F331FBA95D1F70C291D296A
:102210002E293F29040D151D261D371D2596CCACF2
:10222000DDACEEACFFAC25978AE3C81A81E8D80A8A
:1022300084E6E80A87EDF80AC80CD91CEA1CFB1CE6
:102240004A015B0184249524A624B7248026912684
:10225000A226B3268C0C9D1CAE1CBF1C750164010C
:1022600084E0CC0CDD1CEE1CFF1C8A95D1F79CE1B0
:10227000B694A794979487949A95D1F78C289D2823
:10228000AE28BF28800E911EA21EB31ECD84DE8410
:10229000EF84F88896E0C91A98EDD90A9EE5E90A14
:1022A00095E1F90AC40ED51EE61EF71EB301A20180
:1022B0004027512762277327482559256A257B2502
:1022C0004C0D5D1D6E1D7F1D6A017B01EBE0CC0C8A
:1022D000DD1CEE1CFF1CEA95D1F7F5E176956795BC
:1022E00057954795FA95D1F74C295D296E297F2995
:1022F000480D591D6A1D7B1DC98CDA8CEB8CFC8C3A
:10230000ABE7CA1AAFECDA0AA0E1EA0AABE2FA0AD2
:102310004C0C5D1C6E1C7F1C68017901C824D924FB
:10232000EA24FB24C426D526E626F7264C0C5D1CA1
:102330006E1C7F1CF20123013F01440E551E661ED8
:10234000771ECDA0DEA0EFA0F8A4FBEFCF1AF2EE2F
:10235000DF0AF7E7EF0AFBEFFF0AC00ED11EE21E0D
:10236000F31E950184010427152726273727042506
:102370001525262537250C0D1D1D2E1D3F1D680119
:102380007901A9E0F694E794D794C794AA95D1F778
:10239000B7E1000F111F221F331FBA95D1F70C2987
:1023A0001D292E293F29040D151D261D371DC9A8DD
:1023B000DAA8EBA8FCA887ECC81A8FE2D80A8BE24F
:1023C000E80A86E2F80AC80CD91CEA1CFB1C4A0180
:1023D0005B0184249524A624B72480269126A22676
:1023E000B3268C0C9D1CAE1CBF1C7501640184E0DF
:1023F000CC0CDD1CEE1CFF1C8A95D1F79CE1B69439
:10240000A794979487949A95D1F78C289D28AE2805
:10241000BF28800E911EA21EB31E2196CCACDDAC4F
:10242000EEACFFAC21979BE1C91A96E6D90A94E27B
:10243000E90A99E1F90AC40ED51EE61EF71EB3019A
:10244000A2014027512762277327482559256A256D
:102450007B254C0D5D1D6E1D7F1D6A017B01EBE030
:10246000CC0CDD1CEE1CFF1CEA95D1F7F5E176954E
:10247000679557954795FA95D1F74C295D296E29AF
:102480007F29480D591D6A1D7B1D2D96CCACDDACF6
:10249000EEACFFAC2D97A8E0CA1AA3E8DA0AADE5C6
:1024A000EA0AA0EEFA0A4C0C5D1C6E1C7F1C680147
:1024B0007901C824D924EA24FB24C426D526E6269B
:1024C000F7264C0C5D1C6E1C7F1CF20123013F01A2
:1024D000440E551E661E771ECD88DE88EF88F88C68
:1024E000FBE9CF1AF9EADF0AF3E5EF0AFBE3FF0A9B
:1024F000C00ED11EE21EF31E95018401042715278C
:102500002627372704251525262537250C0D1D1DC3
:102510002E1D3F1D68017901A9E0F694E794D79438
:10252000C794AA95D1F7B7E1000F111F221F331FDF
:10253000BA95D1F70C291D292E293F29040D151D07
:10254000261D371DCD84DE84EF84F8888CEBC81AF5
:102550008DEDD80A86EDE80A8BE0F80AC80CD91C84
:10256000EA1CFB1C4A015B0180949094A094B094F7
:10257000802A912AA22AB32A84249524A624B72447
:102580008C0C9D1CAE1CBF1C7501640186E0CC0C3C
:10259000DD1CEE1CFF1C8A95D1F79AE1B694A79436
:1025A000979487949A95D1F78C289D28AE28BF28B8
:1025B000800E911EA21EB31EC9A4DAA4EBA4FCA433
:1025C00099E6C91AD10895EDE90A9CEBF90AC40EFF
:1025D000D51EE61EF71EB301A201409550956095E9
:1025E0007095482959296A297B2940275127622754
:1025F00073274C0D5D1D6E1D7F1D6A017B01EAE096
:10260000CC0CDD1CEE1CFF1CEA95D1F7F6E17695AB
:10261000679557954795FA95D1F74C295D296E290D
:102620007F29480D591D6A1D7B1D2996CCACDDAC58
:10263000EEACFFAC2997A9E5CA1AACEDDA0AABE615
:10264000EA0AA4E5FA0AC40CD51CE61CF71C28010A
:1026500039014094509460947094442A552A662A13
:10266000772A482459246A247B244C0C5D1C6E1C58
:102670007F1C73016201AFE0CC0CDD1CEE1CFF1C63
:10268000AA95D1F7B1E17694679457944794BA9597
:10269000D1F74C285D286E287F28440E551E661EF3
:1026A000771EC9A0DAA0EBA0FCA0B7ECCB1ABFE55F
:1026B000DB0ABCE6EB0AB3E0FB0AC00ED11EE21E49
:1026C000F31E9501840100951095209530950429FD
:1026D00015292629372904271527262737270C0DE2
:1026E0001D1D2E1D3F1D680179018BE0F694E794B6
:1026F000D794C7948A95D1F795E1000F111F221F37
:10270000331F9A95D1F70C291D292E293F29040D35
:10271000151D261D371D2196CCACDDACEEACFFACF3
:102720002197EDE3CE1AE6EADE0AE4EAEE0AEAE9E8
:10273000FE0AC80CD91CEA1CFB1C4A015B018094F0
:102740009094A094B094802A912AA22AB32A842437
:102750009524A624B7248C0C9D1CAE1CBF1C7501AF
:102760006401E6E0CC0CDD1CEE1CFF1CEA95D1F701
:10277000FAE1B694A79497948794FA95D1F78C28A8
:102780009D28AE28BF28800E911EA21EB31EC98CA4
:10279000DA8CEB8CFC8CFEE6CF1AF3E3DF0AF3EF66
:1027A000EF0AF0E7FF0AC40ED51EE61EF71EB301BE
:1027B000A2014095509560957095482959296A293C
:1027C0007B2940275127622773274C0D5D1D6E1D05
:1027D0007F1D6A017B01AAE0CC0CDD1CEE1CFF1CF6
:1027E000AA95D1F7B6E17695679557954795BA952D
:1027F000D1F74C295D296E297F29480D591D6A1D85
:102800007B1DCDA8DEA8EFA8F8AC83E8C81A8BE042
:10281000D80A80E1E80AF108C40CD51CE61CF71CB4
:10282000280139014094509460947094442A552AA8
:10283000662A772A482459246A247B244C0C5D1C80
:102840006E1C7F1C730162018FE0CC0CDD1CEE1C42
:10285000FF1C8A95D1F791E1769467945794479439
:102860009A95D1F74C285D286E287F28440E551E76
:10287000661E771EC988DA88EB88FC889FE2C91A31
:1028800092EAD90A9BE7E90A9AE7F90AC00ED11E33
:10289000E21EF31E95018401009510952095309558
:1028A00004291529262937290427152726273727FC
:1028B0000C0D1D1D2E1D3F1D68017901EBE0F694E6
:1028C000E794D794C794EA95D1F7F5E1000F111F6B
:1028D000221F331FFA95D1F70C291D292E293F29D4
:1028E000040D151D261D371DCDA4DEA4EFA4F8A8E8
:1028F000A1EBCA1AA1E8DA0AA7E5EA0AA0E9FA0AEE
:10290000C80CD91CEA1CFB1C4A015B018094909402
:10291000A094B094802A912AA22AB32A84249524D0
:10292000A624B7248C0C9D1CAE1CBF1C7501640131
:10293000A6E0CC0CDD1CEE1CFF1CAA95D1F7BAE179
:10294000B694A79497948794BA95D1F78C289D282C
:10295000AE28BF28800E911EA21EB31E2D968CADF0
:102960009DADAEADBFAD2D9780529941A34DB14005
:10297000840F951FA61FB71FB301A2014095509564
:1029800060957095482959296A297B294027512744
:1029900062277327840F951FA61FB71F6C017D0147
:1029A0004AE0CC0CDD1CEE1CFF1C4A95D1F7AC01B3
:1029B000BD01E6E17695679557954795EA95D1F77C
:1029C0004C295D296E297F29480D591D6A1D7B1DE3
:1029D0008DA19EA1AFA1B8A58C5E9C4BAE4FBC450E
:1029E000840D951DA61DB71D2801390140945094F2
:1029F00060947094442A552A662A772A48245924D8
:102A00006A247B24840D951DA61DB71D6C017D01D4
:102A1000FFE0CC0CDD1CEE1CFF1CFA95D1F72C015D
:102A20003D01A1E17694679457944794AA95D1F714
:102A30004C285D286E287F28440E551E661E771E82
:102A400025968CAD9DADAEADBFAD25978F559E4EF5
:102A5000A74FB14B800F911FA21FB31F9501840197
:102A60000095109520953095042915292629372998
:102A70000427152726273727800F911FA21FB31F72
:102A80006C017D011BE0F694E794D794C7941A95E6
:102A9000D1F78C019D0185E1000F111F221F331F0B
:102AA0008A95D1F70C291D292E293F29040D151DC2
:102AB000261D371D8D8D9E8DAF8DB8A18E579148E7
:102AC000AC4AB840880D991DAA1DBB1D4A015B0187
:102AD00080949094A094B094802A912AA22AB32A38
:102AE00084249524A624B724880D991DAA1DBB1DF6
:102AF0006C017D01E6E0CC0CDD1CEE1CFF1CEA95B0
:102B0000D1F74C015D01FAE1B694A79497948794AC
:102B1000FA95D1F78C289D28AE28BF28800E911EEB
:102B2000A21EB31E89AD9AADABADBCAD8B5C9D4012
:102B3000A54CB244840F951FA61FB71FB301A20175
:102B40004095509560957095482959296A297B29A7
:102B50004027512762277327840F951FA61FB71F91
:102B60006C017D014AE0CC0CDD1CEE1CFF1C4A957B
:102B7000D1F7AC01BD01E6E176956795579547958C
:102B8000EA95D1F74C295D296E297F29480D591DF9
:102B90006A1D7B1D8D899E89AF89B88D85549D42A4
:102BA000A842B54D840D951DA61DB71D28013901FC
:102BB0004094509460947094442A552A662A772A47
:102BC000482459246A247B24840D951DA61DB71D15
:102BD0006C017D01FFE0CC0CDD1CEE1CFF1CFA95A6
:102BE000D1F72C013D01A1E1769467945794479465
:102BF000AA95D1F74C285D286E287F28440E551ED3
:102C0000661E771E89A99AA9ABA9BCA98F569C42BA
:102C1000A947B441800F911FA21FB31F95018401E2
:102C200000951095209530950429152926293729D6
:102C30000427152726273727800F911FA21FB31FB0
:102C40006C017D011BE0F694E794D794C7941A9524
:102C5000D1F78C019D0185E1000F111F221F331F49
:102C60008A95D1F70C291D292E293F29040D151D00
:102C7000261D371D61968CAD9DADAEADBFAD619784
:102C8000880D991DAA1DBB1D61968CAF9DAFAEAF7F
:102C9000BFAF619789819A81AB81BC81800F911F01
:102CA000A21FB31F89839A83AB83BC830D811E81CE
:102CB0002F813885040D151D261D371D0D831E839C
:102CC0002F83388789859A85AB85BC85840F951FAE
:102CD000A61FB71F89879A87AB87BC87E796AEADDB
:102CE000BFADE797A05CBF4FE796BFAFAEAFE7972A
:102CF000B0E42B1A310811F00C94FA0661960CAD71
:102D00001DAD2EAD3FAD6197E996AEADBFADE99774
:102D100018960D931D932D933C931B9709811A814F
:102D20002B813C811C960D931D932D933C931F97F3
:102D30000D811E812F81388550960D931D932D9303
:102D40003C93539709851A852B853C8554960D93A2
:102D50001D932D933C935797E7968EAD9FADE797C4
:102D6000C858DF4F0FB6F894DEBF0FBECDBFDF915E
:102D7000CF911F910F91FF90EF90DF90CF90BF9078
:102D8000AF909F908F907F906F905F904F903F900B
:102D90002F900895CF93DF93FC0181E093E2A5E4A7
:102DA000B7E680879187A287B38789E89BEAADEC75
:102DB000BFEE84879587A687B7878EEF9CEDAAEB39
:102DC000B8E9808B918BA28BB38B86E794E5A2E365
:102DD000B0E1848B958BA68BB78B10821182128207
:102DE00013821482158216821782DF01A85ABF4F00
:102DF00080E4ED01982F19929A95E9F77896DF0112
:102E00001D928A95E9F7DF91CF9108958F929F9255
:102E1000AF92BF92EF92FF920F931F93CF93DF93E6
:102E2000EC017B018A0188819981AA81BB8170E0D4
:102E300060E04A015B01880E991EAA1EBB1E2FE1AD
:102E4000B22288829982AA82BB8288169906AA0633
:102E5000BB0668F48C809D80AE80BF802FEF821A05
:102E6000920AA20AB20A8C829D82AE82BF828F73BE
:102E70009927AA27BB270097A105B10579F120E47E
:102E8000822E912CA12CB12C881A990AAA0ABB0A6D
:102E900048968C0F9D1F481559056A057B0570F4EF
:102EA000A801B701DF91CF911F910F91FF90EF9093
:102EB000BF90AF909F908F900C946930A401B701A0
:102EC0000E946930E80CF91C0819190940E450E027
:102ED000BE01685E7F4FCE010E941A0600341105C4
:102EE00048F0A801407CB701CE010E941A067C017F
:102EF0000F731127A801B701CE014896D3CFEF92E7
:102F0000FF920F931F93CF93DF938C01EB014881C6
:102F100059816A817B814F73552766277727DB01AB
:102F2000CA010196A11DB11D4C0F5D1F20E8FA01D9
:102F3000208F40E450E060E070E0481B590B6A0BC2
:102F40007B0B7E01F8E1EF0EF11C48305105610565
:102F50007105A0F4489670E060E08C0F9D1F0E9400
:102F6000723040E450E0B701CE010E941A0640E4FE
:102F700050E060E070E080E090E0DC0148505109F2
:102F8000489670E060E08C0F9D1F0E94723088812F
:102F90009981AA81BB8123E0880F991FAA1FBB1FBB
:102FA0002A95D1F788839983AA83BB83FE01E05BCE
:102FB000FF4F8083319690833196A0833196B08302
:102FC0003C812D819E818F81319630833196208383
:102FD000319690833196808340E450E0B701CE0172
:102FE0000E941A068885F8018083898581838A85F5
:102FF00082838B8583838C8584838D8585838E8571
:1030000086838F85878388898087898981878A8954
:1030100082878B8983878C8984878D8985878E8930
:1030200086878F89878788E9FE0111928A95E9F75B
:10303000DF91CF911F910F91FF90EF900895CF9264
:10304000DF92EF92FF920F931F93CF93DF93CDB751
:10305000DEB7C859D1090FB6F894DEBF0FBECDBF99
:103060007C016B0180E190E00E94B9298C01CE01C6
:1030700001960E94CA16A601B701CE0101960E94D0
:103080000617BE016F5F7F4FC8010E947F17C801FE
:10309000C856DF4F0FB6F894DEBF0FBECDBFDF912D
:1030A000CF911F910F91FF90EF90DF90CF900895F7
:1030B0001F93CF93DF93EC01162F0E9479301817DE
:1030C00039F0612FCE01DF91CF911F910C948130A7
:1030D000DF91CF911F9108950C94793061E08CE0DD
:1030E0000C94F52C60E08CE00C94F52C61E08DE004
:1030F0000C94F52C60E08DE00C94F52C88E198E0C0
:103100000FB6F894A895809360000FBE909360006E
:103110000E9476180E947218FBCF0F931F93CF93D3
:10312000DF938C01EC01892B11F4C1E0D0E01C1677
:103130001D060CF561E08CE00E94F52C60E08DE04E
:103140000E94F52C64E670E080E090E00E946A2B1B
:1031500060E08CE00E94F52C61E08DE00E94F52C8F
:1031600064E670E080E090E00E946A2B0115110592
:10317000F1F22197DCCF0E947218DF91CF911F915D
:103180000F910C947A180E9476180E9472186AE0C7
:1031900070E080E090E00E946A2B0E946E180E940E
:1031A0007A1865E070E080E090E00E946A2BEBCF37
:1031B0000F931F93CF93DF938C01EC01892B11F4B4
:1031C000C1E0D0E061E08DE00E94F52C1C161D06E8
:1031D000ACF40E947A1864E670E080E090E00E940F
:1031E0006A2B0E94761864E670E080E090E00E940E
:1031F0006A2B0115110551F32197E8CFDF91CF918B
:103200001F910F910C947A180F931F93CF93DF9314
:103210008C01EC01892B11F4C1E0D0E01C161D06D5
:10322000ACF40E94721864E670E080E090E00E94C6
:103230006A2B0E946E1864E670E080E090E00E94C5
:103240006A2B0115110551F32197E8CFDF91CF913A
:103250001F910F910C94721880911535909116352D
:10326000A0911735B09118350196A11DB11D80931D
:10327000153590931635A0931735B09318354091B6
:1032800004015091050160910601709107014817F2
:1032900059076A077B0710F51092153510921635FD
:1032A00010921735109218356091143580910901EC
:1032B000861770F081E08093133580911335680F85
:1032C0006093143570E08CE00E94092C0C947A18FD
:1032D00080910801681788F38FEFEDCF08958091F2
:1032E000153590911635A0911735B0911835019686
:1032F000A11DB11D8093153590931635A0931735F8
:10330000B093183540910401509105016091060178
:1033100070910701481759076A077B0710F510924B
:103320001535109216351092173510921835609198
:10333000143580910901861770F081E08093133570
:1033400080911335680F6093143570E08DE00E9412
:10335000092C0C94721880910801681788F38FEF7C
:10336000EDCF089580913E39882341F0609147392F
:10337000709148398EEA91E00C946F040895809121
:103380003E39882341F060911B0170911C018EEA47
:1033900091E00C944805089580933939882321F0F1
:1033A00081E080933A39089510923A3908958091D6
:1033B0003E39882309F4E0C080913839823A51F4CB
:1033C0006091190170911A0150E040E08EEA91E09D
:1033D0000E945A0380913839833A51F4609119015F
:1033E00070911A0150E040E08EEA91E00E945A0389
:1033F00080913839843A51F46091190170911A0121
:1034000050E040E08EEA91E00E945A038091383902
:10341000873A51F46091190170911A0141E050E02E
:103420008EEA91E00E945A0380913839883A51F42B
:103430006091190170911A0141E050E08EEA91E02B
:103440000E945A0380913839893A51F460911901E8
:1034500070911A0141E050E08EEA91E00E945A0317
:1034600080913839833B51F46091190170911A01B0
:1034700041E050E08EEA91E00E945A038091383991
:10348000843B51F46091190170911A0141E050E0C0
:103490008EEA91E00E945A0380913839883B51F4BA
:1034A0006091190170911A0141E050E08EEA91E0BB
:1034B0000E945A0380913839893B51F46091190177
:1034C00070911A0141E050E08EEA91E00E945A03A7
:1034D00080913839843C51F46091190170911A013E
:1034E00041E050E08EEA91E00E945A038091383921
:1034F000893C51F46091190170911A0141E050E04A
:103500008EEA91E00E945A0380913839843E51F44A
:103510006091190170911A0141E050E08EEA91E04A
:103520000E945A0380913839893E51F46091190103
:1035300070911A0141E050E08EEA91E00E945A0336
:10354000809138398E3F51F46091190170911A01C0
:1035500041E050E08EEA91E00E945A0380913839B0
:103560008F3F51F46091190170911A0150E040E0D1
:103570008EEA91E00C945A03089580913E39882395
:1035800061F08EEA91E00E942F02609343397093BC
:1035900044398093453990934639089580913E3956
:1035A000882371F0409143395091443960914539F5
:1035B000709146398EEA91E00E94AE040C94BD1AD7
:1035C000089580913E39882361F08EEA91E00E944F
:1035D000FF0160933F397093403980934139909354
:1035E0004239089580913E39882371F040913F39E6
:1035F0005091403960914139709142398EEA91E0A1
:103600000E947D030C94E11A089580913E3988232D
:1036100021F08EEA91E00C944D0280E0089583ED54
:103620009FE00E946C1891E0833709F090E0892FA9
:103630000895C8E3DFE06FEFCE010E94581821968D
:10364000C11580E1D807B9F70E947E1888E39FE092
:103650000E946C18982F81E0933021F0903F11F078
:1036600080E00895089589E39FE00E946C1880939C
:103670003839843A49F0893A39F092E0980F81E07C
:10368000923018F080E0089581E008958AE39FE089
:103690000E946C18809337399FEF980F81E09E3F0E
:1036A00008F080E00895BF92CF92DF92EF92FF92F0
:1036B0000F931F93CF93DF938BE090E00E94B92983
:1036C0007C018C01C8E3DFE0CE010E946C18F80198
:1036D00081938F012196C334FFE0DF07A9F76BE0E8
:1036E00070E0C7010E941F18B82EC92E082F192F8D
:1036F000DD24D394CE010E946C18F80191918F01C2
:103700008913D12C2196C335FFE0DF0799F78B2D64
:103710009C2D0E94552AC7010E94552A8D2DDF91AC
:10372000CF911F910F91FF90EF90DF90CF90BF90BE
:1037300008958FED9FE00E946C1891E0833709F0A7
:1037400090E0892F0895CF92DF92EF92FF92CF936E
:103750000E94991B882309F461C084ED9FE00E94B8
:103760006C1890E0909348398093473985ED9FE03D
:103770000E946C1890E090931C0180931B0186EDD1
:103780009FE00E946C1890E090931A0180931901B9
:103790008BED9FE00E946C18C82F8CED9FE00E947B
:1037A0006C1890E0B0E0A0E07C01DD24CC24FC2A81
:1037B0008DED9FE00E946C18C82F8EED9FE00E9457
:1037C0006C18C82ADC2AC0923F39D0924039E09266
:1037D0004139F092423987ED9FE00E946C18C82F62
:1037E00088ED9FE00E946C1890E0B0E0A0E07C01C2
:1037F000DD24CC24FC2A89ED9FE00E946C18C82FA0
:103800008AED9FE00E946C18C82ADC2AC0924339D6
:10381000D0924439E0924539F0924639CF91FF90E9
:10382000EF90DF90CF90089580913D39882309F47F
:103830008AC080913E39882309F485C06091473958
:1038400084ED9FE00E94581860911B0185ED9FE078
:103850000E9458186091190186ED9FE00E94581847
:10386000609143397091443980914539909146393E
:10387000692F77278827992787ED9FE00E9458189E
:10388000609143397091443980914539909146391E
:10389000BC018827992788ED9FE00E945818609105
:1038A0004339709144398091453990914639672F59
:1038B000782F892F992789ED9FE00E9458186091F1
:1038C00043398AED9FE00E94581860913F3970910A
:1038D00040398091413990914239692F7727882763
:1038E00099278BED9FE00E94581860913F397091A5
:1038F00040398091413990914239BC0188279927FC
:103900008CED9FE00E94581860913F3970914039CA
:103910008091413990914239672F782F892F9927CB
:103920008DED9FE00E94581860913F398EED9FE029
:103930000E94581863E78FED9FE00E9458188AE0B4
:1039400090E00C9404198AE090E00C94D81860E0A0
:103950008FED9FE00C94581882E390E00E948D1840
:103960000E94191B80913A3970E060E0882319F0B9
:103970006091393970E08EEA91E00C94BC058EEAD2
:1039800091E00E94360310923E39089580913F39AC
:1039900090914039A0914139B0914239892B8A2BBD
:1039A0008B2BE1F08091433990914439A0914539B6
:1039B000B0914639892B8A2B8B2B81F0809119018C
:1039C00090911A018F3F910549F08091473990916C
:1039D0004839892B19F010921801089581E08093DD
:1039E000180108958091D501883C50F42091D301AD
:1039F0003091D40181E02115384118F480E0089518
:103A000081E00895CF938EEA91E00E944F01C82F84
:103A10008EEA91E00E945201909316018093150165
:103A20000E94392B60931E3570931F35809320358B
:103A300090932135C0FF2DC081E08093293580937C
:103A40002835809327358091223590912335209118
:103A50002935211108C020912835211104C0209159
:103A60002735222319F120910F013091100182177F
:103A70009307B0F40196909323358093223581E02B
:103A800080932635809125358823E9F0CF910C94D9
:103A90006E18109229351092283510922735D3CF01
:103AA00081E08093263580932535ECCF009741F057
:103AB0000197909323358093223510922635E2CFDB
:103AC00010922535FACFCF910C9472180F931F9353
:103AD0000E94392B00911E3510911F352091203501
:103AE00030912135601B710B820B930B00910B0100
:103AF00010910C0120910D0130910E01601771079A
:103B00008207930720F01F910F910C94021D1F91C3
:103B10000F9108951092900089E18093910080E8C0
:103B20009EE3909397008093960080E280937100CB
:103B3000089580910901809314350895682F8EE4CB
:103B400099E30C945D27803C31F48BED0E949E1D1F
:103B50008CED0C949E1D8B3DE1F70E949E1D8DED1A
:103B6000F8CFCF93DF93C8E3DFE0CE010E946C185B
:103B70000E94A31D2196C11580E1D807B1F7DF91FE
:103B8000CF910895CF93C82F80EC0E949E1D80E9AD
:103B90000E949E1D8C2F0E949E1D80ECCF910C9444
:103BA0009E1DCF93DF93C82FD62F0E940F1B81112C
:103BB0000BC0C83C48F48C2F90E06D2F885C904F70
:103BC000DF91CF910C94581883E0DF91CF910C9442
:103BD000C21D80EC0E949E1D86E00E949E1D809169
:103BE0003E390E949E1D80EC0C949E1DCF93DF9366
:103BF0000E94C61CC0913E39C1114BC08091180172
:103C0000811140C0D0913D39DD23E1F140913F3930
:103C10005091403960914139709142398EEA91E07A
:103C20000E94CC03892B69F481E080933C390E9487
:103C3000C21D90E080E00E948D188C2FDF91CF9103
:103C4000089581E080933E390E94D7190E94CE1AD0
:103C50000E94B2190E94BF190E94E11A8EEA91E0F7
:103C60000E946A056CE073E28EEA91E00E94CB024A
:103C70000E94B21C0E94E91D83E090E00E9404199A
:103C8000CD2FDBCF0E94E91D83E090E00E94D81881
:103C9000D4CF0E94E91DD1CF80EC0E949E1D81E20D
:103CA0000E949E1D809131350E94A31D8091303568
:103CB0000E94A31D80912F350E94A31D80912E3557
:103CC0000E94A31D80EC0C949E1D80EC0E949E1D02
:103CD00082E20E949E1D80912D350E94A31D80913D
:103CE0002C350E94A31D80912B350E94A31D80912D
:103CF0002A350E94A31D80EC0C949E1DCF93C09189
:103D00001301C35680EC0E949E1D83E20E949E1DFB
:103D10008C2F0E94A31D80ECCF910C949E1D80ECF3
:103D20000E949E1D84E20E949E1D809112010E94AD
:103D3000A31D80EC0C949E1D80EC0E949E1D87E0CC
:103D40000E949E1D809118010E949E1D80EC0C9483
:103D50009E1D80EC0E949E1D84E00E949E1D80910D
:103D600047390E949E1D80EC0C949E1D80EC0E94A1
:103D70009E1D85E00E949E1D80911B010E949E1D3C
:103D800080EC0C949E1D80EC0E949E1D89E00E9498
:103D90009E1D809139390E949E1D80EC0C949E1DC1
:103DA00080EC0E949E1D83E00E949E1D809119015F
:103DB0000E949E1D80EC0C949E1D80EC0E949E1D16
:103DC00082E00E949E1D809146390E94A31D809131
:103DD00045390E94A31D809144390E94A31D809102
:103DE00043390E94A31D80EC0C949E1D80EC0E9420
:103DF0009E1D81E00E949E1D809142390E94A31D5C
:103E0000809141390E94A31D809140390E94A31DD9
:103E100080913F390E94A31D80EC0C949E1DCF938E
:103E2000C82F80EC0E949E1D80E40E949E1D8C2F56
:103E30000E949E1D80ECCF910C949E1D80EC0E94F0
:103E40009E1D82E40E949E1D8FEF0E949E1D80ECAD
:103E50000C949E1D80EC0E949E1D8FE00E949E1D72
:103E600081E00E949E1D80EC0C949E1D80EC0E94BF
:103E70009E1D8FE00E949E1D80E00E949E1D80EC92
:103E80000C949E1D80EC0E949E1D8EE00E949E1D43
:103E900080913B39882331F081E00E949E1D80ECA7
:103EA0000C949E1D80E0F9CF80EC0E949E1D88E05E
:103EB0000E949E1D86E40E949E1D80EC0C949E1D17
:103EC00080EC0E949E1D80E50E949E1D81E00E9464
:103ED0009E1D82E30E949E1D80EC0C949E1D80EC32
:103EE0000E949E1D88E40E949E1D80E90E949E1DE6
:103EF00080EC0C949E1D80EC0E949E1D87E40E9425
:103F00009E1D81E30E949E1D80EC0C949E1D80EC02
:103F10000E949E1D89E40E949E1D81E90E949E1DB3
:103F200080EC0C949E1D80EC0E949E1D81E50E94F9
:103F30009E1D0E94B11D80EC0C949E1D90911B351E
:103F4000992309F4E1C2803C09F0ACC080910A01D8
:103F500081119DC010921B358091061D9091071D07
:103F60006091021D7091031D8617970761F42091DF
:103F7000081D3091091D8091041D9091051D281781
:103F8000390709F4C4C22091081D3091091D8091A0
:103F9000061D9091071D02972817390709F4B7C22B
:103FA0008091D3019091D4018115984108F0AFC25E
:103FB0002091CF013091D0018091D1019091D20117
:103FC000019710F48FEF97E18217930709F44BC024
:103FD0002817390708F042C0821B930B01960097FF
:103FE00009F495C24091D5014F5F4093D501E0910E
:103FF000081DF091091D318320834091081D5091C7
:10400000091D2091041D3091051D4217530771F5BC
:104010007093091D6093081DE0916E1BF0916F1B5A
:104020009183808320916E1B30916F1B80916A1B5E
:1040300090916B1B2817390721F58091681B90918F
:10404000691B90936F1B80936E1B8091D10190919F
:10405000D2019093D0018093CF010895821B930BDE
:104060008F5F974EBCCF81E090E0BCCF2091081DC0
:104070003091091D2E5F3F4F3093091D2093081D7D
:10408000CBCF80916E1B90916F1B0296DACF81E0AF
:1040900080931B358EEF80930A0110921D3510928C
:1040A0001C35089520911C3530911D352C3F91E031
:1040B000390708F02CC290910A012115310529F425
:1040C0009E3F19F480930A01089591114DC090917B
:1040D0001D01933019F091E0909349398B3D21F403
:1040E00081E080931A35089590911A35992349F00B
:1040F0008C3D21F08D3D19F48BED01C080EC1092C8
:104100001A359091D501983C08F001C22091D30155
:104110003091D4012115384108F0F9C12091D30123
:104120003091D4012F5F3F4F3093D4012093D301BE
:104130002091D1013091D201A9014F5F5F4F50937F
:10414000D2014093D1012A523E4FF90180838091E0
:10415000D1019091D2018115984109F0D8C11092F6
:10416000D2011092D1010895913009F044C08B3DE5
:10417000D1F490931A3580911C3590911D35049798
:1041800009F0C5C160912E3770912F37809130377B
:10419000909131370E94DB2E6115710581059105E3
:1041A000D9F40C94F61E90911A35992349F08C3D60
:1041B00021F08D3D19F48BED01C080EC10921A3581
:1041C000A9014F5F5F4F50931D3540931C35225D11
:1041D000384CF9018083CFCF60933F3970934039D9
:1041E0008093413990934239809117018131C9F60A
:1041F0000E94F21AD6CF923009F045C08B3DD9F417
:1042000081E080931A3580911C3590911D3504977B
:1042100009F07DC160912E3770912F378091303732
:10422000909131370E94DB2E611571058105910552
:10423000D9F40C94DD1E90911A35992349F08C3DE8
:1042400021F08D3D19F48BED01C080EC10921A35F0
:10425000A9014F5F5F4F50931D3540931C35225D80
:10426000384CF9018083CFCF609343397093443940
:104270008093453990934639809117018131C9F671
:104280000E94CE1AD6CF933099F48F3F11F40C943C
:10429000D01E823108F081E190E090931A01809362
:1042A000190180911701813191F70E94D719EFCF41
:1042B0009430D1F48F3F11F40C94A91E863088F00D
:1042C00090E08D30910514F08CE090E090934839A7
:1042D0008093473980911701813171F70E94B2199B
:1042E000EBCF86E090E0F2CF9530D1F48F3F11F420
:1042F0000C94B61E853088F090E08930910514F05A
:1043000088E090E090931C0180931B01809117013D
:10431000813171F70E94BF19EBCF85E090E0F2CFB9
:10432000993021F40E94CC190C94C31E9A30A9F440
:104330008F3F09F0ECC0109249398CED9EEF9093BD
:10434000160180931501909314018093130110922C
:10435000363980E88093120108959630B1F4909137
:104360001D01933019F091E0909349398F3F11F47A
:104370000C94E91D811103C00E94BF1CF9CF81304C
:1043800009F0C5C00E94F61DF3CF913211F40C94D0
:104390004C1E923211F40C94651E933211F40C945D
:1043A0007E1E973021F40E94C61C0C949C1E9033F4
:1043B00019F490E00C940419903421F40E94051B28
:1043C0000C940F1F983061F4833709F0A0C08091DE
:1043D0001D01833019F081E0809349390C94541FFA
:1043E0009E3059F4813021F480933B390C94421F64
:1043F0008111FCCF10923B39F9CF9F3041F40E94DC
:10440000F21C811102C00C942A1F0C94361F99359E
:1044100029F4883F09F07BC00E94AC1C953529F433
:10442000883F09F074C00E947E18913511F40C94F5
:10443000931F923559F58B3D81F481E080931A35B5
:1044400080911C3590911D35029709F060C06091F4
:104450002F3780912E370C94D11D90911A359923C6
:1044600049F08C3D21F08D3D19F48BED01C080ECBD
:1044700010921A35A9014F5F5F4F50931D3540933D
:104480001C35225D384CF9018083DACF903511F468
:104490000C94601F983411F40C946F1F993411F42C
:1044A0000C94871F973411F40C947B1F933511F4EF
:1044B0000C94141C943511F40C94A71C913439F10C
:1044C0009334E1F48B3D09F40BCE90911A35992386
:1044D00049F08C3D21F08D3D19F48BED01C080EC4D
:1044E00010921A35A9014F5F5F4F50931D354093CD
:1044F0001C35225D384CF90180830895923439F4DB
:10450000882329F00C941E1F803C09F4C0CD089527
:1045100081E08093CC014FB7F89420910F35309112
:10452000103580911135909112354FBF28173907FA
:10453000F1F0E0910F35F091103580910D359091AB
:104540000E35E817F90761F480910B3590910C3521
:104550009093103580930F3580810E949E1FDBCF92
:10456000E0910F35F0911035CF010196F1CF109207
:10457000CC010895CF93DF9380EC0E949E1D80E0D4
:104580000E949E1DC8E3D7E320913439309135391C
:10459000CE01885397438217930780F48991803C1A
:1045A00039F48BED0E949E1D8CED0E949E1DECCF78
:1045B0008B3DD9F70E949E1D8DEDF7CF80EC0E94B8
:1045C0009E1D1092353910923439DF91CF910895A4
:1045D000CF93DF93EC012097E1F02197809134395C
:1045E000909135398C3F9140A0F48EEA91E00E9481
:1045F000E4012091343930913539A9014F5F5F4F83
:104600005093353940933439285C384CF901808314
:10461000E2CFDF91CF9108950F931F93CF93DF9354
:10462000EC0180913B3981117BC08EEA91E00E94C0
:10463000E40121974091110180FF57C09C0154E093
:10464000359527955A95E1F72F7033274F3FD9F4C9
:104650001092353910923439209311018EEA91E08D
:104660000E948B0190931401809313018EEA91E0D4
:104670000E94770180931201CE01DF91CF911F91AB
:104680000F910C94E8222413E3CF8EEA91E00E946C
:104690008B012091130130911401820F931F97FD1C
:1046A000019695958795909314018093130100913D
:1046B000120110E08EEA91E00E947701800F912FA5
:1046C000911D9595879580931201CE010E94E82255
:1046D0008FEF809311010E947E1E0E948F1EDF913A
:1046E000CF911F910F910C94BA224F3F39F0109245
:1046F0003539109234398FEF809311018EEA91E0B1
:104700000E948B0190931401809313018EEA91E033
:104710000E94770180931201CE010E94E822DBCF34
:104720001092353910923439E9CFCF92DF92EF925F
:10473000FF920F931F93CF93DF93EC0180913E394B
:10474000882309F479C080913B39811153C00E94BC
:10475000761860E071E080E090E00E949F29162FBB
:10476000107FCF3FD10508F0116070E060E08EEA65
:1047700091E00E949B05612F8EEA91E00E94B100BA
:1047800092E3C92E95E3D92ECE5CDA4CEE24E39465
:10479000F12CCC16DD06F1F0F60161916F018EEA85
:1047A00091E00E94B100FFEFEF1AFF0A8FEFE816C9
:1047B000F10479F78EEA91E00E94500270E060E027
:1047C0008EEA91E00E949B05612F8EEA91E00E94A3
:1047D000B100DCCF8EEA91E00E9450020E947A186C
:1047E000DF91CF911F910F91FF90EF90DF90CF90CD
:1047F0000C94B21C0E947618CF3FD10519F010F02E
:10480000CFEFD0E080913A3970E060E08111BE01D5
:104810008EEA91E00E949B0502E315E3C8018253F2
:1048200095438C179D07B0F6F80161918F018EEAD0
:1048300091E00E94B100F2CF82E00E94C21D85E0AB
:1048400090E0DF91CF911F910F91FF90EF90DF905B
:10485000CF900C948D180F931F93CF93DF9380917B
:10486000CD0181116EC081E08093CD01C0E0D8E11F
:104870004FB7F8942091061D3091071D8091081DB7
:104880009091091D4FBF2817390709F45AC0E091CC
:10489000061DF091071D8091041D9091051DE817DC
:1048A000F90709F03FC08091021D9091031D90937C
:1048B000071D8093061D00811181E0916C1BF09112
:1048C0006D1B20916A1B30916B1BE217F30789F572
:1048D0002091681B3091691B30936D1B20936C1BDA
:1048E00020813181A901415051094C3F514008F0CC
:1048F000BFCFE2E3F5E302531543C8018E0F9F1FBC
:10490000BE010E947D2EDC01AA52BE4F8C91819384
:10491000CF01825395438217930778F3C9010E9410
:104920009523A6CFE091061DF091071DCF010296B9
:10493000BECFE0916C1BF0916D1B9F012E5F3F4F2E
:10494000CBCF1092D5011092D4011092D3011092C6
:10495000CD01DF91CF911F910F91089580913E3944
:104960008823E1F10E94661D8091D501882311F111
:1049700080912435811102C00E94021D809126354C
:10498000811128C080912535811124C08091243562
:10499000882331F062E370E080E090E00E946A2BAF
:1049A0000E94021D80912635811104C01092243589
:1049B0000E942B244FB7F89420910F353091103579
:1049C00080911135909112354FBF2817390791F01A
:1049D0000C94882281E080932435ECCF80913D397E
:1049E000882319F00E942C19E5CF0E946F190E94AC
:1049F000BF1CE0CF0895CF938091CE01811127C0D5
:104A000081E08093CE01C4E18EE499E30E94D32635
:104A1000892BD9F08FB7F89440910F35509110350C
:104A200020910B3530910C354217530791F440918A
:104A300011355091123520910D3530910E354217B8
:104A4000530739F48FBFC150F9F61092CE01CF91C0
:104A50000895409111355091123520910F353091C4
:104A60001035215031094217530761F38FBF8EE48F
:104A700099E30E94ED262FB7F894E0911135F0915B
:104A800012358083409111355091123580910D354A
:104A900090910E354817590751F480910B3590913C
:104AA0000C3590931235809311352FBFCCCF809168
:104AB0001135909112350196F4CF1F920F920FB6D7
:104AC0000F9211240BB60F922F933F934F935F9346
:104AD0006F937F938F939F93AF93BF93EF93FF93C6
:104AE0000E94FB24FF91EF91BF91AF919F918F9115
:104AF0007F916F915F914F913F912F910F900BBEDE
:104B00000F900FBE0F901F9018958091F83980FF7D
:104B10002AC082E080931935809119358150823006
:104B2000B8F50E940F1B882381F10E94261B882361
:104B300061F10E94331B882341F10E94461B8823A8
:104B400021F10E94531B882351F181E080933D396C
:104B50000E94991B882319F10E94A31B82E1809374
:104B600017010C94F61D82FF02C083E0D3CF83FFB0
:104B700002C081E0CFCF42E250E069E571E08EE40F
:104B800099E30E949D280E94C31810923D39089510
:104B900010923D394EE150E06CE771E0F0CF08959E
:104BA00080E00E94EB2B0E949729AAE0BDE181E002
:104BB00098E1FD019C01119221503040E1F7EBE0BA
:104BC000F5E3B183A083B783A683B583A4838AE08A
:104BD00095E39383828326E040E052EC61E070E04D
:104BE0008EE499E30E94A4270E948A1D61E08CE074
:104BF0000E94B92C61E08DE00E94B92CE8E3F7E354
:104C00008CEF91E0DF019C011D9221503040E1F7D3
:104C1000EEE2F7E38AE0DF011D928A95E9F7E6ED1F
:104C2000F1E080E098E1DF019C011D9221503040CD
:104C3000E1F7A0E7BBE182E991E0FD019C0111925F
:104C400021503040E1F7E2E0FDE1B183A083B7837A
:104C5000A683B583A48320E03DE133832283A6EDC0
:104C6000B9E1FD019C01119221503040E1F7E8E6E5
:104C7000FBE1B183A083B783A683B583A48386E6D3
:104C80009BE19383828322E030E043E050E064E0E4
:104C900070E08EEA91E00E94F7000C948525CF9396
:104CA000CFB7F89480914D39811127C0E0EDF0E045
:104CB0008491E0EBF0E09491E82FF0E0EE0FFF1F1D
:104CC000EA50FF4FA591B491EC91E92321F461E002
:104CD00084E00E94F52C61E084E00E94B92C8CB540
:104CE00080618CBD8CB580648CBD61E087E00E94E2
:104CF000B92C61E085E00E94B92C80914D398F5F1D
:104D000080934D39CFBFCF9108959FB7F89480918C
:104D10004D39882319F0815080934D3980914D3958
:104D2000811105C08CB58F7B8CBD10924C399FBF13
:104D300008952FB7F894813041F0C0F08230A1F08F
:104D400082E080934C3980E001C082E090914B3941
:104D5000892B80934B3980914C39811103C081E0BC
:104D600080934C392FBF089584E0F0CF81E0EECFDF
:104D700090914C399230A1F09FB7F894833088F429
:104D8000E82FF0E0E556FE4F8081809520914B3969
:104D9000822380934B39811102C010924C399FBFFE
:104DA000089580E0F2CFFC01918D228D892F90E053
:104DB000805C9F4F821B91098F7399270895FC0196
:104DC000918D828D981731F0828DE80FF11D858DC0
:104DD00090E008958FEF9FEF0895FC01918D828DF3
:104DE000981761F0A28DAE0FBF2FB11D5D968C910B
:104DF000928D9F5F9F73928F90E008958FEF9FEF4A
:104E0000089586E698E2892B49F080E090E0892BAE
:104E100029F00E94662881110E94000080E090E045
:104E2000892B49F080E090E0892B29F00E94000056
:104E300081110C9400000895FC01A48DA80FB92FD6
:104E4000B11DA35ABF4F2C91848D90E001968F73B2
:104E50009927848FA689B7892C93A089B1898C91D1
:104E600080648C93938D848D981306C00288F38997
:104E7000E02D80818F7D80830895CF93DF93EC01B7
:104E8000888D8823B9F0AA89BB89E889F9898C9132
:104E900085FD03C0808186FD0DC00FB607FCF7CFEE
:104EA0008C9185FFF2CF808185FFEDCFCE010E94EE
:104EB0001C27E9CFDF91CF910895EF92FF920F93D6
:104EC0001F93CF93DF93EC0181E0888F9B8D8C8DB6
:104ED000981316C0E889F989808185FF11C0EE8991
:104EE000FF896083E889F98980818064808381E01B
:104EF00090E0DF91CF911F910F91FF90EF90089577
:104F0000F62E0B8D10E00F5F1F4F0F731127E02E51
:104F10008C8D8E110CC00FB607FCFACFE889F98989
:104F2000808185FFF5CFCE010E941C27F1CFEB8D4C
:104F3000EC0FFD2FF11DE35AFF4FF0820B8FEA8932
:104F4000FB8980818062D2CFCF92DF92EF92FF9275
:104F50001F93CF93DF93EC016A017B01122FE88945
:104F6000F98982E08083C11481EED806E104F1045E
:104F7000A1F060E079E08DE390E0A70196010E9446
:104F8000912E215031094109510956954795379580
:104F90002795211580E1380798F0E889F989108272
:104FA00060E874E88EE190E0A70196010E94912EDE
:104FB0002150310941095109569547953795279553
:104FC000EC85FD853083EE85FF852083188EEC8986
:104FD000FD891083EA89FB89808180618083EA8969
:104FE000FB89808188608083EA89FB898081806871
:104FF0008083EA89FB8980818F7D8083DF91CF91D7
:105000001F91FF90EF90DF90CF9008951F920F9225
:105010000FB60F9211240BB60F922F938F939F937D
:10502000EF93FF93E0915E39F0915F398081E091D9
:105030006439F091653982FD1DC090818091673996
:105040008F5F8F7320916839821741F0E091673943
:10505000F0E0E25BF64C958F80936739FF91EF911A
:105060009F918F912F910F900BBE0F900FBE0F90BD
:105070001F9018958081F2CF1F920F920FB60F925A
:1050800011240BB60F922F933F934F935F936F931F
:105090007F938F939F93AF93BF93EF93FF938EE490
:1050A00099E30E941C27FF91EF91BF91AF919F91CF
:1050B0008F917F916F915F914F913F912F910F90C1
:1050C0000BBE0F900FBE0F901F9018958EE499E3C2
:1050D0000E94D32621E0892B09F420E0822F089535
:1050E000EEE4F9E31382128288EE93E0A0E0B0E0F0
:1050F00084839583A683B78382EA91E0918380833A
:1051000085EC90E09587848784EC90E0978786878C
:1051100080EC90E0918B808B81EC90E0938B828B84
:1051200082EC90E0958B848B86EC90E0978B868B5D
:10513000118E128E138E148E0895AF92BF92CF925D
:10514000DF92EF92FF920F931F93CF93DF936C0147
:105150007B018B01040F151FEB015E01AE18BF0828
:10516000C017D10759F06991D601ED91FC910190DA
:10517000F081E02DC6010995892B79F7C501DF91F2
:10518000CF911F910F91FF90EF90DF90CF90BF9044
:10519000AF900895FC014483558366837783089517
:1051A0000895833060F5E82FF0E0EE0FFF1FE25E18
:1051B000FE4F71836083813051F08230A1F0809185
:1051C00069008C7F482B40936900E89A089580918C
:1051D0006900837F440F551F440F551F482B409390
:1051E0006900E99A0895809169008F7C94E0440FEA
:1051F000551F9A95E1F7482B40936900EA9A089564
:10520000833078F4E82FF0E0813061F0823061F093
:10521000E898EE0FFF1FE25EFE4F80ED98E291836B
:1052200080830895E998F5CFEA98F3CF1F920F9203
:105230000FB60F9211240BB60F922F933F934F93FB
:105240005F936F937F938F939F93AF93BF93EF93EE
:10525000FF93E0911E01F0911F010995FF91EF91DD
:10526000BF91AF919F918F917F916F915F914F917E
:105270003F912F910F900BBE0F900FBE0F901F907C
:1052800018951F920F920FB60F9211240BB60F9222
:105290002F933F934F935F936F937F938F939F933E
:1052A000AF93BF93EF93FF93E0912001F091210121
:1052B0000995FF91EF91BF91AF919F918F917F9150
:1052C0006F915F914F913F912F910F900BBE0F9077
:1052D0000FBE0F901F9018951F920F920FB60F924E
:1052E00011240BB60F922F933F934F935F936F93BD
:1052F0007F938F939F93AF93BF93EF93FF93E0912F
:105300002201F09123010995FF91EF91BF91AF9197
:105310009F918F917F916F915F914F913F912F91CD
:105320000F900BBE0F900FBE0F901F901895009717
:1053300029F0BC0190E080E00C9460300895CF9299
:10534000DF92EF92FF926B017C01C114D104E10462
:10535000F10441F00E941130A70196010E94B32E82
:105360006B017C01C701B601FF90EF90DF90CF90F9
:1053700008950F931F93CF93DF938230910510F41C
:1053800082E090E0E091F639F091F73930E020E0EA
:10539000B0E0A0E0309799F42115310509F44AC036
:1053A000281B390B24303105D8F58A819B81611582
:1053B000710589F1FB0193838283FE0111C0408155
:1053C00051810281138148175907E0F048175907A6
:1053D00099F4109761F012960C93129713961C9300
:1053E0003296CF01DF91CF911F910F9108950093D5
:1053F000F6391093F739F4CF2115310551F04217E2
:10540000530738F0A901DB019A01BD01DF01F80162
:10541000C1CFEF01F9CF9093F7398093F639CDCF13
:10542000FE01E20FF31F81939193225031093983DA
:105430002883D7CF2091F4393091F539232B41F4CB
:1054400020912601309127013093F5392093F439CA
:1054500020912401309125012115310541F42DB70A
:105460003EB74091280150912901241B350BE09152
:10547000F439F091F539E217F307A0F42E1B3F0B36
:105480002817390778F0AC014E5F5F4F24173507B6
:1054900048F04E0F5F1F5093F5394093F4398193D4
:1054A00091939FCFF0E0E0E09CCFCF93DF93009704
:1054B000E9F0FC01329713821282A091F639B09183
:1054C000F739ED0130E020E01097A1F4208131811F
:1054D000820F931F2091F4393091F539281739073D
:1054E00009F061C0F093F539E093F439DF91CF9181
:1054F0000895EA01CE17DF07E8F54A815B819E0136
:1055000041155105B1F7E901FB83EA8349915991AE
:10551000C40FD51FEC17FD0761F4808191810296BD
:10552000840F951FE90199838883828193819B83EE
:105530008A83F0E0E0E012968D919C91139700979A
:10554000B9F52D913C911197CD010296820F931FD1
:105550002091F4393091F5392817390739F6309709
:1055600051F51092F7391092F639B093F539A093AE
:10557000F439BCCFD383C28340815181840F951FFE
:10558000C817D90761F44E5F5F4F88819981480F32
:10559000591F518340838A819B8193838283211584
:1055A000310509F0B0CFF093F739E093F6399ECF8B
:1055B000FD01DC01C0CF13821282D7CF0895089578
:1055C0000E94A32B0E94DF2A0E94D025C1E0D7E2CF
:1055D0000E94AE242097E1F30E940127F9CF1F9289
:1055E0000F920FB60F9211242F933F938F939F9397
:1055F000AF93BF938091EC399091ED39A091EE3942
:10560000B091EF393091EB3923E0230F2D3758F566
:105610000196A11DB11D2093EB398093EC39909335
:10562000ED39A093EE39B093EF398091F039909134
:10563000F139A091F239B091F3390196A11DB11D54
:105640008093F0399093F139A093F239B093F33904
:10565000BF91AF919F918F913F912F910F900FBE6E
:105660000F901F90189526E8230F0296A11DB11DDB
:10567000D2CF2FB7F8946091EC397091ED398091C9
:10568000EE399091EF392FBF08953FB7F89480918C
:10569000F0399091F139A091F239B091F33926B5F2
:1056A000A89B05C02F3F19F00196A11DB11D3FBF5A
:1056B000BA2FA92F982F8827BC01CD01620F711D29
:1056C000811D911D42E0660F771F881F991F4A9523
:1056D000D1F708958F929F92AF92BF92CF92DF92AF
:1056E000EF92FF926B017C010E94452B4B015C0104
:1056F000C114D104E104F104E9F00E94DE2A0E9401
:10570000452B681979098A099B09683E7340810510
:10571000910570F321E0C21AD108E108F10888EE82
:10572000880E83E0981EA11CB11CC114D104E104B1
:10573000F10429F7FF90EF90DF90CF90BF90AF90EA
:105740009F908F900895789484B5826084BD84B5CD
:10575000816084BD85B5826085BD85B5816085BD6C
:10576000EEE6F0E0808181608083E1E8F0E0108285
:10577000808182608083808181608083E0E8F0E0C6
:10578000808181608083E1EBF0E0808184608083B0
:10579000E0EBF0E0808181608083E1E9F0E08081EE
:1057A00082608083808181608083E0E9F0E0808195
:1057B00081608083EAE7F0E080818460808380817B
:1057C0008260808380818160808380818068808323
:1057D0001092C1000895883020F0873108F487E1E5
:1057E000885120912A0190E4299F9001112487700B
:1057F000822B80937C0080917A00806480937A0071
:1058000080917A0086FDFCCF80917800909179009C
:1058100008951F93CF93DF93182FEB0161E00E944F
:10582000B92C209739F460E0812FDF91CF911F913F
:105830000C94F52CCF3FD10511F461E0F5CFE12FA9
:10584000F0E0E457FF4FE491E150EA3008F054C033
:10585000F0E0E35DF34D0C94D22E372C3F2C442C1A
:105860004E2C7C2C7C2C582C602C682C722C84B5F3
:10587000806884BDC7BDDF91CF911F91089584B525
:10588000806284BDC8BDF7CF80918000806880931E
:105890008000D0938900C0938800EDCF8091800074
:1058A000806280938000D0938B00C0938A00E3CF06
:1058B0008091B00080688093B000C093B300DBCFCC
:1058C0008091B00080628093B000C093B400D3CFC9
:1058D00080919000806880939000D0939900C0934D
:1058E0009800C9CF80919000806280939000D093FF
:1058F0009B00C0939A00BFCFC038D1050CF09DCF5C
:1059000092CF81508A3080F5E82FF0E0E657F34DD2
:105910000C94D22E9E2CA22C942C9A2CB42CB42C09
:10592000A52CAB2CAF2CB52C809180008F77809369
:1059300080000895809180008F7DF9CF84B58F77A6
:1059400084BD089584B58F7DFBCF8091B0008F77A3
:105950008093B00008958091B0008F7DF9CF809141
:1059600090008F77809390000895809190008F7DB4
:10597000F9CFCF93DF9390E0FC01E455FF4F2491E2
:1059800084539F4FFC0184918823C9F090E0880FD5
:10599000991FFC01EA50FF4FA591B491FC01E4511D
:1059A000FF4FC591D49161110DC09FB7F8948C91B0
:1059B000209582238C938881282328839FBFDF91A1
:1059C000CF910895623051F49FB7F8943C91822FA3
:1059D000809583238C93E8812E2BEFCF8FB7F8949B
:1059E000EC912E2B2C938FBFEACF1F93CF93DF9395
:1059F000282F30E0F901E457FF4F8491F901E45575
:105A0000FF4FD491F901E453FF4FC491CC23A9F087
:105A1000162F81110E94812CEC2FF0E0EE0FFF1F5A
:105A2000E451FF4FA591B4918FB7F894EC91111107
:105A300008C0D095DE23DC938FBFDF91CF911F91FB
:105A40000895DE2BF8CF0E949B2D08F481E0089585
:105A50000E942F2D6894B1110C940A2E08950E9473
:105A6000EF2D88F09F5798F0B92F9927B751B0F0D4
:105A7000E1F0660F771F881F991F1AF0BA95C9F7D2
:105A800014C0B13091F00E94092EB1E008950C9439
:105A9000092E672F782F8827B85F39F0B93FCCF3EC
:105AA000869577956795B395D9F73EF4909580954F
:105AB000709561957F4F8F4F9F4F0895E89409C06F
:105AC00097FB3EF490958095709561957F4F8F4F31
:105AD0009F4F9923A9F0F92F96E9BB279395F69547
