:100000000C945E010C945A200C942F200C94042024
:100010000C94D91F0C94AE1F0C94831F0C94581F82
:100020000C942D1F0C9491010C9491010C9491014E
:100030000C9491010C9491010C9491010C949101F8
:100040000C9491010C9491010C9491010C949101E8
:100050000C9491010C9491010C9491010C94E31E69
:100060000C9491010C94AD1E0C94831E0C94910180
:100070000C9491010C9491010C9491010C948520A5
:100080000C9491010C9491010C9491010C949101A8
:100090000C9491010C9491010C9491010C94910198
:1000A0000C9491010C9491010C9491010C94910188
:1000B0000C9491010C9491010C9491010C94910178
:1000C0000C9491010C9491010C9491010C94910168
:1000D0000C9491010C9491010C9491010C94910158
:1000E0000C9491010C9433040C94D8030C94F403F5
:1000F0000C94FC030C94FC020C9406040C943A033C
:100100000C94CF010C94B7040C9448030C94440352
:100110000C9417030C942F210C9413030C94C90313
:100120000C94391B0C949E1B0C9440030C942C03D0
:100130000C94831C0C94241C0C9436030C944704DC
:100140000C9429040C94F1010C941B030C946D1C69
:100150000C9422030C9451040C94381B0C94F81A40
:100160000C9493010C9432030C94C0010C94010381
:100170000C944E030C94CE030C943D040C945F1B22
:100180000C9452030C945B040C94321C0C94EC03FE
:100190000C9428030C94E3010C94E2030C942902C0
:1001A0000C941A040C947B020C9410040C941F03FE
:1001B0000C94C10300002100240027002A002D0018
:1001C0003000330001010000040107010A010000B2
:1001D0002200250028002B002E00310034000201EF
:1001E0000000050108010B010505050507050808C4
:1001F0000808020202020A0A0808040404040101B1
:1002000001010101010103030303030303030407C5
:1002100007070C0C0C0C0C0C0C0C0202020206065C
:100220000606060606060B0B0B0B0B0B0B0B01024F
:1002300010202008081020401020408002010201F8
:1002400008040201010204081020408080402010B0
:100250000804020180040201804020100804020109
:100260000804020101020408102040800102040871
:100270001020408000000A0B02090C0D0E08070335
:100280000401000000000000000000000000000069
:10029000000000000000000000000000000000005E
:1002A000121110000000000000000000000000001B
:1002B000000000000000000000002F212092211FFC
:1002C00011241FBECFEFD1E2DEBFCDBF00E00CBFD7
:1002D00012E0A0E0B2E0EAE1FEE500E00BBF02C000
:1002E00007900D92A83AB107D9F72FE1A8EAB2E03A
:1002F00001C01D92A132B207E1F711E0CEE5D1E0D5
:1003000000E006C021970109802FFE010E940E2DFA
:10031000CD35D10780E00807A9F70E9484210C940D
:100320000B2F0C940000AF92BF92CF92DF92EF920E
:10033000FF920F931F93CF93DF936C017B018B018F
:10034000040F151FEB015E01AE18BF08C017D107DF
:1003500059F06991D601ED91FC910190F081E02D69
:10036000C6011995892B79F7C501DF91CF911F91AE
:100370000F91FF90EF90DF90CF90BF90AF900895D6
:10038000FC01538D448D252F30E0842F90E0821B9B
:10039000930B541710F0CF96089501970895FC0120
:1003A000918D828D981761F0A28DAE0FBF2FB11D78
:1003B0005D968C91928D9F5F9F73928F90E00895D0
:1003C0008FEF9FEF0895FC01918D828D981731F08A
:1003D000828DE80FF11D858D90E008958FEF9FEFDE
:1003E0000895FC01918D228D892F90E0805C9F4FB4
:1003F000821B91098F739927089581E69EE10E94DF
:10040000F10121E0892B09F420E0822F0895FC01FD
:10041000A48DA80FB92FB11DA35ABF4F2C91848D65
:1004200090E001968F739927848FA689B7892C93C2
:10043000A089B1898C91837080648C93938D848D15
:10044000981306C00288F389E02D80818F7D808318
:100450000895EF92FF920F931F93CF93DF93EC01D8
:1004600081E0888F9B8D8C8D98131AC0E889F9895B
:10047000808185FF15C09FB7F894EE89FF8960835E
:10048000E889F98980818370806480839FBF81E0DF
:1004900090E0DF91CF911F910F91FF90EF90089521
:1004A000F62E0B8D10E00F5F1F4F0F731127E02EFC
:1004B0008C8D8E110CC00FB607FCFACFE889F98934
:1004C000808185FFF5CFCE010E940702F1CFEB8D31
:1004D000EC0FFD2FF11DE35AFF4FF0829FB7F89408
:1004E0000B8FEA89FB8980818062CFCF682F81E6FC
:1004F0009EE10C942902CF93DF93EC01888D882331
:10050000B9F0AA89BB89E889F9898C9185FD03C076
:10051000808186FD0DC00FB607FCF7CF8C9185FF5B
:10052000F2CF808185FFEDCFCE010E940702E9CF97
:10053000DF91CF91089580E090E0892B29F00E940F
:10054000FD0181110E94000080E090E0892B49F0BC
:1005500080E090E0892B29F00E94000081110E9428
:10056000000080E090E0892B49F080E090E0892B4A
:1005700029F00E94000081110E94000080E090E0BC
:10058000892B49F080E090E0892B29F00E9400003F
:1005900081110C9400000895282F30E0F901EC58E7
:1005A000FD4F9491F901E25DFD4F449128513E4F7A
:1005B000F9012491222309F435C0992311F19150B6
:1005C0009231F8F4E92FF0E08827E651FD4F8F4F84
:1005D0000C940E2D1B031F03FC02130317030103CE
:1005E000220328032C03320336033A034003440357
:1005F000010348034E035203809180008F7780935C
:100600008000E22FF0E0EE0FFF1FE253FE4FA591B6
:10061000B4918FB7F894EC91611148C040954E2386
:100620004C938FBF0895809180008F7DE8CF80919B
:100630008000877FE4CF84B58F7784BDE2CF84B517
:100640008F7DFBCF8091B0008F778093B000D9CFA2
:100650008091B0008F7DF9CF809190008F7780934B
:100660009000CFCF809190008F7DF9CF8091900046
:10067000877FF5CF8091A0008F778093A000C1CFB6
:100680008091A0008F7DF9CF8091A000877FF5CF6A
:10069000809120018F7780932001B3CF809120013A
:1006A0008F7DF9CF80912001877FF5CF4E2BB8CF7A
:1006B000CF93DF9390E0FC01E25DFD4F24918851E0
:1006C0009E4FFC0184918823D1F090E0880F991F00
:1006D000FC01EC54FE4FA591B491FC01E253FE4F96
:1006E000C591D49161110EC09FB7F8948C91E22FFF
:1006F000E0958E238C932881E223E8839FBFDF91CE
:10070000CF9108958FB7F894EC91E22BEC938FBFC3
:10071000F6CF1F93CF93DF93182FEB0161E00E9478
:100720005803209739F460E0812FDF91CF911F911A
:100730000C94CC02CF3FD10511F461E0F5CFE12F4D
:10074000F0E0EC58FD4FE491E150E23108F0B3C025
:10075000F0E08827E155FC4F8F4F0C940E2DC1031C
:10076000C903CE03D803E2035B04EC03F403FC03E8
:10077000060410041A04290433045B043D044704EE
:10078000510484B5806884BDC7BDDF91CF911F91AE
:10079000089584B5806284BDC8BDF7CF8091800084
:1007A000806880938000D0938900C0938800EDCF4B
:1007B00080918000806280938000D0938B00C093F2
:1007C0008A00E3CF80918000886080938000D0937E
:1007D0008D00C0938C00D9CF8091B0008068809349
:1007E000B000C093B300D1CF8091B00080628093FD
:1007F000B000C093B400C9CF80919000806880930E
:100800009000D0939900C0939800BFCF8091900042
:10081000806280939000D0939B00C0939A00B5CFE4
:1008200080919000886080939000D0939D00C09349
:100830009C00ABCF8091A00080688093A000809145
:10084000A0008F7B8093A000D093A900C093A80044
:100850009CCF8091A00080628093A000D093AB00D9
:10086000C093AA0092CF8091A00088608093A000DE
:10087000D093AD00C093AC0088CF809120018068F8
:1008800080932001D0932901C09328017ECF8091CD
:100890002001806280932001D0932B01C0932A0114
:1008A00074CF80912001886080932001D0932D0126
:1008B000C0932C016ACFC038D1050CF03ECF33CFA6
:1008C0003FB7F8948091B6029091B702A091B80218
:1008D000B091B90226B5A89B05C02F3F19F001962B
:1008E000A11DB11D3FBFBA2FA92F982F8827BC018A
:1008F000CD01620F711D811D911D42E0660F771FB2
:10090000881F991F4A95D1F708958F929F92AF92B1
:10091000BF92CF92DF92EF92FF924B015C010E9457
:1009200060046B017C010E9460046C197D098E09D2
:100930009F09683E734081059105A8F321E0821A62
:100940009108A108B10888EEC80E83E0D81EE11C0A
:10095000F11C81149104A104B10429F7FF90EF90D8
:10096000DF90CF90BF90AF909F908F9008950895A3
:100970008091300A9091310AA091320AB091330AE5
:10098000892B8A2B8B2BE1F080912C0A90912D0AD8
:10099000A0912E0AB0912F0A892B8A2B8B2B81F0E4
:1009A00080911602909117028F3F910549F0809136
:1009B0002A0A90912B0A892B19F01092130208959C
:1009C00081E0809313020895CF93DF9380EC90E051
:1009D0000E94760290E080E00E947602C0E2D3E0BE
:1009E0002091AA023091AB02CE018052934082172F
:1009F0009307A8F46991603C51F48BED90E00E945C
:100A000076026CED81E69EE10E942902E9CF6B3D02
:100A1000C9F78BED90E00E9476026DEDF3CF80EC8C
:100A200090E00E9476021092AB021092AA02DF912F
:100A3000CF91089580EC90E00E94760283E090E0F0
:100A40000E9476026091160281E69EE10E942902D0
:100A500080EC90E00C94760280EC90E00E947602AC
:100A600085E090E00E9476026091140281E69EE1AA
:100A70000E94290280EC90E00C94760280EC90E0D9
:100A80000E94760284E090E00E94760260912A0A39
:100A900081E69EE10E94290280EC90E00C947602AF
:100AA00080EC90E00E94760286E090E00E94760260
:100AB0008091601E90E00E94760280EC90E00C94A1
:100AC0007602CF93C82F80EC90E00E94760280E9F6
:100AD00090E00E9476026C2F81E69EE10E9429023E
:100AE00080EC90E0CF910C947602803C51F48BED39
:100AF00090E00E9476028CED682F81E69EE10C94D6
:100B000029028B3DC9F78BED90E00E9476028DEDB6
:100B1000F3CF1F93CF93DF9380EC90E00E94760297
:100B200081E090E00E947602C091300AD091310AB3
:100B30001091320A8091330A0E947505812F0E941C
:100B400075058D2F0E9475058C2F0E94750580EC10
:100B500090E0DF91CF911F910C9476021F93CF9379
:100B6000DF9380EC90E00E94760282E090E00E94A9
:100B70007602C0912C0AD0912D0A10912E0A8091F4
:100B80002F0A0E947505812F0E9475058D2F0E94E6
:100B900075058C2F0E94750580EC90E0DF91CF9158
:100BA0001F910C94760280EC90E00E94760284E221
:100BB00090E00E9476028091A9020E94750580EC67
:100BC00090E00C947602CF93C0910102C35680EC62
:100BD00090E00E94760283E290E00E9476028C2FE1
:100BE0000E94750580EC90E0CF910C94760260E055
:100BF0008DE00C94CC0261E08DE00C94CC02CF939C
:100C0000DF93EC0161E08DE00E94CC020E94F705C9
:100C100064E670E080E090E00E9485040E94FB059D
:100C200064E670E080E090E00E948504219771F70F
:100C3000DF91CF910C94F70560E08CE00C94CC022E
:100C40000F931F93CF93DF938C01EC01892B11F449
:100C5000C1E0D0E00E941C0664E670E080E090E015
:100C60000E94850461E08CE00E94CC0264E670E0A2
:100C700080E090E00E9485040115110559F3219749
:100C800049F7DF91CF911F910F910C941C060E94A0
:100C9000FB050E941C066AE070E080E090E00E9484
:100CA000850461E08CE00E94CC020E94F70565E0BB
:100CB00070E080E090E00E948504E9CF0F931F93DD
:100CC000CF93DF938C01EC01892B11F4C1E0D0E0CC
:100CD00061E08CE00E94CC0260E08DE00E94CC02DA
:100CE00064E670E080E090E00E94850460E08CE0C3
:100CF0000E94CC0261E08DE00E94CC0264E670E0CC
:100D000080E090E00E9485040115110509F3219708
:100D1000F9F60E941C06DF91CF911F910F910C9460
:100D2000F7052F923F924F925F926F927F928F9230
:100D30009F92AF92BF92CF92DF92EF92FF920F936A
:100D40001F93CF93DF93CDB7DEB7C857D1090FB646
:100D5000F894DEBF0FBECDBFE9969FAF8EAFE99787
:100D60001A01DC0118960D911D912D913C911B9754
:100D700061960CAF1DAF2EAF3FAF61971C960D91E2
:100D80001D912D913C911F9709831A832B833C83DE
:100D900050960D911D912D913C9153970D831E837B
:100DA0002F83388754960D911D912D913C91579723
:100DB00009871A872B873C87E6966FAFE697E796F9
:100DC0007FAFE797A85ABF4F6396BFAFAEAF6397A9
:100DD000FC01E45AFF4F6596FFAFEEAF65978C01BB
:100DE000005A1F4F67961FAF0EAF67979C012C5993
:100DF0003F4F69963FAF2EAF699788599F4F6B96CB
:100E00009FAF8EAF6B97E996AEADBFADE997A45992
:100E1000BF4F6D96BFAFAEAF6D97E996EEADFFAD2C
:100E2000E997E059FF4F6F96FFAFEEAF6F97E996E6
:100E30000EAD1FADE9970C581F4FA1961FAF0EAF17
:100E4000A197E9962EAD3FADE99728583F4FA3965D
:100E50003FAF2EAFA397E9968EAD9FADE99784582B
:100E60009F4FA5969FAF8EAFA597E996AEADBFAD4C
:100E7000E997A058BF4FA796BFAFAEAFA797E99627
:100E8000EEADFFADE997EC57FF4FA996FFAFEEAF80
:100E9000A997E9960EAD1FADE99708571F4FAB967E
:100EA0001FAF0EAFAB97E9962EAD3FADE997245734
:100EB0003F4FAD963FAF2EAFAD97E9968EAD9FAD4C
:100EC000E99780579F4FAF969FAF8EAFAF97E99648
:100ED000AEADBFADE997AC56BF4FE196BFAFAEAF79
:100EE000E197E796AEADBFADE7970D911D912D91BE
:100EF0003C910D871E872F87388B6396EEADFFAD33
:100F00006397008311832283338361968CAD9DADFB
:100F1000AEADBFAD619788589B45A549B842800FDB
:100F2000911FA21FB31F4D815E816F817885098556
:100F30001A852B853C854027512762277327098115
:100F40001A812B813C81402351236223732309851D
:100F50001A852B853C854027512762277327840FEC
:100F6000951FA61FB71F8C019D0147E0000F111FA1
:100F7000221F331F4A95D1F7AC01BD01E9E17695F7
:100F8000679557954795EA95D1F7402B512B622BE2
:100F9000732B89819A81AB81BC81480F591F6A1FCD
:100FA0007B1FE796AEADBFADE79714960D911D91EF
:100FB0002D913C911797098B1A8B2B8B3C8B659647
:100FC000EEADFFAD6597008311832283338389855E
:100FD0009A85AB85BC858A5A9844A843B741800F4F
:100FE000911FA21FB31FC980DA80EB80FC800D81A6
:100FF0001E812F813885C026D126E226F326C42201
:10100000D522E622F722C026D126E226F3268C0D31
:101010009D1DAE1DBF1D8C019D01FCE0000F111F29
:10102000221F331FFA95D1F76C017D01A4E1F694DC
:10103000E794D794C794AA95D1F7C02AD12AE22A77
:10104000F32AC40ED51EE61EF71EE796AEADBFAD61
:10105000E79718968D919D910D90BC91A02D8D8B49
:101060009E8BAF8BB88F6796EEADFFAD6797808391
:101070009183A283B3838D819E81AF81B885855290
:101080009F48AF4DBB4D0D891E892F89388D800F2C
:10109000911FA21FB31F49805A806B807C80442619
:1010A0005526662677264C205D206E207F200981FC
:1010B0001A812B813C814026512662267326840D9D
:1010C000951DA61DB71D8C019D01EFE03695279556
:1010D00017950795EA95D1F72C013D01F1E1440CF4
:1010E000551C661C771CFA95D1F7402A512A622AB2
:1010F000732A4C0C5D1C6E1C7F1CE796AEADBFAD19
:10110000E7971C968D919D910D90BC91A02D898F94
:101110009A8FAB8FBC8F6996EEADFFAD69978083D8
:101120009183A283B38389819A81AB81BC818251EF
:101130009143A244BE43098D1A8D2B8D3C8D800FA7
:10114000911FA21FB31F8A019B010C251D252E256F
:101150003F2504211521262137210427152726277D
:101160003727800F911FA21FB31F4C015D011AE0AA
:10117000B694A794979487941A95D1F78C019D0102
:1011800086E1000F111F221F331F8A95D1F708290E
:1011900019292A293B29040D151D261D371DE796FF
:1011A000AEADBFADE79750968D919D910D90BC91DE
:1011B000A02D8D8F9E8FAF8FB8A36B96EEADFFAD38
:1011C0006B9780839183A283B3838155904FA3480B
:1011D000BA40840F951FA61FB71FB701A60144256B
:1011E00055256625772540235123622373234C25FB
:1011F0005D256E257F25840F951FA61FB71F4C0107
:101200005D0147E0880C991CAA1CBB1C4A95D1F7CC
:10121000AC01BD01E9E17695679557954795EA954B
:10122000D1F7482959296A297B29400F511F621F8C
:10123000731FE796AEADBFADE79754968D919D9124
:101240000D90BC91A02D89A39AA3ABA3BCA36D96CE
:10125000EEADFFAD6D9780839183A283B383865DEE
:101260009943A847B84B8C0D9D1DAE1DBF1D730142
:101270006201C026D126E226F326C422D522E62228
:10128000F722C424D524E624F7248C0D9D1DAE1D21
:10129000BF1D4C015D01FCE0880C991CAA1CBB1C05
:1012A000FA95D1F76C017D01A4E1F694E794D79407
:1012B000C794AA95D1F7C828D928EA28FB28C40ED4
:1012C000D51EE61EF71EE796AEADBFADE797589662
:1012D0008D919D910D90BC91A02D8DA39EA3AFA348
:1012E000B8A76F96EEADFFAD6F9780839183A28311
:1012F000B3838D5E994BAF4CB745840D951DA61DEC
:10130000B71D2801390144265526662677264C202C
:101310005D206E207F204026512662267326840D94
:10132000951DA61DB71D4C015D01EFE0B694A79475
:1013300097948794EA95D1F72C013D01F1E1440C93
:10134000551C661C771CFA95D1F7482859286A283D
:101350007B284C0C5D1C6E1C7F1CE796AEADBFADB0
:10136000E7975C968D919D910D90BC91A02D89A7DA
:101370009AA7ABA7BCA7A196EEADFFADA1978083BE
:101380009183A283B3838F5F9A46A94BB240800FAB
:10139000911FA21FB31F8A019B010C251D252E251D
:1013A0003F2504211521262137210427152726272B
:1013B0003727800F911FA21FB31F4C015D011AE058
:1013C000B694A794979487941A95D1F78C019D01B0
:1013D00086E1000F111F221F331F8A95D1F70829BC
:1013E00019292A293B29040D151D261D371DE796AD
:1013F000AEADBFADE79790968D919D910D90BC914C
:10140000A02D8DA79EA7AFA7B8ABA396EEADFFAD5D
:10141000A39780839183A283B38388529746AF4773
:10142000B649840F951FA61FB71FB701A601442513
:1014300055256625772540235123622373234C25A8
:101440005D256E257F25840F951FA61FB71F4C01B4
:101450005D0147E0880C991CAA1CBB1C4A95D1F77A
:10146000AC01BD01E9E17695679557954795EA95F9
:10147000D1F7482959296A297B29400F511F621F3A
:10148000731FE796AEADBFADE79794968D919D9192
:101490000D90BC91A02D89AB9AABABABBCABA59624
:1014A000EEADFFADA59780839183A283B383815571
:1014B0009840AB4BB4478C0D9D1DAE1DBF1D7301F5
:1014C0006201C026D126E226F326C422D522E622D6
:1014D000F722C424D524E624F7248C0D9D1DAE1DCF
:1014E000BF1D4C015D01FCE0880C991CAA1CBB1CB3
:1014F000FA95D1F76C017D01A4E1F694E794D794B5
:10150000C794AA95D1F7C828D928EA28FB28C40E81
:10151000D51EE61EF71EE796AEADBFADE7979896CF
:101520008D919D910D90BC91A02D8DAB9EABAFABDD
:10153000B8AFA796EEADFFADA79780839183A28346
:10154000B3838F54944AA109B109840D951DA61D3A
:10155000B71D2801390144265526662677264C20DA
:101560005D206E207F204026512662267326840D42
:10157000951DA61DB71D4C015D01EFE0B694A79423
:1015800097948794EA95D1F72C013D01F1E1440C41
:10159000551C661C771CFA95D1F7482859286A28EB
:1015A0007B284C0C5D1C6E1C7F1CE796AEADBFAD5E
:1015B000E7979C968D919D910D90BC91A02D89AF40
:1015C0009AAFABAFBCAFA996EEADFFADA997808344
:1015D0009183A283B38382549842A34AB647800F73
:1015E000911FA21FB31F8A019B010C251D252E25CB
:1015F0003F250421152126213721042715272627D9
:101600003727800F911FA21FB31F4C015D011AE005
:10161000B694A794979487941A95D1F78C019D015D
:1016200086E1000F111F221F331F8A95D1F7082969
:1016300019292A293B29040D151D261D371DE7965A
:10164000AEADBFADE797D0968D919D910D90BC91B9
:10165000A02D21968CAF9DAFAEAFBFAF2197AB96BB
:10166000EEADFFADAB9780839183A283B3834C0132
:101670005D01FEED8F1AFEEE9F0AFFE6AF0AF4E968
:10168000BF0A840E951EA61EB71EB701A6014425EB
:1016900055256625772540235123622373234C2546
:1016A0005D256E257F25480D591D6A1D7B1D4A014C
:1016B0005B0197E0880C991CAA1CBB1C9A95D1F77A
:1016C000E9E17695679557954795EA95D1F74829C9
:1016D00059296A297B29400F511F621F731FE79602
:1016E000AEADBFADE797D4968D919D910D90BC9115
:1016F000A02D25968CAF9DAFAEAFBFAF2597AD9611
:10170000EEADFFADAD9780839183A283B3834C018F
:101710005D01FDE68F1AFEE89F0AF7E6AF0AF2E0E8
:10172000BF0A8C0C9D1CAE1CBF1C73016201C0263D
:10173000D126E226F326C422D522E622F722C424AB
:10174000D524E624F724C80CD91CEA1CFB1C46014E
:101750005701FCE0880C991CAA1CBB1CFA95D1F718
:10176000A4E1F694E794D794C794AA95D1F7C82832
:10177000D928EA28FB28C40ED51EE61EF71EE796D8
:10178000AEADBFADE797D8968D919D910D90BC9170
:10179000A02D29968CAF9DAFAEAFBFAF2997AF9666
:1017A000EEADFFADAF9780839183A283B3834C01ED
:1017B0005D01F2E78F1AFCEB9F0AF6E8AF0AF9E544
:1017C000BF0A840C951CA61CB71C280139014426AD
:1017D0005526662677264C205D206E207F204026E9
:1017E000512662267326480C591C6A1C7B1C530127
:1017F0004201BFE0B694A79497948794BA95D1F725
:1018000081E1440C551C661C771C8A95D1F7482849
:1018100059286A287B284C0C5D1C6E1C7F1CE7969F
:10182000AEADBFADE797DC968D919D910D90BC91CB
:10183000A02D2D968CAF9DAFAEAFBFAF2D97E1968B
:10184000EEADFFADE19780839183A283B3834C011A
:101850005D01FFED8F1AF7EF9F0AFBE4AF0AF6EB8D
:10186000BF0A800E911EA21EB31E8A019B010C2589
:101870001D252E253F25042115212621372104274A
:10188000152726273727080D191D2A1D3B1D48013E
:1018900059019AE0B694A794979487949A95D1F7B2
:1018A000E6E1000F111F221F331FEA95D1F7082927
:1018B00019292A293B29040D151D261D371D898844
:1018C0009A88AB88BC888EE9881A8AED980A81EEDE
:1018D000A80A89E0B80A840E951EA61EB71EB30199
:1018E000A20140275127622773274C215D216E21D9
:1018F0007F214425552566257725480D591D6A1DEC
:101900007B1D4A015B01F5E0880C991CAA1CBB1CDD
:10191000FA95D1F7ABE17695679557954795AA95D6
:10192000D1F7482959296A297B29400F511F621F85
:10193000731F8DA09EA0AFA0B8A490EC891A9CE460
:10194000990A9FEBA90A9FE3B90A8C0C9D1CAE1C57
:10195000BF1C68017901C426D526E626F726C420D7
:10196000D520E620F720C026D126E226F326C80C93
:10197000D91CEA1CFB1C46015701B9E0880C991CD4
:10198000AA1CBB1CBA95D1F787E1F694E794D794CB
:10199000C7948A95D1F7C828D928EA28FB28C40E0D
:1019A000D51EE61EF71E89AC9AACABACBCACAFEA58
:1019B0008A1AA5EA9A0AA1EAAA0AA9EDBA0A840C27
:1019C000951CA61CB71C2A013B014C245D246E24E7
:1019D0007F24402251226222732244265526662605
:1019E0007726480C591C6A1C7B1C530142019EE05F
:1019F000880C991CAA1CBB1C9A95D1F7E2E176943D
:101A0000679457944794EA95D1F7482859286A284B
:101A10007B284C0C5D1C6E1C7F1C8D849E84AF84C7
:101A2000B888B6E58B1AB8E39B0AB9E4AB0AB6E10D
:101A3000BB0A800E911EA21EB31E970186010425CB
:101A400015252625372504231523262337230C2582
:101A50001D252E253F25080D191D2A1D3B1D48015A
:101A60005901FCE0B694A79497948794FA95D1F71E
:101A7000A4E1000F111F221F331FAA95D1F70829D7
:101A800019292A293B29040D151D261D371D89A05A
:101A90009AA0ABA0BCA0E3EA8E1AEFEE9E0AE0ED9E
:101AA000AE0AE9E2BE0A840E951EA61EB71EB30159
:101AB000A20140275127622773274C215D216E2107
:101AC0007F214425552566257725480D591D6A1D1A
:101AD0007B1D4A015B01B5E0880C991CAA1CBB1C4C
:101AE000BA95D1F78BE176956795579547958A9585
:101AF000D1F7482959296A297B29400F511F621FB4
:101B0000731F8DA89EA8AFA8B8ACFDEA8F1AFBEE94
:101B10009F0AFBEBAF0AFDEFBF0A8C0C9D1CAE1CAD
:101B2000BF1C68017901C426D526E626F726C42005
:101B3000D520E620F720C026D126E226F326C80CC1
:101B4000D91CEA1CFB1C4601570199E0880C991C22
:101B5000AA1CBB1C9A95D1F7E7E1F694E794D794B9
:101B6000C794EA95D1F7C828D928EA28FB28C40EDB
:101B7000D51EE61EF71E2D968CAC9DACAEACBFAC50
:101B80002D978FE7881A89E1980A8EE5A80A87E2DF
:101B9000B80A840C951CA61CB71C2A013B014C24D6
:101BA0005D246E247F244022512262227322442627
:101BB000552666267726480C591C6A1C7B1C530147
:101BC0004201FEE0880C991CAA1CBB1CFA95D1F7B7
:101BD000A2E17694679457944794AA95D1F7482840
:101BE00059286A287B284C0C5D1C6E1C7F1C8D8C30
:101BF0009E8CAF8CB8A098E3891A94E0990A9CE275
:101C0000A90A98E1B90A800E911EA21EB31E97017F
:101C1000860104251525262537250423152326238B
:101C200037230C251D252E253F25080D191D2A1D9E
:101C30003B1D48015901BCE0B694A7949794879442
:101C4000BA95D1F784E1000F111F221F331F8A9527
:101C5000D1F7082919292A293B29040D151D261D0C
:101C6000371D89A89AA8ABA8BCA8AAE18A1AA2E342
:101C70009A0AAEE1AA0AAEEDBA0A840E951EA61E15
:101C8000B71EB301A20140275127622773274C21B9
:101C90005D216E217F214425552566257725480D38
:101CA000591D6A1D7B1D4A015B0195E0880C991C3A
:101CB000AA1CBB1C9A95D1F7EBE1769567955795D1
:101CC0004795EA95D1F7482959296A297B29400F78
:101CD000511F621F731F29968CAC9DACAEACBFAC7C
:101CE0002997BAE28B1AB8EF9B0AB8ECAB0ABCE3AF
:101CF000BB0A8C0C9D1CAE1CBF1C68017901C4265C
:101D0000D526E626F726C420D520E620F720C026D3
:101D1000D126E226F326C80CD91CEA1CFB1C46017E
:101D20005701F9E0880C991CAA1CBB1CFA95D1F745
:101D3000A7E1F694E794D794C794AA95D1F7C82859
:101D4000D928EA28FB28C40ED51EE61EF71E898C6A
:101D50009A8CAB8CBC8CE9E78E1AE2EF9E0AEAE221
:101D6000AE0AEBE0BE0A840C951CA61CB71C2A0127
:101D70003B014C245D246E247F24402251226222A8
:101D800073224426552666267726480C591C6A1C61
:101D90007B1C53014201BEE0880C991CAA1CBB1C91
:101DA000BA95D1F782E176946794579447948A95CF
:101DB000D1F7482859286A287B284C0C5D1C6E1CDA
:101DC0007F1C8DA49EA4AFA4B8A8F3E18F1AFBEEEC
:101DD0009F0AF5EAAF0AFAEBBF0A800E911EA21E17
:101DE000B31E9701860104251525262537250423D2
:101DF0001523262337230C251D252E253F25080DC9
:101E0000191D2A1D3B1D480159019CE0B694A79459
:101E1000979487949A95D1F7E4E1000F111F221F40
:101E2000331FEA95D1F7082919292A293B29040DDE
:101E3000151D261D371D25968CAC9DACAEACBFACD8
:101E400025978BEF881A86E1980A8CE1A80A86E527
:101E5000B80A840E951EA61EB71EB301A201402724
:101E60005127622773274C215D216E217F21442554
:101E7000552566257725480D591D6A1D7B1D4A018C
:101E80005B01F5E0880C991CAA1CBB1CFA95D1F7E4
:101E9000ABE17695679557954795AA95D1F748296F
:101EA00059296A297B29400F511F621F731F8D8892
:101EB0009E88AF88B88C98E0891A9CE5990A90E1D1
:101EC000A90A93E0B90A8C0C9D1CAE1CBF1C6801CA
:101ED0007901C426D526E626F726C420D520E6209B
:101EE000F720C026D126E226F326C80CD91CEA1C0E
:101EF000FB1C46015701B9E0880C991CAA1CBB1CAD
:101F0000BA95D1F787E1F694E794D794C7948A9568
:101F1000D1F7C828D928EA28FB28C40ED51EE61E0A
:101F2000F71E89A49AA4ABA4BCA4A7E28A1AADEFB9
:101F30009A0AA0E9AA0AA8E9BA0A840C951CA61C68
:101F4000B71C2A013B014C245D246E247F244022CF
:101F50005122622273224426552666267726480C93
:101F6000591C6A1C7B1C530142019EE0880C991C81
:101F7000AA1CBB1C9A95D1F7E2E17694679457941A
:101F80004794EA95D1F7482859286A287B284C0CB1
:101F90005D1C6E1C7F1C4601570184249524A624D9
:101FA000B72421968CAD9DADAEADBFAD21978657C0
:101FB000934BA54DB247800F911FA21FB31F9501F0
:101FC000840104231523262337230C251D252E25C4
:101FD0003F25800F911FA21FB31F8C019D01FCE0C4
:101FE0003695279517950795FA95D1F7E5960CAF95
:101FF0001DAF2EAF3FAFE5978C019D01A4E1000F0F
:10200000111F221F331FAA95D1F7E5968CAD9DAD08
:10201000AEADBFADE597082B192B2A2B3B2B040D3A
:10202000151D261D371D89A19AA1ABA1BCA18E5BF0
:10203000964CA540B109840F951FA61FB71F802697
:102040009126A226B326880E991EAA1EBB1ED50174
:10205000C40144E0880F991FAA1FBB1F4A95D1F7FE
:102060005CE1B694A794979487945A95D1F7882AFF
:10207000992AAA2ABB2A800E911EA21EB31E4DA524
:102080005EA56FA578A94F5759406E4878474C0D0B
:102090005D1D6E1D7F1D73016201C026D126E226E3
:1020A000F326C824D924EA24FB24C40ED51EE61E38
:1020B000F71EB701A601EBE0440F551F661F771FFF
:1020C000EA95D1F7F5E1F694E794D794C794FA9599
:1020D000D1F7C42AD52AE62AF72AC80CD91CEA1C4B
:1020E000FB1C49AD5AAD6BAD7CAD4E5D5E496246A1
:1020F0007249440E551E661E771EB901A801482577
:1021000059256A257B254C255D256E257F25440EA6
:10211000551E661E771ED20123013D014C0C5D1C2D
:102120006E1C7F1C29964CAD5DAD6EAD7FAD2997C1
:10213000445F574C6A417240400F511F621F731F2A
:10214000950184010C251D252E253F2504251525E7
:1021500026253725040F151F261F371FB901A80193
:10216000A9E07695679557954795AA95D1F7B7E178
:10217000000F111F221F331FBA95D1F7042B152B07
:10218000262B372B040D151D261D371D49895A890D
:102190006B897C894C5B554161447B45480D591DD9
:1021A0006A1D7B1D4601570184249524A624B7246B
:1021B00080269126A226B326840E951EA61EB71E43
:1021C000B501A40184E0440F551F661F771F8A954F
:1021D000D1F79CE1B694A794979487949A95D1F7F8
:1021E000842A952AA62AB72A800E911EA21EB31E03
:1021F0004D8D5E8D6F8D78A1475550436142744B74
:10220000C40ED51EE61EF71EB301A20140275127BA
:1022100062277327482559256A257B254C0D5D1DAE
:102220006E1D7F1DDB01CA01EBE0880F991FAA1FFD
:10223000BB1FEA95D1F7F5E17695679557954795D8
:10224000FA95D1F7482B592B6A2B7B2B480D591D3A
:102250006A1D7B1DC9A4DAA4EBA4FCA4B0EACB1AC6
:10226000B4EBDB0AB4E4EB0AB9E0FB0A4C0C5D1CEE
:102270006E1C7F1C68017901C824D924EA24FB2440
:10228000C426D526E626F7264C0C5D1C6E1C7F1C4A
:10229000F20123013F01440E551E661E771ECDA894
:1022A000DEA8EFA8F8ACF0E9CF1AF3E4DF0AF0E417
:1022B000EF0AF1E4FF0AC00ED11EE21EF31E9501E3
:1022C00084010427152726273727042515252625C9
:1022D00037250C0D1D1D2E1D3F1D68017901A9E03C
:1022E000F694E794D794C794AA95D1F7B7E1000F75
:1022F000111F221F331FBA95D1F70C291D292E2932
:102300003F29040D151D261D371D2596CCACDDACCF
:10231000EEACFFAC25978AE3C81A81E8D80A84E6B8
:10232000E80A87EDF80AC80CD91CEA1CFB1C4A0114
:102330005B0184249524A624B72480269126A22616
:10234000B3268C0C9D1CAE1CBF1C7501640184E07F
:10235000CC0CDD1CEE1CFF1C8A95D1F79CE1B694D9
:10236000A794979487949A95D1F78C289D28AE28A6
:10237000BF28800E911EA21EB31ECD84DE84EF8482
:10238000F88896E0C91A98EDD90A9EE5E90A95E120
:10239000F90AC40ED51EE61EF71EB301A20140279E
:1023A000512762277327482559256A257B254C0D1F
:1023B0005D1D6E1D7F1D6A017B01EBE0CC0CDD1CF9
:1023C000EE1CFF1CEA95D1F7F5E1769567955795D8
:1023D0004795FA95D1F74C295D296E297F29480D3B
:1023E000591D6A1D7B1DC98CDA8CEB8CFC8CABE70C
:1023F000CA1AAFECDA0AA0E1EA0AABE2FA0A4C0C1C
:102400005D1C6E1C7F1C68017901C824D924EA2454
:10241000FB24C426D526E626F7264C0C5D1C6E1C34
:102420007F1CF20123013F01440E551E661E771EDC
:10243000CDA0DEA0EFA0F8A4FBEFCF1AF2EEDF0AEA
:10244000F7E7EF0AFBEFFF0AC00ED11EE21EF31EF4
:1024500095018401042715272627372704251525EC
:10246000262537250C0D1D1D2E1D3F1D68017901E8
:10247000A9E0F694E794D794C794AA95D1F7B7E169
:10248000000F111F221F331FBA95D1F70C291D29E8
:102490002E293F29040D151D261D371DC9A8DAA8B0
:1024A000EBA8FCA887ECC81A8FE2D80A8BE2E80AEE
:1024B00086E2F80AC80CD91CEA1CFB1C4A015B0125
:1024C00084249524A624B72480269126A226B32608
:1024D0008C0C9D1CAE1CBF1C7501640184E0CC0CEF
:1024E000DD1CEE1CFF1C8A95D1F79CE1B694A794E5
:1024F000979487949A95D1F78C289D28AE28BF2869
:10250000800E911EA21EB31E2196CCACDDACEEACAB
:10251000FFAC21979BE1C91A96E6D90A94E2E90A31
:1025200099E1F90AC40ED51EE61EF71EB301A201F9
:102530004027512762277327482559256A257B257F
:102540004C0D5D1D6E1D7F1D6A017B01EBE0CC0C07
:10255000DD1CEE1CFF1CEA95D1F7F5E17695679539
:1025600057954795FA95D1F74C295D296E297F2912
:10257000480D591D6A1D7B1D2D96CCACDDACEEAC13
:10258000FFAC2D97A8E0CA1AA3E8DA0AADE5EA0A7B
:10259000A0EEFA0A4C0C5D1C6E1C7F1C68017901D0
:1025A000C824D924EA24FB24C426D526E626F72607
:1025B0004C0C5D1C6E1C7F1CF20123013F01440E7C
:1025C000551E661E771ECD88DE88EF88F88CFBE9E5
:1025D000CF1AF9EADF0AF3E5EF0AFBE3FF0AC00EC0
:1025E000D11EE21EF31E950184010427152726271C
:1025F000372704251525262537250C0D1D1D2E1DD5
:102600003F1D68017901A9E0F694E794D794C79437
:10261000AA95D1F7B7E1000F111F221F331FBA95FA
:10262000D1F70C291D292E293F29040D151D261D22
:10263000371DCD84DE84EF84F8888CEBC81A8DEDCD
:10264000D80A86EDE80A8BE0F80AC80CD91CEA1C07
:10265000FB1C4A015B0180949094A094B094802A62
:10266000912AA22AB32A84249524A624B7248C0C68
:102670009D1CAE1CBF1C7501640186E0CC0CDD1CEA
:10268000EE1CFF1C8A95D1F79AE1B694A794979413
:1026900087949A95D1F78C289D28AE28BF28800E64
:1026A000911EA21EB31EC9A4DAA4EBA4FCA499E651
:1026B000C91AD10895EDE90A9CEBF90AC40ED51E9A
:1026C000E61EF71EB301A2014095509560957095E6
:1026D000482959296A297B294027512762277327CE
:1026E0004C0D5D1D6E1D7F1D6A017B01EAE0CC0C67
:1026F000DD1CEE1CFF1CEA95D1F7F6E17695679597
:1027000057954795FA95D1F74C295D296E297F2970
:10271000480D591D6A1D7B1D2996CCACDDACEEAC75
:10272000FFAC2997A9E5CA1AACEDDA0AABE6EA0ACA
:10273000A4E5FA0AC40CD51CE61CF71C28013901D3
:102740004094509460947094442A552A662A772ABB
:10275000482459246A247B244C0C5D1C6E1C7F1C6D
:1027600073016201AFE0CC0CDD1CEE1CFF1CAA95CE
:10277000D1F7B1E17694679457944794BA95D1F71D
:102780004C285D286E287F28440E551E661E771E35
:10279000C9A0DAA0EBA0FCA0B7ECCB1ABFE5DB0A1E
:1027A000BCE6EB0AB3E0FB0AC00ED11EE21EF31E2C
:1027B00095018401009510952095309504291529DF
:1027C0002629372904271527262737270C0D1D1DF5
:1027D0002E1D3F1D680179018BE0F694E794D79494
:1027E000C7948A95D1F795E1000F111F221F331F5F
:1027F0009A95D1F70C291D292E293F29040D151D65
:10280000261D371D2196CCACDDACEEACFFAC21977C
:10281000EDE3CE1AE6EADE0AE4EAEE0AEAE9FE0AA7
:10282000C80CD91CEA1CFB1C4A015B0180949094E3
:10283000A094B094802A912AA22AB32A84249524B1
:10284000A624B7248C0C9D1CAE1CBF1C7501640112
:10285000E6E0CC0CDD1CEE1CFF1CEA95D1F7FAE19A
:10286000B694A79497948794FA95D1F78C289D28CD
:10287000AE28BF28800E911EA21EB31EC98CDA8C12
:10288000EB8CFC8CFEE6CF1AF3E3DF0AF3EFEF0AE2
:10289000F0E7FF0AC40ED51EE61EF71EB301A20123
:1028A0004095509560957095482959296A297B294A
:1028B00040275127622773274C0D5D1D6E1D7F1D1C
:1028C0006A017B01AAE0CC0CDD1CEE1CFF1CAA9562
:1028D000D1F7B6E17695679557954795BA95D1F7B3
:1028E0004C295D296E297F29480D591D6A1D7B1DC4
:1028F000CDA8DEA8EFA8F8AC83E8C81A8BE0D80A08
:1029000080E1E80AF108C40CD51CE61CF71C28017C
:1029100039014094509460947094442A552A662A50
:10292000772A482459246A247B244C0C5D1C6E1C95
:102930007F1C730162018FE0CC0CDD1CEE1CFF1CC0
:102940008A95D1F791E176946794579447949A9534
:10295000D1F74C285D286E287F28440E551E661E30
:10296000771EC988DA88EB88FC889FE2C91A92EA48
:10297000D90A9BE7E90A9AE7F90AC00ED11EE21EBE
:10298000F31E95018401009510952095309504293A
:1029900015292629372904271527262737270C0D1F
:1029A0001D1D2E1D3F1D68017901EBE0F694E79493
:1029B000D794C794EA95D1F7F5E1000F111F221FB4
:1029C000331FFA95D1F70C291D292E293F29040D13
:1029D000151D261D371DCDA4DEA4EFA4F8A8A1EB7C
:1029E000CA1AA1E8DA0AA7E5EA0AA0E9FA0AC80CB5
:1029F000D91CEA1CFB1C4A015B0180949094A094B2
:102A0000B094802A912AA22AB32A84249524A62449
:102A1000B7248C0C9D1CAE1CBF1C75016401A6E084
:102A2000CC0CDD1CEE1CFF1CAA95D1F7BAE1B694C4
:102A3000A79497948794BA95D1F78C289D28AE28AF
:102A4000BF28800E911EA21EB31E2D968CAD9DAD8B
:102A5000AEADBFAD2D9780529941A34DB140840FCB
:102A6000951FA61FB71FB301A20140955095609511
:102A70007095482959296A297B29402751276227BF
:102A80007327840F951FA61FB71F6C017D014AE0B5
:102A9000CC0CDD1CEE1CFF1C4A95D1F7AC01BD012E
:102AA000E6E17695679557954795EA95D1F74C29D4
:102AB0005D296E297F29480D591D6A1D7B1D8DA139
:102AC0009EA1AFA1B8A58C5E9C4BAE4FBC45840DBA
:102AD000951DA61DB71D280139014094509460949E
:102AE0007094442A552A662A772A482459246A244D
:102AF0007B24840D951DA61DB71D6C017D01FFE093
:102B0000CC0CDD1CEE1CFF1CFA95D1F72C013D010D
:102B1000A1E17694679457944794AA95D1F74C28ED
:102B20005D286E287F28440E551E661E771E25964A
:102B30008CAD9DADAEADBFAD25978F559E4EA74FC9
:102B4000B14B800F911FA21FB31F95018401009507
:102B50001095209530950429152926293729042711
:102B6000152726273727800F911FA21FB31F6C013F
:102B70007D011BE0F694E794D794C7941A95D1F79A
:102B80008C019D0185E1000F111F221F331F8A95C3
:102B9000D1F70C291D292E293F29040D151D261DAD
:102BA000371D8D8D9E8DAF8DB8A18E579148AC4A43
:102BB000B840880D991DAA1DBB1D4A015B01809478
:102BC0009094A094B094802A912AA22AB32A8424B3
:102BD0009524A624B724880D991DAA1DBB1D6C0140
:102BE0007D01E6E0CC0CDD1CEE1CFF1CEA95D1F764
:102BF0004C015D01FAE1B694A79497948794FA95F5
:102C0000D1F78C289D28AE28BF28800E911EA21EC9
:102C1000B31E89AD9AADABADBCAD8B5C9D40A54CF0
:102C2000B244840F951FA61FB71FB301A2014095A0
:102C3000509560957095482959296A297B29402724
:102C4000512762277327840F951FA61FB71F6C019A
:102C50007D014AE0CC0CDD1CEE1CFF1C4A95D1F72F
:102C6000AC01BD01E6E17695679557954795EA95E4
:102C7000D1F74C295D296E297F29480D591D6A1D00
:102C80007B1D8D899E89AF89B88D85549D42A84250
:102C9000B54D840D951DA61DB71D28013901409421
:102CA000509460947094442A552A662A772A4824BE
:102CB00059246A247B24840D951DA61DB71D6C0123
:102CC0007D01FFE0CC0CDD1CEE1CFF1CFA95D1F75A
:102CD0002C013D01A1E17694679457944794AA95FD
:102CE000D1F74C285D286E287F28440E551E661E9D
:102CF000771E89A99AA9ABA9BCA98F569C42A9475E
:102D0000B441800F911FA21FB31F9501840100954C
:102D1000109520953095042915292629372904274F
:102D2000152726273727800F911FA21FB31F6C017D
:102D30007D011BE0F694E794D794C7941A95D1F7D8
:102D40008C019D0185E1000F111F221F331F8A9501
:102D5000D1F70C291D292E293F29040D151D261DEB
:102D6000371D61968CAD9DADAEADBFAD6197880D41
:102D7000991DAA1DBB1D61968CAF9DAFAEAFBFAFB5
:102D8000619789819A81AB81BC81800F911FA21FBD
:102D9000B31F89839A83AB83BC830D811E812F81EE
:102DA0003885040D151D261D371D0D831E832F83A9
:102DB000388789859A85AB85BC85840F951FA61FAA
:102DC000B71F89879A87AB87BC87E796AEADBFAD43
:102DD000E797A05CBF4FE796BFAFAEAFE797B0E411
:102DE0002B1A310811F00C94710761960CAD1DADD2
:102DF0002EAD3FAD6197E996AEADBFADE9971896A0
:102E00000D931D932D933C931B9709811A812B8160
:102E10003C811C960D931D932D933C931F970D8120
:102E20001E812F81388550960D931D932D933C93D1
:102E3000539709851A852B853C8554960D931D93D0
:102E40002D933C935797E7968EAD9FADE797C85863
:102E5000DF4F0FB6F894DEBF0FBECDBFDF91CF912D
:102E60001F910F91FF90EF90DF90CF90BF90AF90A8
:102E70009F908F907F906F905F904F903F902F909A
:102E800008950F931F93CF93DF93EC01062F142F18
:102E900060E08E850E94CC023C852D858091AD023C
:102EA000882381F09FB7F8948091AD02813081F53D
:102EB0008DB38093A8024DB38091AC02809584239A
:102EC0008DBB9FBF3CBD2DBD0EBD00000DB407FEE8
:102ED000FDCF8EB51EBD00000DB407FEFDCF1EB5A3
:102EE0008091AD02882351F09FB7F8942091AD02F4
:102EF0008091A802213079F48DBB9FBF61E08E855F
:102F00000E94CC02812FDF91CF911F910F910895E4
:102F10009093A802D7CF8FBFF1CFCF93DF93EC016F
:102F2000429714F0C1E1D0E044E86DEC8FEF9EE1F0
:102F30000E944117C230D10514F4C2E0D0E0C25063
:102F40004C2F406869E88FEF9EE1DF91CF910C94A0
:102F50004117CF93DF93672BB1F4EC010F9714F077
:102F6000CEE0D0E044E86DEC8FEF9EE10E94411787
:102F7000D7FDC0E04C2F406769E88FEF9EE1DF91FD
:102F8000CF910C944117DF91CF910C948D17AF9294
:102F9000BF92CF92DF92EF92FF920F931F93CF9346
:102FA0006093131F7093141F8093151F9093161F27
:102FB0006B017C01FF0CCC08DC2C76019B01AC0181
:102FC0006C2D7C2D8C2D9C2D03E10E94A72DA12C16
:102FD000E8E4BE2EF8EECF2EDD24D394E12CF12CC4
:102FE00000E010E00E944A2DC22FC22ED32E7A019B
:102FF000A7016627772766E88FEF9EE10E944117B9
:1030000077276F2D5E2D4D2D67E88FEF9EE10E9493
:1030100041174C2F68E88FEF9EE1CF911F910F91E0
:10302000FF90EF90DF90CF90BF90AF900C9441173E
:1030300040E861E88FEF9EE10E9441179FB7F89446
:103040008091AE02882319F081508093AE02809166
:10305000AE02811105C08CB58F7B8CBD1092AD0284
:103060009FBF1092601E089540E00C944117CF92CC
:10307000DF92EF92FF920F931F93CF93DF936AE15A
:103080008FEF9EE10E943418C82FD0E069E18FEFE6
:103090009EE10E943418682F880F770B880B990BDC
:1030A0000E942E2B20E030E040E85EE30E948D2B52
:1030B0000E94C42C6B018B016091131F7091141F2F
:1030C0008091151F9091161F0E942E2B24ED30E841
:1030D00043E45EE40E94272BBE0187FD10C06D59BA
:1030E000710917FF0FC06C0D7D1DCB01DF91CF91D2
:1030F0001F910F91FF90EF90DF90CF900895645A49
:103100007109EFCF072E000C880B990B0E942E2B14
:1031100020EB32E748E85FE30E948D2B0E94C42C2D
:10312000E4CF43E861E88FEF9EE10E94411762E13E
:103130008FEF9EE10E94341883FFF9CF48E062E9E7
:103140008FEF9EE10E94411781E090E00895CF92B9
:10315000DF92EF92FF926EE18FEF9EE10E943418B2
:1031600082958F70CC24C394D12C02C0CC0CDD1C72
:103170008A95E2F70D2C000CEE08FF086DE18FEF49
:103180009EE10E94341890E044E0959587954A9519
:10319000E1F78A30910534F5FC01EE0FFF1FE80FCF
:1031A000F91FEC5DFD4F608171818281082E000C5A
:1031B000990B28EE33E040E050E00E94612CC701FB
:1031C000B6010E94612C213131054105510574F091
:1031D0004CE066EA8FEF9EE1FF90EF90DF90CF909A
:1031E0000C94411760E070E0CB01E3CF44E0F1CFF5
:1031F000CF93DF93EC01863091052CF08D30910553
:1032000034F5069731F545EC61EB8FEF9EE10E94B6
:1032100041174CE067EB8FEF9EE10E944117C6E03B
:10322000D0E06EE18FEF9EE10E9434188F7094E041
:10323000CC0FDD1F9A95E1F74C2F482B6EE98FEFED
:103240009EE10E944117DF91CF910C94A718CCE02A
:10325000D0E043EC61EB8FEF9EE10E9441174AE022
:1032600067EB8FEF9EE10E944117DBCFCF93DF9397
:10327000EC01099714F0C8E0D0E06DE18FEF9EE11A
:103280000E943418C530D10514F4C5E0D0E024976D
:10329000CC0FDD1F482F417F4C2B6DE98FEF9EE156
:1032A000DF91CF910C94411710921A1F1092191FA1
:1032B0006DE18FEF9EE10E943418482F4E7F6DE93B
:1032C0008FEF9EE10C94411781E090E090931A1FDC
:1032D0008093191F6DE18FEF9EE10E943418482FF3
:1032E00041606DE98FEF9EE10C944117CF93DF931E
:1032F000EC0141E861E88FEF9EE10E944117CD2B80
:1033000099F00E94641940E06DE88FEF9EE10E9401
:10331000411740E062EA8FEF9EE10E94411781E091
:1033200090E0DF91CF9108950E945419ECCF0F9354
:103330001F93CF93DF9366E08FEF9EE10E943418D6
:10334000D82F67E08FEF9EE10E943418C82F68E005
:103350008FEF9EE10E9434184C2F50E070E060E047
:10336000762F652F542F44276D2B8A019B01082B44
:10337000C901B80120E038E448EE51E00E941D2D5B
:1033800003E10E94C22D2093300A3093310A40930A
:10339000320A5093330ADF91CF911F910F91089514
:1033A000CF92DF92EF92FF92CF93DF9360912C0A3E
:1033B00070912D0A80912E0A90912F0A0E942E2B37
:1033C0006B017C0120E030EC43EF55E40E94272B99
:1033D000D0E0C0E018160CF065C020E030E842E212
:1033E00056E4C701B6010E94272BC1E0D0E01816B1
:1033F0000CF058C020E030EC43E756E4C701B601BA
:103400000E94272BC2E0D0E018160CF04BC020E041
:1034100030E842EA56E4C701B6010E94272BC3E018
:10342000D0E018160CF03EC020E034E244EF56E441
:10343000C701B6010E94272BC4E0D0E0181694F50E
:1034400020E034EE42E257E4C701B6010E94272B88
:10345000C5E0D0E0181634F520E034E244E757E444
:10346000C701B6010E94272BC6E0D0E01816D4F49D
:1034700020E034E244EF57E4C701B6010E94272B55
:10348000C7E0D0E0181674F420E034E244E758E4D2
:10349000C701B6010E94272BC9E0D0E0181614F02E
:1034A000C8E0D0E06DE18FEF9EE10E9434188F708C
:1034B00044E0CC0FDD1F4A95E1F74C2F482B6DE916
:1034C0008FEF9EE10E9441170E94A7188091601E15
:1034D000882319F16DE18FEF9EE10E94341890E08E
:1034E00034E0959587953A95E1F78A309105E4F4B3
:1034F000FC01EE0FFF1FE80FF91FEC5DFD4F80810F
:103500009181A2810A2E000CBB0B80932C0A909310
:103510002D0AA0932E0AB0932F0ADF91CF91FF902E
:10352000EF90DF90CF90089580E090E0DC01EDCF48
:1035300068E18FEF9EE10E9434189FB7F8944091A4
:103540001D0850911E0860911F08709120089FBFB0
:103550004093210850932208609323087093240815
:1035600080FF2AC081E08093B3028093B2028093EF
:10357000B1028091AF029091B0022091B30221116B
:1035800008C02091B202211104C02091B10222236F
:1035900001F18F309105B8F401969093B0028093B9
:1035A000AF0281E080935D1E80915C1E8823F1F064
:1035B00061E08CE00C94CC021092B3021092B20243
:1035C0001092B102D6CF81E080935D1E80935C1E85
:1035D000EBCF009741F001979093B0028093AF0238
:1035E00010925D1EE1CF10925C1EFACF0C941C0667
:1035F000CF93DF9362E18FEF9EE10E943418C82FD2
:10360000482F62E98FEF9EE10E944117C5FD2DC052
:103610001092181F1092171F8091191F90911A1F56
:1036200062E2892B09F463E18FEF9EE10E94341876
:10363000C82FD0E060E18FEF9EE10E943418482F40
:103640006DE88FEF9EE10E944117E0911B1FF09102
:103650001C1F309711F0CE01199540E06DE88FEFF7
:103660009EE1DF91CF910C944117DF91CF910895A6
:1036700008950F931F93CF93DF93EC01E881F981B5
:103680000084F185E02D1995892BB1F06DE0CE0114
:103690000E943418082F60E0CE010E943418182FC1
:1036A000402F6DE8CE010E944117812F90E0DF91FD
:1036B000CF911F910F9108958FEF9FEFF8CFCF9388
:1036C000DF93EC01E881F9810084F185E02D199503
:1036D000892B69F0888D998D0196998F888F60E08C
:1036E000CE010E94341890E0DF91CF9108958FEFC2
:1036F0009FEFFACFCF93DF93EC012097E1F0219772
:103700008091AA029091AB028C3F9140A0F48FEF80
:103710009EE10E945F1B2091AA023091AB02A90199
:103720004F5F5F4F5093AB024093AA02205E3C4F25
:10373000F9018083E2CFDF91CF9108950F931F931A
:10374000CF93DF93EC018091290A811178C08FEF2C
:103750009EE10E945F1B21974091000280FF55C0AF
:103760009C0154E0359527955A95E1F72F70332742
:103770004F3FD1F41092AB021092AA0220930002A4
:103780000E943718909302028093010269E18FEF43
:103790009EE10E9434188093A902CE01DF91CF915F
:1037A0001F910F910C947A1B2413E4CF0E943718B9
:1037B0002091010230910202820F931F97FD019622
:1037C0009595879590930202809301020091A9023A
:1037D00010E069E18FEF9EE10E943418800F912F75
:1037E000911D959587958093A902CE010E947A1B21
:1037F0008FEF809300020E94E3050E94D305DF91C2
:10380000CF911F910F910C94E4044F3F39F0109227
:10381000AB021092AA028FEF809300020E94371829
:10382000909302028093010269E18FEF9EE10E9472
:1038300034188093A902CE010E947A1BDCCF10922B
:10384000AB021092AA02EACFCF93DF93EC0163E1BF
:103850000E94341890E0288D398D821B930BDF91E4
:10386000CF910895AF92BF92CF92DF92FF920F93C4
:103870001F93CF93DF936C015B01EA0162E20E9428
:103880003418F82E90E09C012C0F3D1F2F3F31057E
:1038900029F020F0CFEFD0E0C81BD90B8501AC0E8A
:1038A000BD1E0A151B0541F0F80141918F0160E82A
:1038B000C6010E944117F5CF4C2F4F0D62EAC60199
:1038C0000E944117CE01DF91CF911F910F91FF9080
:1038D000DF90CF90BF90AF900895CF93DF931F926A
:1038E000CDB7DEB76983DC01ED91FC910280F381F5
:1038F000E02D41E050E0BE016F5F7F4F19950F90C2
:10390000DF91CF91089590E080E008958091BA0210
:10391000823A49F470E060E08091160290911702BB
:103920000E94A9170895833AA9F3843A99F3873A34
:1039300039F480911602909117020E948D17089514
:10394000883AB9F3893AA9F3833B99F3843B89F325
:10395000883B79F3893B69F3843C59F3893C31F422
:1039600080911602909117020C948D17843EC1F33A
:10397000893EB1F38E3FA1F38F3F41F470E060E0E8
:1039800080911602909117020C94A9170895CF9375
:103990008091270A811103C00E9454190CC0C09164
:1039A000280ACC23C9F30E9464194C2F62EA8FEFD6
:1039B0009EE10E94411745E861E88FEF9EE1CF91BB
:1039C0000C944117CF92DF92EF92FF92CF93DF9347
:1039D0000E94B804D091601ED11190C18091130251
:1039E000811185C1C0915B1ECC2309F480C1C090B8
:1039F000300AD090310AE090320AF090330A61E048
:103A000080910D1F0E94580361E080910D1F0E945C
:103A1000CC0280910F1F9091101F8F3F9807C9F023
:103A200061E00E94580360E080910F1F0E94CC0269
:103A30006AE070E080E090E00E94850461E080919F
:103A40000F1F0E94CC026AE070E080E090E00E94CC
:103A50008504DFB7F8948091AE02811127C0EDE1B3
:103A6000F2E08491E3E6F2E09491E82FF0E0EE0FCB
:103A7000FF1FEC54FE4FA591B491EC91E92321F482
:103A800061E085E30E94CC0261E085E30E94580377
:103A90008CB580618CBD8CB580648CBD61E084E3A5
:103AA0000E94580361E083E30E9458038091AE02B4
:103AB0008F5F8093AE02DFBF62E48FEF9EE10E94D2
:103AC0003418823181F081E00E94610590E080E04D
:103AD0000E945E06D0E08D2FDF91CF91FF90EF9096
:103AE000DF90CF90089540E861E88FEF9EE10E945B
:103AF0004117C701B6010E94C71740E06EE88FEF7B
:103B00009EE10E94411740E06FE88FEF9EE10E9426
:103B100041176CE08FEF9EE10E943418482F4360FC
:103B20006CE88FEF9EE10E94411744E066EA8FEF58
:103B30009EE10E94411782E090E00E948D1741E8CB
:103B400061E88FEF9EE10E94411781E08093601E43
:103B50000E94861C0E94D01980912A0A90912B0AFB
:103B60000E94F81880911402909115020E94361953
:103B70000E9497196EE18FEF9EE10E943418482F42
:103B800044606EE98FEF9EE10E9441178EE99BE150
:103B900090931C1F80931B1F60E08091111F0E9457
:103BA000580340E060EC8FEF9EE10E9441172091A6
:103BB000111F3091121F80E02230310551F081E059
:103BC0002330310531F0C9014297049790F487E121
:103BD000821B2FB7F894823009F43FC060F4882329
:103BE00009F441C0813071F082E08093AD0280E041
:103BF0000AC08FEFEECF8430A1F188F18530A1F7B4
:103C000088E001C080E29091AC02892B8093AC02E5
:103C10008091AD02811103C081E08093AD022FBF7E
:103C20002091111F3091121F22303105F1F488EFDD
:103C30009AE1909304028093030280916A0083606A
:103C400080936A00EC9A0E94C71C0E94500583E092
:103C500090E00E942006DC2F3ECF81E0D4CF82E0AE
:103C6000D2CF84E0D0CF80E1CECF2330310569F4CC
:103C700088EF9AE1909306028093050280916A0092
:103C80008C6080936A00ED9ADECFC9014297049759
:103C9000D0F687E1821BE82FF0E0EE0FFF1FED5F0B
:103CA000FD4F28EF3AE131832083843091F0853055
:103CB000B9F0833039F080916900836080936900A6
:103CC000E89AC1CF809169008C6080936900E99A7D
:103CD000BACF80916900806380936900EA9AB3CF7C
:103CE00080916900806C80936900EB9AACCF0E9450
:103CF000500583E090E00E94FF05EDCE0E94500544
:103D0000EACE0C944B2C1F920F920FB60F921124F7
:103D10000BB60F922F933F934F935F936F937F93C5
:103D20008F939F93AF93BF93EF93FF9381E69EE1B1
:103D30000E940702FF91EF91BF91AF919F918F91E8
:103D40007F916F915F914F913F912F910F900BBE9B
:103D50000F900FBE0F901F9018951F920F920FB6E5
:103D60000F9211240BB60F922F938F939F93EF9383
:103D7000FF93E091711EF091721E8081E091771E99
:103D8000F091781E82FD1DC0908180917A1E8F5F18
:103D90008F7320917B1E821741F0E0917A1EF0E034
:103DA000EF59F14E958F80937A1EFF91EF919F917D
:103DB0008F912F910F900BBE0F900FBE0F901F9001
:103DC00018958081F2CF1F920F920FB60F92112497
:103DD0002F933F938F939F93AF93BF9380911D0831
:103DE00090911E08A0911F08B09120083091B50253
:103DF00023E0230F2D3758F50196A11DB11D209307
:103E0000B50280931D0890931E08A0931F08B093DD
:103E100020088091B6029091B702A091B802B091AB
:103E2000B9020196A11DB11D8093B6029093B7020D
:103E3000A093B802B093B902BF91AF919F918F91B7
:103E40003F912F910F900FBE0F901F90189526E86D
:103E5000230F0296A11DB11DD2CF1F920F920FB654
:103E60000F9211240BB60F922F933F934F935F93B2
:103E70006F937F938F939F93AF93BF93EF93FF9332
:103E8000E0911102F09112021995FF91EF91BF910B
:103E9000AF919F918F917F916F915F914F913F91E2
:103EA0002F910F900BBE0F900FBE0F901F90189583
:103EB0001F920F920FB60F9211240BB60F922F93F1
:103EC0003F934F935F936F937F938F939F93AF93A2
:103ED000BF93EF93FF93E0910F02F09110021995B9
:103EE000FF91EF91BF91AF919F918F917F916F91D2
:103EF0005F914F913F912F910F900BBE0F900FBE8E
:103F00000F901F9018951F920F920FB60F921124C9
:103F10000BB60F922F933F934F935F936F937F93C3
:103F20008F939F93AF93BF93EF93FF93E09105021D
:103F3000F09106021995FF91EF91BF91AF919F917A
:103F40008F917F916F915F914F913F912F910F9042
:103F50000BBE0F900FBE0F901F9018951F920F92DF
:103F60000FB60F9211240BB60F922F933F934F93DE
:103F70005F936F937F938F939F93AF93BF93EF93D1
:103F8000FF93E0910302F09104021995FF91EF91E4
:103F9000BF91AF919F918F917F916F915F914F9161
:103FA0003F912F910F900BBE0F900FBE0F901F905F
:103FB00018951F920F920FB60F9211240BB60F9205
:103FC0002F933F934F935F936F937F938F939F9321
:103FD000AF93BF93EF93FF93E0910D02F0910E0228
:103FE0001995FF91EF91BF91AF919F918F917F9123
:103FF0006F915F914F913F912F910F900BBE0F905A
:104000000FBE0F901F9018951F920F920FB60F9230
:1040100011240BB60F922F933F934F935F936F939F
:104020007F938F939F93AF93BF93EF93FF93E09111
:104030000B02F0910C021995FF91EF91BF91AF9196
:104040009F918F917F916F915F914F913F912F91B0
:104050000F900BBE0F900FBE0F901F9018951F92E0
:104060000F920FB60F9211240BB60F922F933F931E
:104070004F935F936F937F938F939F93AF93BF9370
:10408000EF93FF93E0910902F0910A021995FF91D5
:10409000EF91BF91AF919F918F917F916F915F91C0
:1040A0004F913F912F910F900BBE0F900FBE0F902D
:1040B0001F9018951F920F920FB60F9211240BB6F6
:1040C0000F922F933F934F935F936F937F938F93B1
:1040D0009F93AF93BF93EF93FF93E0910702F0910B
:1040E00008021995FF91EF91BF91AF919F918F9128
:1040F0007F916F915F914F913F912F910F900BBEE8
:104100000F900FBE0F901F9018951F920F920FB631
:104110000F9211240BB60F922F933F934F935F93FF
:104120006F937F938F939F93AF93BF93CF93EF93AF
:10413000FF938091B402811127C081E08093B40283
:10414000C4E181E69EE10E94F101892BD9F08FB78D
:10415000F8944091571E5091581E2091531E309153
:10416000541E4217530721F54091591E50915A1E73
:104170002091551E3091561E42175307C9F48FBF28
:10418000C150F9F61092B402FF91EF91CF91BF9117
:10419000AF919F918F917F916F915F914F913F91DF
:1041A0002F910F900BBE0F900FBE0F901F90189580
:1041B0004091591E50915A1E2091571E3091581E01
:1041C0002150310942175307D1F28FBF81E69EE19A
:1041D0000E94CF012FB7F894E091591EF0915A1E1A
:1041E00080834091591E50915A1E8091551E909186
:1041F000561E4817590751F48091531E9091541E32
:1042000090935A1E8093591E2FBFBACF8091591E8A
:1042100090915A1E0196F4CF88E198E00FB6F89479
:10422000A895809360000FBE909360000E94FB05EC
:104230000E941C06FBCF1F93CF93DF93EC01162F38
:104240000E944B2C181739F0612FCE01DF91CF91CE
:104250001F910C94532CDF91CF911F910895E1E6AB
:10426000FEE11382128288EE93E0A0E0B0E0848346
:104270009583A683B78386E492E09183808385EC5F
:1042800090E09587848784EC90E09787868780EC20
:1042900090E0918B808B81EC90E0938B828B82EC11
:1042A00090E0958B848B86EC90E0978B868B118EBB
:1042B000128E138E148E81E08093FE1EEFEFFEE1CE
:1042C0001382128228E532E03183208390E59487BF
:1042D00085878AE090E09787868789E090E0918BD8
:1042E000808B82E090E0938B828B148A158A168AE9
:1042F000178A118E108E138E128E158E148E1482C4
:104300001582168217820895CF93DF93CDB7DEB75B
:10431000C859D1090FB6F894DEBF0FBECDBF78944F
:1043200084B5826084BD84B5816084BD85B58260BA
:1043300085BD85B5816085BD80916E00816080936B
:104340006E001092810080918100826080938100D4
:1043500080918100816080938100809180008160E4
:10436000809380008091B10084608093B10080913F
:10437000B00081608093B000809191008260809352
:1043800091008091910081608093910080919000D4
:104390008160809390008091A10082608093A10051
:1043A0008091A10081608093A1008091A000816034
:1043B0008093A000809121018260809321018091EF
:1043C000210181608093210180912001816080938F
:1043D000200180917A00846080937A0080917A0035
:1043E000826080937A0080917A00816080937A0065
:1043F00080917A00806880937A001092C100809149
:104400007B00877F80937B0080E480937C00809199
:104410007A00806480937A0080917A0086FDFCCFD8
:104420008091780060917900762F682F072E000C1C
:10443000880B990B611571058105910511F00E949A
:104440001E2BECE1F5E081E093E0DF019C011D9281
:1044500021503040E1F7F093541EE093531EF09347
:104460005A1EE093591EF093581EE093571E8CE19C
:1044700098E09093561E8093551EE091711EF09126
:10448000721E82E08083E0916D1EF0916E1E10829C
:10449000E0916F1EF091701E80E180831092791E72
:1044A000E091751EF091761E86E08083E091731E88
:1044B000F091741E808180618083E091731EF09181
:1044C000741E808188608083E091731EF091741E59
:1044D000808180688083E091731EF091741E8081DA
:1044E0008F7D80831092900089E18093910080E815
:1044F0009EE3909397008093960080E280937100F2
:1045000061E08CE00E94580361E08DE00E94580356
:10451000E0E2F3E08CEF91E0DF019C011D9221507D
:104520003040E1F7E4E3FAE084E0DF011D928A9590
:10453000E9F7E8E3FAE080E094E1DF019C011D92F5
:1045400021503040E1F7EEEEF2E082E3DF01282F68
:104550001D922A95E9F7F0934A1EE093491EF093C5
:10456000501EE0934F1EF0934E1EE0934D1E2EE121
:1045700033E030934C1E20934B1EECEBF2E0DF0156
:104580001D928A95E9F7F0933C1EE0933B1EF09351
:10459000421EE093411EF093401EE0933F1E8CEEBE
:1045A00092E090933E1E80933D1E85E090E09093B4
:1045B0000E1F80930D1F84E090E09093101F809356
:1045C0000F1F82E090E09093121F8093111F809143
:1045D000211F811101C083E0282F80FF69C182E083
:1045E0008093BB028091BB028150823008F074C27C
:1045F00083ED9FE00E94811E833709F06DC188E33F
:104600009FE00E94811E833009F063C189E39FE02F
:104610000E94811E8093BA028E3F08F45DC18AE336
:104620009FE00E94811E81508E3F08F055C18BE0B3
:1046300090E00E94E62D6C018C01E8E3EE2EEFE0A5
:10464000FE2EC7010E94811EF80181938F01FFEFAA
:10465000EF1AFF0A23E4E2162FE0F20691F780E159
:1046600090E00E94E62D8C0181E093E2A5E4B7E69C
:1046700089879A87AB87BC8789E89BEAADECBFEE58
:104680008D879E87AF87B88B8EEF9CEDAAEBB8E93C
:10469000898B9A8BAB8BBC8B86E794E5A2E3B0E168
:1046A0008D8B9E8BAF8BB88F1D821E821F821886CA
:1046B000FE01E75AFF4F80E4DF011D928A95E9F77A
:1046C000CE018F5A9F4F28E0FC0111922A95E9F7FD
:1046D0002BE0F601DE01599601900D922A95E1F743
:1046E00020E82CA3FE01B5962CE2DF011D922A954D
:1046F000E9F748E550E060E070E049835A836B8356
:104700007C8328E5FC01208340E450E0BE01675E25
:104710007F4F805591090E94910639852A859B8596
:104720008C85D8013C9311962C93119712969C93EB
:10473000129713968C9313973D852E859F858889B4
:1047400014963C93149715962C93159716969C9354
:10475000169717968C93179739892A899B898C8984
:1047600018963C93189719962C9319971A969C9320
:104770001A971B968C931B973D892E899F89888D4C
:104780001C963C931C971D962C931D971E969C93EC
:104790001E971F968C934801BB24B394C7010E94B7
:1047A000811EF40191914F018913B12CFFEFEF1A93
:1047B000FF0A23E5E2162FE0F20681F7C8010E9406
:1047C000822EC6010E94822EBB2009F487C081E0A0
:1047D00080935B1E8FED9FE00E94811E833709F05E
:1047E0007DC084ED9FE00E94811E90E090932B0A93
:1047F00080932A0A85ED9FE00E94811E90E09093AD
:1048000015028093140286ED9FE00E94811E90E0C5
:1048100090931702809316028BED9FE00E94811EF9
:10482000182F8CED9FE00E94811E90E0B0E0A0E088
:104830007C01DD24CC24F12A8DED9FE00E94811EB5
:10484000182F8EED9FE00E94811EC82AD12AC092A7
:10485000300AD092310AE092320AF092330A87EDA0
:104860009FE00E94811E182F88ED9FE00E94811E0C
:1048700090E0B0E0A0E07C01DD24CC24F12A89EDB9
:104880009FE00E94811E182F8AED9FE00E94811EEA
:10489000C82AD12AC0922C0AD0922D0AE0922E0A60
:1048A000F0922F0A82E1809318020E94E21C16C047
:1048B00083E022FD95CE23FF02C081E091CE42E24B
:1048C00050E066E672E081E69EE10E9493010E945C
:1048D0004706803F09F49ACE10925B1E812C34E18A
:1048E000932E412C512C32015394AA24A39454E1C9
:1048F000B52E8091601E882309F407C22FB7F89463
:1049000080911D0890911E08A0911F08B091200869
:104910002FBF409121085091220860912308709187
:104920002408841B950BA60BB70B0397A105B105B3
:1049300010F00E94981A80915F1E882309F415C117
:1049400010915E1E111102C00E94981A80915D1E86
:104950008111D7C180915C1E8111D3C1112331F027
:1049600062E370E080E090E00E9485040E94981A63
:1049700080915D1E8111F9C010925E1E8091210A06
:104980008111EBC081E08093210A4FB7F894209108
:104990004D1E30914E1E80914F1E9091501E4FBF64
:1049A0002817390709F4D9C0E0914D1EF0914E1E29
:1049B00080914B1E90914C1EE817F90709F093C0A7
:1049C0008091491E90914A1E90934E1E80934D1ED9
:1049D00020813181E0913F1EF091401E80913D1E6B
:1049E00090913E1EE817F90709F084C080913B1EA4
:1049F00090913C1E9093401E80933F1E0081118138
:104A0000C80101978C3F914008F0BFCFE5E2F8E084
:104A100025523840C9018E0F9F1FB4010E94FA2C05
:104A2000DC01A85CB54F8C918193CF0185529840F1
:104A30008017910778F38091601E882309F485C060
:104A40008091290A81115DC00E94FB050E94CF2A36
:104A5000A30192010E94612C607F362E0F3F110549
:104A600010F0689430F890E080E00E947619632D91
:104A70008FEF9EE10E946D1C95E2C92E98E0D92E21
:104A8000EE24E394F12CD6016D916D018FEF9EE140
:104A90000E946D1CBFEFEB1AFB0AEFEFEE16F1045C
:104AA00071F40E94911890E080E00E947619632DC5
:104AB0008FEF9EE10E946D1CEE24E394F12CC60161
:104AC0008552984080179107F0F20E9491180E9439
:104AD000F7050E94C71C59CF10925B1E4EE150E0B3
:104AE00069E872E0F0CEE0914D1EF0914E1ECF01CC
:104AF00002966ACFE0913F1EF091401ECF010296D0
:104B000079CF0E94FB050F3F110519F010F00FEF50
:104B100010E08091270A811116C090E080E00E9489
:104B20007619B5E2EB2EB8E0FB2ED7016D917D0131
:104B30008FEF9EE10E946D1CC7018552984080173F
:104B4000910798F3C2CFC801EACF82E00E946105C5
:104B500085E090E00E945E0618CF10925F1E1092D2
:104B6000481E1092471E1092210A4FB7F8942091C8
:104B7000571E3091581E8091591E90915A1E4FBF5A
:104B80002817390709F4B0C481E08093521EFF242E
:104B9000F394AEEFEA2E4FB7F8942091571E309160
:104BA000581E8091591E90915A1E4FBF28173907E1
:104BB00009F498C4E091571EF091581E8091551E3B
:104BC0009091561EE817F90709F00AC18091531E0B
:104BD0009091541E9093581E8093571E108180917F
:104BE000511E882309F483C4103C09F01AC1809136
:104BF000190281117FC41092511E80914D1E909117
:104C00004E1E4091491E50914A1E8417950761F42B
:104C100020914F1E3091501E80914B1E90914C1E42
:104C20002817390709F4B7CF20914F1E3091501E35
:104C300080914D1E90914E1E02972817390709F456
:104C4000AACF8091471E9091481E8115944108F08B
:104C5000A2CF2091451E3091461E8091431E909117
:104C6000441E019710F48FEF93E12817390709F4D8
:104C7000C4C02817390708F0BAC0821B930B0196ED
:104C8000009709F488CF60915F1E6F5F60935F1E8D
:104C9000E0914F1EF091501E3183208360914F1E92
:104CA0007091501E20914B1E30914C1E621773075D
:104CB00009F0A6C05093501E40934F1EE091411E34
:104CC000F091421E918380832091411E3091421EBB
:104CD00080913D1E90913E1E2817390709F09BC018
:104CE00080913B1E90913C1E9093421E8093411EEA
:104CF0008091431E9091441E9093461E8093451EC2
:104D00004ACF81E080935E1E30CF8091230A90913C
:104D1000240AA091250AB091260A0196A11DB11D71
:104D200020915B1E222369F1893FEAE29E07A105DB
:104D3000B10548F48093230A9093240AA093250A8E
:104D4000B093260A12CF1092230A1092240A1092CE
:104D5000250A1092260A6091FE1E81E0623018F04A
:104D6000683218F08FEF8093220A8091220A680F30
:104D70006093FE1E70E08CE00E9489030E94F7059C
:104D8000F4CE893FFAE29F07A105B10558F480935C
:104D9000230A9093240AA093250AB093260A0E941E
:104DA0001818E3CE1092230A1092240A1092250AB2
:104DB0001092260A6091FE1E81E0623018F068327F
:104DC00018F08FEF8093220A8091220A680F609377
:104DD000FE1E70E08DE00E9489030E941C06DFCF5A
:104DE000E091571EF091581ECF010196F3CEB50108
:104DF000621B730B860F971F43CF81E090E043CF78
:104E000020914F1E3091501E2E5F3F4F3093501E09
:104E100020934F1E53CF8091411E9091421E0296C7
:104E200063CF2091391E30913A1E2C3F81E0380724
:104E300008F0B1CE909119022115310529F49E3F59
:104E400019F410931902A7CE911144C01B3D19F417
:104E5000F092381EA0CE8091381E882349F01C3D68
:104E600021F01D3D19F41BED01C010EC1092381E0D
:104E700080915F1E883108F08ECE8091471E909100
:104E8000481E8115944108F086CE8091471E90916E
:104E9000481E01969093481E8093471E8091431EA2
:104EA0009091441E9C012F5F3F4F3093441E2093EE
:104EB000431E885C954FFC0110838091431E9091A6
:104EC000441E8115944109F066CE1092441E109242
:104ED000431E61CE913009F04AC01B3DD9F4909336
:104EE000381E8091391E90913A1E049709F053CED6
:104EF0006091340A7091350A8091360A9091370A90
:104F00000E94162D6115710581059105D9F40E9445
:104F1000890541CE8091381E882349F01C3D21F03F
:104F20001D3D19F41BED01C010EC1092381EC90193
:104F3000019690933A1E8093391E2C5C354FD9010F
:104F40001C93CFCF6093300A7093310A8093320A5A
:104F50009093330A209118022131C9F62091601EE6
:104F60002223A9F20E94C7170E949719D0CF92302E
:104F700009F048C01B3DD9F4F092381E8091391ECB
:104F800090913A1E049709F006CE6091340A709110
:104F9000350A8091360A9091370A0E94162D6115C4
:104FA000710581059105D9F40E94AE05F4CD80917B
:104FB000381E882349F01C3D21F01D3D19F41BEDDE
:104FC00001C010EC1092381EC901019690933A1E50
:104FD0008093391E2C5C354FF9011083CFCF60933D
:104FE0002C0A70932D0A80932E0A90932F0A809199
:104FF00018028131C9F68091601E8823A9F20E94AF
:10500000D019D2CF9330C9F41F3F19F40E941A056A
:10501000C2CD123108F011E1812F90E09093170278
:105020008093160280911802813181F78091601E71
:10503000882361F30E94861CE9CF9430F9F41F3F66
:1050400019F40E943E05A7CD86E090E0163038F0B6
:10505000812F90E08D30910514F08CE090E09093DA
:105060002B0A80932A0A20911802213151F72091AE
:10507000601E222331F30E94F818E3CF9530F9F433
:105080001F3F19F40E942C0586CD85E090E0153075
:1050900038F0812F90E08930910514F088E090E09D
:1050A000909315028093140220911802213151F738
:1050B0002091601E222331F30E943619E3CF9930EC
:1050C000B9F41093280A112381F0F092270A80EC9A
:1050D00090E00E94760289E090E00E947602612FC3
:1050E00081E69EE10E9429022BC01092270AEFCF91
:1050F000963081F41F3F19F40E9450054CCD1111D8
:1051000003C00E941818F8CF113009F044CD0E9456
:10511000E21CF2CF9132C9F480EC90E00E9476025A
:1051200081E290E00E94760280E00E94750580E0B6
:105130000E94750580E00E94750580E00E9475055B
:1051400080EC90E00E94760226CD923239F480EC19
:1051500090E00E94760282E290E0E4CF933219F46C
:105160000E94E30518CD973081F40E94B80480ECCA
:1051700090E00E94760287E090E00E9476028091A3
:10518000130290E00E947602DBCF903329F4812F46
:1051900090E00E942006FFCC903491F48091601E34
:1051A00010E0882331F06CE28FEF9EE10E9434180A
:1051B000182F80EC90E00E94760280E490E08DCF82
:1051C000983071F4133709F0E6CC80EC90E00E943F
:1051D000760288E090E00E94760286E490E0D2CFEA
:1051E0009E30C1F4113089F41093290A80EC90E0CC
:1051F0000E9476028EE090E00E9476028091290A59
:10520000882331F181E090E0BDCF1111EFCF1092F2
:10521000290AECCF9F30F9F480915F1E883180F429
:105220008091471E9091481E8115944148F480EC6E
:1052300090E00E9476028FE090E00E947602E2CF3A
:1052400080EC90E00E9476028FE090E00E9476026F
:1052500090E080E097CF9935A9F4183F09F09BCCF6
:1052600082E390E00E945E0608E31FE06FEFC80152
:105270000E941B210F5F1F4F011520E11207B1F79C
:105280000E940C21953521F4183F09F084CCF8CF09
:105290009135B1F480EC90E00E94760281E590E0D7
:1052A0000E94760208E31FE0C8010E94811E0E944E
:1052B00075050F5F1F4F011530E11307A9F740CFA8
:1052C0009235D9F51B3DE9F4F092381E8091391ED4
:1052D00090913A1E029709F05ECC0091350A109128
:1052E000340A83ED9FE00E94811E833711F1183C40
:1052F00000F5812F90E0602F885C904F0E941B2169
:105300004ACC8091381E882349F01C3D21F01D3D78
:1053100019F41BED01C010EC1092381EC901019662
:1053200090933A1E8093391E2C5C354FD9011C9303
:10533000CDCF83E00E9461052ECC903579F480ECCE
:1053400090E00E94760280E590E00E94760281E083
:1053500090E00E9476028EE190E014CF983459F4E8
:1053600080EC90E00E94760288E490E00E94760251
:1053700080E990E007CF993459F480EC90E00E94E6
:10538000760289E490E00E94760282E990E0FACE0B
:10539000973459F480EC90E00E94760287E490E024
:1053A0000E94760282E390E0EDCE933509F093C03F
:1053B00080915B1E882309F489C08091601E882338
:1053C00009F484C060912A0A84ED9FE00E941B21A9
:1053D0006091140285ED9FE00E941B2160911602EE
:1053E00086ED9FE00E941B2160912C0A70912D0A8E
:1053F00080912E0A90912F0A692F77278827992765
:1054000087ED9FE00E941B2160912C0A70912D0A6C
:1054100080912E0A90912F0ABC018827992788ED48
:105420009FE00E941B2160912C0A70912D0A8091AF
:105430002E0A90912F0A672F782F892F992789EDAF
:105440009FE00E941B2160912C0A8AED9FE00E9440
:105450001B216091300A7091310A8091320A90913B
:10546000330A692F7727882799278BED9FE00E94C1
:105470001B216091300A7091310A8091320A90911B
:10548000330ABC01882799278CED9FE00E941B21DD
:105490006091300A7091310A8091320A9091330AFA
:1054A000672F782F892F99278DED9FE00E941B2170
:1054B0006091300A8EED9FE00E941B2163E78FED23
:1054C0009FE00E941B218AE090E063CE8AE090E09A
:1054D0000E94FF0560CB943509F05DCB60E08FED55
:1054E0009FE00CCF1092521E0E949B0202CA103CF9
:1054F00009F051CBF092511EE092190210923A1E1F
:105500001092391E48CB8F929F92AF92BF92CF924A
:10551000DF92EF92FF92CF93DF93EC016881798164
:105520008A819B81611571058105910521F464E2F1
:1055300079ED8BE597E02DE133EF41E050E00E94FB
:10554000612C49015A019B01AC01A7EAB1E40E9418
:10555000802C6B017C01ACEEB4EFA50194010E949C
:105560008E2CC60ED71EE81EF91EF7FE06C081E07F
:10557000C81AD108E10880E8F80AC882D982EA820C
:10558000FB82C701B6019F77DF91CF91FF90EF902B
:10559000DF90CF90BF90AF909F908F9008958F92A3
:1055A0009F92AF92BF92CF92DF92EF92FF92609163
:1055B0001A0270911B0280911C0290911D026115CC
:1055C00071058105910521F464E279ED8BE597E0A1
:1055D0002DE133EF41E050E00E94612C49015A0176
:1055E0009B01AC01A7EAB1E40E94802C6B017C0115
:1055F000ACEEB4EFA50194010E948E2CC60ED71E0E
:10560000E81EF91EF7FE06C081E0C81AD108E108BD
:1056100080E8F80AC0921A02D0921B02E0921C02A3
:10562000F0921D02C701B6019F77FF90EF90DF90C7
:10563000CF90BF90AF909F908F90089560931A0283
:1056400070931B0280931C0290931D0208950E9488
:10565000692B08F481E00895E89409C097FB3EF4B3
:1056600090958095709561957F4F8F4F9F4F9923AF
:10567000A9F0F92F96E9BB279395F695879577952D
:105680006795B795F111F8CFFAF4BB0F11F460FFED
:105690001BC06F5F7F4F8F4F9F4F16C0882311F045
:1056A00096E911C0772321F09EE8872F762F05C059
:1056B000662371F096E8862F70E060E02AF09A95F4
:1056C000660F771F881FDAF7880F9695879597F9E9
:1056D0000895990F0008550FAA0BE0E8FEEF161683
:1056E0001706E807F907C0F012161306E407F507D6
:1056F00098F0621B730B840B950B39F40A2661F04A
:10570000232B242B252B21F408950A2609F4A140EC
:10571000A6958FEF811D811D08950E94A02B0C94EA
:10572000112C0E94032C38F00E940A2C20F09523A3
:1057300011F00C94FA2B0C94002C11240C94452C91
:105740000E94222C70F3959FC1F3950F50E0551FD6
:10575000629FF001729FBB27F00DB11D639FAA27C6
:10576000F00DB11DAA1F649F6627B00DA11D661F15
:10577000829F2227B00DA11D621F739FB00DA11D36
:10578000621F839FA00D611D221F749F3327A00DF0
:10579000611D231F849F600D211D822F762F6A2F8C
:1057A00011249F5750409AF0F1F088234AF0EE0FF1
:1057B000FF1FBB1F661F771F881F91505040A9F71E
:1057C0009E3F510580F00C94FA2B0C94452C5F3FC2
:1057D000E4F3983ED4F3869577956795B795F7955A
:1057E000E7959F5FC1F7FE2B880F911D96958795D2
:1057F00097F9089597F99F6780E870E060E0089551
:105800009FEF80EC089500240A94161617061806D8
:105810000906089500240A941216130614060506B4
:105820000895092E0394000C11F4882352F0BB0F45
:1058300040F4BF2B11F460FF04C06F5F7F4F8F4FA8
:105840009F4F089557FD9058440F551F59F05F3FE3
:1058500071F04795880F97FB991F61F09F3F79F092
:1058600087950895121613061406551FF2CF469514
:10587000F1DF08C0161617061806991FF1CF869596
:105880007105610508940895E894BB27662777277A
:10589000CB0197F90895F999FECF92BD81BDF89A91
:1058A000992780B50895262FF999FECF1FBA92BD8A
:1058B00081BD20BD0FB6F894FA9AF99A0FBE0196F1
:1058C0000895052E97FB1EF400940E94782C57FD36
:1058D00007D00E94932C07FC03D04EF40C94782C34
:1058E00050954095309521953F4F4F4F5F4F08950C
:1058F00090958095709561957F4F8F4F9F4F08953C
:105900000E94B52CA59F900DB49F900DA49F800D73
:10591000911D11240895B7FF0C94802C0E94802CB7
:10592000821B930B0895A1E21A2EAA1BBB1BFD013B
:105930000DC0AA1FBB1FEE1FFF1FA217B307E4076E
:10594000F50720F0A21BB30BE40BF50B661F771FC6
:10595000881F991F1A9469F76095709580959095A6
:105960009B01AC01BD01CF010895A29FB001B39F7F
:10597000C001A39F700D811D1124911DB29F700D58
:10598000811D1124911D08950E94CB2C6894B111A2
:105990000C94452C08950E942A2C88F09F5798F06B
:1059A000B92F9927B751B0F0E1F0660F771F881F24
:1059B000991F1AF0BA95C9F714C0B13091F00E943E
:1059C000442CB1E008950C94442C672F782F88273D
:1059D000B85F39F0B93FCCF3869577956795B39565
:1059E000D9F73EF490958095709561957F4F8F4FD4
:1059F0009F4F0895AA1BBB1B51E107C0AA1FBB1FE5
:105A0000A617B70710F0A61BB70B881F991F5A954A
:105A1000A9F780959095BC01CD010895EE0FFF1F69
:105A2000881F8BBF0790F691E02D19946927962760
:105A300069277827872778270895E894DF93CF93FD
:105A4000FC01DB010E94B52C7F936F93E9019A0161
:105A5000AC01BF93AF933F932F93DF010E94B52C0E
:105A600026F46C1B7D0B820B930B9E01EB01FC015A
:105A70000E94DD2DAF91BF912F913F910E94DD2DAE
:105A8000BE01CF01F9012F913F91CF91DF91089590
:105A9000689401C0E8948F929F92CF93DF930E9405
:105AA000562DDF91CF919F908F900895882499244F
:105AB000F401E401B0E49F93AA279A158B049C0497
:105AC000ED05FE05CF05D007A10798F4AD2FDC2F1B
:105AD000CF2FFE2FE92D982C892E982F872F762FE8
