:100000000C945E010C94D11F0C94A61F0C947B1FC2
:100010000C94501F0C94251F0C94FA1E0C94CF1EA8
:100020000C94A41E0C9491010C9491010C949101D8
:100030000C9491010C9491010C9491010C949101F8
:100040000C9491010C9491010C9491010C949101E8
:100050000C9491010C9491010C9491010C945A1EF2
:100060000C9491010C9426200C94FC1F0C9491018B
:100070000C9491010C9491010C9491010C945C20CE
:100080000C9491010C9491010C9491010C949101A8
:100090000C9491010C9491010C9491010C94910198
:1000A0000C9491010C9491010C9491010C94910188
:1000B0000C9491010C9491010C9491010C94910178
:1000C0000C9491010C9491010C9491010C94910168
:1000D0000C9491010C9491010C9491010C94910158
:1000E0000C9491010C940F020C94441C0C94880203
:1000F0000C94AC030C949F020C94F3010C94FA0240
:100100000C940F1B0C94C8010C94BB020C94950228
:100110000C9401020C94E9010C94101B0C940E0336
:100120000C94FD010C94B3020C9406210C94F9017B
:100130000C94E2010C94CD020C9419020C9462040C
:100140000C94CF1A0C94E6010C94DD030C949002ED
:100150000C947E030C94CF030C94DA010C941504D8
:100160000C94C3010C94D7020C94EF010C94091C5D
:100170000C94361B0C945A1C0C94A9020C94751BFD
:100180000C947F030C940B020C94BB030C94E102BF
:100190000C94F0020C94DE010C9422030C94FB1BD3
:1001A0000C9407020C9415020C94C3020C941803CF
:1001B0000C94040300002100240027002A002D00D5
:1001C0003000330001010000040107010A010000B2
:1001D0002200250028002B002E00310034000201EF
:1001E0000000050108010B010505050507050808C4
:1001F0000808020202020A0A0808040404040101B1
:1002000001010101010103030303030303030407C5
:1002100007070C0C0C0C0C0C0C0C0202020206065C
:100220000606060606060B0B0B0B0B0B0B0B01024F
:1002300010202008081020401020408002010201F8
:1002400008040201010204081020408080402010B0
:100250000804020180040201804020100804020109
:100260000804020101020408102040800102040871
:100270001020408000000A0B02090C0D0E08070335
:100280000401000000000000000000000000000069
:10029000000000000000000000000000000000005E
:1002A000121110000000000000000000000000001B
:1002B0000000000000000000000006212092281F1E
:1002C00011241FBECFEFD1E2DEBFCDBF00E00CBFD7
:1002D00012E0A0E0B2E0E4EEFDE500E00BBF02C0FA
:1002E00007900D92AA3AB107D9F72FE1AAEAB2E036
:1002F00001C01D92A832B207E1F711E0CEE5D1E0CE
:1003000000E006C021970109802FFE010E94F32C16
:10031000CD35D10780E00807A9F70E945B210C9436
:10032000F02E0C940000282F30E0F901EC58FD4F1E
:100330009491F901E25DFD4F449128513E4FF9013E
:100340002491222309F435C0992311F1915092315F
:10035000F8F4E92FF0E08827EF54FE4F8F4F0C940C
:10036000F32CE201E601C301DA01DE01C801E90173
:10037000EF01F301F901FD01010207020B02C801BF
:100380000F0215021902809180008F778093800000
:10039000E22FF0E0EE0FFF1FE253FE4FA591B49164
:1003A0008FB7F894EC91611148C040954E234C935F
:1003B0008FBF0895809180008F7DE8CF809180006D
:1003C000877FE4CF84B58F7784BDE2CF84B58F7DFE
:1003D000FBCF8091B0008F778093B000D9CF809110
:1003E000B0008F7DF9CF809190008F77809390003F
:1003F000CFCF809190008F7DF9CF80919000877F43
:10040000F5CF8091A0008F778093A000C1CF80911D
:10041000A0008F7DF9CF8091A000877FF5CF8091DC
:1004200020018F7780932001B3CF809120018F7DB1
:10043000F9CF80912001877FF5CF4E2BB8CFCF9396
:10044000DF9390E0FC01E25DFD4F249188519E4FC7
:10045000FC0184918823D1F090E0880F991FFC0162
:10046000EC54FE4FA591B491FC01E253FE4FC591AF
:10047000D49161110EC09FB7F8948C91E22FE09552
:100480008E238C932881E223E8839FBFDF91CF9155
:1004900008958FB7F894EC91E22BEC938FBFF6CFD1
:1004A0001F93CF93DF93182FEB0161E00E941F028F
:1004B000209739F460E0812FDF91CF911F910C9448
:1004C0009301CF3FD10511F461E0F5CFE12FF0E0CA
:1004D000EC58FD4FE491E150E23108F0B3C0F0E098
:1004E0008827EA58FD4F8F4F0C94F32C8802900216
:1004F00095029F02A9022203B302BB02C302CD02EE
:10050000D702E102F002FA02220304030E031803E9
:1005100084B5806884BDC7BDDF91CF911F910895D8
:1005200084B5806284BDC8BDF7CF809180008068AB
:1005300080938000D0938900C0938800EDCF809194
:100540008000806280938000D0938B00C0938A00EB
:10055000E3CF80918000886080938000D0938D00ED
:10056000C0938C00D9CF8091B00080688093B00098
:10057000C093B300D1CF8091B00080628093B0006F
:10058000C093B400C9CF80919000806880939000A0
:10059000D0939900C0939800BFCF80919000806263
:1005A00080939000D0939B00C0939A00B5CF809128
:1005B0009000886080939000D0939D00C0939C0031
:1005C000ABCF8091A00080688093A0008091A000B4
:1005D0008F7B8093A000D093A900C093A8009CCFEC
:1005E0008091A00080628093A000D093AB00C09364
:1005F000AA0092CF8091A00088608093A000D09341
:10060000AD00C093AC0088CF8091200180688093BA
:100610002001D0932901C09328017ECF8091200131
:10062000806280932001D0932B01C0932A0174CF64
:1006300080912001886080932001D0932D01C09388
:100640002C016ACFC038D1050CF03ECF33CF3FB775
:10065000F8948091641E9091651EA091661EB091E1
:10066000671E26B5A89B05C02F3F19F00196A11D56
:10067000B11D3FBFBA2FA92F982F8827BC01CD01EC
:10068000620F711D811D911D42E0660F771F881F4B
:10069000991F4A95D1F708958F929F92AF92BF927A
:1006A000CF92DF92EF92FF924B015C010E942703F1
:1006B0006B017C010E9427036C197D098E099F093B
:1006C000683E734081059105A8F321E0821A9108E4
:1006D000A108B10888EEC80E83E0D81EE11CF11C09
:1006E00081149104A104B10429F7FF90EF90DF90E9
:1006F000CF90BF90AF909F908F9008950895AF9244
:10070000BF92CF92DF92EF92FF920F931F93CF93FE
:10071000DF936C017B018B01040F151FEB015E0160
:10072000AE18BF08C017D10759F06991D601ED91F5
:10073000FC910190F081E02DC6011995892B79F784
:10074000C501DF91CF911F910F91FF90EF90DF9046
:10075000CF90BF90AF900895FC01538D448D252F0D
:1007600030E0842F90E0821B930B541710F0CF964B
:10077000089501970895FC01918D828D981761F07D
:10078000A28DAE0FBF2FB11D5D968C91928D9F5F94
:100790009F73928F90E008958FEF9FEF0895FC0173
:1007A000918D828D981731F0828DE80FF11D858D26
:1007B00090E008958FEF9FEF0895FC01918D228DB9
:1007C000892F90E0805C9F4F821B91098F7399273E
:1007D000089588E69EE10E94DD0321E0892B09F45B
:1007E00020E0822F0895FC01A48DA80FB92FB11D20
:1007F000A35ABF4F2C91848D90E001968F73992757
:10080000848FA689B7892C93A089B1898C91837034
:1008100080648C93938D848D981306C00288F3892D
:10082000E02D80818F7D80830895EF92FF920F935A
:100830001F93CF93DF93EC0181E0888F9B8D8C8D8C
:1008400098131AC0E889F989808185FF15C09FB780
:10085000F894EE89FF896083E889F9898081837043
:10086000806480839FBF81E090E0DF91CF911F91F2
:100870000F91FF90EF900895F62E0B8D10E00F5F13
:100880001F4F0F731127E02E8C8D8E110CC00FB6E9
:1008900007FCFACFE889F989808185FFF5CFCE0181
:1008A0000E94F303F1CFEB8DEC0FFD2FF11DE35A06
:1008B000FF4FF0829FB7F8940B8FEA89FB89808104
:1008C0008062CFCFCF93DF93EC01888D8823B9F07E
:1008D000AA89BB89E889F9898C9185FD03C080814B
:1008E00086FD0DC00FB607FCF7CF8C9185FFF2CFC8
:1008F000808185FFEDCFCE010E94F303E9CFDF9128
:10090000CF91089580E090E0892B29F00E94E903BF
:1009100081110E94000080E090E0892B49F080E086
:1009200090E0892B29F00E94000081110E940000B4
:1009300080E090E0892B49F080E090E0892B29F05D
:100940000E94000081110E94000080E090E0892B4D
:1009500049F080E090E0892B29F00E94000081118D
:100960000C94000008958091280A9091290AA09182
:100970002A0AB0912B0A892B8A2B8B2BE1F08091CC
:10098000240A9091250AA091260AB091270A892B62
:100990008A2B8B2B81F080911702909118028F3F48
:1009A000910549F08091220A9091230A892B19F030
:1009B00010921102089581E0809311020895682F2A
:1009C00088E69EE10C941504CF93DF9380EC0E949F
:1009D000DF0480E00E94DF04CCE1D3E02091AB0291
:1009E0003091AC02CE018C5193408217930780F472
:1009F0008991803C39F48BED0E94DF048CED0E94DC
:100A0000DF04ECCF8B3DD9F70E94DF048DEDF7CFEB
:100A100080EC0E94DF041092AC021092AB02DF91D6
:100A2000CF91089580EC0E94DF0483E00E94DF04F0
:100A3000809117020E94DF0480EC0C94DF0480ECAC
:100A40000E94DF0485E00E94DF04809115020E946D
:100A5000DF0480EC0C94DF0480EC0E94DF0484E06F
:100A60000E94DF048091220A0E94DF0480EC0C9433
:100A7000DF0480EC0E94DF0486E00E94DF048091A6
:100A80005E1E0E94DF0480EC0C94DF04CF93C82F1D
:100A900080EC0E94DF0480E90E94DF048C2F0E941A
:100AA000DF0480ECCF910C94DF04803C31F48BEDBB
:100AB0000E94DF048CED0C94DF048B3DE1F70E9473
:100AC000DF048DEDF8CF1F93CF93DF9380EC0E946E
:100AD000DF0481E00E94DF04C091280AD091290A36
:100AE00010912A0A80912B0A0E945505812F0E949D
:100AF00055058D2F0E9455058C2F0E94550580ECC1
:100B0000DF91CF911F910C94DF041F93CF93DF935C
:100B100080EC0E94DF0482E00E94DF04C091240A7E
:100B2000D091250A1091260A8091270A0E94550526
:100B3000812F0E9455058D2F0E9455058C2F0E94F4
:100B4000550580ECDF91CF911F910C94DF0480EC70
:100B50000E94DF0484E20E94DF04809112020E945E
:100B6000550580EC0C94DF04CF93C0911302C3565B
:100B700080EC0E94DF0483E20E94DF048C2F0E943D
:100B8000550580ECCF910C94DF0460E08DE00C946F
:100B9000930161E08DE00C949301CF93DF93EC011E
:100BA00061E08DE00E9493010E94C50564E670E05B
:100BB00080E090E00E944C030E94C90564E670E06A
:100BC00080E090E00E944C03219771F7DF91CF9174
:100BD0000C94C50560E08CE00C9493010F931F9377
:100BE000CF93DF938C01EC01892B11F4C1E0D0E0AD
:100BF0000E94EA0564E670E080E090E00E944C0309
:100C000061E08CE00E94930164E670E080E090E097
:100C10000E944C030115110559F3219749F7DF9103
:100C2000CF911F910F910C94EA050E94C9050E9473
:100C3000EA056AE070E080E090E00E944C0361E029
:100C40008CE00E9493010E94C50565E070E080E0A1
:100C500090E00E944C03E9CF0F931F93CF93DF9353
:100C60008C01EC01892B11F4C1E0D0E061E08CE053
:100C70000E94930160E08DE00E94930164E670E0C1
:100C800080E090E00E944C0360E08CE00E949301C1
:100C900061E08DE00E94930164E670E080E090E006
:100CA0000E944C030115110509F32197F9F60E94E2
:100CB000EA05DF91CF911F910F910C94C5052F92FA
:100CC0003F924F925F926F927F928F929F92AF92DC
:100CD000BF92CF92DF92EF92FF920F931F93CF9329
:100CE000DF93CDB7DEB7C857D1090FB6F894DEBF92
:100CF0000FBECDBFE9969FAF8EAFE9971A01DC0119
:100D000018960D911D912D913C911B9761960CAFFA
:100D10001DAF2EAF3FAF61971C960D911D912D9188
:100D20003C911F9709831A832B833C8350960D9126
:100D30001D912D913C9153970D831E832F833887EE
:100D400054960D911D912D913C91579709871A87C3
:100D50002B873C87E6966FAFE697E7967FAFE797DE
:100D6000A85ABF4F6396BFAFAEAF6397FC01E45A7A
:100D7000FF4F6596FFAFEEAF65978C01005A1F4F8E
:100D800067961FAF0EAF67979C012C593F4F69962E
:100D90003FAF2EAF699788599F4F6B969FAF8EAF2D
:100DA0006B97E996AEADBFADE997A459BF4F6D966D
:100DB000BFAFAEAF6D97E996EEADFFADE997E059E5
:100DC000FF4F6F96FFAFEEAF6F97E9960EAD1FAD79
:100DD000E9970C581F4FA1961FAF0EAFA197E99648
:100DE0002EAD3FADE99728583F4FA3963FAF2EAFAA
:100DF000A397E9968EAD9FADE99784589F4FA5962E
:100E00009FAF8EAFA597E996AEADBFADE997A0585D
:100E1000BF4FA796BFAFAEAFA797E996EEADFFADB8
:100E2000E997EC57FF4FA996FFAFEEAFA997E99668
:100E30000EAD1FADE99708571F4FAB961FAF0EAF12
:100E4000AB97E9962EAD3FADE99724573F4FAD964E
:100E50003FAF2EAFAD97E9968EAD9FADE997805726
:100E60009F4FAF969FAF8EAFAF97E996AEADBFAD38
:100E7000E997AC56BF4FE196BFAFAEAFE197E796AB
:100E8000AEADBFADE7970D911D912D913C910D87B2
:100E90001E872F87388B6396EEADFFAD6397008377
:100EA00011832283338361968CAD9DADAEADBFAD12
:100EB000619788589B45A549B842800F911FA21F92
:100EC000B31F4D815E816F81788509851A852B85D9
:100ED0003C85402751276227732709811A812B817E
:100EE0003C81402351236223732309851A852B8576
:100EF0003C854027512762277327840F951FA61F23
:100F0000B71F8C019D0147E0000F111F221F331FE7
:100F10004A95D1F7AC01BD01E9E176956795579502
:100F20004795EA95D1F7402B512B622B732B898182
:100F30009A81AB81BC81480F591F6A1F7B1FE796BE
:100F4000AEADBFADE79714960D911D912D913C91DB
:100F50001797098B1A8B2B8B3C8B6596EEADFFADEB
:100F60006597008311832283338389859A85AB85B6
:100F7000BC858A5A9844A843B741800F911FA21F8D
:100F8000B31FC980DA80EB80FC800D811E812F8128
:100F90003885C026D126E226F326C422D522E622B1
:100FA000F722C026D126E226F3268C0D9D1DAE1D0C
:100FB000BF1D8C019D01FCE0000F111F221F331F7C
:100FC000FA95D1F76C017D01A4E1F694E794D794EA
:100FD000C794AA95D1F7C02AD12AE22AF32AC40ECF
:100FE000D51EE61EF71EE796AEADBFADE797189685
:100FF0008D919D910D90BC91A02D8D8B9E8BAF8B73
:10100000B88F6796EEADFFAD679780839183A2831B
:10101000B3838D819E81AF81B88585529F48AF4D46
:10102000BB4D0D891E892F89388D800F911FA21FFE
:10103000B31F49805A806B807C80442655266626E3
:1010400077264C205D206E207F2009811A812B811C
:101050003C814026512662267326840D951DA61DCF
:10106000B71D8C019D01EFE03695279517950795E3
:10107000EA95D1F72C013D01F1E1440C551C661CA9
:10108000771CFA95D1F7402A512A622A732A4C0C10
:101090005D1C6E1C7F1CE796AEADBFADE7971C963E
:1010A0008D919D910D90BC91A02D898F9A8FAB8FC2
:1010B000BC8F6996EEADFFAD699780839183A28363
:1010C000B38389819A81AB81BC8182519143A244CF
:1010D000BE43098D1A8D2B8D3C8D800F911FA21F51
:1010E000B31F8A019B010C251D252E253F250421B8
:1010F0001521262137210427152726273727800F7A
:10110000911FA21FB31F4C015D011AE0B694A79472
:10111000979487941A95D1F78C019D0186E1000F71
:10112000111F221F331F8A95D1F7082919292A294F
:101130003B29040D151D261D371DE796AEADBFAD2D
:10114000E79750968D919D910D90BC91A02D8D8F1C
:101150009E8FAF8FB8A36B96EEADFFAD6B9780837C
:101160009183A283B3838155904FA348BA40840FE3
:10117000951FA61FB71FB701A60144255525662553
:10118000772540235123622373234C255D256E254B
:101190007F25840F951FA61FB71F4C015D0147E0F7
:1011A000880C991CAA1CBB1C4A95D1F7AC01BD0147
:1011B000E9E17695679557954795EA95D1F74829DE
:1011C00059296A297B29400F511F621F731FE79617
:1011D000AEADBFADE79754968D919D910D90BC91AA
:1011E000A02D89A39AA3ABA3BCA36D96EEADFFADD2
:1011F0006D9780839183A283B383865D9943A847CB
:10120000B84B8C0D9D1DAE1DBF1D73016201C02624
:10121000D126E226F326C422D522E622F722C424D0
:10122000D524E624F7248C0D9D1DAE1DBF1D4C0159
:101230005D01FCE0880C991CAA1CBB1CFA95D1F737
:101240006C017D01A4E1F694E794D794C794AA9524
:10125000D1F7C828D928EA28FB28C40ED51EE61ED7
:10126000F71EE796AEADBFADE79758968D919D916D
:101270000D90BC91A02D8DA39EA3AFA3B8A76F9690
:10128000EEADFFAD6F9780839183A283B3838D5EB4
:10129000994BAF4CB745840D951DA61DB71D280170
:1012A000390144265526662677264C205D206E207F
:1012B0007F204026512662267326840D951DA61D8B
:1012C000B71D4C015D01EFE0B694A7949794879405
:1012D000EA95D1F72C013D01F1E1440C551C661C47
:1012E000771CFA95D1F7482859286A287B284C0C96
:1012F0005D1C6E1C7F1CE796AEADBFADE7975C969C
:101300008D919D910D90BC91A02D89A79AA7ABA717
:10131000BCA7A196EEADFFADA19780839183A28378
:10132000B3838F5F9A46A94BB240800F911FA21FD3
:10133000B31F8A019B010C251D252E253F25042165
:101340001521262137210427152726273727800F27
:10135000911FA21FB31F4C015D011AE0B694A79420
:10136000979487941A95D1F78C019D0186E1000F1F
:10137000111F221F331F8A95D1F7082919292A29FD
:101380003B29040D151D261D371DE796AEADBFADDB
:10139000E79790968D919D910D90BC91A02D8DA772
:1013A0009EA7AFA7B8ABA396EEADFFADA397808382
:1013B0009183A283B38388529746AF47B649840F7F
:1013C000951FA61FB71FB701A60144255525662501
:1013D000772540235123622373234C255D256E25F9
:1013E0007F25840F951FA61FB71F4C015D0147E0A5
:1013F000880C991CAA1CBB1C4A95D1F7AC01BD01F5
:10140000E9E17695679557954795EA95D1F748298B
:1014100059296A297B29400F511F621F731FE796C4
:10142000AEADBFADE79794968D919D910D90BC9117
:10143000A02D89AB9AABABABBCABA596EEADFFAD27
:10144000A59780839183A283B38381559840AB4B4A
:10145000B4478C0D9D1DAE1DBF1D73016201C026DA
:10146000D126E226F326C422D522E622F722C4247E
:10147000D524E624F7248C0D9D1DAE1DBF1D4C0107
:101480005D01FCE0880C991CAA1CBB1CFA95D1F7E5
:101490006C017D01A4E1F694E794D794C794AA95D2
:1014A000D1F7C828D928EA28FB28C40ED51EE61E85
:1014B000F71EE796AEADBFADE79798968D919D91DB
:1014C0000D90BC91A02D8DAB9EABAFABB8AFA796E6
:1014D000EEADFFADA79780839183A283B3838F5432
:1014E000944AA109B109840D951DA61DB71D2801B7
:1014F000390144265526662677264C205D206E202D
:101500007F204026512662267326840D951DA61D38
:10151000B71D4C015D01EFE0B694A79497948794B2
:10152000EA95D1F72C013D01F1E1440C551C661CF4
:10153000771CFA95D1F7482859286A287B284C0C43
:101540005D1C6E1C7F1CE796AEADBFADE7979C9609
:101550008D919D910D90BC91A02D89AF9AAFABAFAD
:10156000BCAFA996EEADFFADA99780839183A2830E
:10157000B38382549842A34AB647800F911FA21F9B
:10158000B31F8A019B010C251D252E253F25042113
:101590001521262137210427152726273727800FD5
:1015A000911FA21FB31F4C015D011AE0B694A794CE
:1015B000979487941A95D1F78C019D0186E1000FCD
:1015C000111F221F331F8A95D1F7082919292A29AB
:1015D0003B29040D151D261D371DE796AEADBFAD89
:1015E000E797D0968D919D910D90BC91A02D21965D
:1015F0008CAF9DAFAEAFBFAF2197AB96EEADFFAD59
:10160000AB9780839183A283B3834C015D01FEED90
:101610008F1AFEEE9F0AFFE6AF0AF4E9BF0A840EB6
:10162000951EA61EB71EB701A601442555256625A1
:10163000772540235123622373234C255D256E2596
:101640007F25480D591D6A1D7B1D4A015B0197E0EE
:10165000880C991CAA1CBB1C9A95D1F7E9E17695D8
:10166000679557954795EA95D1F7482959296A29E9
:101670007B29400F511F621F731FE796AEADBFADB0
:10168000E797D4968D919D910D90BC91A02D2596B4
:101690008CAF9DAFAEAFBFAF2597AD96EEADFFADB2
:1016A000AD9780839183A283B3834C015D01FDE6F6
:1016B0008F1AFEE89F0AF7E6AF0AF2E0BF0A8C0C29
:1016C0009D1CAE1CBF1C73016201C026D126E22600
:1016D000F326C422D522E622F722C424D524E62408
:1016E000F724C80CD91CEA1CFB1C46015701FCE07E
:1016F000880C991CAA1CBB1CFA95D1F7A4E1F6949E
:10170000E794D794C794AA95D1F7C828D928EA288E
:10171000FB28C40ED51EE61EF71EE796AEADBFAD84
:10172000E797D8968D919D910D90BC91A02D29960B
:101730008CAF9DAFAEAFBFAF2997AF96EEADFFAD0B
:10174000AF9780839183A283B3834C015D01F2E75D
:101750008F1AFCEB9F0AF6E8AF0AF9E5BF0A840C82
:10176000951CA61CB71C280139014426552666265F
:1017700077264C205D206E207F2040265126622651
:101780007326480C591C6A1C7B1C53014201BFE0A4
:10179000B694A79497948794BA95D1F781E1440CB5
:1017A000551C661C771C8A95D1F7482859286A2849
:1017B0007B284C0C5D1C6E1C7F1CE796AEADBFAD4C
:1017C000E797DC968D919D910D90BC91A02D2D9663
:1017D0008CAF9DAFAEAFBFAF2D97E196EEADFFAD35
:1017E000E19780839183A283B3834C015D01FFED78
:1017F0008F1AF7EF9F0AFBE4AF0AF6EBBF0A800EE1
:10180000911EA21EB31E8A019B010C251D252E25AB
:101810003F250421152126213721042715272627B6
:101820003727080D191D2A1D3B1D480159019AE053
:10183000B694A794979487949A95D1F7E6E1000F10
:10184000111F221F331FEA95D1F7082919292A29C8
:101850003B29040D151D261D371D89889A88AB88E4
:10186000BC888EE9881A8AED980A81EEA80A89E078
:10187000B80A840E951EA61EB71EB301A20140270A
:101880005127622773274C215D216E217F2144253A
:10189000552566257725480D591D6A1D7B1D4A0172
:1018A0005B01F5E0880C991CAA1CBB1CFA95D1F7CA
:1018B000ABE17695679557954795AA95D1F7482955
:1018C00059296A297B29400F511F621F731F8DA060
:1018D0009EA0AFA0B8A490EC891A9CE4990A9FEB53
:1018E000A90A9FE3B90A8C0C9D1CAE1CBF1C6801A1
:1018F0007901C426D526E626F726C420D520E62081
:10190000F720C026D126E226F326C80CD91CEA1CF3
:10191000FB1C46015701B9E0880C991CAA1CBB1C92
:10192000BA95D1F787E1F694E794D794C7948A954E
:10193000D1F7C828D928EA28FB28C40ED51EE61EF0
:10194000F71E89AC9AACABACBCACAFEA8A1AA5EA7C
:101950009A0AA1EAAA0AA9EDBA0A840C951CA61C47
:10196000B71C2A013B014C245D246E247F244022B5
:101970005122622273224426552666267726480C79
:10198000591C6A1C7B1C530142019EE0880C991C67
:10199000AA1CBB1C9A95D1F7E2E176946794579400
:1019A0004794EA95D1F7482859286A287B284C0C97
:1019B0005D1C6E1C7F1C8D849E84AF84B888B6E548
:1019C0008B1AB8E39B0AB9E4AB0AB6E1BB0A800EF6
:1019D000911EA21EB31E97018601042515252625FA
:1019E000372504231523262337230C251D252E25D3
:1019F0003F25080D191D2A1D3B1D48015901FCE01A
:101A0000B694A79497948794FA95D1F7A4E1000F20
:101A1000111F221F331FAA95D1F7082919292A2936
:101A20003B29040D151D261D371D89A09AA0ABA0CA
:101A3000BCA0E3EA8E1AEFEE9E0AE0EDAE0AE9E200
:101A4000BE0A840E951EA61EB71EB301A201402732
:101A50005127622773274C215D216E217F21442568
:101A6000552566257725480D591D6A1D7B1D4A01A0
:101A70005B01B5E0880C991CAA1CBB1CBA95D1F778
:101A80008BE176956795579547958A95D1F74829C3
:101A900059296A297B29400F511F621F731F8DA886
:101AA0009EA8AFA8B8ACFDEA8F1AFBEE9F0AFBEB2D
:101AB000AF0AFDEFBF0A8C0C9D1CAE1CBF1C680159
:101AC0007901C426D526E626F726C420D520E620AF
:101AD000F720C026D126E226F326C80CD91CEA1C22
:101AE000FB1C4601570199E0880C991CAA1CBB1CE1
:101AF0009A95D1F7E7E1F694E794D794C794EA95DD
:101B0000D1F7C828D928EA28FB28C40ED51EE61E1E
:101B1000F71E2D968CAC9DACAEACBFAC2D978FE76D
:101B2000881A89E1980A8EE5A80A87E2B80A840C27
:101B3000951CA61CB71C2A013B014C245D246E2475
:101B40007F24402251226222732244265526662693
:101B50007726480C591C6A1C7B1C53014201FEE08D
:101B6000880C991CAA1CBB1CFA95D1F7A2E17694AB
:101B7000679457944794AA95D1F7482859286A281A
:101B80007B284C0C5D1C6E1C7F1C8D8C9E8CAF8C3E
:101B9000B8A098E3891A94E0990A9CE2A90A98E10E
:101BA000B90A800E911EA21EB31E9701860104255C
:101BB00015252625372504231523262337230C2511
:101BC0001D252E253F25080D191D2A1D3B1D4801E9
:101BD0005901BCE0B694A79497948794BA95D1F72D
:101BE00084E1000F111F221F331F8A95D1F70829A6
:101BF00019292A293B29040D151D261D371D89A8E1
:101C00009AA8ABA8BCA8AAE18A1AA2E39A0AAEE1F4
:101C1000AA0AAEEDBA0A840E951EA61EB71EB3011F
:101C2000A20140275127622773274C215D216E2195
:101C30007F214425552566257725480D591D6A1DA8
:101C40007B1D4A015B0195E0880C991CAA1CBB1CFA
:101C50009A95D1F7EBE17695679557954795EA9573
:101C6000D1F7482959296A297B29400F511F621F42
:101C7000731F29968CAC9DACAEACBFAC2997BAE271
:101C80008B1AB8EF9B0AB8ECAB0ABCE3BB0A8C0C0E
:101C90009D1CAE1CBF1C68017901C426D526E62612
:101CA000F726C420D520E620F720C026D126E2263C
:101CB000F326C80CD91CEA1CFB1C46015701F9E0AD
:101CC000880C991CAA1CBB1CFA95D1F7A7E1F694C5
:101CD000E794D794C794AA95D1F7C828D928EA28B9
:101CE000FB28C40ED51EE61EF71E898C9A8CAB8C81
:101CF000BC8CE9E78E1AE2EF9E0AEAE2AE0AEBE05C
:101D0000BE0A840C951CA61CB71C2A013B014C245E
:101D10005D246E247F2440225122622273224426B5
:101D2000552666267726480C591C6A1C7B1C5301D5
:101D30004201BEE0880C991CAA1CBB1CBA95D1F7C5
:101D400082E176946794579447948A95D1F748280E
:101D500059286A287B284C0C5D1C6E1C7F1C8DA4A6
:101D60009EA4AFA4B8A8F3E18F1AFBEE9F0AF5EA90
:101D7000AF0AFAEBBF0A800E911EA21EB31E970196
:101D8000860104251525262537250423152326231A
:101D900037230C251D252E253F25080D191D2A1D2D
:101DA0003B1D480159019CE0B694A79497948794F1
:101DB0009A95D1F7E4E1000F111F221F331FEA9516
:101DC000D1F7082919292A293B29040D151D261D9B
:101DD000371D25968CAC9DACAEACBFAC25978BEF78
:101DE000881A86E1980A8CE1A80A86E5B80A840E6A
:101DF000951EA61EB71EB301A201402751276227D8
:101E000073274C215D216E217F21442555256625B0
:101E10007725480D591D6A1D7B1D4A015B01F5E0C0
:101E2000880C991CAA1CBB1CFA95D1F7ABE17695DE
:101E3000679557954795AA95D1F7482959296A2951
:101E40007B29400F511F621F731F8D889E88AF88AA
:101E5000B88C98E0891A9CE5990A90E1A90A93E068
:101E6000B90A8C0C9D1CAE1CBF1C68017901C426EC
:101E7000D526E626F726C420D520E620F720C02662
:101E8000D126E226F326C80CD91CEA1CFB1C46010D
:101E90005701B9E0880C991CAA1CBB1CBA95D1F754
:101EA00087E1F694E794D794C7948A95D1F7C82828
:101EB000D928EA28FB28C40ED51EE61EF71E89A4E1
:101EC0009AA4ABA4BCA4A7E28A1AADEF9A0AA0E92F
:101ED000AA0AA8E9BA0A840C951CA61CB71C2A01F8
:101EE0003B014C245D246E247F2440225122622237
:101EF00073224426552666267726480C591C6A1CF0
:101F00007B1C530142019EE0880C991CAA1CBB1C3F
:101F10009A95D1F7E2E17694679457944794EA95BD
:101F2000D1F7482859286A287B284C0C5D1C6E1C68
:101F30007F1C4601570184249524A624B7242196AA
:101F40008CAD9DADAEADBFAD21978657934BA54DE2
:101F5000B247800F911FA21FB31F95018401042374
:101F60001523262337230C251D252E253F25800FDD
:101F7000911FA21FB31F8C019D01FCE03695279590
:101F800017950795FA95D1F7E5960CAF1DAF2EAFD3
:101F90003FAFE5978C019D01A4E1000F111F221FA7
:101FA000331FAA95D1F7E5968CAD9DADAEADBFAD13
:101FB000E597082B192B2A2B3B2B040D151D261DED
:101FC000371D89A19AA1ABA1BCA18E5B964CA540FF
:101FD000B109840F951FA61FB71F80269126A22640
:101FE000B326880E991EAA1EBB1ED501C40144E06B
:101FF000880F991FAA1FBB1F4A95D1F75CE1B694C1
:10200000A794979487945A95D1F7882A992AAA2A4F
:10201000BB2A800E911EA21EB31E4DA55EA56FA504
:1020200078A94F5759406E4878474C0D5D1D6E1D7D
:102030007F1D73016201C026D126E226F326C82443
:10204000D924EA24FB24C40ED51EE61EF71EB701D0
:10205000A601EBE0440F551F661F771FEA95D1F7E5
:10206000F5E1F694E794D794C794FA95D1F7C42A8A
:10207000D52AE62AF72AC80CD91CEA1CFB1C49AD54
:102080005AAD6BAD7CAD4E5D5E4962467249440E01
:10209000551E661E771EB901A801482559256A25D7
:1020A0007B254C255D256E257F25440E551E661E1D
:1020B000771ED20123013D014C0C5D1C6E1C7F1C60
:1020C00029964CAD5DAD6EAD7FAD2997445F574C01
:1020D0006A417240400F511F621F731F95018401B6
:1020E0000C251D252E253F250425152526253725BC
:1020F000040F151F261F371FB901A801A9E0769507
:10210000679557954795AA95D1F7B7E1000F111F2D
:10211000221F331FBA95D1F7042B152B262B372BF3
:10212000040D151D261D371D49895A896B897C8927
:102130004C5B554161447B45480D591D6A1D7B1D13
:102140004601570184249524A624B724802691268D
:10215000A226B326840E951EA61EB71EB501A401A5
:1021600084E0440F551F661F771F8A95D1F79CE1C5
:10217000B694A794979487949A95D1F7842A952A30
:10218000A62AB72A800E911EA21EB31E4D8D5E8D0B
:102190006F8D78A1475550436142744BC40ED51ED4
:1021A000E61EF71EB301A2014027512762277327BD
:1021B000482559256A257B254C0D5D1D6E1D7F1D0B
:1021C000DB01CA01EBE0880F991FAA1FBB1FEA952C
:1021D000D1F7F5E17695679557954795FA95D1F73B
:1021E000482B592B6A2B7B2B480D591D6A1D7B1DD3
:1021F000C9A4DAA4EBA4FCA4B0EACB1AB4EBDB0AC2
:10220000B4E4EB0AB9E0FB0A4C0C5D1C6E1C7F1CAD
:1022100068017901C824D924EA24FB24C426D526E0
:10222000E626F7264C0C5D1C6E1C7F1CF201230178
:102230003F01440E551E661E771ECDA8DEA8EFA8EE
:10224000F8ACF0E9CF1AF3E4DF0AF0E4EF0AF1E4C6
:10225000FF0AC00ED11EE21EF31E95018401042761
:1022600015272627372704251525262537250C0D64
:102270001D1D2E1D3F1D68017901A9E0F694E7940C
:10228000D794C794AA95D1F7B7E1000F111F221F69
:10229000331FBA95D1F70C291D292E293F29040D8A
:1022A000151D261D371D2596CCACDDACEEACFFAC64
:1022B00025978AE3C81A81E8D80A84E6E80A87EDF8
:1022C000F80AC80CD91CEA1CFB1C4A015B018424D7
:1022D0009524A624B72480269126A226B3268C0C0A
:1022E0009D1CAE1CBF1C7501640184E0CC0CDD1C80
:1022F000EE1CFF1C8A95D1F79CE1B694A7949794A5
:1023000087949A95D1F78C289D28AE28BF28800EF7
:10231000911EA21EB31ECD84DE84EF84F88896E061
:10232000C91A98EDD90A9EE5E90A95E1F90AC40EA1
:10233000D51EE61EF71EB301A201402751276227D2
:102340007327482559256A257B254C0D5D1D6E1D7B
:102350007F1D6A017B01EBE0CC0CDD1CEE1CFF1C39
:10236000EA95D1F7F5E17695679557954795FA95F2
:10237000D1F74C295D296E297F29480D591D6A1D09
:102380007B1DC98CDA8CEB8CFC8CABE7CA1AAFECEA
:10239000DA0AA0E1EA0AABE2FA0A4C0C5D1C6E1CF8
:1023A0007F1C68017901C824D924EA24FB24C426AF
:1023B000D526E626F7264C0C5D1C6E1C7F1CF20110
:1023C00023013F01440E551E661E771ECDA0DEA0E0
:1023D000EFA0F8A4FBEFCF1AF2EEDF0AF7E7EF0A5F
:1023E000FBEFFF0AC00ED11EE21EF31E9501840111
:1023F00004271527262737270425152526253725C1
:102400000C0D1D1D2E1D3F1D68017901A9E0F694DC
:10241000E794D794C794AA95D1F7B7E1000F111F9D
:10242000221F331FBA95D1F70C291D292E293F29C8
:10243000040D151D261D371DC9A8DAA8EBA8FCA898
:1024400087ECC81A8FE2D80A8BE2E80A86E2F80A1B
:10245000C80CD91CEA1CFB1C4A015B01842495248E
:10246000A624B72480269126A226B3268C0C9D1C78
:10247000AE1CBF1C7501640184E0CC0CDD1CEE1C9D
:10248000FF1C8A95D1F79CE1B694A7949794879402
:102490009A95D1F78C289D28AE28BF28800E911ED2
:1024A000A21EB31E2196CCACDDACEEACFFAC2197E6
:1024B0009BE1C91A96E6D90A94E2E90A99E1F90A78
:1024C000C40ED51EE61EF71EB301A20140275127F8
:1024D00062277327482559256A257B254C0D5D1DEC
:1024E0006E1D7F1D6A017B01EBE0CC0CDD1CEE1C38
:1024F000FF1CEA95D1F7F5E17695679557954795D5
:10250000FA95D1F74C295D296E297F29480D591D6F
:102510006A1D7B1D2D96CCACDDACEEACFFAC2D97CF
:10252000A8E0CA1AA3E8DA0AADE5EA0AA0EEFA0AB8
:102530004C0C5D1C6E1C7F1C68017901C824D924D9
:10254000EA24FB24C426D526E626F7264C0C5D1C7F
:102550006E1C7F1CF20123013F01440E551E661EB6
:10256000771ECD88DE88EF88F88CFBE9CF1AF9EA70
:10257000DF0AF3E5EF0AFBE3FF0AC00ED11EE21EFD
:10258000F31E9501840104271527262737270425E4
:102590001525262537250C0D1D1D2E1D3F1D6801F7
:1025A0007901A9E0F694E794D794C794AA95D1F756
:1025B000B7E1000F111F221F331FBA95D1F70C2965
:1025C0001D292E293F29040D151D261D371DCD84DB
:1025D000DE84EF84F8888CEBC81A8DEDD80A86ED7E
:1025E000E80A8BE0F80AC80CD91CEA1CFB1C4A015B
:1025F0005B0180949094A094B094802A912AA22A9E
:10260000B32A84249524A624B7248C0C9D1CAE1CCC
:10261000BF1C7501640186E0CC0CDD1CEE1CFF1CA8
:102620008A95D1F79AE1B694A794979487949A954E
:10263000D1F78C289D28AE28BF28800E911EA21E9F
:10264000B31EC9A4DAA4EBA4FCA499E6C91AD10864
:1026500095EDE90A9CEBF90AC40ED51EE61EF71E9D
:10266000B301A2014095509560957095482959296C
:102670006A297B2940275127622773274C0D5D1D4E
:102680006E1D7F1D6A017B01EAE0CC0CDD1CEE1C97
:10269000FF1CEA95D1F7F6E1769567955795479532
:1026A000FA95D1F74C295D296E297F29480D591DCE
:1026B0006A1D7B1D2996CCACDDACEEACFFAC299736
:1026C000A9E5CA1AACEDDA0AABE6EA0AA4E5FA0A09
:1026D000C40CD51CE61CF71C280139014094509409
:1026E00060947094442A552A662A772A48245924EB
:1026F0006A247B244C0C5D1C6E1C7F1C73016201E0
:10270000AFE0CC0CDD1CEE1CFF1CAA95D1F7B1E1AB
:102710007694679457944794BA95D1F74C285D28DE
:102720006E287F28440E551E661E771EC9A0DAA0AB
:10273000EBA0FCA0B7ECCB1ABFE5DB0ABCE6EB0ACA
:10274000B3E0FB0AC00ED11EE21EF31E9501840108
:1027500000951095209530950429152926293729AB
:1027600004271527262737270C0D1D1D2E1D3F1D5D
:10277000680179018BE0F694E794D794C7948A9521
:10278000D1F795E1000F111F221F331F9A95D1F742
:102790000C291D292E293F29040D151D261D371D25
:1027A0002196CCACDDACEEACFFAC2197EDE3CE1ABC
:1027B000E6EADE0AE4EAEE0AEAE9FE0AC80CD91CF7
:1027C000EA1CFB1C4A015B0180949094A094B09495
:1027D000802A912AA22AB32A84249524A624B724E5
:1027E0008C0C9D1CAE1CBF1C75016401E6E0CC0C7A
:1027F000DD1CEE1CFF1CEA95D1F7FAE1B694A79414
:1028000097948794FA95D1F78C289D28AE28BF28F5
:10281000800E911EA21EB31EC98CDA8CEB8CFC8C30
:10282000FEE6CF1AF3E3DF0AF3EFEF0AF0E7FF0A61
:10283000C40ED51EE61EF71EB301A20140955095A9
:1028400060957095482959296A297B294027512785
:10285000622773274C0D5D1D6E1D7F1D6A017B0174
:10286000AAE0CC0CDD1CEE1CFF1CAA95D1F7B6E14A
:102870007695679557954795BA95D1F74C295D2977
:102880006E297F29480D591D6A1D7B1DCDA8DEA824
:10289000EFA8F8AC83E8C81A8BE0D80A80E1E80A10
:1028A000F108C40CD51CE61CF71C28013901409422
:1028B000509460947094442A552A662A772A4824B2
:1028C00059246A247B244C0C5D1C6E1C7F1C7301F4
:1028D00062018FE0CC0CDD1CEE1CFF1C8A95D1F749
:1028E00091E176946794579447949A95D1F74C2840
:1028F0005D286E287F28440E551E661E771EC988E7
:10290000DA88EB88FC889FE2C91A92EAD90A9BE729
:10291000E90A9AE7F90AC00ED11EE21EF31E9501DC
:1029200084010095109520953095042915292629B4
:10293000372904271527262737270C0D1D1D2E1D87
:102940003F1D68017901EBE0F694E794D794C794B2
:10295000EA95D1F7F5E1000F111F221F331FFA95F9
:10296000D1F70C291D292E293F29040D151D261DDF
:10297000371DCDA4DEA4EFA4F8A8A1EBCA1AA1E8E4
:10298000DA0AA7E5EA0AA0E9FA0AC80CD91CEA1C87
:10299000FB1C4A015B0180949094A094B094802A1F
:1029A000912AA22AB32A84249524A624B7248C0C25
:1029B0009D1CAE1CBF1C75016401A6E0CC0CDD1C87
:1029C000EE1CFF1CAA95D1F7BAE1B694A794979490
:1029D0008794BA95D1F78C289D28AE28BF28800E01
:1029E000911EA21EB31E2D968CAD9DADAEADBFAD9A
:1029F0002D9780529941A34DB140840F951FA61F7A
:102A0000B71FB301A2014095509560957095482974
:102A100059296A297B294027512762277327840F68
:102A2000951FA61FB71F6C017D014AE0CC0CDD1C71
:102A3000EE1CFF1C4A95D1F7AC01BD01E6E176958D
:102A4000679557954795EA95D1F74C295D296E29E9
:102A50007F29480D591D6A1D7B1D8DA19EA1AFA127
:102A6000B8A58C5E9C4BAE4FBC45840D951DA61D34
:102A7000B71D280139014094509460947094442A01
:102A8000552A662A772A482459246A247B24840DEF
:102A9000951DA61DB71D6C017D01FFE0CC0CDD1C52
:102AA000EE1CFF1CFA95D1F72C013D01A1E17694B3
:102AB000679457944794AA95D1F74C285D286E28BF
:102AC0007F28440E551E661E771E25968CAD9DAD43
:102AD000AEADBFAD25978F559E4EA74FB14B800F22
:102AE000911FA21FB31F9501840100951095209599
:102AF0003095042915292629372904271527262743
:102B00003727800F911FA21FB31F6C017D011BE0AF
:102B1000F694E794D794C7941A95D1F78C019D0148
:102B200085E1000F111F221F331F8A95D1F70C2951
:102B30001D292E293F29040D151D261D371D8D8D9C
:102B40009E8DAF8DB8A18E579148AC4AB840880D84
:102B5000991DAA1DBB1D4A015B0180949094A0940D
:102B6000B094802A912AA22AB32A84249524A624E8
:102B7000B724880D991DAA1DBB1D6C017D01E6E0DF
:102B8000CC0CDD1CEE1CFF1CEA95D1F74C015D015D
:102B9000FAE1B694A79497948794FA95D1F78C2884
:102BA0009D28AE28BF28800E911EA21EB31E89AD9F
:102BB0009AADABADBCAD8B5C9D40A54CB244840FCF
:102BC000951FA61FB71FB301A201409550956095B0
:102BD0007095482959296A297B294027512762275E
:102BE0007327840F951FA61FB71F6C017D014AE054
:102BF000CC0CDD1CEE1CFF1C4A95D1F7AC01BD01CD
:102C0000E6E17695679557954795EA95D1F74C2972
:102C10005D296E297F29480D591D6A1D7B1D8D89EF
:102C20009E89AF89B88D85549D42A842B54D840DCB
:102C3000951DA61DB71D280139014094509460943C
:102C40007094442A552A662A772A482459246A24EB
:102C50007B24840D951DA61DB71D6C017D01FFE031
:102C6000CC0CDD1CEE1CFF1CFA95D1F72C013D01AC
:102C7000A1E17694679457944794AA95D1F74C288C
:102C80005D286E287F28440E551E661E771E89A972
:102C90009AA9ABA9BCA98F569C42A947B441800F01
:102CA000911FA21FB31F95018401009510952095D7
:102CB0003095042915292629372904271527262781
:102CC0003727800F911FA21FB31F6C017D011BE0EE
:102CD000F694E794D794C7941A95D1F78C019D0187
:102CE00085E1000F111F221F331F8A95D1F70C2990
:102CF0001D292E293F29040D151D261D371D6196FE
:102D00008CAD9DADAEADBFAD6197880D991DAA1D6F
:102D1000BB1D61968CAF9DAFAEAFBFAF6197898190
:102D20009A81AB81BC81800F911FA21FB31F898341
:102D30009A83AB83BC830D811E812F813885040D5E
:102D4000151D261D371D0D831E832F83388789850A
:102D50009A85AB85BC85840F951FA61FB71F8987F1
:102D60009A87AB87BC87E796AEADBFADE797A05C0F
:102D7000BF4FE796BFAFAEAFE797B0E42B1A31086D
:102D800011F00C943F0761960CAD1DAD2EAD3FAD1B
:102D90006197E996AEADBFADE99718960D931D9377
:102DA0002D933C931B9709811A812B813C811C96A2
:102DB0000D931D932D933C931F970D811E812F81A1
:102DC000388550960D931D932D933C935397098509
:102DD0001A852B853C8554960D931D932D933C931A
:102DE0005797E7968EAD9FADE797C858DF4F0FB660
:102DF000F894DEBF0FBECDBFDF91CF911F910F9131
:102E0000FF90EF90DF90CF90BF90AF909F908F900A
:102E10007F906F905F904F903F902F9008950F9309
:102E20001F93CF93DF93EC01062F142F60E08E8564
:102E30000E9493013C852D858091AE02882381F00C
:102E40009FB7F8948091AE02813081F58DB3809365
:102E5000AA024DB38091AD02809584238DBB9FBFA4
:102E60003CBD2DBD0EBD00000DB407FEFDCF8EB5DF
:102E70001EBD00000DB407FEFDCF1EB58091AE0251
:102E8000882351F09FB7F8942091AE028091AA0256
:102E9000213079F48DBB9FBF61E08E850E94930144
:102EA000812FDF91CF911F910F9108959093AA02E6
:102EB000D7CF8FBFF1CFCF93DF93EC01429714F0C0
:102EC000C1E1D0E044E86DEC86E09FE10E940F177D
:102ED000C230D10514F4C2E0D0E0C2504C2F40689B
:102EE00069E886E09FE1DF91CF910C940F17CF93B3
:102EF000DF93672BB1F4EC010F9714F0CEE0D0E034
:102F000044E86DEC86E09FE10E940F17D7FDC0E01A
:102F10004C2F406769E886E09FE1DF91CF910C94E8
:102F20000F17DF91CF910C945B17AF92BF92CF92A6
:102F3000DF92EF92FF920F931F93CF9360931A1F2C
:102F400070931B1F80931C1F90931D1F6B017C01AE
:102F5000FF0CCC08DC2C76019B01AC016C2D7C2D88
:102F60008C2D9C2D03E10E948C2DA12CE8E4BE2E1B
:102F7000F8EECF2EDD24D394E12CF12C00E010E00C
:102F80000E942F2DC22FC22ED32E7A01A7016627B1
:102F9000772766E886E09FE10E940F1777276F2D5D
:102FA0005E2D4D2D67E886E09FE10E940F174C2FA4
:102FB00068E886E09FE1CF911F910F91FF90EF901D
:102FC000DF90CF90BF90AF900C940F1740E861E86E
:102FD00086E09FE10E940F179FB7F8948091AF029F
:102FE000882319F081508093AF028091AF02811144
:102FF00005C08CB58F7B8CBD1092AE029FBF109226
:103000005E1E089540E00C940F17CF92DF92EF926E
:10301000FF920F931F93CF93DF936AE186E09FE1C6
:103020000E940218C82FD0E069E186E09FE10E946B
:103030000218682F880F770B880B990B0E94132BAF
:1030400020E030E040E85EE30E94722B0E94A92C51
:103050006B018B0160911A1F70911B1F80911C1FC7
:1030600090911D1F0E94132B24ED30E843E45EE491
:103070000E940C2BBE0187FD10C06D59710917FF0E
:103080000FC06C0D7D1DCB01DF91CF911F910F9172
:10309000FF90EF90DF90CF900895645A7109EFCFC1
:1030A000072E000C880B990B0E94132B20EB32E7A4
:1030B00048E85FE30E94722B0E94A92CE4CF43E80A
:1030C00061E886E09FE10E940F1762E186E09FE1E0
:1030D0000E94021883FFF9CF48E062E986E09FE191
:1030E0000E940F1781E090E00895CF92DF92EF9257
:1030F000FF926EE186E09FE10E94021882958F7038
:10310000CC24C394D12C02C0CC0CDD1C8A95E2F7F0
:103110000D2C000CEE08FF086DE186E09FE10E9497
:10312000021890E044E0959587954A95E1F78A303A
:10313000910534F5FC01EE0FFF1FE80FF91FEB5D61
:10314000FD4F608171818281082E000C990B28EE61
:1031500033E040E050E00E94462CC701B6010E94D7
:10316000462C213131054105510574F04CE066EAE9
:1031700086E09FE1FF90EF90DF90CF900C940F17C7
:1031800060E070E0CB01E3CF44E0F1CFCF93DF9379
:10319000EC01863091052CF08D30910534F50697C1
:1031A00031F545EC61EB86E09FE10E940F174CE0A2
:1031B00067EB86E09FE10E940F17C6E0D0E06EE16A
:1031C00086E09FE10E9402188F7094E0CC0FDD1F13
:1031D0009A95E1F74C2F482B6EE986E09FE10E941B
:1031E0000F17DF91CF910C947518CCE0D0E043EC31
:1031F00061EB86E09FE10E940F174AE067EB86E0F3
:103200009FE10E940F17DBCFCF93DF93EC0109976B
:1032100014F0C8E0D0E06DE186E09FE10E94021862
:10322000C530D10514F4C5E0D0E02497CC0FDD1FE4
:10323000482F417F4C2B6DE986E09FE1DF91CF91D4
:103240000C940F171092211F1092201F6DE186E041
:103250009FE10E940218482F4E7F6DE986E09FE1B2
:103260000C940F1781E090E09093211F8093201F12
:103270006DE186E09FE10E940218482F41606DE9F0
:1032800086E09FE10C940F17CF93DF93EC0141E8A8
:1032900061E886E09FE10E940F17CD2B99F00E9414
:1032A000321940E06DE886E09FE10E940F1740E090
:1032B00062EA86E09FE10E940F1781E090E0DF91D3
:1032C000CF9108950E942219ECCF0F931F93CF93B3
:1032D000DF9366E086E09FE10E940218D82F67E046
:1032E00086E09FE10E940218C82F68E086E09FE117
:1032F0000E9402184C2F50E070E060E0762F652F9E
:10330000542F44276D2B8A019B01082BC901B8015A
:1033100020E038E448EE51E00E94022D03E10E94D3
:10332000A72D2093280A3093290A40932A0A509304
:103330002B0ADF91CF911F910F910895CF92DF92C9
:10334000EF92FF92CF93DF936091240A7091250A48
:103350008091260A9091270A0E94132B6B017C0111
:1033600020E030EC43EF55E40E940C2BD0E0C0E0AD
:1033700018160CF065C020E030E842E256E4C701C0
:10338000B6010E940C2BC1E0D0E018160CF058C01A
:1033900020E030EC43E756E4C701B6010E940C2B55
:1033A000C2E0D0E018160CF04BC020E030E842EA52
:1033B00056E4C701B6010E940C2BC3E0D0E01816FA
:1033C0000CF03EC020E034E244EF56E4C701B60101
:1033D0000E940C2BC4E0D0E0181694F520E034EEE7
:1033E00042E257E4C701B6010E940C2BC5E0D0E0D1
:1033F000181634F520E034E244E757E4C701B6017B
:103400000E940C2BC6E0D0E01816D4F420E034E281
:1034100044EF57E4C701B6010E940C2BC7E0D0E08F
:10342000181674F420E034E244E758E4C701B6010A
:103430000E940C2BC9E0D0E0181614F0C8E0D0E0D0
:103440006DE186E09FE10E9402188F7044E0CC0F8E
:10345000DD1F4A95E1F74C2F482B6DE986E09FE18F
:103460000E940F170E94751880915E1E882319F123
:103470006DE186E09FE10E94021890E034E09595AE
:1034800087953A95E1F78A309105E4F4FC01EE0F57
:10349000FF1FE80FF91FEB5DFD4F80819181A28135
:1034A0000A2E000CBB0B8093240A9093250AA0934C
:1034B000260AB093270ADF91CF91FF90EF90DF901B
:1034C000CF90089580E090E0DC01EDCFCF9368E1EC
:1034D00086E09FE10E940218C82F6BE186E09FE121
:1034E0000E9402182FB7F8948091601E9091611E7F
:1034F000A091621EB091631E2FBF80931908909314
:103500001A08A0931B08B0931C08C0FF2BC081E0D1
:103510008093B4028093B3028093B2028091B00290
:103520009091B1022091B402211108C02091B30200
:10353000211104C02091B202222309F18F3091059C
:10354000C0F401969093B1028093B00281E0809321
:103550005B1E80915A1E8823F9F061E08CE0CF91C8
:103560000C9493011092B4021092B3021092B20222
:10357000D5CF81E080935B1E80935A1EEACF0097DF
:1035800041F001979093B1028093B00210925B1EBC
:10359000E0CF10925A1EFACFCF910C94EA05CF9348
:1035A000DF9362E186E09FE10E940218C82F482F56
:1035B00062E986E09FE10E940F17C5FD2DC01092C1
:1035C0001F1F10921E1F8091201F9091211F62E2E9
:1035D000892B09F463E186E09FE10E940218C82F5D
:1035E000D0E060E186E09FE10E940218482F6DE87C
:1035F00086E09FE10E940F17E091221FF091231FA8
:10360000309711F0CE01199540E06DE886E09FE11A
:10361000DF91CF910C940F17DF91CF91089508950A
:103620000F931F93CF93DF93EC01E881F98100841E
:10363000F185E02D1995892BB1F06DE0CE010E9446
:103640000218082F60E0CE010E940218182F402FA8
:103650006DE8CE010E940F17812F90E0DF91CF918E
:103660001F910F9108958FEF9FEFF8CFCF93DF93C6
:10367000EC01E881F9810084F185E02D1995892B11
:1036800069F0888D998D0196998F888F60E0CE01C1
:103690000E94021890E0DF91CF9108958FEF9FEF85
:1036A000FACFCF93DF93EC012097E1F0219780913F
:1036B000AB029091AC028C3F9140A0F486E09FE178
:1036C0000E94361B2091AB023091AC02A9014F5FE2
:1036D0005F4F5093AC024093AB02245E3C4FF90124
:1036E0008083E2CFDF91CF9108950F931F93CF9303
:1036F000DF93EC018091210A811178C086E09FE17F
:103700000E94361B21974091000280FF55C09C010A
:1037100054E0359527955A95E1F72F7033274F3FA1
:10372000D1F41092AC021092AB02209300020E94DE
:103730000518909314028093130269E186E09FE1DB
:103740000E94021880931202CE01DF91CF911F9147
:103750000F910C94511B2413E4CF0E940518209163
:10376000130230911402820F931F97FD01969595D5
:10377000879590931402809313020091120210E037
:1037800069E186E09FE10E940218800F912F911D50
:103790009595879580931202CE010E94511B8FEF61
:1037A000809300020E94B4050E94A705DF91CF918B
:1037B0001F910F910C94E4044F3F39F01092AC022A
:1037C0001092AB028FEF809300020E940518909335
:1037D00014028093130269E186E09FE10E940218BF
:1037E00080931202CE010E94511BDCCF1092AC02DA
:1037F0001092AB02EACFCF93DF93EC0163E10E941A
:10380000021890E0288D398D821B930BDF91CF91A8
:103810000895AF92BF92CF92DF92FF920F931F93C2
:10382000CF93DF936C015B01EA0162E20E94021810
:10383000F82E90E09C012C0F3D1F2F3F310529F001
:1038400020F0CFEFD0E0C81BD90B8501AC0EBD1E18
:103850000A151B0541F0F80141918F0160E8C6018E
:103860000E940F17F5CF4C2F4F0D62EAC6010E9440
:103870000F17CE01DF91CF911F910F91FF90DF9035
:10388000CF90BF90AF900895CF93DF931F92CDB7A5
:10389000DEB76983DC01ED91FC910280F381E02DBC
:1038A00041E050E0BE016F5F7F4F19950F90DF91AF
:1038B000CF91089590E080E008958091B602823A19
:1038C00049F470E060E080911702909118020E9424
:1038D00077170895833AA9F3843A99F3873A39F42C
:1038E00080911702909118020E945B170895883A00
:1038F000B9F3893AA9F3833B99F3843B89F3883B75
:1039000079F3893B69F3843C59F3893C31F4809124
:103910001702909118020C945B17843EC1F3893E04
:10392000B1F38E3FA1F38F3F41F470E060E08091EE
:103930001702909118020C9477170895CF938091F5
:103940001F0A811103C00E9422190CC0C091200AD5
:10395000CC23C9F30E9432194C2F62EA86E09FE122
:103960000E940F1745E861E886E09FE1CF910C9433
:103970000F17CF92DF92EF92FF92CF93DF930E94C7
:10398000B304D0915E1ED11190C1809111028111BA
:1039900085C1C091591ECC2309F480C1C090280A6A
:1039A000D090290AE0902A0AF0902B0A61E08091D9
:1039B000141F0E941F0261E08091141F0E94930156
:1039C0008091161F9091171F8F3F9807C9F061E0F3
:1039D0000E941F0260E08091161F0E9493016AE01E
:1039E00070E080E090E00E944C0361E08091161F3F
:1039F0000E9493016AE070E080E090E00E944C0336
:103A0000DFB7F8948091AF02811127C0EDE1F2E0B9
:103A10008491E3E6F2E09491E82FF0E0EE0FFF1FCF
:103A2000EC54FE4FA591B491EC91E92321F461E0AF
:103A300085E30E94930161E085E30E941F028CB53B
:103A400080618CBD8CB580648CBD61E084E30E9494
:103A50001F0261E083E30E941F028091AF028F5F2B
:103A60008093AF02DFBF62E486E09FE10E9402180C
:103A7000823181F081E00E94460590E080E00E9462
:103A80002C06D0E08D2FDF91CF91FF90EF90DF904B
:103A9000CF90089540E861E886E09FE10E940F170B
:103AA000C701B6010E94951740E06EE886E09FE1ED
:103AB0000E940F1740E06FE886E09FE10E940F1719
:103AC0006CE086E09FE10E940218482F43606CE89A
:103AD00086E09FE10E940F1744E066EA86E09FE1DE
:103AE0000E940F1782E090E00E945B1741E861E8B6
:103AF00086E09FE10E940F1781E080935E1E0E9486
:103B00005D1C0E949E198091220A9091230A0E94B6
:103B1000C61880911502909116020E9404190E9405
:103B200065196EE186E09FE10E940218482F44600B
:103B30006EE986E09FE10E940F1785E79BE1909375
:103B4000231F8093221F60E08091181F0E941F0294
:103B500040E060EC86E09FE10E940F172091181F63
:103B60003091191F80E02230310551F081E023307F
:103B7000310531F0C9014297049790F487E1821B27
:103B80002FB7F894823009F43FC060F4882309F419
:103B900041C0813071F082E08093AE0280E00AC0C3
:103BA0008FEFEECF8430A1F188F18530A1F788E066
:103BB00001C080E29091AD02892B8093AD0280918B
:103BC000AE02811103C081E08093AE022FBF20912D
:103BD000181F3091191F22303105F1F48FEC9AE152
:103BE000909302028093010280916A008360809327
:103BF0006A00EC9A0E949E1C0E94390583E090E0C6
:103C00000E94EE05DC2F3ECF81E0D4CF82E0D2CF00
:103C100084E0D0CF80E1CECF2330310569F48FEC42
:103C20009AE1909304028093030280916A008C6071
:103C300080936A00ED9ADECFC90142970497D0F6CF
:103C400087E1821BE82FF0E0EE0FFF1FEF5FFD4FD3
:103C50002FEC3AE131832083843091F08530B9F044
:103C6000833039F080916900836080936900E89A1D
:103C7000C1CF809169008C6080936900E99ABACFC6
:103C800080916900806380936900EA9AB3CF809144
:103C90006900806C80936900EB9AACCF0E94390573
:103CA00083E090E00E94CD05EDCE0E943905EACE7A
:103CB0000C94302C1F920F920FB60F9211242F9359
:103CC0003F938F939F93AF93BF938091601E90918A
:103CD000611EA091621EB091631E30915F1E23E0B1
:103CE000230F2D3758F50196A11DB11D20935F1E9E
:103CF0008093601E9093611EA093621EB093631E1A
:103D00008091641E9091651EA091661EB091671E01
:103D10000196A11DB11D8093641E9093651EA09312
:103D2000661EB093671EBF91AF919F918F913F9197
:103D30002F910F900FBE0F901F90189526E8230F1C
:103D40000296A11DB11DD2CF1F920F920FB60F92F6
:103D500011240BB60F922F933F934F935F936F9362
:103D60007F938F939F93AF93BF93EF93FF93E091D4
:103D70000F02F09110021995FF91EF91BF91AF9151
:103D80009F918F917F916F915F914F913F912F9173
:103D90000F900BBE0F900FBE0F901F9018951F92A3
:103DA0000F920FB60F9211240BB60F922F933F93E1
:103DB0004F935F936F937F938F939F93AF93BF9333
:103DC000EF93FF93E0910D02F0910E021995FF9190
:103DD000EF91BF91AF919F918F917F916F915F9183
:103DE0004F913F912F910F900BBE0F900FBE0F90F0
:103DF0001F9018951F920F920FB60F9211240BB6B9
:103E00000F922F933F934F935F936F937F938F9373
:103E10009F93AF93BF93EF93FF93E0910302F091D1
:103E200004021995FF91EF91BF91AF919F918F91EE
:103E30007F916F915F914F913F912F910F900BBEAA
:103E40000F900FBE0F901F9018951F920F920FB6F4
:103E50000F9211240BB60F922F933F934F935F93C2
:103E60006F937F938F939F93AF93BF93EF93FF9342
:103E7000E0910102F09102021995FF91EF91BF913B
:103E8000AF919F918F917F916F915F914F913F91F2
:103E90002F910F900BBE0F900FBE0F901F90189593
:103EA0001F920F920FB60F9211240BB60F922F9301
:103EB0003F934F935F936F937F938F939F93AF93B2
:103EC000BF93EF93FF93E0910B02F0910C021995D1
:103ED000FF91EF91BF91AF919F918F917F916F91E2
:103EE0005F914F913F912F910F900BBE0F900FBE9E
:103EF0000F901F9018951F920F920FB60F921124DA
:103F00000BB60F922F933F934F935F936F937F93D3
:103F10008F939F93AF93BF93EF93FF93E091090229
:103F2000F0910A021995FF91EF91BF91AF919F9186
:103F30008F917F916F915F914F913F912F910F9052
:103F40000BBE0F900FBE0F901F9018951F920F92EF
:103F50000FB60F9211240BB60F922F933F934F93EE
:103F60005F936F937F938F939F93AF93BF93EF93E1
:103F7000FF93E0910702F09108021995FF91EF91EC
:103F8000BF91AF919F918F917F916F915F914F9171
:103F90003F912F910F900BBE0F900FBE0F901F906F
:103FA00018951F920F920FB60F9211240BB60F9215
:103FB0002F933F934F935F936F937F938F939F9331
:103FC000AF93BF93EF93FF93E0910502F091060248
:103FD0001995FF91EF91BF91AF919F918F917F9133
:103FE0006F915F914F913F912F910F900BBE0F906A
:103FF0000FBE0F901F9018951F920F920FB60F9241
:1040000011240BB60F922F933F934F935F936F93AF
:104010007F938F939F93AF93BF93EF93FF9388E624
:104020009EE10E94F303FF91EF91BF91AF919F91A9
:104030008F917F916F915F914F913F912F910F9051
:104040000BBE0F900FBE0F901F9018951F920F92EE
:104050000FB60F9211240BB60F922F938F939F934D
:10406000EF93FF93E091781EF091791E8081E091AB
:104070007E1EF0917F1E82FD1DC090818091811E69
:104080008F5F8F732091821E821741F0E091811E15
:10409000F0E0E859F14E958F8093811EFF91EF91EA
:1040A0009F918F912F910F900BBE0F900FBE0F908D
:1040B0001F9018958081F2CF1F920F920FB60F922A
:1040C00011240BB60F922F933F934F935F936F93EF
:1040D0007F938F939F93AF93BF93CF93EF93FF9370
:1040E0008091B502811127C081E08093B502C4E1BF
:1040F00088E69EE10E94DD03892BD9F08FB7F89402
:104100004091551E5091561E2091511E3091521EC5
:104110004217530721F54091571E5091581E209188
:10412000531E3091541E42175307C9F48FBFC1501C
:10413000F9F61092B502FF91EF91CF91BF91AF9137
:104140009F918F917F916F915F914F913F912F91AF
:104150000F900BBE0F900FBE0F901F9018954091BF
:10416000571E5091581E2091551E3091561E2150B9
:10417000310942175307D1F28FBF88E69EE10E94B2
:10418000BB032FB7F894E091571EF091581E80831F
:104190004091571E5091581E8091531E9091541E6D
:1041A0004817590751F48091511E9091521E9093D7
:1041B000581E8093571E2FBFBACF8091571E9091E3
:1041C000581E0196F4CF88E198E00FB6F894A895B0
:1041D000809360000FBE909360000E94C9050E940A
:1041E000EA05FBCF1F93CF93DF93EC01162F0E94BC
:1041F000302C181739F0612FCE01DF91CF911F912C
:104200000C94382CDF91CF911F910895E8E6FEE1E0
:104210001382128288EE93E0A0E0B0E0848395835D
:10422000A683B78387E492E09183808385EC90E056
:104230009587848784EC90E09787868780EC90E070
:10424000918B808B81EC90E0938B828B82EC90E061
:10425000958B848B86EC90E0978B868B118E128EDB
:10426000138E148E81E08093051FE6E0FFE1138238
:10427000128229E532E03183208390E59487858797
:104280008AE090E09787868789E090E0918B808B29
:1042900082E090E0938B828B148A158A168A178AA3
:1042A000118E108E138E128E158E148E148215821E
:1042B000168217820895CF93DF93CDB7DEB7C85922
:1042C000D1090FB6F894DEBF0FBECDBF789484B588
:1042D000826084BD84B5816084BD85B5826085BD02
:1042E00085B5816085BD80916E00816080936E0090
:1042F0001092810080918100826080938100809182
:104300008100816080938100809180008160809332
:1043100080008091B10084608093B1008091B000F2
:1043200081608093B00080919100826080939100C1
:1043300080919100816080939100809190008160D4
:10434000809390008091A10082608093A100809171
:10435000A10081608093A1008091A0008160809382
:10436000A000809121018260809321018091210130
:1043700081608093210180912001816080932001E0
:1043800080917A00846080937A0080917A008260C4
:1043900080937A0080917A00816080937A00809186
:1043A0007A00806880937A001092C10080917B002F
:1043B000877F80937B0080E480937C0080917A00EB
:1043C000806480937A0080917A0086FDFCCF6091B2
:1043D000780070917900072E000C880B990B6115FD
:1043E00071058105910511F00E94032BE8E1F5E0CC
:1043F00081E093E0DF019C011D9221503040E1F704
:10440000F093521EE093511EF093581EE093571EF6
:10441000F093561EE093551E88E198E09093541E49
:104420008093531EE091781EF091791E82E0808384
:10443000E091741EF091751E1082E091761EF0914D
:10444000771E80E180831092801EE0917C1EF091A7
:104450007D1E86E08083E0917A1EF0917B1E808134
:1044600080618083E0917A1EF0917B1E808188605C
:104470008083E0917A1EF0917B1E8081806880832A
:10448000E0917A1EF0917B1E80818F7D8083109257
:10449000900089E18093910080E89EE390939700DB
:1044A0008093960080E28093710061E08CE00E942E
:1044B0001F0261E08DE00E941F02ECE1F3E08CEF4F
:1044C00091E0DF019C011D9221503040E1F7ECE2C8
:1044D000FAE08AE0DF011D928A95E9F7E6E3FAE067
:1044E00080E094E1DF019C011D9221503040E1F712
:1044F000EAEEF2E082E3DF01282F1D922A95E9F728
:10450000F093481EE093471EF0934E1EE0934D1E1D
:10451000F0934C1EE0934B1E2AE133E030934A1E89
:104520002093491EE8EBF2E0DF011D928A95E9F73E
:10453000F0933A1EE093391EF093401EE0933F1E25
:10454000F0933E1EE0933D1E88EE92E090933C1E59
:1045500080933B1E85E090E09093151F8093141F7D
:1045600084E090E09093171F8093161F82E090E004
:104570009093191F8093181F8091281F811101C0EB
:1045800083E0282F80FF69C182E08093B702809189
:10459000B7028150823008F074C283ED9FE00E9420
:1045A000581E833709F06DC188E39FE00E94581EB2
:1045B000833009F063C189E39FE00E94581E809315
:1045C000B6028E3F08F45DC18AE39FE00E94581E48
:1045D00081508E3F08F055C18BE090E00E94CB2DBA
:1045E0006C018C01F8E3EF2EFFE0FF2EC7010E9463
:1045F000581EF80181938F01FFEFEF1AFF0A23E4A1
:10460000E2162FE0F20691F780E190E00E94CB2DB8
:104610008C0181E093E2A5E4B7E689879A87AB87AE
:10462000BC8789E89BEAADECBFEE8D879E87AF879C
:10463000B88B8EEF9CEDAAEBB8E9898B9A8BAB8B8C
:10464000BC8B86E794E5A2E3B0E18D8B9E8BAF8BAC
:10465000B88F1D821E821F821886FE01E75AFF4F07
:1046600080E4DF011D928A95E9F7CE018F5A9F4FB2
:1046700028E0FC0111922A95E9F72BE0F601DE0112
:10468000599601900D922A95E1F720E82CA3FE019E
:10469000B5962CE2DF011D922A95E9F748E550E036
:1046A00060E070E049835A836B837C8328E5FC01DA
:1046B000208340E450E0BE01675E7F4F8055910942
:1046C0000E945F0639852A859B858C85D8013C939D
:1046D00011962C93119712969C93129713968C9384
:1046E00013973D852E859F85888914963C93149752
:1046F00015962C93159716969C93169717968C9350
:10470000179739892A899B898C8918963C93189721
:1047100019962C9319971A969C931A971B968C931B
:104720001B973D892E899F89888D1C963C931C97E9
:104730001D962C931D971E969C931E971F968C93E7
:104740004801BB24B394C7010E94581EF401919103
:104750004F018913B12CFFEFEF1AFF0A23E5E21690
:104760002FE0F20681F7C8010E94672EC6010E9461
:10477000672EBB2009F487C081E08093591E8FED1E
:104780009FE00E94581E833709F07DC084ED9FE0B2
:104790000E94581E90E09093230A8093220A85ED90
:1047A0009FE00E94581E90E090931602809315029D
:1047B00086ED9FE00E94581E90E09093180280932F
:1047C00017028BED9FE00E94581E182F8CED9FE082
:1047D0000E94581E90E0B0E0A0E07C01DD24CC24D3
:1047E000F12A8DED9FE00E94581E182F8EED9FE05C
:1047F0000E94581EC82AD12AC092280AD092290A9B
:10480000E0922A0AF0922B0A87ED9FE00E94581E40
:10481000182F88ED9FE00E94581E90E0B0E0A0E0C5
:104820007C01DD24CC24F12A89ED9FE00E94581EF2
:10483000182F8AED9FE00E94581EC82AD12AC092E4
:10484000240AD092250AE092260AF092270A82E1F1
:10485000809319020E94B91C16C083E022FD95CEF8
:1048600023FF02C081E091CE42E250E067E672E0B1
:1048700088E69EE10E947F030E941506803F09F4AE
:104880009ACE1092591E812C44E1942E412C512C29
:10489000320153946CEDA62E6EEFB62E80915E1E03
:1048A000882309F410C22FB7F8948091601E90916C
:1048B000611EA091621EB091631E2FBF4091190826
:1048C00050911A0860911B0870911C08841B950B6D
:1048D000A60BB70B0397A105B10510F00E94661A4D
:1048E00080915D1E882309F415C110915C1E111181
:1048F00002C00E94661A80915B1E8111E0C1809106
:104900005A1E8111DCC1112331F062E370E080E0B6
:1049100090E00E944C030E94661A80915B1E8111F8
:10492000F9C010925C1E8091190A8111EBC081E0E0
:104930008093190A4FB7F89420914B1E30914C1E6A
:1049400080914D1E90914E1E4FBF2817390709F4D4
:10495000D9C0E0914B1EF0914C1E8091491E909160
:104960004A1EE817F90709F093C08091471E9091FD
:10497000481E90934C1E80934B1E20813181E09104
:104980003D1EF0913E1E80913B1E90913C1EE8170B
:10499000F90709F084C08091391E90913A1E9093D6
:1049A0003E1E80933D1E00811181C80101978C3FFE
:1049B000914008F0BFCFEDE1F8E02D513840C9013A
:1049C0008E0F9F1FB4010E94DF2CDC01AA5CB54F43
:1049D0008C918193CF018D5198408017910778F386
:1049E00080915E1E882309F485C08091210A81117F
:1049F0005DC00E94C9050E94B42AA30192010E94D1
:104A0000462C607F362E0F3F110510F0689430F869
:104A100090E080E00E944419632D86E09FE10E94AF
:104A2000441C2DE1C22E28E0D22EEE24E394F12C7A
:104A3000D6016D916D0186E09FE10E94441CBFEF9D
:104A4000EB1AFB0AEFEFEE16F10471F40E945F1807
:104A500090E080E00E944419632D86E09FE10E946F
:104A6000441CEE24E394F12CC6018D51984080172C
:104A70009107F0F20E945F180E94C5050E949E1CDB
:104A800059CF1092591E4EE150E06AE872E0F0CE24
:104A9000E0914B1EF0914C1ECF0102966ACFE0913F
:104AA0003D1EF0913E1ECF01029679CF0E94C905AE
:104AB0000F3F110519F010F00FEF10E080911F0A61
:104AC000811116C090E080E00E9444198DE1E82E2B
:104AD00088E0F82ED7016D917D0186E09FE10E946C
:104AE000441CC7018D5198408017910798F3C2CF9D
:104AF000C801EACF82E00E94460585E090E00E946E
:104B00002C0618CF10925D1E1092461E1092451E64
:104B10001092190A4FB7F8942091551E3091561EE5
:104B20008091571E9091581E4FBF2817390709F4DE
:104B3000BFC481E08093501E33243394A0E82A2E12
:104B4000CC24C394D12CEE24E39414E1F12E4FB77E
:104B5000F8942091551E3091561E8091571E9091C9
:104B6000581E4FBF2817390709F4A0C4E091551EFD
:104B7000F091561E8091531E9091541EE817F9072C
:104B800009F00CC18091511E9091521E9093561EB7
:104B90008093551E108180914F1E882309F48BC489
:104BA000103C09F016C180911A02811187C410923D
:104BB0004F1E80914B1E90914C1E4091471E50916C
:104BC000481E8417950761F420914D1E30914E1EAA
:104BD0008091491E90914A1E2817390709F4B7CFD2
:104BE00020914D1E30914E1E80914B1E90914C1E77
:104BF00002972817390709F4AACF8091451E909192
:104C0000461E8115944108F0A2CF2091431E309199
:104C1000441E8091411E9091421E019710F48FEF27
:104C200093E12817390709F4C0C0B60128173907DE
:104C300008F0B701621B730B860F971F009709F4EA
:104C400086CF60915D1E6F5F60935D1EE0914D1E8B
:104C5000F0914E1E3183208360914D1E70914E1E47
:104C60002091491E30914A1E6217730709F0A0C0B7
:104C700050934E1E40934D1EE0913F1EF091401EFA
:104C80009183808320913F1E3091401E80913B1E76
:104C900090913C1E2817390709F095C08091391E64
:104CA00090913A1E9093401E80933F1E8091411E2A
:104CB0009091421E9093441E8093431E48CF81E002
:104CC00080935C1E27CF80911B0A90911C0AA091B3
:104CD0001D0AB0911E0A0196A11DB11D2091591EF9
:104CE000222369F1893FEAE29E07A105B10548F454
:104CF00080931B0A90931C0AA0931D0AB0931E0A6E
:104D000009CF10921B0A10921C0A10921D0A1092D1
:104D10001E0A6091051F81E0623018F0683218F0B9
:104D20008FEF80931A0A80911A0A680F6093051F0B
:104D300070E08CE00E9450020E94C505EBCE893FD6
:104D4000FAE29F07A105B10558F480931B0A9093DE
:104D50001C0AA0931D0AB0931E0A0E94E617DACE21
:104D600010921B0A10921C0A10921D0A10921E0A21
:104D70006091051F81E0623018F0683218F08FEF03
:104D800080931A0A80911A0A680F6093051F70E0D9
:104D90008DE00E9450020E94EA05DFCFE091551E8F
:104DA000F091561ECF010196F1CE81E090E049CFFF
:104DB00020914D1E30914E1E2E5F3F4F30934E1E60
:104DC00020934D1E59CF80913F1E9091401E029618
:104DD00069CF2091371E3091381E2C3F91E0390762
:104DE00008F0B5CE80911A022115310529F48E3FC5
:104DF00019F410931A02ABCE811144C01B3D19F473
:104E00003092361EA4CE8091361E882349F01C3D78
:104E100021F01D3D19F41BED01C010EC1092361E5F
:104E200080915D1E883108F092CE8091451E909150
:104E3000461E8115944108F08ACE8091451E9091BE
:104E4000461E01969093461E8093451E8091411EFA
:104E50009091421E9C012F5F3F4F3093421E209342
:104E6000411E8A5C954FFC0110838091411E9091F8
:104E7000421E8115944109F06ACE1092421E109292
:104E8000411E65CE813009F04AC01B3DD9F48093A4
:104E9000361E8091371E9091381E049709F057CE28
:104EA00060912C0A70912D0A80912E0A90912F0A00
:104EB0000E94FB2C6115710581059105D9F40E94B2
:104EC000630545CE8091361E882349F01C3D21F0B4
:104ED0001D3D19F41BED01C010EC1092361EC901E6
:104EE00001969093381E8093371E245D354FD9016B
:104EF0001C93CFCF6093280A7093290A80932A0AC3
:104F000090932B0A209119022131C9F620915E1E3F
:104F10002223A9F20E9495170E946519D0CF8230F2
:104F200009F048C01B3DD9F43092361E8091371EDF
:104F30009091381E049709F00ACE60912C0A709166
:104F40002D0A80912E0A90912F0A0E94FB2C611548
:104F5000710581059105D9F40E948505F8CD8091F0
:104F6000361E882349F01C3D21F01D3D19F41BED30
:104F700001C010EC1092361EC90101969093381EA4
:104F80008093371E245D354FF9011083CFCF609396
:104F9000240A7093250A8093260A9093270A809109
:104FA00019028131C9F680915E1E8823A9F20E9400
:104FB0009E19D2CF8330C9F41F3F19F40E94120505
:104FC000C6CD123108F011E1812F90E090931802C4
:104FD0008093170280911902813181F780915E1EC2
:104FE000882361F30E945D1CE9CF8430F9F41F3FF0
:104FF00019F40E942C05ABCD86E090E0163038F015
:10500000812F90E08D30910514F08CE090E090932A
:10501000230A8093220A20911902213151F720910D
:105020005E1E222331F30E94C618E3CF8530F9F4C7
:105030001F3F19F40E941F058ACD85E090E01530CE
:1050400038F0812F90E08930910514F088E090E0ED
:10505000909316028093150220911902213151F785
:1050600020915E1E222331F30E940419E3CF893080
:1050700089F41093200A112351F030921F0A80EC1A
:105080000E94DF0489E00E94DF04812F51C010924A
:105090001F0AF5CF8A3051F41F3F09F058CDB09266
:1050A0001402A09213022092120251CD863081F494
:1050B0001F3F19F40E9439054ACD111103C00E9407
:1050C000E617F8CF113009F042CD0E94B91CF2CF9B
:1050D0008132B1F480EC0E94DF0481E20E94DF049F
:1050E00080E00E94550580E00E94550580E00E9406
:1050F000550580E00E94550580EC0E94DF0427CD15
:10510000823229F480EC0E94DF0482E2E7CF83320E
:1051100019F40E94B4051BCD873069F40E94B304D2
:1051200080EC0E94DF0487E00E94DF04809111027E
:105130000E94DF04E1CF803329F4812F90E00E94A8
:10514000EE0505CD803481F480915E1E10E0882349
:1051500031F06CE286E09FE10E940218182F80EC8B
:105160000E94DF0480E48FCF883059F4133709F0B0
:10517000EECC80EC0E94DF0488E00E94DF0486E42D
:10518000D7CF8E30A9F4113071F41093210A80EC3E
:105190000E94DF048EE00E94DF048091210A8823B0
:1051A00009F181E0C5CF1111F2CF1092210AEFCFA2
:1051B0008F30D1F480915D1E883170F48091451E4E
:1051C0009091461E8115944138F480EC0E94DF04D2
:1051D0008FE00E94DF04E5CF80EC0E94DF048FE0C7
:1051E0000E94DF0480E0A4CF8935A9F4183F09F0BC
:1051F000AECC82E390E00E942C0608E31FE06FEF44
:10520000C8010E94F2200F5F1F4F011520E1120715
:10521000B1F70E94E320853521F4183F09F097CCBF
:10522000F8CF8135A1F480EC0E94DF0481E50E9473
:10523000DF0408E31FE0C8010E94581E0E945505C4
:105240000F5F1F4F011530E11307A9F755CF8235C6
:10525000D9F51B3DE9F43092361E8091371E9091AE
:10526000381E029709F073CC00912D0A10912C0A78
:1052700083ED9FE00E94581E833711F1183C00F522
:10528000812F90E0602F885C904F0E94F2205FCCCD
:105290008091361E882349F01C3D21F01D3D19F4F4
:1052A0001BED01C010EC1092361EC90101969093BF
:1052B000381E8093371E245D354FD9011C93CDCF06
:1052C00083E00E94460543CC803559F480EC0E946F
:1052D000DF0480E50E94DF0481E00E94DF0482E3B6
:1052E00027CF883441F480EC0E94DF0488E40E94D8
:1052F000DF0480E91DCF893441F480EC0E94DF0493
:1053000089E40E94DF0482E913CF873429F480EC1A
:105310000E94DF0487E4E1CF833509F093C08091D8
:10532000591E882309F489C080915E1E882309F4E0
:1053300084C06091220A84ED9FE00E94F220609177
:10534000150285ED9FE00E94F2206091170286ED24
:105350009FE00E94F2206091240A7091250A8091BA
:10536000260A9091270A692F77278827992787EDA2
:105370009FE00E94F2206091240A7091250A80919A
:10538000260A9091270ABC018827992788ED9FE07B
:105390000E94F2206091240A7091250A8091260AC9
:1053A0009091270A672F782F892F992789ED9FE001
:1053B0000E94F2206091240A8AED9FE00E94F22070
:1053C0006091280A7091290A80912A0A90912B0AEB
:1053D000692F7727882799278BED9FE00E94F2207D
:1053E0006091280A7091290A80912A0A90912B0ACB
:1053F000BC01882799278CED9FE00E94F2206091E4
:10540000280A7091290A80912A0A90912B0A672F05
:10541000782F892F99278DED9FE00E94F2206091CF
:10542000280A8EED9FE00E94F22063E78FED9FE057
:105430000E94F2208AE090E082CE8AE090E00E9412
:10544000CD0585CB843521F460E08FED9FE01DCF45
:10545000813409F47CCB8334D9F41B3D09F4D0CCDE
:105460008091361E882349F01C3D21F01D3D19F422
:105470001BED01C010EC1092361EC90101969093ED
:10548000381E8093371E245D354FF90110835FCBA2
:10549000823409F05CCB112309F459CB80EC0E94D3
:1054A000DF0482E40E94DF048FEF42CE1092501E90
:1054B0000E948204F3C9103C09F049CB30924F1E80
:1054C0008EEF80931A021092381E1092371E3FCB37
:1054D0008F929F92AF92BF92CF92DF92EF92FF9204
:1054E000CF93DF93EC01688179818A819B8161157B
:1054F00071058105910521F464E279ED8BE597E072
:105500002DE133EF41E050E00E94462C49015A0161
:105510009B01AC01A7EAB1E40E94652C6B017C0100
:10552000ACEEB4EFA50194010E94732CC60ED71EF9
:10553000E81EF91EF7FE06C081E0C81AD108E1088E
:1055400080E8F80AC882D982EA82FB82C701B601E4
:105550009F77DF91CF91FF90EF90DF90CF90BF903A
:10556000AF909F908F9008958F929F92AF92BF922D
:10557000CF92DF92EF92FF9260911B0270911C021A
:1055800080911D0290911E026115710581059105A2
:1055900021F464E279ED8BE597E02DE133EF41E012
:1055A00050E00E94462C49015A019B01AC01A7EA38
:1055B000B1E40E94652C6B017C01ACEEB4EFA50157
:1055C00094010E94732CC60ED71EE81EF91EF7FE2A
:1055D00006C081E0C81AD108E10880E8F80AC09244
:1055E0001B02D0921C02E0921D02F0921E02C70123
:1055F000B6019F77FF90EF90DF90CF90BF90AF9074
:105600009F908F90089560931B0270931C0280936B
:105610001D0290931E0208950E944E2B08F481E013
:105620000895E89409C097FB3EF490958095709595
:1056300061957F4F8F4F9F4F9923A9F0F92F96E9DE
:10564000BB279395F695879577956795B795F11153
:10565000F8CFFAF4BB0F11F460FF1BC06F5F7F4FF0
:105660008F4F9F4F16C0882311F096E911C0772302
:1056700021F09EE8872F762F05C0662371F096E80B
:10568000862F70E060E02AF09A95660F771F881FDA
:10569000DAF7880F9695879597F90895990F00087E
:1056A000550FAA0BE0E8FEEF16161706E807F907F4
:1056B000C0F012161306E407F50798F0621B730B8F
:1056C000840B950B39F40A2661F0232B242B252B10
:1056D00021F408950A2609F4A140A6958FEF811DB3
:1056E000811D08950E94852B0C94F62B0E94E82BB7
:1056F00038F00E94EF2B20F0952311F00C94DF2B53
:105700000C94E52B11240C942A2C0E94072C70F386
:10571000959FC1F3950F50E0551F629FF001729F56
:10572000BB27F00DB11D639FAA27F00DB11DAA1F65
:10573000649F6627B00DA11D661F829F2227B00DB2
:10574000A11D621F739FB00DA11D621F839FA00D3D
:10575000611D221F749F3327A00D611D231F849F8D
:10576000600D211D822F762F6A2F11249F575040E4
:105770009AF0F1F088234AF0EE0FFF1FBB1F661F5F
:10578000771F881F91505040A9F79E3F510580F028
:105790000C94DF2B0C942A2C5F3FE4F3983ED4F357
:1057A000869577956795B795F795E7959F5FC1F7CC
:1057B000FE2B880F911D9695879597F9089597F977
:1057C0009F6780E870E060E008959FEF80EC0895A7
:1057D00000240A94161617061806090608950024D0
:1057E0000A9412161306140605060895092E03944A
:1057F000000C11F4882352F0BB0F40F4BF2B11F4BE
:1058000060FF04C06F5F7F4F8F4F9F4F089557FD1C
:105810009058440F551F59F05F3F71F04795880F1E
:1058200097FB991F61F09F3F79F0879508951216B5
:1058300013061406551FF2CF4695F1DF08C0161661
:1058400017061806991FF1CF869571056105089412
:105850000895E894BB2766277727CB0197F9089529
:10586000F999FECF92BD81BDF89A992780B5089528
:10587000262FF999FECF1FBA92BD81BD20BD0FB66C
:10588000F894FA9AF99A0FBE01960895052E97FB9F
:105890001EF400940E945D2C57FD07D00E94782CC6
:1058A00007FC03D04EF40C945D2C50954095309538
:1058B00021953F4F4F4F5F4F08959095809570957C
:1058C00061957F4F8F4F9F4F08950E949A2CA59FFF
:1058D000900DB49F900DA49F800D911D11240895EB
:1058E000B7FF0C94652C0E94652C821B930B0895C6
:1058F000A1E21A2EAA1BBB1BFD010DC0AA1FBB1FD4
:10590000EE1FFF1FA217B307E407F50720F0A21B45
:10591000B30BE40BF50B661F771F881F991F1A94B2
:1059200069F760957095809590959B01AC01BD01DC
:10593000CF010895A29FB001B39FC001A39F700D36
:10594000811D1124911DB29F700D811D1124911D87
:1059500008950E94B02C6894B1110C942A2C0895DB
:105960000E940F2C88F09F5798F0B92F9927B751B4
:10597000B0F0E1F0660F771F881F991F1AF0BA95F3
:10598000C9F714C0B13091F00E94292CB1E00895FC
:105990000C94292C672F782F8827B85F39F0B93FEE
:1059A000CCF3869577956795B395D9F73EF49095A6
:1059B0008095709561957F4F8F4F9F4F0895AA1BDB
:1059C000BB1B51E107C0AA1FBB1FA617B70710F0EA
:1059D000A61BB70B881F991F5A95A9F7809590951C
:1059E000BC01CD010895EE0FFF1F881F8BBF0790EC
:1059F000F691E02D1994692796276927782787273C
:105A000078270895E894DF93CF93FC01DB010E948F
:105A10009A2C7F936F93E9019A01AC01BF93AF93E6
:105A20003F932F93DF010E949A2C26F46C1B7D0B71
:105A3000820B930B9E01EB01FC010E94C22DAF91E2
:105A4000BF912F913F910E94C22DBE01CF01F9015C
:105A50002F913F91CF91DF910895689401C0E89410
:105A60008F929F92CF93DF930E943B2DDF91CF9136
:105A70009F908F90089588249924F401E401B0E464
:105A80009F93AA279A158B049C04ED05FE05CF056C
:105A9000D007A10798F4AD2FDC2FCF2FFE2FE92DD3
:105AA000982C892E982F872F762F652F542F432FD0
:105AB000322F2227B85031F7BF9127C01B2EBF913C
:105AC000BB27220F331F441F551F661F771F881FD8
:105AD000991F881C991CEE1FFF1FCC1FDD1FAA1FDA
